{
  "_format": "hh-sol-artifact-1",
  "contractName": "EventManagement",
  "sourceName": "contracts/EventManagement.sol",
  "abi": [
    {
      "inputs": [],
      "name": "EmptyEventName",
      "type": "error"
    },
    {
      "inputs": [],
      "name": "EventNotFound",
      "type": "error"
    },
    {
      "inputs": [],
      "name": "InvalidPrizeCount",
      "type": "error"
    },
    {
      "inputs": [],
      "name": "InvalidTimeRange",
      "type": "error"
    },
    {
      "inputs": [],
      "name": "InvalidTimeSequence",
      "type": "error"
    },
    {
      "inputs": [],
      "name": "StringTooLong",
      "type": "error"
    },
    {
      "inputs": [],
      "name": "Unauthorized",
      "type": "error"
    },
    {
      "anonymous": false,
      "inputs": [
        {
          "indexed": true,
          "internalType": "uint256",
          "name": "eventId",
          "type": "uint256"
        },
        {
          "indexed": false,
          "internalType": "string",
          "name": "name",
          "type": "string"
        },
        {
          "indexed": true,
          "internalType": "address",
          "name": "organizer",
          "type": "address"
        },
        {
          "indexed": false,
          "internalType": "uint256",
          "name": "startTime",
          "type": "uint256"
        },
        {
          "indexed": false,
          "internalType": "uint256",
          "name": "endTime",
          "type": "uint256"
        }
      ],
      "name": "EventCreated",
      "type": "event"
    },
    {
      "anonymous": false,
      "inputs": [
        {
          "indexed": true,
          "internalType": "uint256",
          "name": "eventId",
          "type": "uint256"
        },
        {
          "indexed": false,
          "internalType": "enum EventManagement.EventStage",
          "name": "oldStage",
          "type": "uint8"
        },
        {
          "indexed": false,
          "internalType": "enum EventManagement.EventStage",
          "name": "newStage",
          "type": "uint8"
        }
      ],
      "name": "EventStageUpdated",
      "type": "event"
    },
    {
      "anonymous": false,
      "inputs": [
        {
          "indexed": true,
          "internalType": "uint256",
          "name": "eventId",
          "type": "uint256"
        },
        {
          "indexed": false,
          "internalType": "string",
          "name": "name",
          "type": "string"
        }
      ],
      "name": "EventUpdated",
      "type": "event"
    },
    {
      "inputs": [],
      "name": "MAX_PRIZES",
      "outputs": [
        {
          "internalType": "uint256",
          "name": "",
          "type": "uint256"
        }
      ],
      "stateMutability": "view",
      "type": "function"
    },
    {
      "inputs": [],
      "name": "MAX_STRING_LENGTH",
      "outputs": [
        {
          "internalType": "uint256",
          "name": "",
          "type": "uint256"
        }
      ],
      "stateMutability": "view",
      "type": "function"
    },
    {
      "inputs": [
        {
          "internalType": "string",
          "name": "_name",
          "type": "string"
        },
        {
          "internalType": "string",
          "name": "_description",
          "type": "string"
        },
        {
          "internalType": "string",
          "name": "_location",
          "type": "string"
        },
        {
          "internalType": "uint256",
          "name": "_startTime",
          "type": "uint256"
        },
        {
          "internalType": "uint256",
          "name": "_endTime",
          "type": "uint256"
        },
        {
          "internalType": "uint256",
          "name": "_registrationStartTime",
          "type": "uint256"
        },
        {
          "internalType": "uint256",
          "name": "_registrationEndTime",
          "type": "uint256"
        },
        {
          "internalType": "uint256",
          "name": "_checkInStartTime",
          "type": "uint256"
        },
        {
          "internalType": "uint256",
          "name": "_checkInEndTime",
          "type": "uint256"
        },
        {
          "internalType": "uint256",
          "name": "_submissionStartTime",
          "type": "uint256"
        },
        {
          "internalType": "uint256",
          "name": "_submissionEndTime",
          "type": "uint256"
        },
        {
          "internalType": "uint256",
          "name": "_votingStartTime",
          "type": "uint256"
        },
        {
          "internalType": "uint256",
          "name": "_votingEndTime",
          "type": "uint256"
        },
        {
          "internalType": "bool",
          "name": "_allowSponsorVoting",
          "type": "bool"
        },
        {
          "internalType": "bool",
          "name": "_allowPublicVoting",
          "type": "bool"
        },
        {
          "components": [
            {
              "internalType": "uint256",
              "name": "rank",
              "type": "uint256"
            },
            {
              "internalType": "string",
              "name": "name",
              "type": "string"
            },
            {
              "internalType": "string",
              "name": "description",
              "type": "string"
            },
            {
              "internalType": "string",
              "name": "amount",
              "type": "string"
            }
          ],
          "internalType": "struct EventManagement.Prize[]",
          "name": "_prizes",
          "type": "tuple[]"
        }
      ],
      "name": "createEvent",
      "outputs": [
        {
          "internalType": "uint256",
          "name": "",
          "type": "uint256"
        }
      ],
      "stateMutability": "nonpayable",
      "type": "function"
    },
    {
      "inputs": [],
      "name": "eventCounter",
      "outputs": [
        {
          "internalType": "uint256",
          "name": "",
          "type": "uint256"
        }
      ],
      "stateMutability": "view",
      "type": "function"
    },
    {
      "inputs": [
        {
          "internalType": "uint256",
          "name": "_eventId",
          "type": "uint256"
        }
      ],
      "name": "eventExists",
      "outputs": [
        {
          "internalType": "bool",
          "name": "",
          "type": "bool"
        }
      ],
      "stateMutability": "view",
      "type": "function"
    },
    {
      "inputs": [
        {
          "internalType": "uint256",
          "name": "",
          "type": "uint256"
        },
        {
          "internalType": "uint256",
          "name": "",
          "type": "uint256"
        }
      ],
      "name": "eventPrizes",
      "outputs": [
        {
          "internalType": "uint256",
          "name": "rank",
          "type": "uint256"
        },
        {
          "internalType": "string",
          "name": "name",
          "type": "string"
        },
        {
          "internalType": "string",
          "name": "description",
          "type": "string"
        },
        {
          "internalType": "string",
          "name": "amount",
          "type": "string"
        }
      ],
      "stateMutability": "view",
      "type": "function"
    },
    {
      "inputs": [
        {
          "internalType": "uint256",
          "name": "",
          "type": "uint256"
        }
      ],
      "name": "events",
      "outputs": [
        {
          "internalType": "uint256",
          "name": "id",
          "type": "uint256"
        },
        {
          "internalType": "string",
          "name": "name",
          "type": "string"
        },
        {
          "internalType": "string",
          "name": "description",
          "type": "string"
        },
        {
          "internalType": "string",
          "name": "location",
          "type": "string"
        },
        {
          "internalType": "uint256",
          "name": "startTime",
          "type": "uint256"
        },
        {
          "internalType": "uint256",
          "name": "endTime",
          "type": "uint256"
        },
        {
          "internalType": "uint256",
          "name": "registrationStartTime",
          "type": "uint256"
        },
        {
          "internalType": "uint256",
          "name": "registrationEndTime",
          "type": "uint256"
        },
        {
          "internalType": "uint256",
          "name": "checkInStartTime",
          "type": "uint256"
        },
        {
          "internalType": "uint256",
          "name": "checkInEndTime",
          "type": "uint256"
        },
        {
          "internalType": "uint256",
          "name": "submissionStartTime",
          "type": "uint256"
        },
        {
          "internalType": "uint256",
          "name": "submissionEndTime",
          "type": "uint256"
        },
        {
          "internalType": "uint256",
          "name": "votingStartTime",
          "type": "uint256"
        },
        {
          "internalType": "uint256",
          "name": "votingEndTime",
          "type": "uint256"
        },
        {
          "internalType": "enum EventManagement.EventStage",
          "name": "currentStage",
          "type": "uint8"
        },
        {
          "internalType": "address",
          "name": "organizer",
          "type": "address"
        },
        {
          "internalType": "bool",
          "name": "allowSponsorVoting",
          "type": "bool"
        },
        {
          "internalType": "bool",
          "name": "allowPublicVoting",
          "type": "bool"
        },
        {
          "internalType": "bool",
          "name": "exists",
          "type": "bool"
        }
      ],
      "stateMutability": "view",
      "type": "function"
    },
    {
      "inputs": [
        {
          "internalType": "uint256",
          "name": "_eventId",
          "type": "uint256"
        }
      ],
      "name": "getEvent",
      "outputs": [
        {
          "components": [
            {
              "internalType": "uint256",
              "name": "id",
              "type": "uint256"
            },
            {
              "internalType": "string",
              "name": "name",
              "type": "string"
            },
            {
              "internalType": "string",
              "name": "description",
              "type": "string"
            },
            {
              "internalType": "string",
              "name": "location",
              "type": "string"
            },
            {
              "internalType": "uint256",
              "name": "startTime",
              "type": "uint256"
            },
            {
              "internalType": "uint256",
              "name": "endTime",
              "type": "uint256"
            },
            {
              "internalType": "uint256",
              "name": "registrationStartTime",
              "type": "uint256"
            },
            {
              "internalType": "uint256",
              "name": "registrationEndTime",
              "type": "uint256"
            },
            {
              "internalType": "uint256",
              "name": "checkInStartTime",
              "type": "uint256"
            },
            {
              "internalType": "uint256",
              "name": "checkInEndTime",
              "type": "uint256"
            },
            {
              "internalType": "uint256",
              "name": "submissionStartTime",
              "type": "uint256"
            },
            {
              "internalType": "uint256",
              "name": "submissionEndTime",
              "type": "uint256"
            },
            {
              "internalType": "uint256",
              "name": "votingStartTime",
              "type": "uint256"
            },
            {
              "internalType": "uint256",
              "name": "votingEndTime",
              "type": "uint256"
            },
            {
              "internalType": "enum EventManagement.EventStage",
              "name": "currentStage",
              "type": "uint8"
            },
            {
              "internalType": "address",
              "name": "organizer",
              "type": "address"
            },
            {
              "internalType": "bool",
              "name": "allowSponsorVoting",
              "type": "bool"
            },
            {
              "internalType": "bool",
              "name": "allowPublicVoting",
              "type": "bool"
            },
            {
              "internalType": "bool",
              "name": "exists",
              "type": "bool"
            }
          ],
          "internalType": "struct EventManagement.Event",
          "name": "",
          "type": "tuple"
        }
      ],
      "stateMutability": "view",
      "type": "function"
    },
    {
      "inputs": [],
      "name": "getEventCount",
      "outputs": [
        {
          "internalType": "uint256",
          "name": "",
          "type": "uint256"
        }
      ],
      "stateMutability": "view",
      "type": "function"
    },
    {
      "inputs": [
        {
          "internalType": "uint256",
          "name": "_eventId",
          "type": "uint256"
        }
      ],
      "name": "getEventPrizes",
      "outputs": [
        {
          "components": [
            {
              "internalType": "uint256",
              "name": "rank",
              "type": "uint256"
            },
            {
              "internalType": "string",
              "name": "name",
              "type": "string"
            },
            {
              "internalType": "string",
              "name": "description",
              "type": "string"
            },
            {
              "internalType": "string",
              "name": "amount",
              "type": "string"
            }
          ],
          "internalType": "struct EventManagement.Prize[]",
          "name": "",
          "type": "tuple[]"
        }
      ],
      "stateMutability": "view",
      "type": "function"
    },
    {
      "inputs": [
        {
          "internalType": "uint256",
          "name": "_eventId",
          "type": "uint256"
        },
        {
          "internalType": "string",
          "name": "_name",
          "type": "string"
        },
        {
          "internalType": "string",
          "name": "_description",
          "type": "string"
        },
        {
          "internalType": "string",
          "name": "_location",
          "type": "string"
        }
      ],
      "name": "updateEvent",
      "outputs": [],
      "stateMutability": "nonpayable",
      "type": "function"
    },
    {
      "inputs": [
        {
          "internalType": "uint256",
          "name": "_eventId",
          "type": "uint256"
        },
        {
          "internalType": "enum EventManagement.EventStage",
          "name": "_newStage",
          "type": "uint8"
        }
      ],
      "name": "updateStage",
      "outputs": [],
      "stateMutability": "nonpayable",
      "type": "function"
    }
  ],
  "bytecode": "0x6080806040523461001657611d38908161001c8239f35b600080fdfe6080604052600436101561001257600080fd5b60003560e01c806303f8160714611625578063074fbdd4146114b45780630b7914301461135b57806334ccc5ea1461133e5780633fa41c0c1461132257806352c55db9146101895780636d1884e014611032578063a3c28dfc14610ffb578063a7caa58d14610249578063d860ba81146101a7578063d9e48f5c146101895763f405c96b146100a057600080fd5b346101845760403660031901126101845760043560243560068110156101845781600052600060205260ff600e6040600020015460b81c1615610172576000828152602081905260409020600e015460081c6001600160a01b031633036101615760407f14b258e3e2af0b646709d2afc68a0dfed5588f8dcee578b84a682e0ac47271159183600052600060205261015e600e8360002001916101488160ff85541694611cea565b61015484518094611c5b565b6020830190611c5b565ba2005b6040516282b42960e81b8152600490fd5b604051635add554360e01b8152600490fd5b600080fd5b34610184576000366003190112610184576020600254604051908152f35b346101845760403660031901126101845760243560043560005260016020526040600020908154811015610184576101de91611c7f565b5080546102456101f060018401611bb5565b9261023761020c600361020560028501611bb5565b9301611bb5565b916102296040519687968752608060208801526080870190611b3b565b908582036040870152611b3b565b908382036060850152611b3b565b0390f35b3461018457610200366003190112610184576004356001600160401b0381116101845761027a903690600401611ae5565b6024356001600160401b03811161018457610299903690600401611ae5565b6044356001600160401b038111610184576102b8903690600401611ae5565b916101a435928315158403610184576101c435928315158403610184576001600160401b036101e43511610184573660236101e435011215610184576101e435600401359361030685611c68565b946103146040519687611ac4565b80865260208601903660248260051b6101e4350101116101845760246101e43501915b60248260051b6101e43501018310610f115750505083511561047b576101f4845111610435576064356084351115610eff576101f48251118015610ef3575b6104355760643560a435108015610ee6575b8015610ed9575b8015610ecb575b8015610ebd575b8015610eaf575b8015610ea1575b8015610e93575b610e525760a43560c43511801590610e84575b8015610e74575b8015610e64575b610e52576032855111610e405760005b855181101561048c5760206103f88288611cd6565b510151511561047b576101f460206104108389611cd6565b51015151118015610461575b8015610447575b6104355761043090611cb1565b6103e3565b604051631623655b60e31b8152600490fd5b506101f460606104578389611cd6565b5101515111610423565b506101f460406104718389611cd6565b510151511161041c565b60405162c8000560e81b8152600490fd5b509091929461049c600254611cb1565b9384600255604051936104ae85611aa8565b85855287602086015260408501526060840152606435608084015260843560a084015260a43560c084015260c43560e084015260e43561010084015261010435610120840152610124356101408401526101443561016084015261016435610180840152610184356101a084015260006101c0840152336101e08401521515610200830152151561022082015260016102408201528160005260006020526040600020908051825560208101518051906001600160401b0382116109a057819061057b6001860154611b7b565b601f8111610ded575b50602090601f8311600114610d7b57600092610d70575b50508160011b916000199060031b1c19161760018301555b60408101518051906001600160401b0382116109a05781906105d86002860154611b7b565b601f8111610d1d575b50602090601f8311600114610cab57600092610ca0575b50508160011b916000199060031b1c19161760028301555b60608101518051906001600160401b0382116109a05781906106356003860154611b7b565b601f8111610c4d575b50602090601f8311600114610bdb57600092610bd0575b50508160011b916000199060031b1c19161760038301555b6080810151600483015560a0810151600583015560c0810151600683015560e0810151600783015561010081015160088301556101208101516009830155610140810151600a830155610160810151600b830155610180810151600c8301556101a0810151600d8301556101c0810151916006831015610bba57600e6106f591019283611cea565b6101e0810151825461020083015161022084015161024090940151610100600160c01b031990921660089390931b610100600160a81b03169290921791151560a81b60ff60a81b169190911791151560b01b60ff60b01b169190911790151560b81b60ff60b81b1617905560005b8251811015610b615781600052600160205260406000206107848285611cd6565b51908054680100000000000000008110156109a0576107a891600182018155611c7f565b919091610b4b578051825560208101518051906001600160401b0382116109a05781906107d86001860154611b7b565b601f8111610af8575b50602090601f8311600114610a8657600092610a7b575b50508160011b916000199060031b1c19161760018301555b60408101518051906001600160401b0382116109a0576108336002850154611b7b565b601f8111610a34575b50602090601f83116001146109c1576060939291600091836109b6575b50508160011b916000199060031b1c19161760028401555b01518051906001600160401b0382116109a0576108916003840154611b7b565b601f8111610959575b50602090601f83116001146108e55791806003926108d59695946000926108da575b50508160011b9160001990841b1c191617910155611cb1565b610763565b0151905089806108bc565b906003840160005260206000209160005b601f19851681106109415750926003926001926108d597969583601f19811610610929575b505050811b01910155611cb1565b015160001983861b60f8161c1916905589808061091b565b919260206001819286850151815501940192016108f6565b600384016000526020600020601f840160051c810160208510610999575b601f830160051c8201811061098d57505061089a565b60008155600101610977565b5080610977565b634e487b7160e01b600052604160045260246000fd5b015190508980610859565b906002850160005260206000209160005b601f1985168110610a1c575091839160019360609695601f19811610610a03575b505050811b016002840155610871565b015160001960f88460031b161c191690558980806109f3565b919260206001819286850151815501940192016109d2565b600285016000526020600020601f840160051c810160208510610a74575b601f830160051c82018110610a6857505061083c565b60008155600101610a52565b5080610a52565b0151905088806107f8565b9250600185016000526020600020906000935b601f1984168510610add576001945083601f19811610610ac4575b505050811b016001830155610810565b015160001960f88460031b161c19169055888080610ab4565b81810151835560209485019460019093019290910190610a99565b909150600185016000526020600020601f840160051c810160208510610b44575b90849392915b601f830160051c82018110610b355750506107e1565b60008155859450600101610b1f565b5080610b19565b634e487b7160e01b600052600060045260246000fd5b60208285817f81f945738beff591c3eab232e9f3265ce3f12263a2ec7acf84db8dc0fce26a27610b9c60405193606085526060850190611b3b565b926064358682015260843560408201528033940390a3604051908152f35b634e487b7160e01b600052602160045260246000fd5b015190508780610655565b9250600385016000526020600020906000935b601f1984168510610c32576001945083601f19811610610c19575b505050811b01600383015561066d565b015160001960f88460031b161c19169055878080610c09565b81810151835560209485019460019093019290910190610bee565b909150600385016000526020600020601f840160051c810160208510610c99575b90849392915b601f830160051c82018110610c8a57505061063e565b60008155859450600101610c74565b5080610c6e565b0151905087806105f8565b9250600285016000526020600020906000935b601f1984168510610d02576001945083601f19811610610ce9575b505050811b016002830155610610565b015160001960f88460031b161c19169055878080610cd9565b81810151835560209485019460019093019290910190610cbe565b909150600285016000526020600020601f840160051c810160208510610d69575b90849392915b601f830160051c82018110610d5a5750506105e1565b60008155859450600101610d44565b5080610d3e565b01519050878061059b565b9250600185016000526020600020906000935b601f1984168510610dd2576001945083601f19811610610db9575b505050811b0160018301556105b3565b015160001960f88460031b161c19169055878080610da9565b81810151835560209485019460019093019290910190610d8e565b909150600185016000526020600020601f840160051c810160208510610e39575b90849392915b601f830160051c82018110610e2a575050610584565b60008155859450600101610e14565b5080610e0e565b6040516305c0101360e41b8152600490fd5b604051630fae693760e31b8152600490fd5b50610164356101843511156103d3565b50610124356101443511156103cc565b5060e4356101043511156103c5565b5060843561018435116103b2565b5060643561016435106103ab565b5060843561014435116103a4565b50606435610124351061039d565b506084356101043511610396565b5060643560e4351061038f565b5060843560c43511610388565b506101f4835111610376565b60405163536a71af60e01b8152600490fd5b82356001600160401b0381116101845760806101e4358201360360231901126101845760405190610f4182611a8d565b6101e4358101602481013583526001600160401b036044909101351161018457610f79366101e4358301604481013501602401611ae5565b60208301526001600160401b036064826101e4350101351161018457610fad366101e4358301606481013501602401611ae5565b60408301526001600160401b036084826101e43501013511610184576024926020928392610fe99036906101e435016084810135018701611ae5565b60608201528152019301929050610337565b34610184576020366003190112610184576004356000526000602052602060ff600e6040600020015460b81c166040519015158152f35b3461018457602036600319011261018457600061024060405161105481611aa8565b82815260606020820152606060408201526060808201528260808201528260a08201528260c08201528260e08201528261010082015282610120820152826101408201528261016082015282610180820152826101a0820152826101c0820152826101e082015282610200820152826102208201520152600435600052600060205260ff600e6040600020015460b81c16156101725760043560005260006020526040600020600e6040519161110983611aa8565b8054835261111960018201611bb5565b602084015261112a60028201611bb5565b604084015261113b60038201611bb5565b606084015260048101546080840152600581015460a0840152600681015460c0840152600781015460e084015260088101546101008401526009810154610120840152600a810154610140840152600b810154610160840152600c810154610180840152600d8101546101a08401520154600660ff82161015610bba578060ff8092166101c084015260018060a01b038160081c166101e0840152818160a81c161515610200840152818160b01c16151561022084015260b81c1615156102408201526040518091602082528051602083015261024061126061122f60208401516102606040870152610280860190611b3b565b61124b604085015191601f199283888303016060890152611b3b565b90606085015190868303016080870152611b3b565b91608081015160a085015260a081015160c085015260c081015160e085015260e08101516101008501526101008101516101208501526101208101516101408501526101408101516101608501526101608101516101808501526101808101516101a08501526101a08101516101c08501526112e66101c08201516101e0860190611c5b565b60018060a01b036101e0820151166102008501526102008101511515610220850152610220810151151582850152015115156102608301520390f35b3461018457600036600319011261018457602060405160328152f35b346101845760003660031901126101845760206040516101f48152f35b3461018457602036600319011261018457600435600052600060205260406000208054906001810161138c90611bb5565b9061139960028201611bb5565b6113a560038301611bb5565b916004810154926005820154600683015460078401546008850154600986015491600a87015493600b88015495600c89015497600d8a015499600e01549a6040519e8f9e8f918252610260806020840152820161140191611b3b565b90808203906040015261141391611b3b565b8d810360608f015261142491611b3b565b9a60808d015260a08c015260c08b015260e08a01526101008901526101208801526101408701526101608601526101808501526101a08401526101c0830160ff82169061147091611c5b565b600160a01b600190038160081c166101e08401528060a81c60ff1615156102008401528060b01c60ff16151561022084015260b81c60ff1615156102408301520390f35b346101845760208060031936011261018457600435806000526000825260ff600e6040600020015460b81c16156101725760005260019081815260406000209182549161150083611c68565b9261150e6040519485611ac4565b8084528184018095600052826000206000915b8383106115c65750505050604051928184019082855251809152604084019160408260051b86010195926000905b83821061155c5786880387f35b909192939483806115b5839a603f198b82030186528951805182526115a26115908583015160808088870152850190611b3b565b60408301518482036040860152611b3b565b9160608092015191818403910152611b3b565b99970195949391909101910161154f565b946004858299976040999799516115dc81611a8d565b855481526115eb858701611bb5565b838201526115fb60028701611bb5565b604082015261160c60038701611bb5565b6060820152815201920192019190969496959395611521565b34610184576080366003190112610184576001600160401b0360043560243582811161018457611659903690600401611ae5565b60443583811161018457611671903690600401611ae5565b926064358181116101845761168a903690600401611ae5565b836000526020916000835260ff600e6040600020015460b81c161561017257600085815280845260409020600e015460081c6001600160a01b031633036101615783511561047b576101f480855111908115611a81575b8115611a76575b50610435578460005260008352600180604060002001968551978389116109a0576117138154611b7b565b98601f998a8111611a30575b5080878b82116001146119ce576000916119c3575b50600019600383901b1c191690841b1790555b86600052600085526002604060002001908051908482116109a057819061176e8454611b7b565b8b8111611972575b5087908b831160011461190f57600092611904575b5050600019600383901b1c191690831b1790555b856000526000845260036040600020019280519283116109a0576117c38454611b7b565b8881116118be575b508497831160011461183c5782917f0c21d47f606573d65eedb6ee084e32d784cfcd5ce32240b22f19de37d6b4096997988392600094611831575b50501b916000199060031b1c19161790555b61182c604051928284938452830190611b3b565b0390a2005b015192508980611806565b601f9291921982169784600052856000209160005b8a81106118a95750837f0c21d47f606573d65eedb6ee084e32d784cfcd5ce32240b22f19de37d6b40969999a10611890575b505050811b019055611818565b015160001960f88460031b161c19169055878080611883565b81830151845592850192918701918701611851565b84600052856000208980860160051c8201928887106118fb575b0160051c019083905b8281106118ef5750506117cb565b600081550183906118e1565b925081926118d8565b015190508a8061178b565b90859350601f1983169185600052896000209260005b8b82821061195c5750508411611943575b505050811b01905561179f565b015160001960f88460031b161c191690558a8080611936565b8385015186558997909501949384019301611925565b90915083600052876000208b80850160051c8201928a86106119ba575b918791869594930160051c01915b8281106119ab575050611776565b6000815585945087910161199d565b9250819261198f565b90508801518b611734565b859250601f1982169084600052896000209160005b8b8d838310611a1b575050508311611a02575b5050811b019055611747565b8a015160001960f88460031b161c191690558b806119f6565b840151855589969094019392830192016119e3565b82600052876000208b80840160051c8201928a8510611a6d575b0160051c019085905b828110611a6157505061171f565b60008155018590611a53565b92508192611a4a565b9050825111876116e8565b809150875111906116e1565b608081019081106001600160401b038211176109a057604052565b61026081019081106001600160401b038211176109a057604052565b90601f801991011681019081106001600160401b038211176109a057604052565b81601f82011215610184578035906001600160401b0382116109a05760405192611b19601f8401601f191660200185611ac4565b8284526020838301011161018457816000926020809301838601378301015290565b919082519283825260005b848110611b67575050826000602080949584010152601f8019910116010190565b602081830181015184830182015201611b46565b90600182811c92168015611bab575b6020831014611b9557565b634e487b7160e01b600052602260045260246000fd5b91607f1691611b8a565b9060405191826000825492611bc984611b7b565b908184526001948581169081600014611c385750600114611bf5575b5050611bf392500383611ac4565b565b9093915060005260209081600020936000915b818310611c20575050611bf393508201013880611be5565b85548884018501529485019487945091830191611c08565b915050611bf394506020925060ff191682840152151560051b8201013880611be5565b906006821015610bba5752565b6001600160401b0381116109a05760051b60200190565b8054821015611c9b5760005260206000209060021b0190600090565b634e487b7160e01b600052603260045260246000fd5b6000198114611cc05760010190565b634e487b7160e01b600052601160045260246000fd5b8051821015611c9b5760209160051b010190565b906006811015610bba5760ff8019835416911617905556fea2646970667358221220871be865ad845ca744138bdb80ada9a0c1086065a2bfac14fecb0f49bd5b41f664736f6c63430008140033",
  "linkReferences": {},
  "deployedLinkReferences": {}
}