{
  "_format": "hh-sol-artifact-1",
  "contractName": "PrizePool",
  "sourceName": "contracts/PrizePool.sol",
  "abi": [
    {
      "inputs": [
        {
          "internalType": "uint256",
          "name": "_eventId",
          "type": "uint256"
        },
        {
          "internalType": "address",
          "name": "_eventContract",
          "type": "address"
        }
      ],
      "stateMutability": "nonpayable",
      "type": "constructor"
    },
    {
      "inputs": [
        {
          "internalType": "address",
          "name": "owner",
          "type": "address"
        }
      ],
      "name": "OwnableInvalidOwner",
      "type": "error"
    },
    {
      "inputs": [
        {
          "internalType": "address",
          "name": "account",
          "type": "address"
        }
      ],
      "name": "OwnableUnauthorizedAccount",
      "type": "error"
    },
    {
      "inputs": [],
      "name": "ReentrancyGuardReentrantCall",
      "type": "error"
    },
    {
      "anonymous": false,
      "inputs": [
        {
          "indexed": true,
          "internalType": "uint256",
          "name": "depositId",
          "type": "uint256"
        },
        {
          "indexed": true,
          "internalType": "address",
          "name": "sponsor",
          "type": "address"
        },
        {
          "indexed": false,
          "internalType": "enum PrizePool.AssetType",
          "name": "assetType",
          "type": "uint8"
        },
        {
          "indexed": false,
          "internalType": "address",
          "name": "tokenAddress",
          "type": "address"
        },
        {
          "indexed": false,
          "internalType": "uint256",
          "name": "amount",
          "type": "uint256"
        },
        {
          "indexed": false,
          "internalType": "uint256",
          "name": "tokenId",
          "type": "uint256"
        }
      ],
      "name": "Deposited",
      "type": "event"
    },
    {
      "anonymous": false,
      "inputs": [],
      "name": "DistributionCompleted",
      "type": "event"
    },
    {
      "anonymous": false,
      "inputs": [
        {
          "indexed": true,
          "internalType": "address",
          "name": "previousOwner",
          "type": "address"
        },
        {
          "indexed": true,
          "internalType": "address",
          "name": "newOwner",
          "type": "address"
        }
      ],
      "name": "OwnershipTransferred",
      "type": "event"
    },
    {
      "anonymous": false,
      "inputs": [
        {
          "indexed": true,
          "internalType": "uint256",
          "name": "rank",
          "type": "uint256"
        },
        {
          "indexed": true,
          "internalType": "address",
          "name": "recipient",
          "type": "address"
        },
        {
          "indexed": false,
          "internalType": "enum PrizePool.AssetType",
          "name": "assetType",
          "type": "uint8"
        },
        {
          "indexed": false,
          "internalType": "address",
          "name": "tokenAddress",
          "type": "address"
        },
        {
          "indexed": false,
          "internalType": "uint256",
          "name": "amount",
          "type": "uint256"
        },
        {
          "indexed": false,
          "internalType": "uint256",
          "name": "tokenId",
          "type": "uint256"
        }
      ],
      "name": "PrizeDistributed",
      "type": "event"
    },
    {
      "inputs": [
        {
          "internalType": "enum PrizePool.AssetType",
          "name": "",
          "type": "uint8"
        },
        {
          "internalType": "address",
          "name": "",
          "type": "address"
        }
      ],
      "name": "assetDistributed",
      "outputs": [
        {
          "internalType": "bool",
          "name": "",
          "type": "bool"
        }
      ],
      "stateMutability": "view",
      "type": "function"
    },
    {
      "inputs": [],
      "name": "depositCounter",
      "outputs": [
        {
          "internalType": "uint256",
          "name": "",
          "type": "uint256"
        }
      ],
      "stateMutability": "view",
      "type": "function"
    },
    {
      "inputs": [
        {
          "internalType": "address",
          "name": "tokenAddress",
          "type": "address"
        },
        {
          "internalType": "uint256",
          "name": "amount",
          "type": "uint256"
        }
      ],
      "name": "depositERC20",
      "outputs": [],
      "stateMutability": "nonpayable",
      "type": "function"
    },
    {
      "inputs": [
        {
          "internalType": "address",
          "name": "tokenAddress",
          "type": "address"
        },
        {
          "internalType": "uint256",
          "name": "tokenId",
          "type": "uint256"
        }
      ],
      "name": "depositERC721",
      "outputs": [],
      "stateMutability": "nonpayable",
      "type": "function"
    },
    {
      "inputs": [],
      "name": "depositNative",
      "outputs": [],
      "stateMutability": "payable",
      "type": "function"
    },
    {
      "inputs": [
        {
          "internalType": "uint256",
          "name": "",
          "type": "uint256"
        }
      ],
      "name": "deposits",
      "outputs": [
        {
          "internalType": "address",
          "name": "sponsor",
          "type": "address"
        },
        {
          "internalType": "enum PrizePool.AssetType",
          "name": "assetType",
          "type": "uint8"
        },
        {
          "internalType": "address",
          "name": "tokenAddress",
          "type": "address"
        },
        {
          "internalType": "uint256",
          "name": "tokenId",
          "type": "uint256"
        },
        {
          "internalType": "uint256",
          "name": "amount",
          "type": "uint256"
        },
        {
          "internalType": "bool",
          "name": "distributed",
          "type": "bool"
        }
      ],
      "stateMutability": "view",
      "type": "function"
    },
    {
      "inputs": [
        {
          "internalType": "address[]",
          "name": "winners",
          "type": "address[]"
        },
        {
          "internalType": "enum PrizePool.AssetType",
          "name": "assetType",
          "type": "uint8"
        },
        {
          "internalType": "address",
          "name": "tokenAddress",
          "type": "address"
        }
      ],
      "name": "distributePrizes",
      "outputs": [],
      "stateMutability": "nonpayable",
      "type": "function"
    },
    {
      "inputs": [],
      "name": "emergencyWithdraw",
      "outputs": [],
      "stateMutability": "nonpayable",
      "type": "function"
    },
    {
      "inputs": [],
      "name": "eventContract",
      "outputs": [
        {
          "internalType": "address",
          "name": "",
          "type": "address"
        }
      ],
      "stateMutability": "view",
      "type": "function"
    },
    {
      "inputs": [],
      "name": "eventId",
      "outputs": [
        {
          "internalType": "uint256",
          "name": "",
          "type": "uint256"
        }
      ],
      "stateMutability": "view",
      "type": "function"
    },
    {
      "inputs": [
        {
          "internalType": "uint256",
          "name": "depositId",
          "type": "uint256"
        }
      ],
      "name": "getDeposit",
      "outputs": [
        {
          "components": [
            {
              "internalType": "address",
              "name": "sponsor",
              "type": "address"
            },
            {
              "internalType": "enum PrizePool.AssetType",
              "name": "assetType",
              "type": "uint8"
            },
            {
              "internalType": "address",
              "name": "tokenAddress",
              "type": "address"
            },
            {
              "internalType": "uint256",
              "name": "tokenId",
              "type": "uint256"
            },
            {
              "internalType": "uint256",
              "name": "amount",
              "type": "uint256"
            },
            {
              "internalType": "bool",
              "name": "distributed",
              "type": "bool"
            }
          ],
          "internalType": "struct PrizePool.Deposit",
          "name": "",
          "type": "tuple"
        }
      ],
      "stateMutability": "view",
      "type": "function"
    },
    {
      "inputs": [],
      "name": "getPrizeDistributionCount",
      "outputs": [
        {
          "internalType": "uint256",
          "name": "",
          "type": "uint256"
        }
      ],
      "stateMutability": "view",
      "type": "function"
    },
    {
      "inputs": [
        {
          "internalType": "enum PrizePool.AssetType",
          "name": "assetType",
          "type": "uint8"
        },
        {
          "internalType": "address",
          "name": "tokenAddress",
          "type": "address"
        }
      ],
      "name": "getTokenAmount",
      "outputs": [
        {
          "internalType": "uint256",
          "name": "",
          "type": "uint256"
        }
      ],
      "stateMutability": "view",
      "type": "function"
    },
    {
      "inputs": [
        {
          "internalType": "enum PrizePool.AssetType",
          "name": "assetType",
          "type": "uint8"
        }
      ],
      "name": "getTotalAmount",
      "outputs": [
        {
          "internalType": "uint256",
          "name": "",
          "type": "uint256"
        }
      ],
      "stateMutability": "view",
      "type": "function"
    },
    {
      "inputs": [
        {
          "internalType": "enum PrizePool.AssetType",
          "name": "assetType",
          "type": "uint8"
        },
        {
          "internalType": "address",
          "name": "tokenAddress",
          "type": "address"
        }
      ],
      "name": "isAssetDistributed",
      "outputs": [
        {
          "internalType": "bool",
          "name": "",
          "type": "bool"
        }
      ],
      "stateMutability": "view",
      "type": "function"
    },
    {
      "inputs": [],
      "name": "lockedUntil",
      "outputs": [
        {
          "internalType": "uint256",
          "name": "",
          "type": "uint256"
        }
      ],
      "stateMutability": "view",
      "type": "function"
    },
    {
      "inputs": [],
      "name": "owner",
      "outputs": [
        {
          "internalType": "address",
          "name": "",
          "type": "address"
        }
      ],
      "stateMutability": "view",
      "type": "function"
    },
    {
      "inputs": [
        {
          "internalType": "uint256",
          "name": "",
          "type": "uint256"
        }
      ],
      "name": "prizeDistributions",
      "outputs": [
        {
          "internalType": "uint256",
          "name": "rank",
          "type": "uint256"
        },
        {
          "internalType": "uint256",
          "name": "percentage",
          "type": "uint256"
        },
        {
          "internalType": "enum PrizePool.AssetType",
          "name": "assetType",
          "type": "uint8"
        }
      ],
      "stateMutability": "view",
      "type": "function"
    },
    {
      "inputs": [],
      "name": "renounceOwnership",
      "outputs": [],
      "stateMutability": "nonpayable",
      "type": "function"
    },
    {
      "inputs": [
        {
          "internalType": "uint256",
          "name": "_lockedUntil",
          "type": "uint256"
        }
      ],
      "name": "setLockedUntil",
      "outputs": [],
      "stateMutability": "nonpayable",
      "type": "function"
    },
    {
      "inputs": [
        {
          "components": [
            {
              "internalType": "uint256",
              "name": "rank",
              "type": "uint256"
            },
            {
              "internalType": "uint256",
              "name": "percentage",
              "type": "uint256"
            },
            {
              "internalType": "enum PrizePool.AssetType",
              "name": "assetType",
              "type": "uint8"
            }
          ],
          "internalType": "struct PrizePool.PrizeDistribution[]",
          "name": "distributions",
          "type": "tuple[]"
        }
      ],
      "name": "setPrizeDistributions",
      "outputs": [],
      "stateMutability": "nonpayable",
      "type": "function"
    },
    {
      "inputs": [
        {
          "internalType": "enum PrizePool.AssetType",
          "name": "",
          "type": "uint8"
        },
        {
          "internalType": "address",
          "name": "",
          "type": "address"
        }
      ],
      "name": "tokenAmounts",
      "outputs": [
        {
          "internalType": "uint256",
          "name": "",
          "type": "uint256"
        }
      ],
      "stateMutability": "view",
      "type": "function"
    },
    {
      "inputs": [
        {
          "internalType": "enum PrizePool.AssetType",
          "name": "",
          "type": "uint8"
        }
      ],
      "name": "totalAmounts",
      "outputs": [
        {
          "internalType": "uint256",
          "name": "",
          "type": "uint256"
        }
      ],
      "stateMutability": "view",
      "type": "function"
    },
    {
      "inputs": [
        {
          "internalType": "address",
          "name": "newOwner",
          "type": "address"
        }
      ],
      "name": "transferOwnership",
      "outputs": [],
      "stateMutability": "nonpayable",
      "type": "function"
    }
  ],
  "bytecode": "0x6080346100d957601f611c1338819003918201601f19168301916001600160401b038311848410176100de5780849260409485528339810103126100d95780516020909101516001600160a01b0391828216918290036100d957600160005533156100c057600180546001600160a01b0319808216339081179093556040519590939291167f8be0079c531659141344cd1fd0a4f28419497f9722a3daafe3b4186f6b6457e0600080a36002556003541617600355611b1e90816100f58239f35b604051631e4fbdf760e01b815260006004820152602490fd5b600080fd5b634e487b7160e01b600052604160045260246000fdfe6080604052600436101561001257600080fd5b60003560e01c80630356333214610124578063089cdd0c1461177a57806321e98ad91461175c57806325ce61651461103b5780632952f2eb14610f945780632cb60e9214610fcb5780633633153c14610f94578063715018a614610f375780637bc7d278146107865780637dc01ec714610ee25780638da5cb5b14610eb957806397feb92614610c985780639f9fb96814610ba4578063b02c43d014610b29578063ce0617ec14610b0b578063d29a4bf6146107b7578063da2eec4c14610786578063db2e21bc146106b8578063db6b52461461052b578063e274fd2414610502578063ecb3dc88146104e4578063f0e7a78c146101ee578063f2fde38b146101655763f5e7c4791461012457600080fd5b346101605761013c610135366117ae565b919061185d565b9060018060a01b0316600052602052602060ff604060002054166040519015158152f35b600080fd5b346101605760203660031901126101605761017e611798565b610186611906565b6001600160a01b039081169081156101d557600154826001600160601b0360a01b821617600155167f8be0079c531659141344cd1fd0a4f28419497f9722a3daafe3b4186f6b6457e0600080a3005b604051631e4fbdf760e01b815260006004820152602490fd5b34610160576020806003193601126101605760043567ffffffffffffffff91828211610160573660238301121561016057816004013561022d81611845565b9261023b6040519485611823565b81845282840160249586606080950284010192368411610160578701915b8383106104825787878761026b611906565b60078054600082558061040c575b50600092835b81518510156103b257836102938684611a94565b51015115610364576102b390846102aa8785611a94565b510151906119ca565b936102be8183611a94565b519083546801000000000000000081101561034f576102e360019182810187556118a8565b91909161033a57604091600291855182558886015190820155019201519160038310156103255761031f9260ff801983541691161790556119bb565b9361027f565b87634e487b7160e01b60005260216004526000fd5b88634e487b7160e01b60005260006004526000fd5b87634e487b7160e01b60005260416004526000fd5b60405162461bcd60e51b8152600481018590526021818801527f50657263656e74616765206d7573742062652067726561746572207468616e206044820152600360fc1b6064820152608490fd5b8360648792116103be57005b60236084926040519262461bcd60e51b845260048401528201527f546f74616c2070657263656e746167652063616e6e6f7420657863656564203160448201526230302560e81b6064820152fd5b600390808202908282040361046d57826000527fa66cc928b5edb82af9bd49922954155ab7b0942694bea4ce44661d9a8736c688908101905b818110610453575050610279565b806000849255600060018201556000600282015501610445565b85634e487b7160e01b60005260116004526000fd5b84833603126101605760405190858201828110848211176104cf57604052833582528684013587830152604084013590600382101561016057828892604089950152815201920191610259565b89634e487b7160e01b60005260416004526000fd5b34610160576000366003190112610160576020600654604051908152f35b34610160576000366003190112610160576003546040516001600160a01b039091168152602090f35b60003660031901126101605761053f6119d7565b6105566004548042109081156106af575b50611932565b61056134151561196f565b61056c6006546119bb565b806006556040519061057d82611807565b33825260208201600081526040830191600083526060840160008152608085019034825260a086019260008452600052600560205260406000209460018060a01b03809751169686549551956003871015610699576106329860049760ff60a01b9060a01b16916affffffffffffffffffffff60a81b1617178755600187019151166001600160601b0360a01b82541617905551600285015551600384015551151591019060ff801983541691151516179055565b600080526008602052604060002061064b3482546119ca565b9055600654604051906000825260006020830152346040830152600060608301527fa58e10e8813b9859d257c26f074110f94aa2ace8b54fd3d0519546380e53d99a60803393a36001600055005b634e487b7160e01b600052602160045260246000fd5b90501582610550565b34610160576000366003190112610160576106d1611906565b6106e76004548042109081156106af5750611932565b471561074a57600080808060018060a01b036001541647905af1610709611aa8565b501561071157005b60405162461bcd60e51b815260206004820152601160248201527015da5d1a191c985dd85b0819985a5b1959607a1b6044820152606490fd5b60405162461bcd60e51b81526020600482015260146024820152734e6f2066756e647320746f20776974686472617760601b6044820152606490fd5b34610160576020366003190112610160576004356003811015610160576107ae60209161188f565b54604051908152f35b34610160576040366003190112610160576107d0611798565b6107d86119d7565b6107ee600454804210908115610b025750611932565b6108026001600160a01b03821615156119fa565b6040516331a9108f60e11b81526024803560048301526020908290816001600160a01b0386165afa908115610a7f57600091610ac0575b50336001600160a01b0390911603610a8b576001600160a01b0381163b15610160576040516323b872dd60e01b815233600482015230602480830191909152356044820152600081606481836001600160a01b0387165af18015610a7f57610a70575b506108a86006546119bb565b80600655604051906108b982611807565b3382526002602083015260018060a01b038316604083015260243560608301526001608083015260a082019060008252600052600560205260406000209060018060a01b03835116908254936020810151906003821015610699576109869560049460809360ff60a01b9060a01b16916affffffffffffffffffffff60a81b16171785556001850160018060a01b036040830151166001600160601b0360a01b825416179055606081015160028601550151600384015551151591019060ff801983541691151516179055565b600260005260086020527f6add646517a5b0f6793cd5891b7937d28a5b2981a5d88ebc7cd776088fea904180546001810191908210610a5a57556001600160a01b03811660009081527f6cde3cea4b3a3fb2488b2808bae7556f4a405e50f65e1794383bc026131b13c36020526040902080546001810191908210610a5a5755600654604051916002835260018060a01b031660208301526001604083015260243560608301527fa58e10e8813b9859d257c26f074110f94aa2ace8b54fd3d0519546380e53d99a60803393a36001600055005b634e487b7160e01b600052601160045260246000fd5b610a79906117dd565b8161089c565b6040513d6000823e3d90fd5b60405162461bcd60e51b815260206004820152600d60248201526c2737ba103a34329037bbb732b960991b6044820152606490fd5b90506020813d602011610afa575b81610adb60209383611823565b8101031261016057516001600160a01b03811681036101605782610839565b3d9150610ace565b90501583610550565b34610160576000366003190112610160576020600454604051908152f35b3461016057602036600319011261016057600435600052600560205260c06040600020805460018060a01b039182600182015416600282015490610b8c60ff600460038601549501541694604051968116875260ff602088019160a01c166118f9565b604085015260608401526080830152151560a0820152f35b3461016057602036600319011261016057600060a0604051610bc581611807565b828152826020820152826040820152826060820152826080820152015260043560005260056020526040600020604051610bfe81611807565b81546001600160a01b03808216835260a09190911c60ff1692602083019160038510156106995760c094835280600183015416906040850191825260028301549160608601928352610c7b60ff600460038701549660808a019788520154169560a0880196151587528360405198511688525160208801906118f9565b5116604085015251606084015251608083015251151560a0820152f35b3461016057604036600319011261016057610cb1611798565b602435610cbc6119d7565b610cd2600454804210908115610eb05750611932565b6001600160a01b03918216610ce88115156119fa565b610cf382151561196f565b6040516323b872dd60e01b8152336004820152306024820152604481018390526020929083816064816000875af18015610a7f57610d3991600091610e83575b50611a56565b610d446006546119bb565b9384600655604051610d5581611807565b338152848101600196878252604083018681526060840160008152608085019187835260a08601936000855260005260058a52866040600020965116968654955195600387101561069957610dff9860049760ff60a01b9060a01b16916affffffffffffffffffffff60a81b16171787558b87019151166001600160601b0360a01b82541617905551600285015551600384015551151591019060ff801983541691151516179055565b83600052600883526040600020610e178282546119ca565b9055836000526009835260406000208260005283526040600020610e3c8282546119ca565b905560065491604051938585528401526040830152600060608301527fa58e10e8813b9859d257c26f074110f94aa2ace8b54fd3d0519546380e53d99a60803393a3600055005b610ea39150853d8711610ea9575b610e9b8183611823565b810190611a3e565b86610d33565b503d610e91565b90501584610550565b34610160576000366003190112610160576001546040516001600160a01b039091168152602090f35b346101605760203660031901126101605760043560075481101561016057610f0b6060916118a8565b50610f3581549160ff600260018301549201541690604051938452602084015260408301906118f9565bf35b3461016057600036600319011261016057610f50611906565b600180546001600160a01b031981169091556000906001600160a01b03167f8be0079c531659141344cd1fd0a4f28419497f9722a3daafe3b4186f6b6457e08280a3005b3461016057610fac610fa5366117ae565b9190611876565b9060018060a01b03166000526020526020604060002054604051908152f35b34610160576020366003190112610160576003546001600160a01b03163303610ff657600480359055005b60405162461bcd60e51b815260206004820152601c60248201527f4f6e6c79206576656e7420636f6e74726163742063616e2063616c6c000000006044820152606490fd5b346101605760603660031901126101605760043567ffffffffffffffff8111610160573660238201121561016057806004013561107781611845565b916110856040519384611823565b8183526024602084019260051b8201019036821161016057602401915b81831061173c57836003602435101561016057604435906001600160a01b0382168203610160576110d1611906565b600454804210159081611732575b50156116f4576110ed6119d7565b6110f860243561185d565b60018060a01b03831660005260205260ff604060002054166116af5780511561167457600090816024356115db57506000805260086020527f5eff886ea0ce6ca488a3d6e336d6c0f75f46d19b42c06ce5ee98e42c96d256c7545b80156115875760005b60075481108061157d575b15611526578360ff600261117a846118a8565b5001541690610699576003811015610699576024350361151d5761119d816118a8565b505493835185116115125784600019810111610a5a576001600160a01b036111c9600019870186611a94565b5116908115611506575060016111de836118a8565b50015483818102048103610a5a5760009560243561121f5750600080808061121a96956064611215968a0204905af1610d33611aa8565b6119bb565b61115c565b600096506024356001036112dc575060405163a9059cbb60e01b81526004810192909252606490840204602482015260208160448160006001600160a01b038b165af1908115610a7f576000916112bd575b50156112805761121a906119bb565b60405162461bcd60e51b8152602060048201526015602482015274151bdad95b881d1c985b9cd9995c8819985a5b1959605a1b6044820152606490fd5b6112d6915060203d602011610ea957610e9b8183611823565b86611271565b93919495506000906002602435146000146114a2575060009560015b6006548111158061149a575b156114865780600052600560205260ff60406000205460a01c1660038110156106995760021480611460575b80611444575b611349575b611344906119bb565b6112f8565b6000818152600560205260409020600201549097506001600160a01b0389163b15610160576040516323b872dd60e01b81523060048201526001600160a01b0388166024820152604481019190915260008180606481010381836001600160a01b038e165af18015610a7f57611435575b5086600052600560205285857f3e7b219eca3328f1d23b449ffb8c59a62d96f035ecbcca2808a544ba79ff3bc760806002604060002060048101600160ff19825416179055015460405190611411826024356118f9565b6001600160a01b038e166020830152600160408301526060820152a360019661133b565b61143e906117dd565b886113ba565b5080600052600560205260ff6004604060002001541615611336565b506000818152600560205260409020600101546001600160a01b038a8116911614611330565b5094509461121a92919350611215576119bb565b508715611304565b937f3e7b219eca3328f1d23b449ffb8c59a62d96f035ecbcca2808a544ba79ff3bc7608061121a959496606460409a99959a51916114e2836024356118f9565b6001600160a01b038d166020840152890204604082015260006060820152a36119bb565b94505061121a906119bb565b935061121a906119bb565b61121a906119bb565b8461153260243561185d565b9060018060a01b03166000526020526040600020600160ff198254161790557fe6c43f9d4cf69e900ec4b5976378c6c925a6dbf5aeb11487ca07b2ccd701d938600080a16001600055005b5082518110611167565b60405162461bcd60e51b815260206004820152602660248201527f4e6f2066756e647320617661696c61626c6520666f722074686973206173736560448201526574207479706560d01b6064820152608490fd5b6000925060243560010361162757506001600160a01b03831660009081527f92e85d02570a8092d09a6e3a57665bc3815a2699a4074001bf1ccabf660f5a366020526040902054611153565b600092506001196024350161115357506001600160a01b03831660009081527f6cde3cea4b3a3fb2488b2808bae7556f4a405e50f65e1794383bc026131b13c36020526040902054611153565b60405162461bcd60e51b8152602060048201526013602482015272139bc81dda5b9b995c9cc81c1c9bdd9a591959606a1b6044820152606490fd5b60405162461bcd60e51b815260206004820152601e60248201527f5468697320617373657420616c726561647920646973747269627574656400006044820152606490fd5b60405162461bcd60e51b8152602060048201526016602482015275141bdbdb081a5cc81b9bdd081b1bd8dad959081e595d60521b6044820152606490fd5b90501515836110df565b82356001600160a01b0381168103610160578152602092830192016110a2565b34610160576000366003190112610160576020600754604051908152f35b34610160576000366003190112610160576020600254604051908152f35b600435906001600160a01b038216820361016057565b604090600319011261016057600435600381101561016057906024356001600160a01b03811681036101605790565b67ffffffffffffffff81116117f157604052565b634e487b7160e01b600052604160045260246000fd5b60c0810190811067ffffffffffffffff8211176117f157604052565b90601f8019910116810190811067ffffffffffffffff8211176117f157604052565b67ffffffffffffffff81116117f15760051b60200190565b600381101561069957600052600a602052604060002090565b6003811015610699576000526009602052604060002090565b6003811015610699576000526008602052604060002090565b6007548110156118e3576003906007600052027fa66cc928b5edb82af9bd49922954155ab7b0942694bea4ce44661d9a8736c6880190600090565b634e487b7160e01b600052603260045260246000fd5b9060038210156106995752565b6001546001600160a01b0316330361191a57565b60405163118cdaa760e01b8152336004820152602490fd5b1561193957565b60405162461bcd60e51b815260206004820152600e60248201526d141bdbdb081a5cc81b1bd8dad95960921b6044820152606490fd5b1561197657565b60405162461bcd60e51b815260206004820152601d60248201527f416d6f756e74206d7573742062652067726561746572207468616e20300000006044820152606490fd5b6000198114610a5a5760010190565b91908201809211610a5a57565b6002600054146119e8576002600055565b604051633ee5aeb560e01b8152600490fd5b15611a0157565b60405162461bcd60e51b8152602060048201526015602482015274496e76616c696420746f6b656e206164647265737360581b6044820152606490fd5b90816020910312610160575180151581036101605790565b15611a5d57565b60405162461bcd60e51b815260206004820152600f60248201526e151c985b9cd9995c8819985a5b1959608a1b6044820152606490fd5b80518210156118e35760209160051b010190565b3d15611ae3573d9067ffffffffffffffff82116117f15760405191611ad7601f8201601f191660200184611823565b82523d6000602084013e565b60609056fea2646970667358221220b9e27f4d7ed7fc6f4afc64037d32c3825307da2608fe47014c4a49145147cc7564736f6c63430008140033",
  "linkReferences": {},
  "deployedLinkReferences": {}
}