{
  "_format": "hh-sol-artifact-1",
  "contractName": "RegistrationSBT",
  "sourceName": "contracts/RegistrationSBT.sol",
  "abi": [
    {
      "inputs": [
        {
          "internalType": "string",
          "name": "name",
          "type": "string"
        },
        {
          "internalType": "string",
          "name": "symbol",
          "type": "string"
        }
      ],
      "stateMutability": "nonpayable",
      "type": "constructor"
    },
    {
      "inputs": [],
      "name": "ERC721EnumerableForbiddenBatchMint",
      "type": "error"
    },
    {
      "inputs": [
        {
          "internalType": "address",
          "name": "sender",
          "type": "address"
        },
        {
          "internalType": "uint256",
          "name": "tokenId",
          "type": "uint256"
        },
        {
          "internalType": "address",
          "name": "owner",
          "type": "address"
        }
      ],
      "name": "ERC721IncorrectOwner",
      "type": "error"
    },
    {
      "inputs": [
        {
          "internalType": "address",
          "name": "operator",
          "type": "address"
        },
        {
          "internalType": "uint256",
          "name": "tokenId",
          "type": "uint256"
        }
      ],
      "name": "ERC721InsufficientApproval",
      "type": "error"
    },
    {
      "inputs": [
        {
          "internalType": "address",
          "name": "approver",
          "type": "address"
        }
      ],
      "name": "ERC721InvalidApprover",
      "type": "error"
    },
    {
      "inputs": [
        {
          "internalType": "address",
          "name": "operator",
          "type": "address"
        }
      ],
      "name": "ERC721InvalidOperator",
      "type": "error"
    },
    {
      "inputs": [
        {
          "internalType": "address",
          "name": "owner",
          "type": "address"
        }
      ],
      "name": "ERC721InvalidOwner",
      "type": "error"
    },
    {
      "inputs": [
        {
          "internalType": "address",
          "name": "receiver",
          "type": "address"
        }
      ],
      "name": "ERC721InvalidReceiver",
      "type": "error"
    },
    {
      "inputs": [
        {
          "internalType": "address",
          "name": "sender",
          "type": "address"
        }
      ],
      "name": "ERC721InvalidSender",
      "type": "error"
    },
    {
      "inputs": [
        {
          "internalType": "uint256",
          "name": "tokenId",
          "type": "uint256"
        }
      ],
      "name": "ERC721NonexistentToken",
      "type": "error"
    },
    {
      "inputs": [
        {
          "internalType": "address",
          "name": "owner",
          "type": "address"
        },
        {
          "internalType": "uint256",
          "name": "index",
          "type": "uint256"
        }
      ],
      "name": "ERC721OutOfBoundsIndex",
      "type": "error"
    },
    {
      "inputs": [
        {
          "internalType": "address",
          "name": "owner",
          "type": "address"
        }
      ],
      "name": "OwnableInvalidOwner",
      "type": "error"
    },
    {
      "inputs": [
        {
          "internalType": "address",
          "name": "account",
          "type": "address"
        }
      ],
      "name": "OwnableUnauthorizedAccount",
      "type": "error"
    },
    {
      "inputs": [],
      "name": "ReentrancyGuardReentrantCall",
      "type": "error"
    },
    {
      "anonymous": false,
      "inputs": [
        {
          "indexed": true,
          "internalType": "address",
          "name": "owner",
          "type": "address"
        },
        {
          "indexed": true,
          "internalType": "address",
          "name": "approved",
          "type": "address"
        },
        {
          "indexed": true,
          "internalType": "uint256",
          "name": "tokenId",
          "type": "uint256"
        }
      ],
      "name": "Approval",
      "type": "event"
    },
    {
      "anonymous": false,
      "inputs": [
        {
          "indexed": true,
          "internalType": "address",
          "name": "owner",
          "type": "address"
        },
        {
          "indexed": true,
          "internalType": "address",
          "name": "operator",
          "type": "address"
        },
        {
          "indexed": false,
          "internalType": "bool",
          "name": "approved",
          "type": "bool"
        }
      ],
      "name": "ApprovalForAll",
      "type": "event"
    },
    {
      "anonymous": false,
      "inputs": [
        {
          "indexed": true,
          "internalType": "address",
          "name": "previousOwner",
          "type": "address"
        },
        {
          "indexed": true,
          "internalType": "address",
          "name": "newOwner",
          "type": "address"
        }
      ],
      "name": "OwnershipTransferred",
      "type": "event"
    },
    {
      "anonymous": false,
      "inputs": [
        {
          "indexed": true,
          "internalType": "uint256",
          "name": "tokenId",
          "type": "uint256"
        },
        {
          "indexed": true,
          "internalType": "uint256",
          "name": "eventId",
          "type": "uint256"
        },
        {
          "indexed": true,
          "internalType": "address",
          "name": "recipient",
          "type": "address"
        },
        {
          "indexed": false,
          "internalType": "string",
          "name": "teamName",
          "type": "string"
        }
      ],
      "name": "RegistrationMinted",
      "type": "event"
    },
    {
      "anonymous": false,
      "inputs": [
        {
          "indexed": true,
          "internalType": "address",
          "name": "from",
          "type": "address"
        },
        {
          "indexed": true,
          "internalType": "address",
          "name": "to",
          "type": "address"
        },
        {
          "indexed": true,
          "internalType": "uint256",
          "name": "tokenId",
          "type": "uint256"
        }
      ],
      "name": "Transfer",
      "type": "event"
    },
    {
      "inputs": [
        {
          "internalType": "address",
          "name": "to",
          "type": "address"
        },
        {
          "internalType": "uint256",
          "name": "tokenId",
          "type": "uint256"
        }
      ],
      "name": "approve",
      "outputs": [],
      "stateMutability": "nonpayable",
      "type": "function"
    },
    {
      "inputs": [
        {
          "internalType": "address",
          "name": "owner",
          "type": "address"
        }
      ],
      "name": "balanceOf",
      "outputs": [
        {
          "internalType": "uint256",
          "name": "",
          "type": "uint256"
        }
      ],
      "stateMutability": "view",
      "type": "function"
    },
    {
      "inputs": [
        {
          "internalType": "address[]",
          "name": "recipients",
          "type": "address[]"
        },
        {
          "internalType": "uint256[]",
          "name": "eventIds",
          "type": "uint256[]"
        },
        {
          "internalType": "string[]",
          "name": "teamNames",
          "type": "string[]"
        }
      ],
      "name": "batchMintRegistrations",
      "outputs": [
        {
          "internalType": "uint256[]",
          "name": "",
          "type": "uint256[]"
        }
      ],
      "stateMutability": "nonpayable",
      "type": "function"
    },
    {
      "inputs": [
        {
          "internalType": "uint256",
          "name": "",
          "type": "uint256"
        },
        {
          "internalType": "uint256",
          "name": "",
          "type": "uint256"
        }
      ],
      "name": "eventTokens",
      "outputs": [
        {
          "internalType": "uint256",
          "name": "",
          "type": "uint256"
        }
      ],
      "stateMutability": "view",
      "type": "function"
    },
    {
      "inputs": [
        {
          "internalType": "uint256",
          "name": "tokenId",
          "type": "uint256"
        }
      ],
      "name": "getApproved",
      "outputs": [
        {
          "internalType": "address",
          "name": "",
          "type": "address"
        }
      ],
      "stateMutability": "view",
      "type": "function"
    },
    {
      "inputs": [
        {
          "internalType": "uint256",
          "name": "eventId",
          "type": "uint256"
        }
      ],
      "name": "getEventTokens",
      "outputs": [
        {
          "internalType": "uint256[]",
          "name": "",
          "type": "uint256[]"
        }
      ],
      "stateMutability": "view",
      "type": "function"
    },
    {
      "inputs": [
        {
          "internalType": "uint256",
          "name": "tokenId",
          "type": "uint256"
        }
      ],
      "name": "getRegistrationData",
      "outputs": [
        {
          "components": [
            {
              "internalType": "uint256",
              "name": "eventId",
              "type": "uint256"
            },
            {
              "internalType": "address",
              "name": "teamLeader",
              "type": "address"
            },
            {
              "internalType": "string",
              "name": "teamName",
              "type": "string"
            },
            {
              "internalType": "uint256",
              "name": "registeredAt",
              "type": "uint256"
            }
          ],
          "internalType": "struct RegistrationSBT.RegistrationData",
          "name": "",
          "type": "tuple"
        }
      ],
      "stateMutability": "view",
      "type": "function"
    },
    {
      "inputs": [
        {
          "internalType": "address",
          "name": "owner",
          "type": "address"
        },
        {
          "internalType": "uint256",
          "name": "eventId",
          "type": "uint256"
        }
      ],
      "name": "getRegistrationTokenId",
      "outputs": [
        {
          "internalType": "uint256",
          "name": "",
          "type": "uint256"
        }
      ],
      "stateMutability": "view",
      "type": "function"
    },
    {
      "inputs": [
        {
          "internalType": "address",
          "name": "owner",
          "type": "address"
        },
        {
          "internalType": "uint256",
          "name": "eventId",
          "type": "uint256"
        }
      ],
      "name": "hasRegistration",
      "outputs": [
        {
          "internalType": "bool",
          "name": "",
          "type": "bool"
        }
      ],
      "stateMutability": "view",
      "type": "function"
    },
    {
      "inputs": [
        {
          "internalType": "address",
          "name": "owner",
          "type": "address"
        },
        {
          "internalType": "address",
          "name": "operator",
          "type": "address"
        }
      ],
      "name": "isApprovedForAll",
      "outputs": [
        {
          "internalType": "bool",
          "name": "",
          "type": "bool"
        }
      ],
      "stateMutability": "view",
      "type": "function"
    },
    {
      "inputs": [
        {
          "internalType": "address",
          "name": "to",
          "type": "address"
        },
        {
          "internalType": "uint256",
          "name": "eventId",
          "type": "uint256"
        },
        {
          "internalType": "string",
          "name": "teamName",
          "type": "string"
        }
      ],
      "name": "mintRegistration",
      "outputs": [
        {
          "internalType": "uint256",
          "name": "",
          "type": "uint256"
        }
      ],
      "stateMutability": "nonpayable",
      "type": "function"
    },
    {
      "inputs": [],
      "name": "name",
      "outputs": [
        {
          "internalType": "string",
          "name": "",
          "type": "string"
        }
      ],
      "stateMutability": "view",
      "type": "function"
    },
    {
      "inputs": [],
      "name": "owner",
      "outputs": [
        {
          "internalType": "address",
          "name": "",
          "type": "address"
        }
      ],
      "stateMutability": "view",
      "type": "function"
    },
    {
      "inputs": [
        {
          "internalType": "uint256",
          "name": "tokenId",
          "type": "uint256"
        }
      ],
      "name": "ownerOf",
      "outputs": [
        {
          "internalType": "address",
          "name": "",
          "type": "address"
        }
      ],
      "stateMutability": "view",
      "type": "function"
    },
    {
      "inputs": [],
      "name": "renounceOwnership",
      "outputs": [],
      "stateMutability": "nonpayable",
      "type": "function"
    },
    {
      "inputs": [
        {
          "internalType": "address",
          "name": "from",
          "type": "address"
        },
        {
          "internalType": "address",
          "name": "to",
          "type": "address"
        },
        {
          "internalType": "uint256",
          "name": "tokenId",
          "type": "uint256"
        }
      ],
      "name": "safeTransferFrom",
      "outputs": [],
      "stateMutability": "nonpayable",
      "type": "function"
    },
    {
      "inputs": [
        {
          "internalType": "address",
          "name": "from",
          "type": "address"
        },
        {
          "internalType": "address",
          "name": "to",
          "type": "address"
        },
        {
          "internalType": "uint256",
          "name": "tokenId",
          "type": "uint256"
        },
        {
          "internalType": "bytes",
          "name": "data",
          "type": "bytes"
        }
      ],
      "name": "safeTransferFrom",
      "outputs": [],
      "stateMutability": "nonpayable",
      "type": "function"
    },
    {
      "inputs": [
        {
          "internalType": "address",
          "name": "operator",
          "type": "address"
        },
        {
          "internalType": "bool",
          "name": "approved",
          "type": "bool"
        }
      ],
      "name": "setApprovalForAll",
      "outputs": [],
      "stateMutability": "nonpayable",
      "type": "function"
    },
    {
      "inputs": [
        {
          "internalType": "string",
          "name": "baseURI",
          "type": "string"
        }
      ],
      "name": "setBaseURI",
      "outputs": [],
      "stateMutability": "nonpayable",
      "type": "function"
    },
    {
      "inputs": [
        {
          "internalType": "bytes4",
          "name": "interfaceId",
          "type": "bytes4"
        }
      ],
      "name": "supportsInterface",
      "outputs": [
        {
          "internalType": "bool",
          "name": "",
          "type": "bool"
        }
      ],
      "stateMutability": "view",
      "type": "function"
    },
    {
      "inputs": [],
      "name": "symbol",
      "outputs": [
        {
          "internalType": "string",
          "name": "",
          "type": "string"
        }
      ],
      "stateMutability": "view",
      "type": "function"
    },
    {
      "inputs": [
        {
          "internalType": "uint256",
          "name": "index",
          "type": "uint256"
        }
      ],
      "name": "tokenByIndex",
      "outputs": [
        {
          "internalType": "uint256",
          "name": "",
          "type": "uint256"
        }
      ],
      "stateMutability": "view",
      "type": "function"
    },
    {
      "inputs": [
        {
          "internalType": "uint256",
          "name": "",
          "type": "uint256"
        }
      ],
      "name": "tokenData",
      "outputs": [
        {
          "internalType": "uint256",
          "name": "eventId",
          "type": "uint256"
        },
        {
          "internalType": "address",
          "name": "teamLeader",
          "type": "address"
        },
        {
          "internalType": "string",
          "name": "teamName",
          "type": "string"
        },
        {
          "internalType": "uint256",
          "name": "registeredAt",
          "type": "uint256"
        }
      ],
      "stateMutability": "view",
      "type": "function"
    },
    {
      "inputs": [
        {
          "internalType": "address",
          "name": "owner",
          "type": "address"
        },
        {
          "internalType": "uint256",
          "name": "index",
          "type": "uint256"
        }
      ],
      "name": "tokenOfOwnerByIndex",
      "outputs": [
        {
          "internalType": "uint256",
          "name": "",
          "type": "uint256"
        }
      ],
      "stateMutability": "view",
      "type": "function"
    },
    {
      "inputs": [
        {
          "internalType": "uint256",
          "name": "",
          "type": "uint256"
        }
      ],
      "name": "tokenToEvent",
      "outputs": [
        {
          "internalType": "uint256",
          "name": "",
          "type": "uint256"
        }
      ],
      "stateMutability": "view",
      "type": "function"
    },
    {
      "inputs": [
        {
          "internalType": "uint256",
          "name": "tokenId",
          "type": "uint256"
        }
      ],
      "name": "tokenURI",
      "outputs": [
        {
          "internalType": "string",
          "name": "",
          "type": "string"
        }
      ],
      "stateMutability": "view",
      "type": "function"
    },
    {
      "inputs": [],
      "name": "totalSupply",
      "outputs": [
        {
          "internalType": "uint256",
          "name": "",
          "type": "uint256"
        }
      ],
      "stateMutability": "view",
      "type": "function"
    },
    {
      "inputs": [
        {
          "internalType": "address",
          "name": "from",
          "type": "address"
        },
        {
          "internalType": "address",
          "name": "to",
          "type": "address"
        },
        {
          "internalType": "uint256",
          "name": "tokenId",
          "type": "uint256"
        }
      ],
      "name": "transferFrom",
      "outputs": [],
      "stateMutability": "nonpayable",
      "type": "function"
    },
    {
      "inputs": [
        {
          "internalType": "address",
          "name": "newOwner",
          "type": "address"
        }
      ],
      "name": "transferOwnership",
      "outputs": [],
      "stateMutability": "nonpayable",
      "type": "function"
    }
  ],
  "bytecode": "0x6080604052346200038657620026b4803803806200001d816200038b565b9283398101604082820312620003865781516001600160401b0392908381116200038657826200004f918301620003b1565b906020928382015185811162000386576200006b9201620003b1565b92815181811162000370576000938454916001948584811c9416801562000365575b8385101462000351578190601f94858111620002fe575b5083908583116001146200029a5788926200028e575b5050600019600383901b1c191690851b1785555b85519283116200027a5783548481811c911680156200026f575b828210146200025b5782811162000213575b5080918311600114620001ad5750839482939492620001a1575b5050600019600383901b1c191690821b1781555b33156200018857600a8054336001600160a01b031982168117909255604051936001600160a01b03909116907f8be0079c531659141344cd1fd0a4f28419497f9722a3daafe3b4186f6b6457e09080a3600b556122909081620004248239f35b604051631e4fbdf760e01b815260048101839052602490fd5b01519050388062000114565b90601f198316958486528286209286905b888210620001fb5750508385969710620001e1575b505050811b01815562000128565b015160001960f88460031b161c19169055388080620001d3565b808785968294968601518155019501930190620001be565b8486528186208380860160051c82019284871062000251575b0160051c019085905b82811062000245575050620000fa565b87815501859062000235565b925081926200022c565b634e487b7160e01b86526022600452602486fd5b90607f1690620000e8565b634e487b7160e01b85526041600452602485fd5b015190503880620000ba565b8880528489208894509190601f1984168a5b87828210620002e75750508411620002cd575b505050811b018555620000ce565b015160001960f88460031b161c19169055388080620002bf565b8385015186558b97909501949384019301620002ac565b9091508780528388208580850160051c82019286861062000347575b918991869594930160051c01915b82811062000338575050620000a4565b8a815585945089910162000328565b925081926200031a565b634e487b7160e01b87526022600452602487fd5b93607f16936200008d565b634e487b7160e01b600052604160045260246000fd5b600080fd5b6040519190601f01601f191682016001600160401b038111838210176200037057604052565b919080601f84011215620003865782516001600160401b0381116200037057602090620003e7601f8201601f191683016200038b565b92818452828287010111620003865760005b8181106200040f57508260009394955001015290565b8581018301518482018401528201620003f956fe6080604081815260048036101561001557600080fd5b600092833560e01c90816301ffc9a7146111735750806306fdde03146110cb578063081812fc14611090578063095ea7b314610fb457806318160ddd14610f955780631f9ab38d14610f2757806323b872dd14610f0f578063282e093e14610edd5780632f745c5914610eb45780633032dbdd14610db157806342842e0e14610d825780634bb4a86314610d4a5780634f6ccce714610cf657806355f804b314610b6a5780636352211e14610b3957806370a0823114610b13578063715018a614610ab65780638da5cb5b14610a8d57806395d89b41146109aa578063a22cb4651461090d578063af22230c146108c1578063b4b5b48f14610855578063b88d4fde146107e6578063c5fd992d146107b6578063c87b56dd14610500578063cc9d7071146104d9578063d2d576aa14610246578063e985e9c5146101f45763f2fde38b1461016257600080fd5b346101f05760203660031901126101f05761017b611241565b90610184611520565b6001600160a01b039182169283156101da575050600a54826bffffffffffffffffffffffff60a01b821617600a55167f8be0079c531659141344cd1fd0a4f28419497f9722a3daafe3b4186f6b6457e08380a380f35b51631e4fbdf760e01b8152908101849052602490fd5b8280fd5b50503461024257806003193601126102425760ff81602093610214611241565b61021c61125c565b6001600160a01b0391821683526005875283832091168252855220549151911615158152f35b5080fd5b50346101f05760603660031901126101f05780359067ffffffffffffffff908183116104d557366023840112156104d557828101359461028586611508565b9161029286519384611395565b8683526020948584016024809960051b830101913683116104d5578901905b8282106104b6575050508635968488116101f057366023890112156101f05787820135976102de89611508565b986102eb89519a8b611395565b808a5282888b019160051b830101913683116104b25783899101915b8383106104a257505050506044359480861161049e573660238701121561049e578583013561033581611508565b966103428a519889611395565b818852838989019260051b8201019236841161049a57848201925b848410610470575050505050610371611520565b610379612148565b835188518091149081610465575b501561042a57505081519361039b85611508565b946103a887519687611395565b8086526103b7601f1991611508565b019036908601375b81518110156104145761040f906103ff6001600160a01b036103e1838661216b565b51166103ed838a61216b565b516103f8848861216b565b5191611a3d565b610409828761216b565b52612116565b6103bf565b6001600b558451806104268682611272565b0390f35b865162461bcd60e51b815291820186905260169082015275082e4e4c2f2e640d8cadccee8d040dad2e6dac2e8c6d60531b6044820152606490fd5b905085511438610387565b8335828111610496578b9161048b839289369188010161140a565b81520193019261035d565b8880fd5b8680fd5b8380fd5b8235815291810191899101610307565b8580fd5b81356001600160a01b03811681036104b25781529087019087016102b1565b8480fd5b50346101f05760203660031901126101f0576020928291358152600d845220549051908152f35b5082903461024257602091826003193601126107b357829084833561052481611858565b508151948391600f548761053782611428565b94858252888201956001938a858216918260001461079657505060011461073d575b5090610566910389611395565b87511561071e5781809387917a184f03e93ff9f4daa797ed6e38ed64bf6a1f0100000000000000009081811015610711575b5050886d04ee2d6d415b85acef810000000080871015610702575b5050662386f26fc10000808610156106f3575b506305f5e100808610156106e4575b50612710808610156106d8575b505060648410156106ca575b60219082600a809610156106c3575b9392919061062483820161061c610613826113b7565b9a519a8b611395565b808a526113b7565b888b019990601f1901368b3750870101905b61068d575b505050509361067c926106619492610670610426978a51978895518092888801906111f9565b840191518093868401906111f9565b01038084520182611395565b925b5192828493845283019061121c565b600019019083906f181899199a1a9b1b9c1cb0b131b232b360811b8282061a8353049182156106be57919082610636565b61063b565b01826105fd565b6064909304926002016105ee565b90940493018b806105e2565b6008919295049401908c6105d5565b6010919295049401908c6105c6565b9091929504940190888d6105b3565b0494508691508c80610598565b505050509091506104269250519061073582611379565b81529261067e565b600f89528891507f8d1108e10bcb7c27dddfc02ed9d693a074039d026cf4ea4240b40f7d581ac8025b81831061077b57505081018801610566610559565b8054838d018c01528c9a8e99508c9450909201918401610766565b60ff1916895291151560051b840190910191506105669050610559565b80fd5b5050346102425780600319360112610242576020906107df6107d6611241565b602435906121d2565b9051908152f35b83823461024257608036600319011261024257610801611241565b61080961125c565b6044359060643567ffffffffffffffff81116104b257366023820112156104b25761085294816024610840933693013591016113d3565b9261084c838383611585565b336118f3565b80f35b50346101f05760203660031901126101f057358252600e60205290819020805460018201546001600160a01b03169290916108b7906080600361089a60028401611462565b92015493805196879687526020870152850152608084019061121c565b9060608301520390f35b50346101f05760603660031901126101f0576108db611241565b926044359067ffffffffffffffff82116107b35750926109036107df9260209536910161140a565b9060243590611a3d565b5090346101f057806003193601126101f057610927611241565b90602435918215158093036104d5576001600160a01b03169283156109955750338452600560205280842083855260205280842060ff1981541660ff8416179055519081527f17307eab39ab6107e8899845ad3d59bd9653f200f220920489ca2b5937696c3160203392a380f35b836024925191630b61174360e31b8352820152fd5b5050346102425781600319360112610242578051908260018054916109ce83611428565b80865292828116908115610a655750600114610a09575b5050506109f782610426940383611395565b5191829160208352602083019061121c565b94508085527fb10e2d527612073b26eecdfd717e6a320cf44b4afac2b0732d9fcbe2b7fa0cf65b828610610a4d575050506109f782602061042695820101946109e5565b80546020878701810191909152909501948101610a30565b6104269750869350602092506109f794915060ff191682840152151560051b820101946109e5565b505034610242578160031936011261024257600a5490516001600160a01b039091168152602090f35b83346107b357806003193601126107b357610acf611520565b600a80546001600160a01b0319811690915581906001600160a01b03167f8be0079c531659141344cd1fd0a4f28419497f9722a3daafe3b4186f6b6457e08280a380f35b505034610242576020366003190112610242576020906107df610b34611241565b61154c565b5091346107b35760203660031901126107b35750610b5960209235611858565b90516001600160a01b039091168152f35b5082346107b3576020806003193601126102425767ffffffffffffffff90833582811161049e57610b9e903690860161140a565b93610ba7611520565b8451928311610ce35750610bbc600f54611428565b601f8111610c81575b5080601f8311600114610c0057508293829392610bf5575b50508160011b916000199060031b1c191617600f5580f35b015190508380610bdd565b600f8452601f198316947f8d1108e10bcb7c27dddfc02ed9d693a074039d026cf4ea4240b40f7d581ac802929185905b878210610c69575050836001959610610c50575b505050811b01600f5580f35b015160001960f88460031b161c19169055838080610c44565b80600185968294968601518155019501930190610c30565b600f84527f8d1108e10bcb7c27dddfc02ed9d693a074039d026cf4ea4240b40f7d581ac802601f840160051c810191838510610cd9575b601f0160051c01905b818110610cce5750610bc5565b848155600101610cc1565b9091508190610cb8565b634e487b7160e01b845260419052602483fd5b50346101f05760203660031901126101f057803592601054841015610d2f57602083610d21866112e2565b91905490519160031b1c8152f35b6044939192519263295f44f760e21b84528301526024820152fd5b5091346107b357816003193601126107b35760243592358152600c6020528181209081548410156107b35750602092610d219161132f565b5050346102425761085290610d96366112ad565b91925192610da384611379565b85845261084c838383611585565b50346101f057602092836003193601126107b35781358160608551610dd581611347565b82815287810183905286810182905201526001600160a01b039283610df983611858565b1615610e7a5750818491610e6f9352600e865220835193610e1985611347565b8154855283600183015416938686019485526003610e3960028501611462565b938388019485520154946060870195865282519788978189525190880152511690850152516080606085015260a084019061121c565b905160808301520390f35b845162461bcd60e51b81529081018690526014602482015273151bdad95b88191bd95cc81b9bdd08195e1a5cdd60621b6044820152606490fd5b5050346102425780600319360112610242576020906107df610ed4611241565b60243590611893565b505034610242578060031936011261024257602090610f06610efd611241565b6024359061217f565b90519015158152f35b83346107b357610852610f21366112ad565b91611585565b5090346101f0576020918260031936011261049e57358352600c82528083209281518093808654928381520195835280832092905b828210610f7e576104268686610f74828b0383611395565b5191829182611272565b835487529586019560019384019390910190610f5c565b5050346102425781600319360112610242576020906010549051908152f35b5090346101f057806003193601126101f057610fce611241565b91602435610fdb81611858565b3315158061107d575b80611054575b61103e576001600160a01b039485169482918691167f8c5be1e5ebec7d5bd14f71427d1e84f3dd0314c0f7b2291e5b200ac8c7c3b9258880a48452602052822080546001600160a01b031916909117905580f35b835163a9fbf51f60e01b81523381850152602490fd5b506001600160a01b03811686526005602090815284872033885290528386205460ff1615610fea565b506001600160a01b038116331415610fe4565b50346101f05760203660031901126101f0579182602093356110b181611858565b50825283528190205490516001600160a01b039091168152f35b5050346102425781600319360112610242578051908280546110ec81611428565b80855291600191808316908115610a655750600114611117575050506109f782610426940383611395565b80809650527f290decd9548b62a8d60345a988386fc84ba6bc95484008f6362f93160ef3e5635b82861061115b575050506109f782602061042695820101946109e5565b8054602087870181019190915290950194810161113e565b925050346101f05760203660031901126101f0573563ffffffff60e01b81168091036101f0576020925063780e9d6360e01b81149081156111b6575b5015158152f35b6380ac58cd60e01b8114915081156111e8575b81156111d7575b50386111af565b6301ffc9a760e01b149050386111d0565b635b5e139f60e01b811491506111c9565b60005b83811061120c5750506000910152565b81810151838201526020016111fc565b90602091611235815180928185528580860191016111f9565b601f01601f1916010190565b600435906001600160a01b038216820361125757565b600080fd5b602435906001600160a01b038216820361125757565b6020908160408183019282815285518094520193019160005b828110611299575050505090565b83518552938101939281019260010161128b565b6060906003190112611257576001600160a01b0390600435828116810361125757916024359081168103611257579060443590565b6008548110156113195760086000527ff3f7a9fe364faab93b216da50a3214154f22a0a2b415b23a84c8169e8b636ee30190600090565b634e487b7160e01b600052603260045260246000fd5b80548210156113195760005260206000200190600090565b6080810190811067ffffffffffffffff82111761136357604052565b634e487b7160e01b600052604160045260246000fd5b6020810190811067ffffffffffffffff82111761136357604052565b90601f8019910116810190811067ffffffffffffffff82111761136357604052565b67ffffffffffffffff811161136357601f01601f191660200190565b9291926113df826113b7565b916113ed6040519384611395565b829481845281830111611257578281602093846000960137010152565b9080601f8301121561125757816020611425933591016113d3565b90565b90600182811c92168015611458575b602083101461144257565b634e487b7160e01b600052602260045260246000fd5b91607f1691611437565b906040519182600082549261147684611428565b9081845260019485811690816000146114e557506001146114a2575b50506114a092500383611395565b565b9093915060005260209081600020936000915b8183106114cd5750506114a093508201013880611492565b855488840185015294850194879450918301916114b5565b9150506114a094506020925060ff191682840152151560051b8201013880611492565b67ffffffffffffffff81116113635760051b60200190565b600a546001600160a01b0316330361153457565b60405163118cdaa760e01b8152336004820152602490fd5b6001600160a01b0316801561156c57600052600360205260406000205490565b6040516322718ad960e21b815260006004820152602490fd5b6001600160a01b038281169391841561183f57600094838652602095600287526040968488832054166117fc5785825260028152848883205416963315158061176e575b508715801561173b575b84845260038352898420805460010190558784526002835289842080546001600160a01b0319168617905587858a7fddf252ad1be2c89b69c2b068fc378daa952ba7f163c4a11628f55a4df523b3ef8780a4156116cf57600854878452600983528984205561164187612125565b83880361167d575b50505050169283830361165c5750505050565b6064945051926364283d7b60e01b8452600484015260248301526044820152fd5b6116869061154c565b6000198101939084116116bb5782916007918a9452600681528383208584528152878484205587835252205538808080611649565b634e487b7160e01b83526011600452602483fd5b878414611641576116df8861154c565b878452600783528984205490898552600684528a852091818103611719575b5088855260078452848b812055845282528289812055611641565b8186528285528b862054818752808d8820558652600785528b862055386116fe565b600088815260046020526040902080546001600160a01b03191690558884526003835289842080546000190190556115d3565b806117bb575b1561177f57386115c9565b88878961179c576024915190637e27328960e01b82526004820152fd5b905163177e802f60e01b81523360048201526024810191909152604490fd5b5033881480156117e0575b8061177457508683526004825233868a8520541614611774565b5087835260058252888320338452825260ff89842054166117c6565b60649088519062461bcd60e51b82526004820152601e60248201527f5342543a20546f6b656e206973206e6f6e2d7472616e7366657261626c6500006044820152fd5b604051633250574960e11b815260006004820152602490fd5b6000818152600260205260409020546001600160a01b031690811561187b575090565b60249060405190637e27328960e01b82526004820152fd5b61189c8161154c565b8210156118c85760018060a01b0316600052600660205260406000209060005260205260406000205490565b60405163295f44f760e21b81526001600160a01b039190911660048201526024810191909152604490fd5b90939192833b611905575b5050505050565b604051630a85bd0160e11b8082526001600160a01b03938416600483015295831660248201526044810191909152608060648201529492169260209291859061195290608483019061121c565b039483816000978189895af18691816119fd575b506119c7575050503d6000146119be573d611980816113b7565b9061198e6040519283611395565b81528093823d92013e5b825192836119b957604051633250574960e11b815260048101849052602490fd5b019050fd5b60609250611998565b919450915063ffffffff60e01b16036119e5575038808080806118fe565b60249060405190633250574960e11b82526004820152fd5b9091508481813d8311611a36575b611a158183611395565b8101031261049a57516001600160e01b03198116810361049a579038611966565b503d611a0b565b929091611a48611520565b611a50612148565b6001600160a01b038416156120d15780511561208c57611a71601054612116565b908160105560405193611a8385611379565b6000808652838152600260205260409020546001600160a01b0316612047576000838152600260205260409020546001600160a01b03169485158015612010575b6001600160a01b0388166000818152600360209081526040808320805460010190558883526002909152812080546001600160a01b031990811684179091559891879183907fddf252ad1be2c89b69c2b068fc378daa952ba7f163c4a11628f55a4df523b3ef9080a48115611f8057600854866000526009602052604060002055611b4e86612125565b6001600160a01b03891603611f1d575b15611f0457863b611dc2575b50909192939483600052600d6020528160406000205581600052600c60205260406000208054600160401b81101561136357611bb081611bc9936001899401815561132f565b90919082549060031b91821b91600019901b1916179055565b604051611bd581611347565b828152602081019660018060a01b03831688526040820197858952606083019142835287600052600e602052604060002093518455600184019160018060a01b039051169082541617905560028201975197885167ffffffffffffffff811161136357611c428254611428565b99601f8b11611d7a575b88999a5060009896979850602090601f8311600114611ce65792826003937fca923b3e1dc3fd3ab757b34bd674821e06d0643ed332ce340c68bed95c7c2c1e989693611cd09896600092611cdb575b50508160011b9160001990861b1c19161790555b519101556040519182916020835260018060a01b031696602083019061121c565b0390a46001600b5590565b015190503880611c9b565b90601f198316918460005260206000209260005b818110611d5f5750937fca923b3e1dc3fd3ab757b34bd674821e06d0643ed332ce340c68bed95c7c2c1e989693611cd09896936001938360039810611d47575b505050811b019055611caf565b015160001983881b60f8161c19169055388080611d3a565b8284015185558d9a5060019094019360209384019301611cfa565b826000526020600020601f830160051c81019b60208410611db8575b601f0160051c019a5b8b8110611dac5750611c4c565b60008155600101611d9f565b909b508b90611d96565b60405160208180611dfc630a85bd0160e11b958683523360048401526000602484015289604484015260806064840152608483019061121c565b038160006001600160a01b038d165af160009181611ebf575b50611e7d57873d15611e75573d90611e2c826113b7565b91611e3a6040519384611395565b82523d6000602084013e5b81519182611e6e57604051633250574960e11b81526001600160a01b0383166004820152602490fd5b6020915001fd5b606090611e45565b63ffffffff60e0989394959697981b1603611e9d57949392919038611b6a565b604051633250574960e11b81526001600160a01b039091166004820152602490fd5b9091506020813d602011611efc575b81611edb60209383611395565b8101031261125757516001600160e01b031981168103611257579038611e15565b3d9150611ece565b6040516339e3563760e11b815260006004820152602490fd5b611f268861154c565b6000198101908111611f6a5760018060a01b038916600052600660205260406000208160005260205285604060002055856000526007602052604060002055611b5e565b634e487b7160e01b600052601160045260246000fd5b6001600160a01b0389168114611b4e57611f998161154c565b86600052600760205260406000205490826000526006602052604060002091818103611fe3575b508760005260076020526000604081205560005260205260006040812055611b4e565b81600052826020526040600020548160005280604060002055600052600760205260406000205538611fc0565b600085815260046020526040902080546001600160a01b031916905586600052600360205260406000206000198154019055611ac4565b60405162461bcd60e51b815260206004820152601e60248201527f5342543a20546f6b656e206973206e6f6e2d7472616e7366657261626c6500006044820152606490fd5b60405162461bcd60e51b815260206004820152601960248201527f5465616d206e616d652063616e6e6f7420626520656d707479000000000000006044820152606490fd5b60405162461bcd60e51b815260206004820152601b60248201527f43616e6e6f74206d696e7420746f207a65726f206164647265737300000000006044820152606490fd5b6000198114611f6a5760010190565b60085490600160401b82101561136357611bb08260016114a094016008556112e2565b6002600b5414612159576002600b55565b604051633ee5aeb560e01b8152600490fd5b80518210156113195760209160051b010190565b906121898261154c565b9160005b83811061219d5750505050600090565b6121a78183611893565b600052600d60205282604060002054146121c9576121c490612116565b61218d565b50505050600190565b6121db8161154c565b91600091825b8481106122255760405162461bcd60e51b8152602060048201526015602482015274139bc81c9959da5cdd1c985d1a5bdb88199bdd5b99605a1b6044820152606490fd5b61222f8183611893565b808552600d60205283604086205414612251575061224c90612116565b6121e1565b9450505050509056fea2646970667358221220cd31235e2d65d9eef67a0929f4181fb1ba588c381096e71f59a1f05ed29ece6c64736f6c63430008140033",
  "linkReferences": {},
  "deployedLinkReferences": {}
}