{
  "_format": "hh-sol-artifact-1",
  "contractName": "SubmissionRegistry",
  "sourceName": "contracts/SubmissionRegistry.sol",
  "abi": [
    {
      "inputs": [],
      "stateMutability": "nonpayable",
      "type": "constructor"
    },
    {
      "inputs": [
        {
          "internalType": "address",
          "name": "owner",
          "type": "address"
        }
      ],
      "name": "OwnableInvalidOwner",
      "type": "error"
    },
    {
      "inputs": [
        {
          "internalType": "address",
          "name": "account",
          "type": "address"
        }
      ],
      "name": "OwnableUnauthorizedAccount",
      "type": "error"
    },
    {
      "anonymous": false,
      "inputs": [
        {
          "indexed": true,
          "internalType": "address",
          "name": "previousOwner",
          "type": "address"
        },
        {
          "indexed": true,
          "internalType": "address",
          "name": "newOwner",
          "type": "address"
        }
      ],
      "name": "OwnershipTransferred",
      "type": "event"
    },
    {
      "anonymous": false,
      "inputs": [
        {
          "indexed": true,
          "internalType": "uint256",
          "name": "submissionId",
          "type": "uint256"
        },
        {
          "indexed": true,
          "internalType": "uint256",
          "name": "eventId",
          "type": "uint256"
        },
        {
          "indexed": true,
          "internalType": "uint256",
          "name": "teamId",
          "type": "uint256"
        },
        {
          "indexed": false,
          "internalType": "bytes32",
          "name": "hash",
          "type": "bytes32"
        },
        {
          "indexed": false,
          "internalType": "string",
          "name": "metadataURI",
          "type": "string"
        }
      ],
      "name": "SubmissionRegistered",
      "type": "event"
    },
    {
      "inputs": [
        {
          "internalType": "uint256",
          "name": "submissionId",
          "type": "uint256"
        }
      ],
      "name": "getSubmission",
      "outputs": [
        {
          "components": [
            {
              "internalType": "uint256",
              "name": "eventId",
              "type": "uint256"
            },
            {
              "internalType": "uint256",
              "name": "teamId",
              "type": "uint256"
            },
            {
              "internalType": "bytes32",
              "name": "hash",
              "type": "bytes32"
            },
            {
              "internalType": "string",
              "name": "metadataURI",
              "type": "string"
            },
            {
              "internalType": "uint256",
              "name": "timestamp",
              "type": "uint256"
            }
          ],
          "internalType": "struct SubmissionRegistry.Submission",
          "name": "",
          "type": "tuple"
        }
      ],
      "stateMutability": "view",
      "type": "function"
    },
    {
      "inputs": [],
      "name": "owner",
      "outputs": [
        {
          "internalType": "address",
          "name": "",
          "type": "address"
        }
      ],
      "stateMutability": "view",
      "type": "function"
    },
    {
      "inputs": [
        {
          "internalType": "uint256",
          "name": "eventId",
          "type": "uint256"
        },
        {
          "internalType": "uint256",
          "name": "teamId",
          "type": "uint256"
        },
        {
          "internalType": "bytes32",
          "name": "hash",
          "type": "bytes32"
        },
        {
          "internalType": "string",
          "name": "metadataURI",
          "type": "string"
        }
      ],
      "name": "registerSubmission",
      "outputs": [
        {
          "internalType": "uint256",
          "name": "",
          "type": "uint256"
        }
      ],
      "stateMutability": "nonpayable",
      "type": "function"
    },
    {
      "inputs": [],
      "name": "renounceOwnership",
      "outputs": [],
      "stateMutability": "nonpayable",
      "type": "function"
    },
    {
      "inputs": [],
      "name": "submissionCounter",
      "outputs": [
        {
          "internalType": "uint256",
          "name": "",
          "type": "uint256"
        }
      ],
      "stateMutability": "view",
      "type": "function"
    },
    {
      "inputs": [
        {
          "internalType": "uint256",
          "name": "",
          "type": "uint256"
        }
      ],
      "name": "submissions",
      "outputs": [
        {
          "internalType": "uint256",
          "name": "eventId",
          "type": "uint256"
        },
        {
          "internalType": "uint256",
          "name": "teamId",
          "type": "uint256"
        },
        {
          "internalType": "bytes32",
          "name": "hash",
          "type": "bytes32"
        },
        {
          "internalType": "string",
          "name": "metadataURI",
          "type": "string"
        },
        {
          "internalType": "uint256",
          "name": "timestamp",
          "type": "uint256"
        }
      ],
      "stateMutability": "view",
      "type": "function"
    },
    {
      "inputs": [
        {
          "internalType": "address",
          "name": "newOwner",
          "type": "address"
        }
      ],
      "name": "transferOwnership",
      "outputs": [],
      "stateMutability": "nonpayable",
      "type": "function"
    }
  ],
  "bytecode": "0x6080806040523461007a5733156100645760008054336001600160a01b03198216811783556040519290916001600160a01b0316907f8be0079c531659141344cd1fd0a4f28419497f9722a3daafe3b4186f6b6457e09080a361077090816100808239f35b631e4fbdf760e01b815260006004820152602490fd5b600080fdfe6080604052600436101561001257600080fd5b60003560e01c806333417ea0146102d95780633e8686cc1461020f578063715018a6146101b657806376c23ff1146101985780638da5cb5b1461016f578063ad73349e146100fe5763f2fde38b1461006957600080fd5b346100f95760203660031901126100f9576004356001600160a01b03818116918290036100f95761009861070e565b81156100e057600054826bffffffffffffffffffffffff60a01b821617600055167f8be0079c531659141344cd1fd0a4f28419497f9722a3daafe3b4186f6b6457e0600080a3005b604051631e4fbdf760e01b815260006004820152602490fd5b600080fd5b346100f95760203660031901126100f957600435600052600160205260406000208054600182015491610165600282015491600461013e60038301610668565b9101549260405195869586526020860152604085015260a0606085015260a08401906105ee565b9060808301520390f35b346100f95760003660031901126100f9576000546040516001600160a01b039091168152602090f35b346100f95760003660031901126100f9576020600254604051908152f35b346100f95760003660031901126100f9576101cf61070e565b600080546001600160a01b0319811682556001600160a01b03167f8be0079c531659141344cd1fd0a4f28419497f9722a3daafe3b4186f6b6457e08280a3005b346100f9576020806003193601126100f95760006080604051610231816105b0565b8281528284820152826040820152606080820152015260043560005260018152604060002060405190610263826105b0565b805482526102ce600182015491848401928352600281015460408501908152600461029060038401610668565b92606087019384520154936080860194855260405196879681885251908701525160408601525160608501525160a0608085015260c08401906105ee565b905160a08301520390f35b346100f95760803660031901126100f95760643567ffffffffffffffff81116100f957366023820112156100f95780600401359067ffffffffffffffff821161055057610331601f8301601f191660200160806105cc565b8160805236602483830101116100f957600091602091819060240160a037608001015261035c61070e565b6044351561057c5760025460001981146105665760018101600255604051610383816105b0565b6004358152602435602082015260408101916044358352600160608301916080835242608085015201600052600160205260406000209282518455602083015160018501555160028401555180519067ffffffffffffffff8211610550576103ee600385015461062e565b601f8111610509575b50602090601f83116001146104965791806004949260809460009261048b575b50508160011b916000199060031b1c19161760038501555b01519101556020600254604051604435815260408382015260243590827f187e1f0d46e2de50bd5deeb18dadcda864d2a27bfd7b04529613cfeac229fafd60043592806104806040820160806105ee565b0390a4604051908152f35b015190508680610417565b90601f198316916003860160005260206000209260005b8181106104f1575092600192859260809660049896106104d8575b505050811b01600385015561042f565b015160001960f88460031b161c191690558680806104c8565b929360206001819287860151815501950193016104ad565b600385016000526020600020601f840160051c810160208510610549575b601f830160051c8201811061053d5750506103f7565b60008155600101610527565b5080610527565b634e487b7160e01b600052604160045260246000fd5b634e487b7160e01b600052601160045260246000fd5b60405162461bcd60e51b815260206004820152600c60248201526b092dcecc2d8d2c840d0c2e6d60a31b6044820152606490fd5b60a0810190811067ffffffffffffffff82111761055057604052565b90601f8019910116810190811067ffffffffffffffff82111761055057604052565b919082519283825260005b84811061061a575050826000602080949584010152601f8019910116010190565b6020818301810151848301820152016105f9565b90600182811c9216801561065e575b602083101461064857565b634e487b7160e01b600052602260045260246000fd5b91607f169161063d565b906040519182600082549261067c8461062e565b9081845260019485811690816000146106eb57506001146106a8575b50506106a6925003836105cc565b565b9093915060005260209081600020936000915b8183106106d35750506106a693508201013880610698565b855488840185015294850194879450918301916106bb565b9150506106a694506020925060ff191682840152151560051b8201013880610698565b6000546001600160a01b0316330361072257565b60405163118cdaa760e01b8152336004820152602490fdfea2646970667358221220463d54e43e2e14dd4069fe021599c96d18f078bc49f4657c0b9d3fe43b256d5d64736f6c63430008140033",
  "linkReferences": {},
  "deployedLinkReferences": {}
}