{
  "_format": "hh-sol-artifact-1",
  "contractName": "CheckIn",
  "sourceName": "contracts/CheckIn.sol",
  "abi": [
    {
      "inputs": [],
      "stateMutability": "nonpayable",
      "type": "constructor"
    },
    {
      "inputs": [
        {
          "internalType": "address",
          "name": "owner",
          "type": "address"
        }
      ],
      "name": "OwnableInvalidOwner",
      "type": "error"
    },
    {
      "inputs": [
        {
          "internalType": "address",
          "name": "account",
          "type": "address"
        }
      ],
      "name": "OwnableUnauthorizedAccount",
      "type": "error"
    },
    {
      "anonymous": false,
      "inputs": [
        {
          "indexed": true,
          "internalType": "uint256",
          "name": "eventId",
          "type": "uint256"
        },
        {
          "indexed": true,
          "internalType": "address",
          "name": "user",
          "type": "address"
        },
        {
          "indexed": false,
          "internalType": "uint256",
          "name": "timestamp",
          "type": "uint256"
        }
      ],
      "name": "CheckedIn",
      "type": "event"
    },
    {
      "anonymous": false,
      "inputs": [
        {
          "indexed": true,
          "internalType": "address",
          "name": "previousOwner",
          "type": "address"
        },
        {
          "indexed": true,
          "internalType": "address",
          "name": "newOwner",
          "type": "address"
        }
      ],
      "name": "OwnershipTransferred",
      "type": "event"
    },
    {
      "inputs": [
        {
          "internalType": "uint256",
          "name": "eventId",
          "type": "uint256"
        },
        {
          "internalType": "address[]",
          "name": "users",
          "type": "address[]"
        }
      ],
      "name": "batchRecordCheckIn",
      "outputs": [],
      "stateMutability": "nonpayable",
      "type": "function"
    },
    {
      "inputs": [
        {
          "internalType": "uint256",
          "name": "",
          "type": "uint256"
        },
        {
          "internalType": "address",
          "name": "",
          "type": "address"
        }
      ],
      "name": "checkIns",
      "outputs": [
        {
          "internalType": "uint256",
          "name": "eventId",
          "type": "uint256"
        },
        {
          "internalType": "address",
          "name": "user",
          "type": "address"
        },
        {
          "internalType": "uint256",
          "name": "timestamp",
          "type": "uint256"
        },
        {
          "internalType": "bool",
          "name": "exists",
          "type": "bool"
        }
      ],
      "stateMutability": "view",
      "type": "function"
    },
    {
      "inputs": [
        {
          "internalType": "uint256",
          "name": "",
          "type": "uint256"
        }
      ],
      "name": "eventCheckInCounts",
      "outputs": [
        {
          "internalType": "uint256",
          "name": "",
          "type": "uint256"
        }
      ],
      "stateMutability": "view",
      "type": "function"
    },
    {
      "inputs": [
        {
          "internalType": "uint256",
          "name": "",
          "type": "uint256"
        },
        {
          "internalType": "uint256",
          "name": "",
          "type": "uint256"
        }
      ],
      "name": "eventCheckInUsers",
      "outputs": [
        {
          "internalType": "address",
          "name": "",
          "type": "address"
        }
      ],
      "stateMutability": "view",
      "type": "function"
    },
    {
      "inputs": [
        {
          "internalType": "uint256",
          "name": "eventId",
          "type": "uint256"
        },
        {
          "internalType": "address",
          "name": "user",
          "type": "address"
        }
      ],
      "name": "getCheckIn",
      "outputs": [
        {
          "components": [
            {
              "internalType": "uint256",
              "name": "eventId",
              "type": "uint256"
            },
            {
              "internalType": "address",
              "name": "user",
              "type": "address"
            },
            {
              "internalType": "uint256",
              "name": "timestamp",
              "type": "uint256"
            },
            {
              "internalType": "bool",
              "name": "exists",
              "type": "bool"
            }
          ],
          "internalType": "struct CheckIn.CheckInRecord",
          "name": "",
          "type": "tuple"
        }
      ],
      "stateMutability": "view",
      "type": "function"
    },
    {
      "inputs": [
        {
          "internalType": "uint256",
          "name": "eventId",
          "type": "uint256"
        }
      ],
      "name": "getCheckInCount",
      "outputs": [
        {
          "internalType": "uint256",
          "name": "",
          "type": "uint256"
        }
      ],
      "stateMutability": "view",
      "type": "function"
    },
    {
      "inputs": [
        {
          "internalType": "uint256",
          "name": "eventId",
          "type": "uint256"
        }
      ],
      "name": "getEventCheckInUsers",
      "outputs": [
        {
          "internalType": "address[]",
          "name": "",
          "type": "address[]"
        }
      ],
      "stateMutability": "view",
      "type": "function"
    },
    {
      "inputs": [
        {
          "internalType": "uint256",
          "name": "eventId",
          "type": "uint256"
        },
        {
          "internalType": "address",
          "name": "user",
          "type": "address"
        }
      ],
      "name": "hasCheckedIn",
      "outputs": [
        {
          "internalType": "bool",
          "name": "",
          "type": "bool"
        }
      ],
      "stateMutability": "view",
      "type": "function"
    },
    {
      "inputs": [],
      "name": "owner",
      "outputs": [
        {
          "internalType": "address",
          "name": "",
          "type": "address"
        }
      ],
      "stateMutability": "view",
      "type": "function"
    },
    {
      "inputs": [
        {
          "internalType": "uint256",
          "name": "eventId",
          "type": "uint256"
        },
        {
          "internalType": "address",
          "name": "user",
          "type": "address"
        }
      ],
      "name": "recordCheckIn",
      "outputs": [],
      "stateMutability": "nonpayable",
      "type": "function"
    },
    {
      "inputs": [],
      "name": "renounceOwnership",
      "outputs": [],
      "stateMutability": "nonpayable",
      "type": "function"
    },
    {
      "inputs": [
        {
          "internalType": "address",
          "name": "newOwner",
          "type": "address"
        }
      ],
      "name": "transferOwnership",
      "outputs": [],
      "stateMutability": "nonpayable",
      "type": "function"
    }
  ],
  "bytecode": "0x6080806040523461007a5733156100645760008054336001600160a01b03198216811783556040519290916001600160a01b0316907f8be0079c531659141344cd1fd0a4f28419497f9722a3daafe3b4186f6b6457e09080a3610aa590816100808239f35b631e4fbdf760e01b815260006004820152602490fd5b600080fdfe60406080815260048036101561001457600080fd5b600091823560e01c80632a53f006146107a35780635502fcbf14610689578063715018a6146107495780637d042ddd146106ff5780637d404254146106b1578063897c9e31146106895780638da5cb5b14610661578063a9cafee6146105fa578063bf8b6250146102f6578063cfb17e5d1461023f578063f2fde38b146101b25763f8819bb3146100a457600080fd5b346101ae57806003193601126101ae578135906100bf61096d565b928151926100cc846109b6565b858452856060602095828782015282868201520152808652600184528286209160018060a01b0380961692838852855260ff600385892001541615610176575094829160809682526001855282822090825284522081519261012d846109b6565b81549485855280600184015416828601908152606060ff6003600287015496888a0197885201541696019515158652845196875251169085015251908301525115156060820152f35b835162461bcd60e51b8152908101859052601260248201527110da1958dacb5a5b881b9bdd08199bdd5b9960721b6044820152606490fd5b8280fd5b50346101ae5760203660031901126101ae576001600160a01b0382358181169391929084900361023b576101e4610a0a565b831561022557505082546001600160a01b0319811683178455167f8be0079c531659141344cd1fd0a4f28419497f9722a3daafe3b4186f6b6457e08380a380f35b51631e4fbdf760e01b8152908101849052602490fd5b8480fd5b5091346102f357602091826003193601126102ef5792919235815260038352818120908251808584549182815201908194845286842090845b8181106102d2575050508161028e9103826109e8565b83519485948186019282875251809352850193925b8281106102b257505050500390f35b83516001600160a01b0316855286955093810193928101926001016102a3565b82546001600160a01b031684529288019260019283019201610278565b5080fd5b80fd5b509190346102ef57826003193601126102ef578035602493843567ffffffffffffffff958682116105f657366023830112156105f657818501359687116105e5578660051b9183519260209861034e8a8301866109e8565b84528289850191830101913683116105e1578301905b8282106105be57505050610376610a0a565b6064948583511161058d57865b8351811015610589578588526001808a5285892086906001600160a01b0390816103ad868a610a5b565b51168c528c5260ff92838c600394859120015416156103d9575b505050506103d490610a36565b610383565b816103e4868a610a5b565b5116936103ef610a0a565b8415610551578a8d52818e52898d20858e528e52898d20840154811661051b578a8a918f8f908791855195610423876109b6565b858752828701918b83528188019342855260608901978a89528252898152828220908d8352522095518655878787019151166bffffffffffffffffffffffff60a01b82541617905551936002948582015501915115159060ff1983541691161790558a8d528d52888c206104978154610a36565b9055898c52828d52888c20805491600160401b83101561050957820181556103d495949392916104c691610988565b81939154911b9184831b921b1916179055877f6b2e4e52ba8b5cff4a90d18b1efd0f88c74ed562b5dd3b13f01a1759699b2db28c8951428152a3903880806103c7565b634e487b7160e01b8e5260418852888efd5b895162461bcd60e51b81528088018f90526012818a01527120b63932b0b23c9031b432b1b5b2b21034b760711b60448201528c90fd5b895162461bcd60e51b81528088018f90526014818a015273496e76616c69642075736572206164647265737360601b60448201528c90fd5b8780f35b600f86928986519362461bcd60e51b85528401528201526e426174636820746f6f206c6172676560881b6044820152fd5b81356001600160a01b03811681036105dd578152908901908901610364565b8980fd5b8880fd5b634e487b7160e01b86526041855285fd5b8580fd5b50346101ae57806003193601126101ae578060809361061761096d565b93358152600160205281812060018060a01b038095168252602052208054926001820154169160ff6003600284015493015416928151948552602085015283015215156060820152f35b8382346102ef57816003193601126102ef57905490516001600160a01b039091168152602090f35b5090346101ae5760203660031901126101ae5760209282913581526002845220549051908152f35b5082346102f357816003193601126102f3576024359235815260036020528181209081548410156102f357506020926106e991610988565b60018060a01b0391549060031b1c169051908152f35b5090346101ae57816003193601126101ae5760038260209460ff9361072261096d565b90358252600187528282206001600160a01b03909116825286522001549151911615158152f35b83346102f357806003193601126102f357610762610a0a565b80546001600160a01b03198116825581906001600160a01b03167f8be0079c531659141344cd1fd0a4f28419497f9722a3daafe3b4186f6b6457e08280a380f35b508290346102ef57806003193601126102ef5782356107c061096d565b6107c8610a0a565b6001600160a01b039081169283156109345782855260209160018352818620858752835260ff60038388200154166108fc578151610805816109b6565b848152600384820191878352848101428152606082019360018552888b5260018852868b208a8c528852868b209251835585600184019151166bffffffffffffffffffffffff60a01b825416179055516002820155019051151560ff801983541691161790558386526002835281862061087f8154610a36565b905583865260038352818620805490600160401b8210156108e957816108ce9160017f6b2e4e52ba8b5cff4a90d18b1efd0f88c74ed562b5dd3b13f01a1759699b2db297969594018155610988565b819291549060031b9188831b921b191617905551428152a380f35b634e487b7160e01b885260418952602488fd5b815162461bcd60e51b8152808801849052601260248201527120b63932b0b23c9031b432b1b5b2b21034b760711b6044820152606490fd5b5162461bcd60e51b81526020818701526014602482015273496e76616c69642075736572206164647265737360601b6044820152606490fd5b602435906001600160a01b038216820361098357565b600080fd5b80548210156109a05760005260206000200190600090565b634e487b7160e01b600052603260045260246000fd5b6080810190811067ffffffffffffffff8211176109d257604052565b634e487b7160e01b600052604160045260246000fd5b90601f8019910116810190811067ffffffffffffffff8211176109d257604052565b6000546001600160a01b03163303610a1e57565b60405163118cdaa760e01b8152336004820152602490fd5b6000198114610a455760010190565b634e487b7160e01b600052601160045260246000fd5b80518210156109a05760209160051b01019056fea264697066735822122025596161c13ca71ec65d4c68bcf507d579bb67e2e114ae363c0450d243e6364464736f6c63430008140033",
  "linkReferences": {},
  "deployedLinkReferences": {}
}