{"contracts/RegistrationSBT.sol":{"RegistrationSBT":{"abi":[{"inputs":[{"internalType":"string","name":"name","type":"string"},{"internalType":"string","name":"symbol","type":"string"}],"stateMutability":"nonpayable","type":"constructor"},{"inputs":[],"name":"ERC721EnumerableForbiddenBatchMint","type":"error"},{"inputs":[{"internalType":"address","name":"sender","type":"address"},{"internalType":"uint256","name":"tokenId","type":"uint256"},{"internalType":"address","name":"owner","type":"address"}],"name":"ERC721IncorrectOwner","type":"error"},{"inputs":[{"internalType":"address","name":"operator","type":"address"},{"internalType":"uint256","name":"tokenId","type":"uint256"}],"name":"ERC721InsufficientApproval","type":"error"},{"inputs":[{"internalType":"address","name":"approver","type":"address"}],"name":"ERC721InvalidApprover","type":"error"},{"inputs":[{"internalType":"address","name":"operator","type":"address"}],"name":"ERC721InvalidOperator","type":"error"},{"inputs":[{"internalType":"address","name":"owner","type":"address"}],"name":"ERC721InvalidOwner","type":"error"},{"inputs":[{"internalType":"address","name":"receiver","type":"address"}],"name":"ERC721InvalidReceiver","type":"error"},{"inputs":[{"internalType":"address","name":"sender","type":"address"}],"name":"ERC721InvalidSender","type":"error"},{"inputs":[{"internalType":"uint256","name":"tokenId","type":"uint256"}],"name":"ERC721NonexistentToken","type":"error"},{"inputs":[{"internalType":"address","name":"owner","type":"address"},{"internalType":"uint256","name":"index","type":"uint256"}],"name":"ERC721OutOfBoundsIndex","type":"error"},{"inputs":[{"internalType":"address","name":"owner","type":"address"}],"name":"OwnableInvalidOwner","type":"error"},{"inputs":[{"internalType":"address","name":"account","type":"address"}],"name":"OwnableUnauthorizedAccount","type":"error"},{"inputs":[],"name":"ReentrancyGuardReentrantCall","type":"error"},{"anonymous":false,"inputs":[{"indexed":true,"internalType":"address","name":"owner","type":"address"},{"indexed":true,"internalType":"address","name":"approved","type":"address"},{"indexed":true,"internalType":"uint256","name":"tokenId","type":"uint256"}],"name":"Approval","type":"event"},{"anonymous":false,"inputs":[{"indexed":true,"internalType":"address","name":"owner","type":"address"},{"indexed":true,"internalType":"address","name":"operator","type":"address"},{"indexed":false,"internalType":"bool","name":"approved","type":"bool"}],"name":"ApprovalForAll","type":"event"},{"anonymous":false,"inputs":[{"indexed":true,"internalType":"address","name":"previousOwner","type":"address"},{"indexed":true,"internalType":"address","name":"newOwner","type":"address"}],"name":"OwnershipTransferred","type":"event"},{"anonymous":false,"inputs":[{"indexed":true,"internalType":"uint256","name":"tokenId","type":"uint256"},{"indexed":true,"internalType":"uint256","name":"eventId","type":"uint256"},{"indexed":true,"internalType":"address","name":"recipient","type":"address"},{"indexed":false,"internalType":"string","name":"teamName","type":"string"}],"name":"RegistrationMinted","type":"event"},{"anonymous":false,"inputs":[{"indexed":true,"internalType":"address","name":"from","type":"address"},{"indexed":true,"internalType":"address","name":"to","type":"address"},{"indexed":true,"internalType":"uint256","name":"tokenId","type":"uint256"}],"name":"Transfer","type":"event"},{"inputs":[{"internalType":"address","name":"to","type":"address"},{"internalType":"uint256","name":"tokenId","type":"uint256"}],"name":"approve","outputs":[],"stateMutability":"nonpayable","type":"function"},{"inputs":[{"internalType":"address","name":"owner","type":"address"}],"name":"balanceOf","outputs":[{"internalType":"uint256","name":"","type":"uint256"}],"stateMutability":"view","type":"function"},{"inputs":[{"internalType":"address[]","name":"recipients","type":"address[]"},{"internalType":"uint256[]","name":"eventIds","type":"uint256[]"},{"internalType":"string[]","name":"teamNames","type":"string[]"}],"name":"batchMintRegistrations","outputs":[{"internalType":"uint256[]","name":"","type":"uint256[]"}],"stateMutability":"nonpayable","type":"function"},{"inputs":[{"internalType":"uint256","name":"","type":"uint256"},{"internalType":"uint256","name":"","type":"uint256"}],"name":"eventTokens","outputs":[{"internalType":"uint256","name":"","type":"uint256"}],"stateMutability":"view","type":"function"},{"inputs":[{"internalType":"uint256","name":"tokenId","type":"uint256"}],"name":"getApproved","outputs":[{"internalType":"address","name":"","type":"address"}],"stateMutability":"view","type":"function"},{"inputs":[{"internalType":"uint256","name":"eventId","type":"uint256"}],"name":"getEventTokens","outputs":[{"internalType":"uint256[]","name":"","type":"uint256[]"}],"stateMutability":"view","type":"function"},{"inputs":[{"internalType":"uint256","name":"tokenId","type":"uint256"}],"name":"getRegistrationData","outputs":[{"components":[{"internalType":"uint256","name":"eventId","type":"uint256"},{"internalType":"address","name":"teamLeader","type":"address"},{"internalType":"string","name":"teamName","type":"string"},{"internalType":"uint256","name":"registeredAt","type":"uint256"}],"internalType":"struct RegistrationSBT.RegistrationData","name":"","type":"tuple"}],"stateMutability":"view","type":"function"},{"inputs":[{"internalType":"address","name":"owner","type":"address"},{"internalType":"uint256","name":"eventId","type":"uint256"}],"name":"getRegistrationTokenId","outputs":[{"internalType":"uint256","name":"","type":"uint256"}],"stateMutability":"view","type":"function"},{"inputs":[{"internalType":"address","name":"owner","type":"address"},{"internalType":"uint256","name":"eventId","type":"uint256"}],"name":"hasRegistration","outputs":[{"internalType":"bool","name":"","type":"bool"}],"stateMutability":"view","type":"function"},{"inputs":[{"internalType":"address","name":"owner","type":"address"},{"internalType":"address","name":"operator","type":"address"}],"name":"isApprovedForAll","outputs":[{"internalType":"bool","name":"","type":"bool"}],"stateMutability":"view","type":"function"},{"inputs":[{"internalType":"address","name":"to","type":"address"},{"internalType":"uint256","name":"eventId","type":"uint256"},{"internalType":"string","name":"teamName","type":"string"}],"name":"mintRegistration","outputs":[{"internalType":"uint256","name":"","type":"uint256"}],"stateMutability":"nonpayable","type":"function"},{"inputs":[],"name":"name","outputs":[{"internalType":"string","name":"","type":"string"}],"stateMutability":"view","type":"function"},{"inputs":[],"name":"owner","outputs":[{"internalType":"address","name":"","type":"address"}],"stateMutability":"view","type":"function"},{"inputs":[{"internalType":"uint256","name":"tokenId","type":"uint256"}],"name":"ownerOf","outputs":[{"internalType":"address","name":"","type":"address"}],"stateMutability":"view","type":"function"},{"inputs":[],"name":"renounceOwnership","outputs":[],"stateMutability":"nonpayable","type":"function"},{"inputs":[{"internalType":"address","name":"from","type":"address"},{"internalType":"address","name":"to","type":"address"},{"internalType":"uint256","name":"tokenId","type":"uint256"}],"name":"safeTransferFrom","outputs":[],"stateMutability":"nonpayable","type":"function"},{"inputs":[{"internalType":"address","name":"from","type":"address"},{"internalType":"address","name":"to","type":"address"},{"internalType":"uint256","name":"tokenId","type":"uint256"},{"internalType":"bytes","name":"data","type":"bytes"}],"name":"safeTransferFrom","outputs":[],"stateMutability":"nonpayable","type":"function"},{"inputs":[{"internalType":"address","name":"operator","type":"address"},{"internalType":"bool","name":"approved","type":"bool"}],"name":"setApprovalForAll","outputs":[],"stateMutability":"nonpayable","type":"function"},{"inputs":[{"internalType":"string","name":"baseURI","type":"string"}],"name":"setBaseURI","outputs":[],"stateMutability":"nonpayable","type":"function"},{"inputs":[{"internalType":"bytes4","name":"interfaceId","type":"bytes4"}],"name":"supportsInterface","outputs":[{"internalType":"bool","name":"","type":"bool"}],"stateMutability":"view","type":"function"},{"inputs":[],"name":"symbol","outputs":[{"internalType":"string","name":"","type":"string"}],"stateMutability":"view","type":"function"},{"inputs":[{"internalType":"uint256","name":"index","type":"uint256"}],"name":"tokenByIndex","outputs":[{"internalType":"uint256","name":"","type":"uint256"}],"stateMutability":"view","type":"function"},{"inputs":[{"internalType":"uint256","name":"","type":"uint256"}],"name":"tokenData","outputs":[{"internalType":"uint256","name":"eventId","type":"uint256"},{"internalType":"address","name":"teamLeader","type":"address"},{"internalType":"string","name":"teamName","type":"string"},{"internalType":"uint256","name":"registeredAt","type":"uint256"}],"stateMutability":"view","type":"function"},{"inputs":[{"internalType":"address","name":"owner","type":"address"},{"internalType":"uint256","name":"index","type":"uint256"}],"name":"tokenOfOwnerByIndex","outputs":[{"internalType":"uint256","name":"","type":"uint256"}],"stateMutability":"view","type":"function"},{"inputs":[{"internalType":"uint256","name":"","type":"uint256"}],"name":"tokenToEvent","outputs":[{"internalType":"uint256","name":"","type":"uint256"}],"stateMutability":"view","type":"function"},{"inputs":[{"internalType":"uint256","name":"tokenId","type":"uint256"}],"name":"tokenURI","outputs":[{"internalType":"string","name":"","type":"string"}],"stateMutability":"view","type":"function"},{"inputs":[],"name":"totalSupply","outputs":[{"internalType":"uint256","name":"","type":"uint256"}],"stateMutability":"view","type":"function"},{"inputs":[{"internalType":"address","name":"from","type":"address"},{"internalType":"address","name":"to","type":"address"},{"internalType":"uint256","name":"tokenId","type":"uint256"}],"name":"transferFrom","outputs":[],"stateMutability":"nonpayable","type":"function"},{"inputs":[{"internalType":"address","name":"newOwner","type":"address"}],"name":"transferOwnership","outputs":[],"stateMutability":"nonpayable","type":"function"}],"evm":{"bytecode":{"linkReferences":{},"object":"6080604052346200038657620026b4803803806200001d816200038b565b9283398101604082820312620003865781516001600160401b0392908381116200038657826200004f918301620003b1565b906020928382015185811162000386576200006b9201620003b1565b92815181811162000370576000938454916001948584811c9416801562000365575b8385101462000351578190601f94858111620002fe575b5083908583116001146200029a5788926200028e575b5050600019600383901b1c191690851b1785555b85519283116200027a5783548481811c911680156200026f575b828210146200025b5782811162000213575b5080918311600114620001ad5750839482939492620001a1575b5050600019600383901b1c191690821b1781555b33156200018857600a8054336001600160a01b031982168117909255604051936001600160a01b03909116907f8be0079c531659141344cd1fd0a4f28419497f9722a3daafe3b4186f6b6457e09080a3600b556122909081620004248239f35b604051631e4fbdf760e01b815260048101839052602490fd5b01519050388062000114565b90601f198316958486528286209286905b888210620001fb5750508385969710620001e1575b505050811b01815562000128565b015160001960f88460031b161c19169055388080620001d3565b808785968294968601518155019501930190620001be565b8486528186208380860160051c82019284871062000251575b0160051c019085905b82811062000245575050620000fa565b87815501859062000235565b925081926200022c565b634e487b7160e01b86526022600452602486fd5b90607f1690620000e8565b634e487b7160e01b85526041600452602485fd5b015190503880620000ba565b8880528489208894509190601f1984168a5b87828210620002e75750508411620002cd575b505050811b018555620000ce565b015160001960f88460031b161c19169055388080620002bf565b8385015186558b97909501949384019301620002ac565b9091508780528388208580850160051c82019286861062000347575b918991869594930160051c01915b82811062000338575050620000a4565b8a815585945089910162000328565b925081926200031a565b634e487b7160e01b87526022600452602487fd5b93607f16936200008d565b634e487b7160e01b600052604160045260246000fd5b600080fd5b6040519190601f01601f191682016001600160401b038111838210176200037057604052565b919080601f84011215620003865782516001600160401b0381116200037057602090620003e7601f8201601f191683016200038b565b92818452828287010111620003865760005b8181106200040f57508260009394955001015290565b8581018301518482018401528201620003f956fe6080604081815260048036101561001557600080fd5b600092833560e01c90816301ffc9a7146111735750806306fdde03146110cb578063081812fc14611090578063095ea7b314610fb457806318160ddd14610f955780631f9ab38d14610f2757806323b872dd14610f0f578063282e093e14610edd5780632f745c5914610eb45780633032dbdd14610db157806342842e0e14610d825780634bb4a86314610d4a5780634f6ccce714610cf657806355f804b314610b6a5780636352211e14610b3957806370a0823114610b13578063715018a614610ab65780638da5cb5b14610a8d57806395d89b41146109aa578063a22cb4651461090d578063af22230c146108c1578063b4b5b48f14610855578063b88d4fde146107e6578063c5fd992d146107b6578063c87b56dd14610500578063cc9d7071146104d9578063d2d576aa14610246578063e985e9c5146101f45763f2fde38b1461016257600080fd5b346101f05760203660031901126101f05761017b611241565b90610184611520565b6001600160a01b039182169283156101da575050600a54826bffffffffffffffffffffffff60a01b821617600a55167f8be0079c531659141344cd1fd0a4f28419497f9722a3daafe3b4186f6b6457e08380a380f35b51631e4fbdf760e01b8152908101849052602490fd5b8280fd5b50503461024257806003193601126102425760ff81602093610214611241565b61021c61125c565b6001600160a01b0391821683526005875283832091168252855220549151911615158152f35b5080fd5b50346101f05760603660031901126101f05780359067ffffffffffffffff908183116104d557366023840112156104d557828101359461028586611508565b9161029286519384611395565b8683526020948584016024809960051b830101913683116104d5578901905b8282106104b6575050508635968488116101f057366023890112156101f05787820135976102de89611508565b986102eb89519a8b611395565b808a5282888b019160051b830101913683116104b25783899101915b8383106104a257505050506044359480861161049e573660238701121561049e578583013561033581611508565b966103428a519889611395565b818852838989019260051b8201019236841161049a57848201925b848410610470575050505050610371611520565b610379612148565b835188518091149081610465575b501561042a57505081519361039b85611508565b946103a887519687611395565b8086526103b7601f1991611508565b019036908601375b81518110156104145761040f906103ff6001600160a01b036103e1838661216b565b51166103ed838a61216b565b516103f8848861216b565b5191611a3d565b610409828761216b565b52612116565b6103bf565b6001600b558451806104268682611272565b0390f35b865162461bcd60e51b815291820186905260169082015275082e4e4c2f2e640d8cadccee8d040dad2e6dac2e8c6d60531b6044820152606490fd5b905085511438610387565b8335828111610496578b9161048b839289369188010161140a565b81520193019261035d565b8880fd5b8680fd5b8380fd5b8235815291810191899101610307565b8580fd5b81356001600160a01b03811681036104b25781529087019087016102b1565b8480fd5b50346101f05760203660031901126101f0576020928291358152600d845220549051908152f35b5082903461024257602091826003193601126107b357829084833561052481611858565b508151948391600f548761053782611428565b94858252888201956001938a858216918260001461079657505060011461073d575b5090610566910389611395565b87511561071e5781809387917a184f03e93ff9f4daa797ed6e38ed64bf6a1f0100000000000000009081811015610711575b5050886d04ee2d6d415b85acef810000000080871015610702575b5050662386f26fc10000808610156106f3575b506305f5e100808610156106e4575b50612710808610156106d8575b505060648410156106ca575b60219082600a809610156106c3575b9392919061062483820161061c610613826113b7565b9a519a8b611395565b808a526113b7565b888b019990601f1901368b3750870101905b61068d575b505050509361067c926106619492610670610426978a51978895518092888801906111f9565b840191518093868401906111f9565b01038084520182611395565b925b5192828493845283019061121c565b600019019083906f181899199a1a9b1b9c1cb0b131b232b360811b8282061a8353049182156106be57919082610636565b61063b565b01826105fd565b6064909304926002016105ee565b90940493018b806105e2565b6008919295049401908c6105d5565b6010919295049401908c6105c6565b9091929504940190888d6105b3565b0494508691508c80610598565b505050509091506104269250519061073582611379565b81529261067e565b600f89528891507f8d1108e10bcb7c27dddfc02ed9d693a074039d026cf4ea4240b40f7d581ac8025b81831061077b57505081018801610566610559565b8054838d018c01528c9a8e99508c9450909201918401610766565b60ff1916895291151560051b840190910191506105669050610559565b80fd5b5050346102425780600319360112610242576020906107df6107d6611241565b602435906121d2565b9051908152f35b83823461024257608036600319011261024257610801611241565b61080961125c565b6044359060643567ffffffffffffffff81116104b257366023820112156104b25761085294816024610840933693013591016113d3565b9261084c838383611585565b336118f3565b80f35b50346101f05760203660031901126101f057358252600e60205290819020805460018201546001600160a01b03169290916108b7906080600361089a60028401611462565b92015493805196879687526020870152850152608084019061121c565b9060608301520390f35b50346101f05760603660031901126101f0576108db611241565b926044359067ffffffffffffffff82116107b35750926109036107df9260209536910161140a565b9060243590611a3d565b5090346101f057806003193601126101f057610927611241565b90602435918215158093036104d5576001600160a01b03169283156109955750338452600560205280842083855260205280842060ff1981541660ff8416179055519081527f17307eab39ab6107e8899845ad3d59bd9653f200f220920489ca2b5937696c3160203392a380f35b836024925191630b61174360e31b8352820152fd5b5050346102425781600319360112610242578051908260018054916109ce83611428565b80865292828116908115610a655750600114610a09575b5050506109f782610426940383611395565b5191829160208352602083019061121c565b94508085527fb10e2d527612073b26eecdfd717e6a320cf44b4afac2b0732d9fcbe2b7fa0cf65b828610610a4d575050506109f782602061042695820101946109e5565b80546020878701810191909152909501948101610a30565b6104269750869350602092506109f794915060ff191682840152151560051b820101946109e5565b505034610242578160031936011261024257600a5490516001600160a01b039091168152602090f35b83346107b357806003193601126107b357610acf611520565b600a80546001600160a01b0319811690915581906001600160a01b03167f8be0079c531659141344cd1fd0a4f28419497f9722a3daafe3b4186f6b6457e08280a380f35b505034610242576020366003190112610242576020906107df610b34611241565b61154c565b5091346107b35760203660031901126107b35750610b5960209235611858565b90516001600160a01b039091168152f35b5082346107b3576020806003193601126102425767ffffffffffffffff90833582811161049e57610b9e903690860161140a565b93610ba7611520565b8451928311610ce35750610bbc600f54611428565b601f8111610c81575b5080601f8311600114610c0057508293829392610bf5575b50508160011b916000199060031b1c191617600f5580f35b015190508380610bdd565b600f8452601f198316947f8d1108e10bcb7c27dddfc02ed9d693a074039d026cf4ea4240b40f7d581ac802929185905b878210610c69575050836001959610610c50575b505050811b01600f5580f35b015160001960f88460031b161c19169055838080610c44565b80600185968294968601518155019501930190610c30565b600f84527f8d1108e10bcb7c27dddfc02ed9d693a074039d026cf4ea4240b40f7d581ac802601f840160051c810191838510610cd9575b601f0160051c01905b818110610cce5750610bc5565b848155600101610cc1565b9091508190610cb8565b634e487b7160e01b845260419052602483fd5b50346101f05760203660031901126101f057803592601054841015610d2f57602083610d21866112e2565b91905490519160031b1c8152f35b6044939192519263295f44f760e21b84528301526024820152fd5b5091346107b357816003193601126107b35760243592358152600c6020528181209081548410156107b35750602092610d219161132f565b5050346102425761085290610d96366112ad565b91925192610da384611379565b85845261084c838383611585565b50346101f057602092836003193601126107b35781358160608551610dd581611347565b82815287810183905286810182905201526001600160a01b039283610df983611858565b1615610e7a5750818491610e6f9352600e865220835193610e1985611347565b8154855283600183015416938686019485526003610e3960028501611462565b938388019485520154946060870195865282519788978189525190880152511690850152516080606085015260a084019061121c565b905160808301520390f35b845162461bcd60e51b81529081018690526014602482015273151bdad95b88191bd95cc81b9bdd08195e1a5cdd60621b6044820152606490fd5b5050346102425780600319360112610242576020906107df610ed4611241565b60243590611893565b505034610242578060031936011261024257602090610f06610efd611241565b6024359061217f565b90519015158152f35b83346107b357610852610f21366112ad565b91611585565b5090346101f0576020918260031936011261049e57358352600c82528083209281518093808654928381520195835280832092905b828210610f7e576104268686610f74828b0383611395565b5191829182611272565b835487529586019560019384019390910190610f5c565b5050346102425781600319360112610242576020906010549051908152f35b5090346101f057806003193601126101f057610fce611241565b91602435610fdb81611858565b3315158061107d575b80611054575b61103e576001600160a01b039485169482918691167f8c5be1e5ebec7d5bd14f71427d1e84f3dd0314c0f7b2291e5b200ac8c7c3b9258880a48452602052822080546001600160a01b031916909117905580f35b835163a9fbf51f60e01b81523381850152602490fd5b506001600160a01b03811686526005602090815284872033885290528386205460ff1615610fea565b506001600160a01b038116331415610fe4565b50346101f05760203660031901126101f0579182602093356110b181611858565b50825283528190205490516001600160a01b039091168152f35b5050346102425781600319360112610242578051908280546110ec81611428565b80855291600191808316908115610a655750600114611117575050506109f782610426940383611395565b80809650527f290decd9548b62a8d60345a988386fc84ba6bc95484008f6362f93160ef3e5635b82861061115b575050506109f782602061042695820101946109e5565b8054602087870181019190915290950194810161113e565b925050346101f05760203660031901126101f0573563ffffffff60e01b81168091036101f0576020925063780e9d6360e01b81149081156111b6575b5015158152f35b6380ac58cd60e01b8114915081156111e8575b81156111d7575b50386111af565b6301ffc9a760e01b149050386111d0565b635b5e139f60e01b811491506111c9565b60005b83811061120c5750506000910152565b81810151838201526020016111fc565b90602091611235815180928185528580860191016111f9565b601f01601f1916010190565b600435906001600160a01b038216820361125757565b600080fd5b602435906001600160a01b038216820361125757565b6020908160408183019282815285518094520193019160005b828110611299575050505090565b83518552938101939281019260010161128b565b6060906003190112611257576001600160a01b0390600435828116810361125757916024359081168103611257579060443590565b6008548110156113195760086000527ff3f7a9fe364faab93b216da50a3214154f22a0a2b415b23a84c8169e8b636ee30190600090565b634e487b7160e01b600052603260045260246000fd5b80548210156113195760005260206000200190600090565b6080810190811067ffffffffffffffff82111761136357604052565b634e487b7160e01b600052604160045260246000fd5b6020810190811067ffffffffffffffff82111761136357604052565b90601f8019910116810190811067ffffffffffffffff82111761136357604052565b67ffffffffffffffff811161136357601f01601f191660200190565b9291926113df826113b7565b916113ed6040519384611395565b829481845281830111611257578281602093846000960137010152565b9080601f8301121561125757816020611425933591016113d3565b90565b90600182811c92168015611458575b602083101461144257565b634e487b7160e01b600052602260045260246000fd5b91607f1691611437565b906040519182600082549261147684611428565b9081845260019485811690816000146114e557506001146114a2575b50506114a092500383611395565b565b9093915060005260209081600020936000915b8183106114cd5750506114a093508201013880611492565b855488840185015294850194879450918301916114b5565b9150506114a094506020925060ff191682840152151560051b8201013880611492565b67ffffffffffffffff81116113635760051b60200190565b600a546001600160a01b0316330361153457565b60405163118cdaa760e01b8152336004820152602490fd5b6001600160a01b0316801561156c57600052600360205260406000205490565b6040516322718ad960e21b815260006004820152602490fd5b6001600160a01b038281169391841561183f57600094838652602095600287526040968488832054166117fc5785825260028152848883205416963315158061176e575b508715801561173b575b84845260038352898420805460010190558784526002835289842080546001600160a01b0319168617905587858a7fddf252ad1be2c89b69c2b068fc378daa952ba7f163c4a11628f55a4df523b3ef8780a4156116cf57600854878452600983528984205561164187612125565b83880361167d575b50505050169283830361165c5750505050565b6064945051926364283d7b60e01b8452600484015260248301526044820152fd5b6116869061154c565b6000198101939084116116bb5782916007918a9452600681528383208584528152878484205587835252205538808080611649565b634e487b7160e01b83526011600452602483fd5b878414611641576116df8861154c565b878452600783528984205490898552600684528a852091818103611719575b5088855260078452848b812055845282528289812055611641565b8186528285528b862054818752808d8820558652600785528b862055386116fe565b600088815260046020526040902080546001600160a01b03191690558884526003835289842080546000190190556115d3565b806117bb575b1561177f57386115c9565b88878961179c576024915190637e27328960e01b82526004820152fd5b905163177e802f60e01b81523360048201526024810191909152604490fd5b5033881480156117e0575b8061177457508683526004825233868a8520541614611774565b5087835260058252888320338452825260ff89842054166117c6565b60649088519062461bcd60e51b82526004820152601e60248201527f5342543a20546f6b656e206973206e6f6e2d7472616e7366657261626c6500006044820152fd5b604051633250574960e11b815260006004820152602490fd5b6000818152600260205260409020546001600160a01b031690811561187b575090565b60249060405190637e27328960e01b82526004820152fd5b61189c8161154c565b8210156118c85760018060a01b0316600052600660205260406000209060005260205260406000205490565b60405163295f44f760e21b81526001600160a01b039190911660048201526024810191909152604490fd5b90939192833b611905575b5050505050565b604051630a85bd0160e11b8082526001600160a01b03938416600483015295831660248201526044810191909152608060648201529492169260209291859061195290608483019061121c565b039483816000978189895af18691816119fd575b506119c7575050503d6000146119be573d611980816113b7565b9061198e6040519283611395565b81528093823d92013e5b825192836119b957604051633250574960e11b815260048101849052602490fd5b019050fd5b60609250611998565b919450915063ffffffff60e01b16036119e5575038808080806118fe565b60249060405190633250574960e11b82526004820152fd5b9091508481813d8311611a36575b611a158183611395565b8101031261049a57516001600160e01b03198116810361049a579038611966565b503d611a0b565b929091611a48611520565b611a50612148565b6001600160a01b038416156120d15780511561208c57611a71601054612116565b908160105560405193611a8385611379565b6000808652838152600260205260409020546001600160a01b0316612047576000838152600260205260409020546001600160a01b03169485158015612010575b6001600160a01b0388166000818152600360209081526040808320805460010190558883526002909152812080546001600160a01b031990811684179091559891879183907fddf252ad1be2c89b69c2b068fc378daa952ba7f163c4a11628f55a4df523b3ef9080a48115611f8057600854866000526009602052604060002055611b4e86612125565b6001600160a01b03891603611f1d575b15611f0457863b611dc2575b50909192939483600052600d6020528160406000205581600052600c60205260406000208054600160401b81101561136357611bb081611bc9936001899401815561132f565b90919082549060031b91821b91600019901b1916179055565b604051611bd581611347565b828152602081019660018060a01b03831688526040820197858952606083019142835287600052600e602052604060002093518455600184019160018060a01b039051169082541617905560028201975197885167ffffffffffffffff811161136357611c428254611428565b99601f8b11611d7a575b88999a5060009896979850602090601f8311600114611ce65792826003937fca923b3e1dc3fd3ab757b34bd674821e06d0643ed332ce340c68bed95c7c2c1e989693611cd09896600092611cdb575b50508160011b9160001990861b1c19161790555b519101556040519182916020835260018060a01b031696602083019061121c565b0390a46001600b5590565b015190503880611c9b565b90601f198316918460005260206000209260005b818110611d5f5750937fca923b3e1dc3fd3ab757b34bd674821e06d0643ed332ce340c68bed95c7c2c1e989693611cd09896936001938360039810611d47575b505050811b019055611caf565b015160001983881b60f8161c19169055388080611d3a565b8284015185558d9a5060019094019360209384019301611cfa565b826000526020600020601f830160051c81019b60208410611db8575b601f0160051c019a5b8b8110611dac5750611c4c565b60008155600101611d9f565b909b508b90611d96565b60405160208180611dfc630a85bd0160e11b958683523360048401526000602484015289604484015260806064840152608483019061121c565b038160006001600160a01b038d165af160009181611ebf575b50611e7d57873d15611e75573d90611e2c826113b7565b91611e3a6040519384611395565b82523d6000602084013e5b81519182611e6e57604051633250574960e11b81526001600160a01b0383166004820152602490fd5b6020915001fd5b606090611e45565b63ffffffff60e0989394959697981b1603611e9d57949392919038611b6a565b604051633250574960e11b81526001600160a01b039091166004820152602490fd5b9091506020813d602011611efc575b81611edb60209383611395565b8101031261125757516001600160e01b031981168103611257579038611e15565b3d9150611ece565b6040516339e3563760e11b815260006004820152602490fd5b611f268861154c565b6000198101908111611f6a5760018060a01b038916600052600660205260406000208160005260205285604060002055856000526007602052604060002055611b5e565b634e487b7160e01b600052601160045260246000fd5b6001600160a01b0389168114611b4e57611f998161154c565b86600052600760205260406000205490826000526006602052604060002091818103611fe3575b508760005260076020526000604081205560005260205260006040812055611b4e565b81600052826020526040600020548160005280604060002055600052600760205260406000205538611fc0565b600085815260046020526040902080546001600160a01b031916905586600052600360205260406000206000198154019055611ac4565b60405162461bcd60e51b815260206004820152601e60248201527f5342543a20546f6b656e206973206e6f6e2d7472616e7366657261626c6500006044820152606490fd5b60405162461bcd60e51b815260206004820152601960248201527f5465616d206e616d652063616e6e6f7420626520656d707479000000000000006044820152606490fd5b60405162461bcd60e51b815260206004820152601b60248201527f43616e6e6f74206d696e7420746f207a65726f206164647265737300000000006044820152606490fd5b6000198114611f6a5760010190565b60085490600160401b82101561136357611bb08260016114a094016008556112e2565b6002600b5414612159576002600b55565b604051633ee5aeb560e01b8152600490fd5b80518210156113195760209160051b010190565b906121898261154c565b9160005b83811061219d5750505050600090565b6121a78183611893565b600052600d60205282604060002054146121c9576121c490612116565b61218d565b50505050600190565b6121db8161154c565b91600091825b8481106122255760405162461bcd60e51b8152602060048201526015602482015274139bc81c9959da5cdd1c985d1a5bdb88199bdd5b99605a1b6044820152606490fd5b61222f8183611893565b808552600d60205283604086205414612251575061224c90612116565b6121e1565b9450505050509056fea2646970667358221220cd31235e2d65d9eef67a0929f4181fb1ba588c381096e71f59a1f05ed29ece6c64736f6c63430008140033","opcodes":"PUSH1 0x80 PUSH1 0x40 MSTORE CALLVALUE PUSH3 0x386 JUMPI PUSH3 0x26B4 DUP1 CODESIZE SUB DUP1 PUSH3 0x1D DUP2 PUSH3 0x38B JUMP JUMPDEST SWAP3 DUP4 CODECOPY DUP2 ADD PUSH1 0x40 DUP3 DUP3 SUB SLT PUSH3 0x386 JUMPI DUP2 MLOAD PUSH1 0x1 PUSH1 0x1 PUSH1 0x40 SHL SUB SWAP3 SWAP1 DUP4 DUP2 GT PUSH3 0x386 JUMPI DUP3 PUSH3 0x4F SWAP2 DUP4 ADD PUSH3 0x3B1 JUMP JUMPDEST SWAP1 PUSH1 0x20 SWAP3 DUP4 DUP3 ADD MLOAD DUP6 DUP2 GT PUSH3 0x386 JUMPI PUSH3 0x6B SWAP3 ADD PUSH3 0x3B1 JUMP JUMPDEST SWAP3 DUP2 MLOAD DUP2 DUP2 GT PUSH3 0x370 JUMPI PUSH1 0x0 SWAP4 DUP5 SLOAD SWAP2 PUSH1 0x1 SWAP5 DUP6 DUP5 DUP2 SHR SWAP5 AND DUP1 ISZERO PUSH3 0x365 JUMPI JUMPDEST DUP4 DUP6 LT EQ PUSH3 0x351 JUMPI DUP2 SWAP1 PUSH1 0x1F SWAP5 DUP6 DUP2 GT PUSH3 0x2FE JUMPI JUMPDEST POP DUP4 SWAP1 DUP6 DUP4 GT PUSH1 0x1 EQ PUSH3 0x29A JUMPI DUP9 SWAP3 PUSH3 0x28E JUMPI JUMPDEST POP POP PUSH1 0x0 NOT PUSH1 0x3 DUP4 SWAP1 SHL SHR NOT AND SWAP1 DUP6 SHL OR DUP6 SSTORE JUMPDEST DUP6 MLOAD SWAP3 DUP4 GT PUSH3 0x27A JUMPI DUP4 SLOAD DUP5 DUP2 DUP2 SHR SWAP2 AND DUP1 ISZERO PUSH3 0x26F JUMPI JUMPDEST DUP3 DUP3 LT EQ PUSH3 0x25B JUMPI DUP3 DUP2 GT PUSH3 0x213 JUMPI JUMPDEST POP DUP1 SWAP2 DUP4 GT PUSH1 0x1 EQ PUSH3 0x1AD JUMPI POP DUP4 SWAP5 DUP3 SWAP4 SWAP5 SWAP3 PUSH3 0x1A1 JUMPI JUMPDEST POP POP PUSH1 0x0 NOT PUSH1 0x3 DUP4 SWAP1 SHL SHR NOT AND SWAP1 DUP3 SHL OR DUP2 SSTORE JUMPDEST CALLER ISZERO PUSH3 0x188 JUMPI PUSH1 0xA DUP1 SLOAD CALLER PUSH1 0x1 PUSH1 0x1 PUSH1 0xA0 SHL SUB NOT DUP3 AND DUP2 OR SWAP1 SWAP3 SSTORE PUSH1 0x40 MLOAD SWAP4 PUSH1 0x1 PUSH1 0x1 PUSH1 0xA0 SHL SUB SWAP1 SWAP2 AND SWAP1 PUSH32 0x8BE0079C531659141344CD1FD0A4F28419497F9722A3DAAFE3B4186F6B6457E0 SWAP1 DUP1 LOG3 PUSH1 0xB SSTORE PUSH2 0x2290 SWAP1 DUP2 PUSH3 0x424 DUP3 CODECOPY RETURN JUMPDEST PUSH1 0x40 MLOAD PUSH4 0x1E4FBDF7 PUSH1 0xE0 SHL DUP2 MSTORE PUSH1 0x4 DUP2 ADD DUP4 SWAP1 MSTORE PUSH1 0x24 SWAP1 REVERT JUMPDEST ADD MLOAD SWAP1 POP CODESIZE DUP1 PUSH3 0x114 JUMP JUMPDEST SWAP1 PUSH1 0x1F NOT DUP4 AND SWAP6 DUP5 DUP7 MSTORE DUP3 DUP7 KECCAK256 SWAP3 DUP7 SWAP1 JUMPDEST DUP9 DUP3 LT PUSH3 0x1FB JUMPI POP POP DUP4 DUP6 SWAP7 SWAP8 LT PUSH3 0x1E1 JUMPI JUMPDEST POP POP POP DUP2 SHL ADD DUP2 SSTORE PUSH3 0x128 JUMP JUMPDEST ADD MLOAD PUSH1 0x0 NOT PUSH1 0xF8 DUP5 PUSH1 0x3 SHL AND SHR NOT AND SWAP1 SSTORE CODESIZE DUP1 DUP1 PUSH3 0x1D3 JUMP JUMPDEST DUP1 DUP8 DUP6 SWAP7 DUP3 SWAP5 SWAP7 DUP7 ADD MLOAD DUP2 SSTORE ADD SWAP6 ADD SWAP4 ADD SWAP1 PUSH3 0x1BE JUMP JUMPDEST DUP5 DUP7 MSTORE DUP2 DUP7 KECCAK256 DUP4 DUP1 DUP7 ADD PUSH1 0x5 SHR DUP3 ADD SWAP3 DUP5 DUP8 LT PUSH3 0x251 JUMPI JUMPDEST ADD PUSH1 0x5 SHR ADD SWAP1 DUP6 SWAP1 JUMPDEST DUP3 DUP2 LT PUSH3 0x245 JUMPI POP POP PUSH3 0xFA JUMP JUMPDEST DUP8 DUP2 SSTORE ADD DUP6 SWAP1 PUSH3 0x235 JUMP JUMPDEST SWAP3 POP DUP2 SWAP3 PUSH3 0x22C JUMP JUMPDEST PUSH4 0x4E487B71 PUSH1 0xE0 SHL DUP7 MSTORE PUSH1 0x22 PUSH1 0x4 MSTORE PUSH1 0x24 DUP7 REVERT JUMPDEST SWAP1 PUSH1 0x7F AND SWAP1 PUSH3 0xE8 JUMP JUMPDEST PUSH4 0x4E487B71 PUSH1 0xE0 SHL DUP6 MSTORE PUSH1 0x41 PUSH1 0x4 MSTORE PUSH1 0x24 DUP6 REVERT JUMPDEST ADD MLOAD SWAP1 POP CODESIZE DUP1 PUSH3 0xBA JUMP JUMPDEST DUP9 DUP1 MSTORE DUP5 DUP10 KECCAK256 DUP9 SWAP5 POP SWAP2 SWAP1 PUSH1 0x1F NOT DUP5 AND DUP11 JUMPDEST DUP8 DUP3 DUP3 LT PUSH3 0x2E7 JUMPI POP POP DUP5 GT PUSH3 0x2CD JUMPI JUMPDEST POP POP POP DUP2 SHL ADD DUP6 SSTORE PUSH3 0xCE JUMP JUMPDEST ADD MLOAD PUSH1 0x0 NOT PUSH1 0xF8 DUP5 PUSH1 0x3 SHL AND SHR NOT AND SWAP1 SSTORE CODESIZE DUP1 DUP1 PUSH3 0x2BF JUMP JUMPDEST DUP4 DUP6 ADD MLOAD DUP7 SSTORE DUP12 SWAP8 SWAP1 SWAP6 ADD SWAP5 SWAP4 DUP5 ADD SWAP4 ADD PUSH3 0x2AC JUMP JUMPDEST SWAP1 SWAP2 POP DUP8 DUP1 MSTORE DUP4 DUP9 KECCAK256 DUP6 DUP1 DUP6 ADD PUSH1 0x5 SHR DUP3 ADD SWAP3 DUP7 DUP7 LT PUSH3 0x347 JUMPI JUMPDEST SWAP2 DUP10 SWAP2 DUP7 SWAP6 SWAP5 SWAP4 ADD PUSH1 0x5 SHR ADD SWAP2 JUMPDEST DUP3 DUP2 LT PUSH3 0x338 JUMPI POP POP PUSH3 0xA4 JUMP JUMPDEST DUP11 DUP2 SSTORE DUP6 SWAP5 POP DUP10 SWAP2 ADD PUSH3 0x328 JUMP JUMPDEST SWAP3 POP DUP2 SWAP3 PUSH3 0x31A JUMP JUMPDEST PUSH4 0x4E487B71 PUSH1 0xE0 SHL DUP8 MSTORE PUSH1 0x22 PUSH1 0x4 MSTORE PUSH1 0x24 DUP8 REVERT JUMPDEST SWAP4 PUSH1 0x7F AND SWAP4 PUSH3 0x8D JUMP JUMPDEST PUSH4 0x4E487B71 PUSH1 0xE0 SHL PUSH1 0x0 MSTORE PUSH1 0x41 PUSH1 0x4 MSTORE PUSH1 0x24 PUSH1 0x0 REVERT JUMPDEST PUSH1 0x0 DUP1 REVERT JUMPDEST PUSH1 0x40 MLOAD SWAP2 SWAP1 PUSH1 0x1F ADD PUSH1 0x1F NOT AND DUP3 ADD PUSH1 0x1 PUSH1 0x1 PUSH1 0x40 SHL SUB DUP2 GT DUP4 DUP3 LT OR PUSH3 0x370 JUMPI PUSH1 0x40 MSTORE JUMP JUMPDEST SWAP2 SWAP1 DUP1 PUSH1 0x1F DUP5 ADD SLT ISZERO PUSH3 0x386 JUMPI DUP3 MLOAD PUSH1 0x1 PUSH1 0x1 PUSH1 0x40 SHL SUB DUP2 GT PUSH3 0x370 JUMPI PUSH1 0x20 SWAP1 PUSH3 0x3E7 PUSH1 0x1F DUP3 ADD PUSH1 0x1F NOT AND DUP4 ADD PUSH3 0x38B JUMP JUMPDEST SWAP3 DUP2 DUP5 MSTORE DUP3 DUP3 DUP8 ADD ADD GT PUSH3 0x386 JUMPI PUSH1 0x0 JUMPDEST DUP2 DUP2 LT PUSH3 0x40F JUMPI POP DUP3 PUSH1 0x0 SWAP4 SWAP5 SWAP6 POP ADD ADD MSTORE SWAP1 JUMP JUMPDEST DUP6 DUP2 ADD DUP4 ADD MLOAD DUP5 DUP3 ADD DUP5 ADD MSTORE DUP3 ADD PUSH3 0x3F9 JUMP INVALID PUSH1 0x80 PUSH1 0x40 DUP2 DUP2 MSTORE PUSH1 0x4 DUP1 CALLDATASIZE LT ISZERO PUSH2 0x15 JUMPI PUSH1 0x0 DUP1 REVERT JUMPDEST PUSH1 0x0 SWAP3 DUP4 CALLDATALOAD PUSH1 0xE0 SHR SWAP1 DUP2 PUSH4 0x1FFC9A7 EQ PUSH2 0x1173 JUMPI POP DUP1 PUSH4 0x6FDDE03 EQ PUSH2 0x10CB JUMPI DUP1 PUSH4 0x81812FC EQ PUSH2 0x1090 JUMPI DUP1 PUSH4 0x95EA7B3 EQ PUSH2 0xFB4 JUMPI DUP1 PUSH4 0x18160DDD EQ PUSH2 0xF95 JUMPI DUP1 PUSH4 0x1F9AB38D EQ PUSH2 0xF27 JUMPI DUP1 PUSH4 0x23B872DD EQ PUSH2 0xF0F JUMPI DUP1 PUSH4 0x282E093E EQ PUSH2 0xEDD JUMPI DUP1 PUSH4 0x2F745C59 EQ PUSH2 0xEB4 JUMPI DUP1 PUSH4 0x3032DBDD EQ PUSH2 0xDB1 JUMPI DUP1 PUSH4 0x42842E0E EQ PUSH2 0xD82 JUMPI DUP1 PUSH4 0x4BB4A863 EQ PUSH2 0xD4A JUMPI DUP1 PUSH4 0x4F6CCCE7 EQ PUSH2 0xCF6 JUMPI DUP1 PUSH4 0x55F804B3 EQ PUSH2 0xB6A JUMPI DUP1 PUSH4 0x6352211E EQ PUSH2 0xB39 JUMPI DUP1 PUSH4 0x70A08231 EQ PUSH2 0xB13 JUMPI DUP1 PUSH4 0x715018A6 EQ PUSH2 0xAB6 JUMPI DUP1 PUSH4 0x8DA5CB5B EQ PUSH2 0xA8D JUMPI DUP1 PUSH4 0x95D89B41 EQ PUSH2 0x9AA JUMPI DUP1 PUSH4 0xA22CB465 EQ PUSH2 0x90D JUMPI DUP1 PUSH4 0xAF22230C EQ PUSH2 0x8C1 JUMPI DUP1 PUSH4 0xB4B5B48F EQ PUSH2 0x855 JUMPI DUP1 PUSH4 0xB88D4FDE EQ PUSH2 0x7E6 JUMPI DUP1 PUSH4 0xC5FD992D EQ PUSH2 0x7B6 JUMPI DUP1 PUSH4 0xC87B56DD EQ PUSH2 0x500 JUMPI DUP1 PUSH4 0xCC9D7071 EQ PUSH2 0x4D9 JUMPI DUP1 PUSH4 0xD2D576AA EQ PUSH2 0x246 JUMPI DUP1 PUSH4 0xE985E9C5 EQ PUSH2 0x1F4 JUMPI PUSH4 0xF2FDE38B EQ PUSH2 0x162 JUMPI PUSH1 0x0 DUP1 REVERT JUMPDEST CALLVALUE PUSH2 0x1F0 JUMPI PUSH1 0x20 CALLDATASIZE PUSH1 0x3 NOT ADD SLT PUSH2 0x1F0 JUMPI PUSH2 0x17B PUSH2 0x1241 JUMP JUMPDEST SWAP1 PUSH2 0x184 PUSH2 0x1520 JUMP JUMPDEST PUSH1 0x1 PUSH1 0x1 PUSH1 0xA0 SHL SUB SWAP2 DUP3 AND SWAP3 DUP4 ISZERO PUSH2 0x1DA JUMPI POP POP PUSH1 0xA SLOAD DUP3 PUSH12 0xFFFFFFFFFFFFFFFFFFFFFFFF PUSH1 0xA0 SHL DUP3 AND OR PUSH1 0xA SSTORE AND PUSH32 0x8BE0079C531659141344CD1FD0A4F28419497F9722A3DAAFE3B4186F6B6457E0 DUP4 DUP1 LOG3 DUP1 RETURN JUMPDEST MLOAD PUSH4 0x1E4FBDF7 PUSH1 0xE0 SHL DUP2 MSTORE SWAP1 DUP2 ADD DUP5 SWAP1 MSTORE PUSH1 0x24 SWAP1 REVERT JUMPDEST DUP3 DUP1 REVERT JUMPDEST POP POP CALLVALUE PUSH2 0x242 JUMPI DUP1 PUSH1 0x3 NOT CALLDATASIZE ADD SLT PUSH2 0x242 JUMPI PUSH1 0xFF DUP2 PUSH1 0x20 SWAP4 PUSH2 0x214 PUSH2 0x1241 JUMP JUMPDEST PUSH2 0x21C PUSH2 0x125C JUMP JUMPDEST PUSH1 0x1 PUSH1 0x1 PUSH1 0xA0 SHL SUB SWAP2 DUP3 AND DUP4 MSTORE PUSH1 0x5 DUP8 MSTORE DUP4 DUP4 KECCAK256 SWAP2 AND DUP3 MSTORE DUP6 MSTORE KECCAK256 SLOAD SWAP2 MLOAD SWAP2 AND ISZERO ISZERO DUP2 MSTORE RETURN JUMPDEST POP DUP1 REVERT JUMPDEST POP CALLVALUE PUSH2 0x1F0 JUMPI PUSH1 0x60 CALLDATASIZE PUSH1 0x3 NOT ADD SLT PUSH2 0x1F0 JUMPI DUP1 CALLDATALOAD SWAP1 PUSH8 0xFFFFFFFFFFFFFFFF SWAP1 DUP2 DUP4 GT PUSH2 0x4D5 JUMPI CALLDATASIZE PUSH1 0x23 DUP5 ADD SLT ISZERO PUSH2 0x4D5 JUMPI DUP3 DUP2 ADD CALLDATALOAD SWAP5 PUSH2 0x285 DUP7 PUSH2 0x1508 JUMP JUMPDEST SWAP2 PUSH2 0x292 DUP7 MLOAD SWAP4 DUP5 PUSH2 0x1395 JUMP JUMPDEST DUP7 DUP4 MSTORE PUSH1 0x20 SWAP5 DUP6 DUP5 ADD PUSH1 0x24 DUP1 SWAP10 PUSH1 0x5 SHL DUP4 ADD ADD SWAP2 CALLDATASIZE DUP4 GT PUSH2 0x4D5 JUMPI DUP10 ADD SWAP1 JUMPDEST DUP3 DUP3 LT PUSH2 0x4B6 JUMPI POP POP POP DUP7 CALLDATALOAD SWAP7 DUP5 DUP9 GT PUSH2 0x1F0 JUMPI CALLDATASIZE PUSH1 0x23 DUP10 ADD SLT ISZERO PUSH2 0x1F0 JUMPI DUP8 DUP3 ADD CALLDATALOAD SWAP8 PUSH2 0x2DE DUP10 PUSH2 0x1508 JUMP JUMPDEST SWAP9 PUSH2 0x2EB DUP10 MLOAD SWAP11 DUP12 PUSH2 0x1395 JUMP JUMPDEST DUP1 DUP11 MSTORE DUP3 DUP9 DUP12 ADD SWAP2 PUSH1 0x5 SHL DUP4 ADD ADD SWAP2 CALLDATASIZE DUP4 GT PUSH2 0x4B2 JUMPI DUP4 DUP10 SWAP2 ADD SWAP2 JUMPDEST DUP4 DUP4 LT PUSH2 0x4A2 JUMPI POP POP POP POP PUSH1 0x44 CALLDATALOAD SWAP5 DUP1 DUP7 GT PUSH2 0x49E JUMPI CALLDATASIZE PUSH1 0x23 DUP8 ADD SLT ISZERO PUSH2 0x49E JUMPI DUP6 DUP4 ADD CALLDATALOAD PUSH2 0x335 DUP2 PUSH2 0x1508 JUMP JUMPDEST SWAP7 PUSH2 0x342 DUP11 MLOAD SWAP9 DUP10 PUSH2 0x1395 JUMP JUMPDEST DUP2 DUP9 MSTORE DUP4 DUP10 DUP10 ADD SWAP3 PUSH1 0x5 SHL DUP3 ADD ADD SWAP3 CALLDATASIZE DUP5 GT PUSH2 0x49A JUMPI DUP5 DUP3 ADD SWAP3 JUMPDEST DUP5 DUP5 LT PUSH2 0x470 JUMPI POP POP POP POP POP PUSH2 0x371 PUSH2 0x1520 JUMP JUMPDEST PUSH2 0x379 PUSH2 0x2148 JUMP JUMPDEST DUP4 MLOAD DUP9 MLOAD DUP1 SWAP2 EQ SWAP1 DUP2 PUSH2 0x465 JUMPI JUMPDEST POP ISZERO PUSH2 0x42A JUMPI POP POP DUP2 MLOAD SWAP4 PUSH2 0x39B DUP6 PUSH2 0x1508 JUMP JUMPDEST SWAP5 PUSH2 0x3A8 DUP8 MLOAD SWAP7 DUP8 PUSH2 0x1395 JUMP JUMPDEST DUP1 DUP7 MSTORE PUSH2 0x3B7 PUSH1 0x1F NOT SWAP2 PUSH2 0x1508 JUMP JUMPDEST ADD SWAP1 CALLDATASIZE SWAP1 DUP7 ADD CALLDATACOPY JUMPDEST DUP2 MLOAD DUP2 LT ISZERO PUSH2 0x414 JUMPI PUSH2 0x40F SWAP1 PUSH2 0x3FF PUSH1 0x1 PUSH1 0x1 PUSH1 0xA0 SHL SUB PUSH2 0x3E1 DUP4 DUP7 PUSH2 0x216B JUMP JUMPDEST MLOAD AND PUSH2 0x3ED DUP4 DUP11 PUSH2 0x216B JUMP JUMPDEST MLOAD PUSH2 0x3F8 DUP5 DUP9 PUSH2 0x216B JUMP JUMPDEST MLOAD SWAP2 PUSH2 0x1A3D JUMP JUMPDEST PUSH2 0x409 DUP3 DUP8 PUSH2 0x216B JUMP JUMPDEST MSTORE PUSH2 0x2116 JUMP JUMPDEST PUSH2 0x3BF JUMP JUMPDEST PUSH1 0x1 PUSH1 0xB SSTORE DUP5 MLOAD DUP1 PUSH2 0x426 DUP7 DUP3 PUSH2 0x1272 JUMP JUMPDEST SUB SWAP1 RETURN JUMPDEST DUP7 MLOAD PUSH3 0x461BCD PUSH1 0xE5 SHL DUP2 MSTORE SWAP2 DUP3 ADD DUP7 SWAP1 MSTORE PUSH1 0x16 SWAP1 DUP3 ADD MSTORE PUSH22 0x82E4E4C2F2E640D8CADCCEE8D040DAD2E6DAC2E8C6D PUSH1 0x53 SHL PUSH1 0x44 DUP3 ADD MSTORE PUSH1 0x64 SWAP1 REVERT JUMPDEST SWAP1 POP DUP6 MLOAD EQ CODESIZE PUSH2 0x387 JUMP JUMPDEST DUP4 CALLDATALOAD DUP3 DUP2 GT PUSH2 0x496 JUMPI DUP12 SWAP2 PUSH2 0x48B DUP4 SWAP3 DUP10 CALLDATASIZE SWAP2 DUP9 ADD ADD PUSH2 0x140A JUMP JUMPDEST DUP2 MSTORE ADD SWAP4 ADD SWAP3 PUSH2 0x35D JUMP JUMPDEST DUP9 DUP1 REVERT JUMPDEST DUP7 DUP1 REVERT JUMPDEST DUP4 DUP1 REVERT JUMPDEST DUP3 CALLDATALOAD DUP2 MSTORE SWAP2 DUP2 ADD SWAP2 DUP10 SWAP2 ADD PUSH2 0x307 JUMP JUMPDEST DUP6 DUP1 REVERT JUMPDEST DUP2 CALLDATALOAD PUSH1 0x1 PUSH1 0x1 PUSH1 0xA0 SHL SUB DUP2 AND DUP2 SUB PUSH2 0x4B2 JUMPI DUP2 MSTORE SWAP1 DUP8 ADD SWAP1 DUP8 ADD PUSH2 0x2B1 JUMP JUMPDEST DUP5 DUP1 REVERT JUMPDEST POP CALLVALUE PUSH2 0x1F0 JUMPI PUSH1 0x20 CALLDATASIZE PUSH1 0x3 NOT ADD SLT PUSH2 0x1F0 JUMPI PUSH1 0x20 SWAP3 DUP3 SWAP2 CALLDATALOAD DUP2 MSTORE PUSH1 0xD DUP5 MSTORE KECCAK256 SLOAD SWAP1 MLOAD SWAP1 DUP2 MSTORE RETURN JUMPDEST POP DUP3 SWAP1 CALLVALUE PUSH2 0x242 JUMPI PUSH1 0x20 SWAP2 DUP3 PUSH1 0x3 NOT CALLDATASIZE ADD SLT PUSH2 0x7B3 JUMPI DUP3 SWAP1 DUP5 DUP4 CALLDATALOAD PUSH2 0x524 DUP2 PUSH2 0x1858 JUMP JUMPDEST POP DUP2 MLOAD SWAP5 DUP4 SWAP2 PUSH1 0xF SLOAD DUP8 PUSH2 0x537 DUP3 PUSH2 0x1428 JUMP JUMPDEST SWAP5 DUP6 DUP3 MSTORE DUP9 DUP3 ADD SWAP6 PUSH1 0x1 SWAP4 DUP11 DUP6 DUP3 AND SWAP2 DUP3 PUSH1 0x0 EQ PUSH2 0x796 JUMPI POP POP PUSH1 0x1 EQ PUSH2 0x73D JUMPI JUMPDEST POP SWAP1 PUSH2 0x566 SWAP2 SUB DUP10 PUSH2 0x1395 JUMP JUMPDEST DUP8 MLOAD ISZERO PUSH2 0x71E JUMPI DUP2 DUP1 SWAP4 DUP8 SWAP2 PUSH27 0x184F03E93FF9F4DAA797ED6E38ED64BF6A1F010000000000000000 SWAP1 DUP2 DUP2 LT ISZERO PUSH2 0x711 JUMPI JUMPDEST POP POP DUP9 PUSH14 0x4EE2D6D415B85ACEF8100000000 DUP1 DUP8 LT ISZERO PUSH2 0x702 JUMPI JUMPDEST POP POP PUSH7 0x2386F26FC10000 DUP1 DUP7 LT ISZERO PUSH2 0x6F3 JUMPI JUMPDEST POP PUSH4 0x5F5E100 DUP1 DUP7 LT ISZERO PUSH2 0x6E4 JUMPI JUMPDEST POP PUSH2 0x2710 DUP1 DUP7 LT ISZERO PUSH2 0x6D8 JUMPI JUMPDEST POP POP PUSH1 0x64 DUP5 LT ISZERO PUSH2 0x6CA JUMPI JUMPDEST PUSH1 0x21 SWAP1 DUP3 PUSH1 0xA DUP1 SWAP7 LT ISZERO PUSH2 0x6C3 JUMPI JUMPDEST SWAP4 SWAP3 SWAP2 SWAP1 PUSH2 0x624 DUP4 DUP3 ADD PUSH2 0x61C PUSH2 0x613 DUP3 PUSH2 0x13B7 JUMP JUMPDEST SWAP11 MLOAD SWAP11 DUP12 PUSH2 0x1395 JUMP JUMPDEST DUP1 DUP11 MSTORE PUSH2 0x13B7 JUMP JUMPDEST DUP9 DUP12 ADD SWAP10 SWAP1 PUSH1 0x1F NOT ADD CALLDATASIZE DUP12 CALLDATACOPY POP DUP8 ADD ADD SWAP1 JUMPDEST PUSH2 0x68D JUMPI JUMPDEST POP POP POP POP SWAP4 PUSH2 0x67C SWAP3 PUSH2 0x661 SWAP5 SWAP3 PUSH2 0x670 PUSH2 0x426 SWAP8 DUP11 MLOAD SWAP8 DUP9 SWAP6 MLOAD DUP1 SWAP3 DUP9 DUP9 ADD SWAP1 PUSH2 0x11F9 JUMP JUMPDEST DUP5 ADD SWAP2 MLOAD DUP1 SWAP4 DUP7 DUP5 ADD SWAP1 PUSH2 0x11F9 JUMP JUMPDEST ADD SUB DUP1 DUP5 MSTORE ADD DUP3 PUSH2 0x1395 JUMP JUMPDEST SWAP3 JUMPDEST MLOAD SWAP3 DUP3 DUP5 SWAP4 DUP5 MSTORE DUP4 ADD SWAP1 PUSH2 0x121C JUMP JUMPDEST PUSH1 0x0 NOT ADD SWAP1 DUP4 SWAP1 PUSH16 0x181899199A1A9B1B9C1CB0B131B232B3 PUSH1 0x81 SHL DUP3 DUP3 MOD BYTE DUP4 MSTORE8 DIV SWAP2 DUP3 ISZERO PUSH2 0x6BE JUMPI SWAP2 SWAP1 DUP3 PUSH2 0x636 JUMP JUMPDEST PUSH2 0x63B JUMP JUMPDEST ADD DUP3 PUSH2 0x5FD JUMP JUMPDEST PUSH1 0x64 SWAP1 SWAP4 DIV SWAP3 PUSH1 0x2 ADD PUSH2 0x5EE JUMP JUMPDEST SWAP1 SWAP5 DIV SWAP4 ADD DUP12 DUP1 PUSH2 0x5E2 JUMP JUMPDEST PUSH1 0x8 SWAP2 SWAP3 SWAP6 DIV SWAP5 ADD SWAP1 DUP13 PUSH2 0x5D5 JUMP JUMPDEST PUSH1 0x10 SWAP2 SWAP3 SWAP6 DIV SWAP5 ADD SWAP1 DUP13 PUSH2 0x5C6 JUMP JUMPDEST SWAP1 SWAP2 SWAP3 SWAP6 DIV SWAP5 ADD SWAP1 DUP9 DUP14 PUSH2 0x5B3 JUMP JUMPDEST DIV SWAP5 POP DUP7 SWAP2 POP DUP13 DUP1 PUSH2 0x598 JUMP JUMPDEST POP POP POP POP SWAP1 SWAP2 POP PUSH2 0x426 SWAP3 POP MLOAD SWAP1 PUSH2 0x735 DUP3 PUSH2 0x1379 JUMP JUMPDEST DUP2 MSTORE SWAP3 PUSH2 0x67E JUMP JUMPDEST PUSH1 0xF DUP10 MSTORE DUP9 SWAP2 POP PUSH32 0x8D1108E10BCB7C27DDDFC02ED9D693A074039D026CF4EA4240B40F7D581AC802 JUMPDEST DUP2 DUP4 LT PUSH2 0x77B JUMPI POP POP DUP2 ADD DUP9 ADD PUSH2 0x566 PUSH2 0x559 JUMP JUMPDEST DUP1 SLOAD DUP4 DUP14 ADD DUP13 ADD MSTORE DUP13 SWAP11 DUP15 SWAP10 POP DUP13 SWAP5 POP SWAP1 SWAP3 ADD SWAP2 DUP5 ADD PUSH2 0x766 JUMP JUMPDEST PUSH1 0xFF NOT AND DUP10 MSTORE SWAP2 ISZERO ISZERO PUSH1 0x5 SHL DUP5 ADD SWAP1 SWAP2 ADD SWAP2 POP PUSH2 0x566 SWAP1 POP PUSH2 0x559 JUMP JUMPDEST DUP1 REVERT JUMPDEST POP POP CALLVALUE PUSH2 0x242 JUMPI DUP1 PUSH1 0x3 NOT CALLDATASIZE ADD SLT PUSH2 0x242 JUMPI PUSH1 0x20 SWAP1 PUSH2 0x7DF PUSH2 0x7D6 PUSH2 0x1241 JUMP JUMPDEST PUSH1 0x24 CALLDATALOAD SWAP1 PUSH2 0x21D2 JUMP JUMPDEST SWAP1 MLOAD SWAP1 DUP2 MSTORE RETURN JUMPDEST DUP4 DUP3 CALLVALUE PUSH2 0x242 JUMPI PUSH1 0x80 CALLDATASIZE PUSH1 0x3 NOT ADD SLT PUSH2 0x242 JUMPI PUSH2 0x801 PUSH2 0x1241 JUMP JUMPDEST PUSH2 0x809 PUSH2 0x125C JUMP JUMPDEST PUSH1 0x44 CALLDATALOAD SWAP1 PUSH1 0x64 CALLDATALOAD PUSH8 0xFFFFFFFFFFFFFFFF DUP2 GT PUSH2 0x4B2 JUMPI CALLDATASIZE PUSH1 0x23 DUP3 ADD SLT ISZERO PUSH2 0x4B2 JUMPI PUSH2 0x852 SWAP5 DUP2 PUSH1 0x24 PUSH2 0x840 SWAP4 CALLDATASIZE SWAP4 ADD CALLDATALOAD SWAP2 ADD PUSH2 0x13D3 JUMP JUMPDEST SWAP3 PUSH2 0x84C DUP4 DUP4 DUP4 PUSH2 0x1585 JUMP JUMPDEST CALLER PUSH2 0x18F3 JUMP JUMPDEST DUP1 RETURN JUMPDEST POP CALLVALUE PUSH2 0x1F0 JUMPI PUSH1 0x20 CALLDATASIZE PUSH1 0x3 NOT ADD SLT PUSH2 0x1F0 JUMPI CALLDATALOAD DUP3 MSTORE PUSH1 0xE PUSH1 0x20 MSTORE SWAP1 DUP2 SWAP1 KECCAK256 DUP1 SLOAD PUSH1 0x1 DUP3 ADD SLOAD PUSH1 0x1 PUSH1 0x1 PUSH1 0xA0 SHL SUB AND SWAP3 SWAP1 SWAP2 PUSH2 0x8B7 SWAP1 PUSH1 0x80 PUSH1 0x3 PUSH2 0x89A PUSH1 0x2 DUP5 ADD PUSH2 0x1462 JUMP JUMPDEST SWAP3 ADD SLOAD SWAP4 DUP1 MLOAD SWAP7 DUP8 SWAP7 DUP8 MSTORE PUSH1 0x20 DUP8 ADD MSTORE DUP6 ADD MSTORE PUSH1 0x80 DUP5 ADD SWAP1 PUSH2 0x121C JUMP JUMPDEST SWAP1 PUSH1 0x60 DUP4 ADD MSTORE SUB SWAP1 RETURN JUMPDEST POP CALLVALUE PUSH2 0x1F0 JUMPI PUSH1 0x60 CALLDATASIZE PUSH1 0x3 NOT ADD SLT PUSH2 0x1F0 JUMPI PUSH2 0x8DB PUSH2 0x1241 JUMP JUMPDEST SWAP3 PUSH1 0x44 CALLDATALOAD SWAP1 PUSH8 0xFFFFFFFFFFFFFFFF DUP3 GT PUSH2 0x7B3 JUMPI POP SWAP3 PUSH2 0x903 PUSH2 0x7DF SWAP3 PUSH1 0x20 SWAP6 CALLDATASIZE SWAP2 ADD PUSH2 0x140A JUMP JUMPDEST SWAP1 PUSH1 0x24 CALLDATALOAD SWAP1 PUSH2 0x1A3D JUMP JUMPDEST POP SWAP1 CALLVALUE PUSH2 0x1F0 JUMPI DUP1 PUSH1 0x3 NOT CALLDATASIZE ADD SLT PUSH2 0x1F0 JUMPI PUSH2 0x927 PUSH2 0x1241 JUMP JUMPDEST SWAP1 PUSH1 0x24 CALLDATALOAD SWAP2 DUP3 ISZERO ISZERO DUP1 SWAP4 SUB PUSH2 0x4D5 JUMPI PUSH1 0x1 PUSH1 0x1 PUSH1 0xA0 SHL SUB AND SWAP3 DUP4 ISZERO PUSH2 0x995 JUMPI POP CALLER DUP5 MSTORE PUSH1 0x5 PUSH1 0x20 MSTORE DUP1 DUP5 KECCAK256 DUP4 DUP6 MSTORE PUSH1 0x20 MSTORE DUP1 DUP5 KECCAK256 PUSH1 0xFF NOT DUP2 SLOAD AND PUSH1 0xFF DUP5 AND OR SWAP1 SSTORE MLOAD SWAP1 DUP2 MSTORE PUSH32 0x17307EAB39AB6107E8899845AD3D59BD9653F200F220920489CA2B5937696C31 PUSH1 0x20 CALLER SWAP3 LOG3 DUP1 RETURN JUMPDEST DUP4 PUSH1 0x24 SWAP3 MLOAD SWAP2 PUSH4 0xB611743 PUSH1 0xE3 SHL DUP4 MSTORE DUP3 ADD MSTORE REVERT JUMPDEST POP POP CALLVALUE PUSH2 0x242 JUMPI DUP2 PUSH1 0x3 NOT CALLDATASIZE ADD SLT PUSH2 0x242 JUMPI DUP1 MLOAD SWAP1 DUP3 PUSH1 0x1 DUP1 SLOAD SWAP2 PUSH2 0x9CE DUP4 PUSH2 0x1428 JUMP JUMPDEST DUP1 DUP7 MSTORE SWAP3 DUP3 DUP2 AND SWAP1 DUP2 ISZERO PUSH2 0xA65 JUMPI POP PUSH1 0x1 EQ PUSH2 0xA09 JUMPI JUMPDEST POP POP POP PUSH2 0x9F7 DUP3 PUSH2 0x426 SWAP5 SUB DUP4 PUSH2 0x1395 JUMP JUMPDEST MLOAD SWAP2 DUP3 SWAP2 PUSH1 0x20 DUP4 MSTORE PUSH1 0x20 DUP4 ADD SWAP1 PUSH2 0x121C JUMP JUMPDEST SWAP5 POP DUP1 DUP6 MSTORE PUSH32 0xB10E2D527612073B26EECDFD717E6A320CF44B4AFAC2B0732D9FCBE2B7FA0CF6 JUMPDEST DUP3 DUP7 LT PUSH2 0xA4D JUMPI POP POP POP PUSH2 0x9F7 DUP3 PUSH1 0x20 PUSH2 0x426 SWAP6 DUP3 ADD ADD SWAP5 PUSH2 0x9E5 JUMP JUMPDEST DUP1 SLOAD PUSH1 0x20 DUP8 DUP8 ADD DUP2 ADD SWAP2 SWAP1 SWAP2 MSTORE SWAP1 SWAP6 ADD SWAP5 DUP2 ADD PUSH2 0xA30 JUMP JUMPDEST PUSH2 0x426 SWAP8 POP DUP7 SWAP4 POP PUSH1 0x20 SWAP3 POP PUSH2 0x9F7 SWAP5 SWAP2 POP PUSH1 0xFF NOT AND DUP3 DUP5 ADD MSTORE ISZERO ISZERO PUSH1 0x5 SHL DUP3 ADD ADD SWAP5 PUSH2 0x9E5 JUMP JUMPDEST POP POP CALLVALUE PUSH2 0x242 JUMPI DUP2 PUSH1 0x3 NOT CALLDATASIZE ADD SLT PUSH2 0x242 JUMPI PUSH1 0xA SLOAD SWAP1 MLOAD PUSH1 0x1 PUSH1 0x1 PUSH1 0xA0 SHL SUB SWAP1 SWAP2 AND DUP2 MSTORE PUSH1 0x20 SWAP1 RETURN JUMPDEST DUP4 CALLVALUE PUSH2 0x7B3 JUMPI DUP1 PUSH1 0x3 NOT CALLDATASIZE ADD SLT PUSH2 0x7B3 JUMPI PUSH2 0xACF PUSH2 0x1520 JUMP JUMPDEST PUSH1 0xA DUP1 SLOAD PUSH1 0x1 PUSH1 0x1 PUSH1 0xA0 SHL SUB NOT DUP2 AND SWAP1 SWAP2 SSTORE DUP2 SWAP1 PUSH1 0x1 PUSH1 0x1 PUSH1 0xA0 SHL SUB AND PUSH32 0x8BE0079C531659141344CD1FD0A4F28419497F9722A3DAAFE3B4186F6B6457E0 DUP3 DUP1 LOG3 DUP1 RETURN JUMPDEST POP POP CALLVALUE PUSH2 0x242 JUMPI PUSH1 0x20 CALLDATASIZE PUSH1 0x3 NOT ADD SLT PUSH2 0x242 JUMPI PUSH1 0x20 SWAP1 PUSH2 0x7DF PUSH2 0xB34 PUSH2 0x1241 JUMP JUMPDEST PUSH2 0x154C JUMP JUMPDEST POP SWAP2 CALLVALUE PUSH2 0x7B3 JUMPI PUSH1 0x20 CALLDATASIZE PUSH1 0x3 NOT ADD SLT PUSH2 0x7B3 JUMPI POP PUSH2 0xB59 PUSH1 0x20 SWAP3 CALLDATALOAD PUSH2 0x1858 JUMP JUMPDEST SWAP1 MLOAD PUSH1 0x1 PUSH1 0x1 PUSH1 0xA0 SHL SUB SWAP1 SWAP2 AND DUP2 MSTORE RETURN JUMPDEST POP DUP3 CALLVALUE PUSH2 0x7B3 JUMPI PUSH1 0x20 DUP1 PUSH1 0x3 NOT CALLDATASIZE ADD SLT PUSH2 0x242 JUMPI PUSH8 0xFFFFFFFFFFFFFFFF SWAP1 DUP4 CALLDATALOAD DUP3 DUP2 GT PUSH2 0x49E JUMPI PUSH2 0xB9E SWAP1 CALLDATASIZE SWAP1 DUP7 ADD PUSH2 0x140A JUMP JUMPDEST SWAP4 PUSH2 0xBA7 PUSH2 0x1520 JUMP JUMPDEST DUP5 MLOAD SWAP3 DUP4 GT PUSH2 0xCE3 JUMPI POP PUSH2 0xBBC PUSH1 0xF SLOAD PUSH2 0x1428 JUMP JUMPDEST PUSH1 0x1F DUP2 GT PUSH2 0xC81 JUMPI JUMPDEST POP DUP1 PUSH1 0x1F DUP4 GT PUSH1 0x1 EQ PUSH2 0xC00 JUMPI POP DUP3 SWAP4 DUP3 SWAP4 SWAP3 PUSH2 0xBF5 JUMPI JUMPDEST POP POP DUP2 PUSH1 0x1 SHL SWAP2 PUSH1 0x0 NOT SWAP1 PUSH1 0x3 SHL SHR NOT AND OR PUSH1 0xF SSTORE DUP1 RETURN JUMPDEST ADD MLOAD SWAP1 POP DUP4 DUP1 PUSH2 0xBDD JUMP JUMPDEST PUSH1 0xF DUP5 MSTORE PUSH1 0x1F NOT DUP4 AND SWAP5 PUSH32 0x8D1108E10BCB7C27DDDFC02ED9D693A074039D026CF4EA4240B40F7D581AC802 SWAP3 SWAP2 DUP6 SWAP1 JUMPDEST DUP8 DUP3 LT PUSH2 0xC69 JUMPI POP POP DUP4 PUSH1 0x1 SWAP6 SWAP7 LT PUSH2 0xC50 JUMPI JUMPDEST POP POP POP DUP2 SHL ADD PUSH1 0xF SSTORE DUP1 RETURN JUMPDEST ADD MLOAD PUSH1 0x0 NOT PUSH1 0xF8 DUP5 PUSH1 0x3 SHL AND SHR NOT AND SWAP1 SSTORE DUP4 DUP1 DUP1 PUSH2 0xC44 JUMP JUMPDEST DUP1 PUSH1 0x1 DUP6 SWAP7 DUP3 SWAP5 SWAP7 DUP7 ADD MLOAD DUP2 SSTORE ADD SWAP6 ADD SWAP4 ADD SWAP1 PUSH2 0xC30 JUMP JUMPDEST PUSH1 0xF DUP5 MSTORE PUSH32 0x8D1108E10BCB7C27DDDFC02ED9D693A074039D026CF4EA4240B40F7D581AC802 PUSH1 0x1F DUP5 ADD PUSH1 0x5 SHR DUP2 ADD SWAP2 DUP4 DUP6 LT PUSH2 0xCD9 JUMPI JUMPDEST PUSH1 0x1F ADD PUSH1 0x5 SHR ADD SWAP1 JUMPDEST DUP2 DUP2 LT PUSH2 0xCCE JUMPI POP PUSH2 0xBC5 JUMP JUMPDEST DUP5 DUP2 SSTORE PUSH1 0x1 ADD PUSH2 0xCC1 JUMP JUMPDEST SWAP1 SWAP2 POP DUP2 SWAP1 PUSH2 0xCB8 JUMP JUMPDEST PUSH4 0x4E487B71 PUSH1 0xE0 SHL DUP5 MSTORE PUSH1 0x41 SWAP1 MSTORE PUSH1 0x24 DUP4 REVERT JUMPDEST POP CALLVALUE PUSH2 0x1F0 JUMPI PUSH1 0x20 CALLDATASIZE PUSH1 0x3 NOT ADD SLT PUSH2 0x1F0 JUMPI DUP1 CALLDATALOAD SWAP3 PUSH1 0x10 SLOAD DUP5 LT ISZERO PUSH2 0xD2F JUMPI PUSH1 0x20 DUP4 PUSH2 0xD21 DUP7 PUSH2 0x12E2 JUMP JUMPDEST SWAP2 SWAP1 SLOAD SWAP1 MLOAD SWAP2 PUSH1 0x3 SHL SHR DUP2 MSTORE RETURN JUMPDEST PUSH1 0x44 SWAP4 SWAP2 SWAP3 MLOAD SWAP3 PUSH4 0x295F44F7 PUSH1 0xE2 SHL DUP5 MSTORE DUP4 ADD MSTORE PUSH1 0x24 DUP3 ADD MSTORE REVERT JUMPDEST POP SWAP2 CALLVALUE PUSH2 0x7B3 JUMPI DUP2 PUSH1 0x3 NOT CALLDATASIZE ADD SLT PUSH2 0x7B3 JUMPI PUSH1 0x24 CALLDATALOAD SWAP3 CALLDATALOAD DUP2 MSTORE PUSH1 0xC PUSH1 0x20 MSTORE DUP2 DUP2 KECCAK256 SWAP1 DUP2 SLOAD DUP5 LT ISZERO PUSH2 0x7B3 JUMPI POP PUSH1 0x20 SWAP3 PUSH2 0xD21 SWAP2 PUSH2 0x132F JUMP JUMPDEST POP POP CALLVALUE PUSH2 0x242 JUMPI PUSH2 0x852 SWAP1 PUSH2 0xD96 CALLDATASIZE PUSH2 0x12AD JUMP JUMPDEST SWAP2 SWAP3 MLOAD SWAP3 PUSH2 0xDA3 DUP5 PUSH2 0x1379 JUMP JUMPDEST DUP6 DUP5 MSTORE PUSH2 0x84C DUP4 DUP4 DUP4 PUSH2 0x1585 JUMP JUMPDEST POP CALLVALUE PUSH2 0x1F0 JUMPI PUSH1 0x20 SWAP3 DUP4 PUSH1 0x3 NOT CALLDATASIZE ADD SLT PUSH2 0x7B3 JUMPI DUP2 CALLDATALOAD DUP2 PUSH1 0x60 DUP6 MLOAD PUSH2 0xDD5 DUP2 PUSH2 0x1347 JUMP JUMPDEST DUP3 DUP2 MSTORE DUP8 DUP2 ADD DUP4 SWAP1 MSTORE DUP7 DUP2 ADD DUP3 SWAP1 MSTORE ADD MSTORE PUSH1 0x1 PUSH1 0x1 PUSH1 0xA0 SHL SUB SWAP3 DUP4 PUSH2 0xDF9 DUP4 PUSH2 0x1858 JUMP JUMPDEST AND ISZERO PUSH2 0xE7A JUMPI POP DUP2 DUP5 SWAP2 PUSH2 0xE6F SWAP4 MSTORE PUSH1 0xE DUP7 MSTORE KECCAK256 DUP4 MLOAD SWAP4 PUSH2 0xE19 DUP6 PUSH2 0x1347 JUMP JUMPDEST DUP2 SLOAD DUP6 MSTORE DUP4 PUSH1 0x1 DUP4 ADD SLOAD AND SWAP4 DUP7 DUP7 ADD SWAP5 DUP6 MSTORE PUSH1 0x3 PUSH2 0xE39 PUSH1 0x2 DUP6 ADD PUSH2 0x1462 JUMP JUMPDEST SWAP4 DUP4 DUP9 ADD SWAP5 DUP6 MSTORE ADD SLOAD SWAP5 PUSH1 0x60 DUP8 ADD SWAP6 DUP7 MSTORE DUP3 MLOAD SWAP8 DUP9 SWAP8 DUP2 DUP10 MSTORE MLOAD SWAP1 DUP9 ADD MSTORE MLOAD AND SWAP1 DUP6 ADD MSTORE MLOAD PUSH1 0x80 PUSH1 0x60 DUP6 ADD MSTORE PUSH1 0xA0 DUP5 ADD SWAP1 PUSH2 0x121C JUMP JUMPDEST SWAP1 MLOAD PUSH1 0x80 DUP4 ADD MSTORE SUB SWAP1 RETURN JUMPDEST DUP5 MLOAD PUSH3 0x461BCD PUSH1 0xE5 SHL DUP2 MSTORE SWAP1 DUP2 ADD DUP7 SWAP1 MSTORE PUSH1 0x14 PUSH1 0x24 DUP3 ADD MSTORE PUSH20 0x151BDAD95B88191BD95CC81B9BDD08195E1A5CDD PUSH1 0x62 SHL PUSH1 0x44 DUP3 ADD MSTORE PUSH1 0x64 SWAP1 REVERT JUMPDEST POP POP CALLVALUE PUSH2 0x242 JUMPI DUP1 PUSH1 0x3 NOT CALLDATASIZE ADD SLT PUSH2 0x242 JUMPI PUSH1 0x20 SWAP1 PUSH2 0x7DF PUSH2 0xED4 PUSH2 0x1241 JUMP JUMPDEST PUSH1 0x24 CALLDATALOAD SWAP1 PUSH2 0x1893 JUMP JUMPDEST POP POP CALLVALUE PUSH2 0x242 JUMPI DUP1 PUSH1 0x3 NOT CALLDATASIZE ADD SLT PUSH2 0x242 JUMPI PUSH1 0x20 SWAP1 PUSH2 0xF06 PUSH2 0xEFD PUSH2 0x1241 JUMP JUMPDEST PUSH1 0x24 CALLDATALOAD SWAP1 PUSH2 0x217F JUMP JUMPDEST SWAP1 MLOAD SWAP1 ISZERO ISZERO DUP2 MSTORE RETURN JUMPDEST DUP4 CALLVALUE PUSH2 0x7B3 JUMPI PUSH2 0x852 PUSH2 0xF21 CALLDATASIZE PUSH2 0x12AD JUMP JUMPDEST SWAP2 PUSH2 0x1585 JUMP JUMPDEST POP SWAP1 CALLVALUE PUSH2 0x1F0 JUMPI PUSH1 0x20 SWAP2 DUP3 PUSH1 0x3 NOT CALLDATASIZE ADD SLT PUSH2 0x49E JUMPI CALLDATALOAD DUP4 MSTORE PUSH1 0xC DUP3 MSTORE DUP1 DUP4 KECCAK256 SWAP3 DUP2 MLOAD DUP1 SWAP4 DUP1 DUP7 SLOAD SWAP3 DUP4 DUP2 MSTORE ADD SWAP6 DUP4 MSTORE DUP1 DUP4 KECCAK256 SWAP3 SWAP1 JUMPDEST DUP3 DUP3 LT PUSH2 0xF7E JUMPI PUSH2 0x426 DUP7 DUP7 PUSH2 0xF74 DUP3 DUP12 SUB DUP4 PUSH2 0x1395 JUMP JUMPDEST MLOAD SWAP2 DUP3 SWAP2 DUP3 PUSH2 0x1272 JUMP JUMPDEST DUP4 SLOAD DUP8 MSTORE SWAP6 DUP7 ADD SWAP6 PUSH1 0x1 SWAP4 DUP5 ADD SWAP4 SWAP1 SWAP2 ADD SWAP1 PUSH2 0xF5C JUMP JUMPDEST POP POP CALLVALUE PUSH2 0x242 JUMPI DUP2 PUSH1 0x3 NOT CALLDATASIZE ADD SLT PUSH2 0x242 JUMPI PUSH1 0x20 SWAP1 PUSH1 0x10 SLOAD SWAP1 MLOAD SWAP1 DUP2 MSTORE RETURN JUMPDEST POP SWAP1 CALLVALUE PUSH2 0x1F0 JUMPI DUP1 PUSH1 0x3 NOT CALLDATASIZE ADD SLT PUSH2 0x1F0 JUMPI PUSH2 0xFCE PUSH2 0x1241 JUMP JUMPDEST SWAP2 PUSH1 0x24 CALLDATALOAD PUSH2 0xFDB DUP2 PUSH2 0x1858 JUMP JUMPDEST CALLER ISZERO ISZERO DUP1 PUSH2 0x107D JUMPI JUMPDEST DUP1 PUSH2 0x1054 JUMPI JUMPDEST PUSH2 0x103E JUMPI PUSH1 0x1 PUSH1 0x1 PUSH1 0xA0 SHL SUB SWAP5 DUP6 AND SWAP5 DUP3 SWAP2 DUP7 SWAP2 AND PUSH32 0x8C5BE1E5EBEC7D5BD14F71427D1E84F3DD0314C0F7B2291E5B200AC8C7C3B925 DUP9 DUP1 LOG4 DUP5 MSTORE PUSH1 0x20 MSTORE DUP3 KECCAK256 DUP1 SLOAD PUSH1 0x1 PUSH1 0x1 PUSH1 0xA0 SHL SUB NOT AND SWAP1 SWAP2 OR SWAP1 SSTORE DUP1 RETURN JUMPDEST DUP4 MLOAD PUSH4 0xA9FBF51F PUSH1 0xE0 SHL DUP2 MSTORE CALLER DUP2 DUP6 ADD MSTORE PUSH1 0x24 SWAP1 REVERT JUMPDEST POP PUSH1 0x1 PUSH1 0x1 PUSH1 0xA0 SHL SUB DUP2 AND DUP7 MSTORE PUSH1 0x5 PUSH1 0x20 SWAP1 DUP2 MSTORE DUP5 DUP8 KECCAK256 CALLER DUP9 MSTORE SWAP1 MSTORE DUP4 DUP7 KECCAK256 SLOAD PUSH1 0xFF AND ISZERO PUSH2 0xFEA JUMP JUMPDEST POP PUSH1 0x1 PUSH1 0x1 PUSH1 0xA0 SHL SUB DUP2 AND CALLER EQ ISZERO PUSH2 0xFE4 JUMP JUMPDEST POP CALLVALUE PUSH2 0x1F0 JUMPI PUSH1 0x20 CALLDATASIZE PUSH1 0x3 NOT ADD SLT PUSH2 0x1F0 JUMPI SWAP2 DUP3 PUSH1 0x20 SWAP4 CALLDATALOAD PUSH2 0x10B1 DUP2 PUSH2 0x1858 JUMP JUMPDEST POP DUP3 MSTORE DUP4 MSTORE DUP2 SWAP1 KECCAK256 SLOAD SWAP1 MLOAD PUSH1 0x1 PUSH1 0x1 PUSH1 0xA0 SHL SUB SWAP1 SWAP2 AND DUP2 MSTORE RETURN JUMPDEST POP POP CALLVALUE PUSH2 0x242 JUMPI DUP2 PUSH1 0x3 NOT CALLDATASIZE ADD SLT PUSH2 0x242 JUMPI DUP1 MLOAD SWAP1 DUP3 DUP1 SLOAD PUSH2 0x10EC DUP2 PUSH2 0x1428 JUMP JUMPDEST DUP1 DUP6 MSTORE SWAP2 PUSH1 0x1 SWAP2 DUP1 DUP4 AND SWAP1 DUP2 ISZERO PUSH2 0xA65 JUMPI POP PUSH1 0x1 EQ PUSH2 0x1117 JUMPI POP POP POP PUSH2 0x9F7 DUP3 PUSH2 0x426 SWAP5 SUB DUP4 PUSH2 0x1395 JUMP JUMPDEST DUP1 DUP1 SWAP7 POP MSTORE PUSH32 0x290DECD9548B62A8D60345A988386FC84BA6BC95484008F6362F93160EF3E563 JUMPDEST DUP3 DUP7 LT PUSH2 0x115B JUMPI POP POP POP PUSH2 0x9F7 DUP3 PUSH1 0x20 PUSH2 0x426 SWAP6 DUP3 ADD ADD SWAP5 PUSH2 0x9E5 JUMP JUMPDEST DUP1 SLOAD PUSH1 0x20 DUP8 DUP8 ADD DUP2 ADD SWAP2 SWAP1 SWAP2 MSTORE SWAP1 SWAP6 ADD SWAP5 DUP2 ADD PUSH2 0x113E JUMP JUMPDEST SWAP3 POP POP CALLVALUE PUSH2 0x1F0 JUMPI PUSH1 0x20 CALLDATASIZE PUSH1 0x3 NOT ADD SLT PUSH2 0x1F0 JUMPI CALLDATALOAD PUSH4 0xFFFFFFFF PUSH1 0xE0 SHL DUP2 AND DUP1 SWAP2 SUB PUSH2 0x1F0 JUMPI PUSH1 0x20 SWAP3 POP PUSH4 0x780E9D63 PUSH1 0xE0 SHL DUP2 EQ SWAP1 DUP2 ISZERO PUSH2 0x11B6 JUMPI JUMPDEST POP ISZERO ISZERO DUP2 MSTORE RETURN JUMPDEST PUSH4 0x80AC58CD PUSH1 0xE0 SHL DUP2 EQ SWAP2 POP DUP2 ISZERO PUSH2 0x11E8 JUMPI JUMPDEST DUP2 ISZERO PUSH2 0x11D7 JUMPI JUMPDEST POP CODESIZE PUSH2 0x11AF JUMP JUMPDEST PUSH4 0x1FFC9A7 PUSH1 0xE0 SHL EQ SWAP1 POP CODESIZE PUSH2 0x11D0 JUMP JUMPDEST PUSH4 0x5B5E139F PUSH1 0xE0 SHL DUP2 EQ SWAP2 POP PUSH2 0x11C9 JUMP JUMPDEST PUSH1 0x0 JUMPDEST DUP4 DUP2 LT PUSH2 0x120C JUMPI POP POP PUSH1 0x0 SWAP2 ADD MSTORE JUMP JUMPDEST DUP2 DUP2 ADD MLOAD DUP4 DUP3 ADD MSTORE PUSH1 0x20 ADD PUSH2 0x11FC JUMP JUMPDEST SWAP1 PUSH1 0x20 SWAP2 PUSH2 0x1235 DUP2 MLOAD DUP1 SWAP3 DUP2 DUP6 MSTORE DUP6 DUP1 DUP7 ADD SWAP2 ADD PUSH2 0x11F9 JUMP JUMPDEST PUSH1 0x1F ADD PUSH1 0x1F NOT AND ADD ADD SWAP1 JUMP JUMPDEST PUSH1 0x4 CALLDATALOAD SWAP1 PUSH1 0x1 PUSH1 0x1 PUSH1 0xA0 SHL SUB DUP3 AND DUP3 SUB PUSH2 0x1257 JUMPI JUMP JUMPDEST PUSH1 0x0 DUP1 REVERT JUMPDEST PUSH1 0x24 CALLDATALOAD SWAP1 PUSH1 0x1 PUSH1 0x1 PUSH1 0xA0 SHL SUB DUP3 AND DUP3 SUB PUSH2 0x1257 JUMPI JUMP JUMPDEST PUSH1 0x20 SWAP1 DUP2 PUSH1 0x40 DUP2 DUP4 ADD SWAP3 DUP3 DUP2 MSTORE DUP6 MLOAD DUP1 SWAP5 MSTORE ADD SWAP4 ADD SWAP2 PUSH1 0x0 JUMPDEST DUP3 DUP2 LT PUSH2 0x1299 JUMPI POP POP POP POP SWAP1 JUMP JUMPDEST DUP4 MLOAD DUP6 MSTORE SWAP4 DUP2 ADD SWAP4 SWAP3 DUP2 ADD SWAP3 PUSH1 0x1 ADD PUSH2 0x128B JUMP JUMPDEST PUSH1 0x60 SWAP1 PUSH1 0x3 NOT ADD SLT PUSH2 0x1257 JUMPI PUSH1 0x1 PUSH1 0x1 PUSH1 0xA0 SHL SUB SWAP1 PUSH1 0x4 CALLDATALOAD DUP3 DUP2 AND DUP2 SUB PUSH2 0x1257 JUMPI SWAP2 PUSH1 0x24 CALLDATALOAD SWAP1 DUP2 AND DUP2 SUB PUSH2 0x1257 JUMPI SWAP1 PUSH1 0x44 CALLDATALOAD SWAP1 JUMP JUMPDEST PUSH1 0x8 SLOAD DUP2 LT ISZERO PUSH2 0x1319 JUMPI PUSH1 0x8 PUSH1 0x0 MSTORE PUSH32 0xF3F7A9FE364FAAB93B216DA50A3214154F22A0A2B415B23A84C8169E8B636EE3 ADD SWAP1 PUSH1 0x0 SWAP1 JUMP JUMPDEST PUSH4 0x4E487B71 PUSH1 0xE0 SHL PUSH1 0x0 MSTORE PUSH1 0x32 PUSH1 0x4 MSTORE PUSH1 0x24 PUSH1 0x0 REVERT JUMPDEST DUP1 SLOAD DUP3 LT ISZERO PUSH2 0x1319 JUMPI PUSH1 0x0 MSTORE PUSH1 0x20 PUSH1 0x0 KECCAK256 ADD SWAP1 PUSH1 0x0 SWAP1 JUMP JUMPDEST PUSH1 0x80 DUP2 ADD SWAP1 DUP2 LT PUSH8 0xFFFFFFFFFFFFFFFF DUP3 GT OR PUSH2 0x1363 JUMPI PUSH1 0x40 MSTORE JUMP JUMPDEST PUSH4 0x4E487B71 PUSH1 0xE0 SHL PUSH1 0x0 MSTORE PUSH1 0x41 PUSH1 0x4 MSTORE PUSH1 0x24 PUSH1 0x0 REVERT JUMPDEST PUSH1 0x20 DUP2 ADD SWAP1 DUP2 LT PUSH8 0xFFFFFFFFFFFFFFFF DUP3 GT OR PUSH2 0x1363 JUMPI PUSH1 0x40 MSTORE JUMP JUMPDEST SWAP1 PUSH1 0x1F DUP1 NOT SWAP2 ADD AND DUP2 ADD SWAP1 DUP2 LT PUSH8 0xFFFFFFFFFFFFFFFF DUP3 GT OR PUSH2 0x1363 JUMPI PUSH1 0x40 MSTORE JUMP JUMPDEST PUSH8 0xFFFFFFFFFFFFFFFF DUP2 GT PUSH2 0x1363 JUMPI PUSH1 0x1F ADD PUSH1 0x1F NOT AND PUSH1 0x20 ADD SWAP1 JUMP JUMPDEST SWAP3 SWAP2 SWAP3 PUSH2 0x13DF DUP3 PUSH2 0x13B7 JUMP JUMPDEST SWAP2 PUSH2 0x13ED PUSH1 0x40 MLOAD SWAP4 DUP5 PUSH2 0x1395 JUMP JUMPDEST DUP3 SWAP5 DUP2 DUP5 MSTORE DUP2 DUP4 ADD GT PUSH2 0x1257 JUMPI DUP3 DUP2 PUSH1 0x20 SWAP4 DUP5 PUSH1 0x0 SWAP7 ADD CALLDATACOPY ADD ADD MSTORE JUMP JUMPDEST SWAP1 DUP1 PUSH1 0x1F DUP4 ADD SLT ISZERO PUSH2 0x1257 JUMPI DUP2 PUSH1 0x20 PUSH2 0x1425 SWAP4 CALLDATALOAD SWAP2 ADD PUSH2 0x13D3 JUMP JUMPDEST SWAP1 JUMP JUMPDEST SWAP1 PUSH1 0x1 DUP3 DUP2 SHR SWAP3 AND DUP1 ISZERO PUSH2 0x1458 JUMPI JUMPDEST PUSH1 0x20 DUP4 LT EQ PUSH2 0x1442 JUMPI JUMP JUMPDEST PUSH4 0x4E487B71 PUSH1 0xE0 SHL PUSH1 0x0 MSTORE PUSH1 0x22 PUSH1 0x4 MSTORE PUSH1 0x24 PUSH1 0x0 REVERT JUMPDEST SWAP2 PUSH1 0x7F AND SWAP2 PUSH2 0x1437 JUMP JUMPDEST SWAP1 PUSH1 0x40 MLOAD SWAP2 DUP3 PUSH1 0x0 DUP3 SLOAD SWAP3 PUSH2 0x1476 DUP5 PUSH2 0x1428 JUMP JUMPDEST SWAP1 DUP2 DUP5 MSTORE PUSH1 0x1 SWAP5 DUP6 DUP2 AND SWAP1 DUP2 PUSH1 0x0 EQ PUSH2 0x14E5 JUMPI POP PUSH1 0x1 EQ PUSH2 0x14A2 JUMPI JUMPDEST POP POP PUSH2 0x14A0 SWAP3 POP SUB DUP4 PUSH2 0x1395 JUMP JUMPDEST JUMP JUMPDEST SWAP1 SWAP4 SWAP2 POP PUSH1 0x0 MSTORE PUSH1 0x20 SWAP1 DUP2 PUSH1 0x0 KECCAK256 SWAP4 PUSH1 0x0 SWAP2 JUMPDEST DUP2 DUP4 LT PUSH2 0x14CD JUMPI POP POP PUSH2 0x14A0 SWAP4 POP DUP3 ADD ADD CODESIZE DUP1 PUSH2 0x1492 JUMP JUMPDEST DUP6 SLOAD DUP9 DUP5 ADD DUP6 ADD MSTORE SWAP5 DUP6 ADD SWAP5 DUP8 SWAP5 POP SWAP2 DUP4 ADD SWAP2 PUSH2 0x14B5 JUMP JUMPDEST SWAP2 POP POP PUSH2 0x14A0 SWAP5 POP PUSH1 0x20 SWAP3 POP PUSH1 0xFF NOT AND DUP3 DUP5 ADD MSTORE ISZERO ISZERO PUSH1 0x5 SHL DUP3 ADD ADD CODESIZE DUP1 PUSH2 0x1492 JUMP JUMPDEST PUSH8 0xFFFFFFFFFFFFFFFF DUP2 GT PUSH2 0x1363 JUMPI PUSH1 0x5 SHL PUSH1 0x20 ADD SWAP1 JUMP JUMPDEST PUSH1 0xA SLOAD PUSH1 0x1 PUSH1 0x1 PUSH1 0xA0 SHL SUB AND CALLER SUB PUSH2 0x1534 JUMPI JUMP JUMPDEST PUSH1 0x40 MLOAD PUSH4 0x118CDAA7 PUSH1 0xE0 SHL DUP2 MSTORE CALLER PUSH1 0x4 DUP3 ADD MSTORE PUSH1 0x24 SWAP1 REVERT JUMPDEST PUSH1 0x1 PUSH1 0x1 PUSH1 0xA0 SHL SUB AND DUP1 ISZERO PUSH2 0x156C JUMPI PUSH1 0x0 MSTORE PUSH1 0x3 PUSH1 0x20 MSTORE PUSH1 0x40 PUSH1 0x0 KECCAK256 SLOAD SWAP1 JUMP JUMPDEST PUSH1 0x40 MLOAD PUSH4 0x22718AD9 PUSH1 0xE2 SHL DUP2 MSTORE PUSH1 0x0 PUSH1 0x4 DUP3 ADD MSTORE PUSH1 0x24 SWAP1 REVERT JUMPDEST PUSH1 0x1 PUSH1 0x1 PUSH1 0xA0 SHL SUB DUP3 DUP2 AND SWAP4 SWAP2 DUP5 ISZERO PUSH2 0x183F JUMPI PUSH1 0x0 SWAP5 DUP4 DUP7 MSTORE PUSH1 0x20 SWAP6 PUSH1 0x2 DUP8 MSTORE PUSH1 0x40 SWAP7 DUP5 DUP9 DUP4 KECCAK256 SLOAD AND PUSH2 0x17FC JUMPI DUP6 DUP3 MSTORE PUSH1 0x2 DUP2 MSTORE DUP5 DUP9 DUP4 KECCAK256 SLOAD AND SWAP7 CALLER ISZERO ISZERO DUP1 PUSH2 0x176E JUMPI JUMPDEST POP DUP8 ISZERO DUP1 ISZERO PUSH2 0x173B JUMPI JUMPDEST DUP5 DUP5 MSTORE PUSH1 0x3 DUP4 MSTORE DUP10 DUP5 KECCAK256 DUP1 SLOAD PUSH1 0x1 ADD SWAP1 SSTORE DUP8 DUP5 MSTORE PUSH1 0x2 DUP4 MSTORE DUP10 DUP5 KECCAK256 DUP1 SLOAD PUSH1 0x1 PUSH1 0x1 PUSH1 0xA0 SHL SUB NOT AND DUP7 OR SWAP1 SSTORE DUP8 DUP6 DUP11 PUSH32 0xDDF252AD1BE2C89B69C2B068FC378DAA952BA7F163C4A11628F55A4DF523B3EF DUP8 DUP1 LOG4 ISZERO PUSH2 0x16CF JUMPI PUSH1 0x8 SLOAD DUP8 DUP5 MSTORE PUSH1 0x9 DUP4 MSTORE DUP10 DUP5 KECCAK256 SSTORE PUSH2 0x1641 DUP8 PUSH2 0x2125 JUMP JUMPDEST DUP4 DUP9 SUB PUSH2 0x167D JUMPI JUMPDEST POP POP POP POP AND SWAP3 DUP4 DUP4 SUB PUSH2 0x165C JUMPI POP POP POP POP JUMP JUMPDEST PUSH1 0x64 SWAP5 POP MLOAD SWAP3 PUSH4 0x64283D7B PUSH1 0xE0 SHL DUP5 MSTORE PUSH1 0x4 DUP5 ADD MSTORE PUSH1 0x24 DUP4 ADD MSTORE PUSH1 0x44 DUP3 ADD MSTORE REVERT JUMPDEST PUSH2 0x1686 SWAP1 PUSH2 0x154C JUMP JUMPDEST PUSH1 0x0 NOT DUP2 ADD SWAP4 SWAP1 DUP5 GT PUSH2 0x16BB JUMPI DUP3 SWAP2 PUSH1 0x7 SWAP2 DUP11 SWAP5 MSTORE PUSH1 0x6 DUP2 MSTORE DUP4 DUP4 KECCAK256 DUP6 DUP5 MSTORE DUP2 MSTORE DUP8 DUP5 DUP5 KECCAK256 SSTORE DUP8 DUP4 MSTORE MSTORE KECCAK256 SSTORE CODESIZE DUP1 DUP1 DUP1 PUSH2 0x1649 JUMP JUMPDEST PUSH4 0x4E487B71 PUSH1 0xE0 SHL DUP4 MSTORE PUSH1 0x11 PUSH1 0x4 MSTORE PUSH1 0x24 DUP4 REVERT JUMPDEST DUP8 DUP5 EQ PUSH2 0x1641 JUMPI PUSH2 0x16DF DUP9 PUSH2 0x154C JUMP JUMPDEST DUP8 DUP5 MSTORE PUSH1 0x7 DUP4 MSTORE DUP10 DUP5 KECCAK256 SLOAD SWAP1 DUP10 DUP6 MSTORE PUSH1 0x6 DUP5 MSTORE DUP11 DUP6 KECCAK256 SWAP2 DUP2 DUP2 SUB PUSH2 0x1719 JUMPI JUMPDEST POP DUP9 DUP6 MSTORE PUSH1 0x7 DUP5 MSTORE DUP5 DUP12 DUP2 KECCAK256 SSTORE DUP5 MSTORE DUP3 MSTORE DUP3 DUP10 DUP2 KECCAK256 SSTORE PUSH2 0x1641 JUMP JUMPDEST DUP2 DUP7 MSTORE DUP3 DUP6 MSTORE DUP12 DUP7 KECCAK256 SLOAD DUP2 DUP8 MSTORE DUP1 DUP14 DUP9 KECCAK256 SSTORE DUP7 MSTORE PUSH1 0x7 DUP6 MSTORE DUP12 DUP7 KECCAK256 SSTORE CODESIZE PUSH2 0x16FE JUMP JUMPDEST PUSH1 0x0 DUP9 DUP2 MSTORE PUSH1 0x4 PUSH1 0x20 MSTORE PUSH1 0x40 SWAP1 KECCAK256 DUP1 SLOAD PUSH1 0x1 PUSH1 0x1 PUSH1 0xA0 SHL SUB NOT AND SWAP1 SSTORE DUP9 DUP5 MSTORE PUSH1 0x3 DUP4 MSTORE DUP10 DUP5 KECCAK256 DUP1 SLOAD PUSH1 0x0 NOT ADD SWAP1 SSTORE PUSH2 0x15D3 JUMP JUMPDEST DUP1 PUSH2 0x17BB JUMPI JUMPDEST ISZERO PUSH2 0x177F JUMPI CODESIZE PUSH2 0x15C9 JUMP JUMPDEST DUP9 DUP8 DUP10 PUSH2 0x179C JUMPI PUSH1 0x24 SWAP2 MLOAD SWAP1 PUSH4 0x7E273289 PUSH1 0xE0 SHL DUP3 MSTORE PUSH1 0x4 DUP3 ADD MSTORE REVERT JUMPDEST SWAP1 MLOAD PUSH4 0x177E802F PUSH1 0xE0 SHL DUP2 MSTORE CALLER PUSH1 0x4 DUP3 ADD MSTORE PUSH1 0x24 DUP2 ADD SWAP2 SWAP1 SWAP2 MSTORE PUSH1 0x44 SWAP1 REVERT JUMPDEST POP CALLER DUP9 EQ DUP1 ISZERO PUSH2 0x17E0 JUMPI JUMPDEST DUP1 PUSH2 0x1774 JUMPI POP DUP7 DUP4 MSTORE PUSH1 0x4 DUP3 MSTORE CALLER DUP7 DUP11 DUP6 KECCAK256 SLOAD AND EQ PUSH2 0x1774 JUMP JUMPDEST POP DUP8 DUP4 MSTORE PUSH1 0x5 DUP3 MSTORE DUP9 DUP4 KECCAK256 CALLER DUP5 MSTORE DUP3 MSTORE PUSH1 0xFF DUP10 DUP5 KECCAK256 SLOAD AND PUSH2 0x17C6 JUMP JUMPDEST PUSH1 0x64 SWAP1 DUP9 MLOAD SWAP1 PUSH3 0x461BCD PUSH1 0xE5 SHL DUP3 MSTORE PUSH1 0x4 DUP3 ADD MSTORE PUSH1 0x1E PUSH1 0x24 DUP3 ADD MSTORE PUSH32 0x5342543A20546F6B656E206973206E6F6E2D7472616E7366657261626C650000 PUSH1 0x44 DUP3 ADD MSTORE REVERT JUMPDEST PUSH1 0x40 MLOAD PUSH4 0x32505749 PUSH1 0xE1 SHL DUP2 MSTORE PUSH1 0x0 PUSH1 0x4 DUP3 ADD MSTORE PUSH1 0x24 SWAP1 REVERT JUMPDEST PUSH1 0x0 DUP2 DUP2 MSTORE PUSH1 0x2 PUSH1 0x20 MSTORE PUSH1 0x40 SWAP1 KECCAK256 SLOAD PUSH1 0x1 PUSH1 0x1 PUSH1 0xA0 SHL SUB AND SWAP1 DUP2 ISZERO PUSH2 0x187B JUMPI POP SWAP1 JUMP JUMPDEST PUSH1 0x24 SWAP1 PUSH1 0x40 MLOAD SWAP1 PUSH4 0x7E273289 PUSH1 0xE0 SHL DUP3 MSTORE PUSH1 0x4 DUP3 ADD MSTORE REVERT JUMPDEST PUSH2 0x189C DUP2 PUSH2 0x154C JUMP JUMPDEST DUP3 LT ISZERO PUSH2 0x18C8 JUMPI PUSH1 0x1 DUP1 PUSH1 0xA0 SHL SUB AND PUSH1 0x0 MSTORE PUSH1 0x6 PUSH1 0x20 MSTORE PUSH1 0x40 PUSH1 0x0 KECCAK256 SWAP1 PUSH1 0x0 MSTORE PUSH1 0x20 MSTORE PUSH1 0x40 PUSH1 0x0 KECCAK256 SLOAD SWAP1 JUMP JUMPDEST PUSH1 0x40 MLOAD PUSH4 0x295F44F7 PUSH1 0xE2 SHL DUP2 MSTORE PUSH1 0x1 PUSH1 0x1 PUSH1 0xA0 SHL SUB SWAP2 SWAP1 SWAP2 AND PUSH1 0x4 DUP3 ADD MSTORE PUSH1 0x24 DUP2 ADD SWAP2 SWAP1 SWAP2 MSTORE PUSH1 0x44 SWAP1 REVERT JUMPDEST SWAP1 SWAP4 SWAP2 SWAP3 DUP4 EXTCODESIZE PUSH2 0x1905 JUMPI JUMPDEST POP POP POP POP POP JUMP JUMPDEST PUSH1 0x40 MLOAD PUSH4 0xA85BD01 PUSH1 0xE1 SHL DUP1 DUP3 MSTORE PUSH1 0x1 PUSH1 0x1 PUSH1 0xA0 SHL SUB SWAP4 DUP5 AND PUSH1 0x4 DUP4 ADD MSTORE SWAP6 DUP4 AND PUSH1 0x24 DUP3 ADD MSTORE PUSH1 0x44 DUP2 ADD SWAP2 SWAP1 SWAP2 MSTORE PUSH1 0x80 PUSH1 0x64 DUP3 ADD MSTORE SWAP5 SWAP3 AND SWAP3 PUSH1 0x20 SWAP3 SWAP2 DUP6 SWAP1 PUSH2 0x1952 SWAP1 PUSH1 0x84 DUP4 ADD SWAP1 PUSH2 0x121C JUMP JUMPDEST SUB SWAP5 DUP4 DUP2 PUSH1 0x0 SWAP8 DUP2 DUP10 DUP10 GAS CALL DUP7 SWAP2 DUP2 PUSH2 0x19FD JUMPI JUMPDEST POP PUSH2 0x19C7 JUMPI POP POP POP RETURNDATASIZE PUSH1 0x0 EQ PUSH2 0x19BE JUMPI RETURNDATASIZE PUSH2 0x1980 DUP2 PUSH2 0x13B7 JUMP JUMPDEST SWAP1 PUSH2 0x198E PUSH1 0x40 MLOAD SWAP3 DUP4 PUSH2 0x1395 JUMP JUMPDEST DUP2 MSTORE DUP1 SWAP4 DUP3 RETURNDATASIZE SWAP3 ADD RETURNDATACOPY JUMPDEST DUP3 MLOAD SWAP3 DUP4 PUSH2 0x19B9 JUMPI PUSH1 0x40 MLOAD PUSH4 0x32505749 PUSH1 0xE1 SHL DUP2 MSTORE PUSH1 0x4 DUP2 ADD DUP5 SWAP1 MSTORE PUSH1 0x24 SWAP1 REVERT JUMPDEST ADD SWAP1 POP REVERT JUMPDEST PUSH1 0x60 SWAP3 POP PUSH2 0x1998 JUMP JUMPDEST SWAP2 SWAP5 POP SWAP2 POP PUSH4 0xFFFFFFFF PUSH1 0xE0 SHL AND SUB PUSH2 0x19E5 JUMPI POP CODESIZE DUP1 DUP1 DUP1 DUP1 PUSH2 0x18FE JUMP JUMPDEST PUSH1 0x24 SWAP1 PUSH1 0x40 MLOAD SWAP1 PUSH4 0x32505749 PUSH1 0xE1 SHL DUP3 MSTORE PUSH1 0x4 DUP3 ADD MSTORE REVERT JUMPDEST SWAP1 SWAP2 POP DUP5 DUP2 DUP2 RETURNDATASIZE DUP4 GT PUSH2 0x1A36 JUMPI JUMPDEST PUSH2 0x1A15 DUP2 DUP4 PUSH2 0x1395 JUMP JUMPDEST DUP2 ADD SUB SLT PUSH2 0x49A JUMPI MLOAD PUSH1 0x1 PUSH1 0x1 PUSH1 0xE0 SHL SUB NOT DUP2 AND DUP2 SUB PUSH2 0x49A JUMPI SWAP1 CODESIZE PUSH2 0x1966 JUMP JUMPDEST POP RETURNDATASIZE PUSH2 0x1A0B JUMP JUMPDEST SWAP3 SWAP1 SWAP2 PUSH2 0x1A48 PUSH2 0x1520 JUMP JUMPDEST PUSH2 0x1A50 PUSH2 0x2148 JUMP JUMPDEST PUSH1 0x1 PUSH1 0x1 PUSH1 0xA0 SHL SUB DUP5 AND ISZERO PUSH2 0x20D1 JUMPI DUP1 MLOAD ISZERO PUSH2 0x208C JUMPI PUSH2 0x1A71 PUSH1 0x10 SLOAD PUSH2 0x2116 JUMP JUMPDEST SWAP1 DUP2 PUSH1 0x10 SSTORE PUSH1 0x40 MLOAD SWAP4 PUSH2 0x1A83 DUP6 PUSH2 0x1379 JUMP JUMPDEST PUSH1 0x0 DUP1 DUP7 MSTORE DUP4 DUP2 MSTORE PUSH1 0x2 PUSH1 0x20 MSTORE PUSH1 0x40 SWAP1 KECCAK256 SLOAD PUSH1 0x1 PUSH1 0x1 PUSH1 0xA0 SHL SUB AND PUSH2 0x2047 JUMPI PUSH1 0x0 DUP4 DUP2 MSTORE PUSH1 0x2 PUSH1 0x20 MSTORE PUSH1 0x40 SWAP1 KECCAK256 SLOAD PUSH1 0x1 PUSH1 0x1 PUSH1 0xA0 SHL SUB AND SWAP5 DUP6 ISZERO DUP1 ISZERO PUSH2 0x2010 JUMPI JUMPDEST PUSH1 0x1 PUSH1 0x1 PUSH1 0xA0 SHL SUB DUP9 AND PUSH1 0x0 DUP2 DUP2 MSTORE PUSH1 0x3 PUSH1 0x20 SWAP1 DUP2 MSTORE PUSH1 0x40 DUP1 DUP4 KECCAK256 DUP1 SLOAD PUSH1 0x1 ADD SWAP1 SSTORE DUP9 DUP4 MSTORE PUSH1 0x2 SWAP1 SWAP2 MSTORE DUP2 KECCAK256 DUP1 SLOAD PUSH1 0x1 PUSH1 0x1 PUSH1 0xA0 SHL SUB NOT SWAP1 DUP2 AND DUP5 OR SWAP1 SWAP2 SSTORE SWAP9 SWAP2 DUP8 SWAP2 DUP4 SWAP1 PUSH32 0xDDF252AD1BE2C89B69C2B068FC378DAA952BA7F163C4A11628F55A4DF523B3EF SWAP1 DUP1 LOG4 DUP2 ISZERO PUSH2 0x1F80 JUMPI PUSH1 0x8 SLOAD DUP7 PUSH1 0x0 MSTORE PUSH1 0x9 PUSH1 0x20 MSTORE PUSH1 0x40 PUSH1 0x0 KECCAK256 SSTORE PUSH2 0x1B4E DUP7 PUSH2 0x2125 JUMP JUMPDEST PUSH1 0x1 PUSH1 0x1 PUSH1 0xA0 SHL SUB DUP10 AND SUB PUSH2 0x1F1D JUMPI JUMPDEST ISZERO PUSH2 0x1F04 JUMPI DUP7 EXTCODESIZE PUSH2 0x1DC2 JUMPI JUMPDEST POP SWAP1 SWAP2 SWAP3 SWAP4 SWAP5 DUP4 PUSH1 0x0 MSTORE PUSH1 0xD PUSH1 0x20 MSTORE DUP2 PUSH1 0x40 PUSH1 0x0 KECCAK256 SSTORE DUP2 PUSH1 0x0 MSTORE PUSH1 0xC PUSH1 0x20 MSTORE PUSH1 0x40 PUSH1 0x0 KECCAK256 DUP1 SLOAD PUSH1 0x1 PUSH1 0x40 SHL DUP2 LT ISZERO PUSH2 0x1363 JUMPI PUSH2 0x1BB0 DUP2 PUSH2 0x1BC9 SWAP4 PUSH1 0x1 DUP10 SWAP5 ADD DUP2 SSTORE PUSH2 0x132F JUMP JUMPDEST SWAP1 SWAP2 SWAP1 DUP3 SLOAD SWAP1 PUSH1 0x3 SHL SWAP2 DUP3 SHL SWAP2 PUSH1 0x0 NOT SWAP1 SHL NOT AND OR SWAP1 SSTORE JUMP JUMPDEST PUSH1 0x40 MLOAD PUSH2 0x1BD5 DUP2 PUSH2 0x1347 JUMP JUMPDEST DUP3 DUP2 MSTORE PUSH1 0x20 DUP2 ADD SWAP7 PUSH1 0x1 DUP1 PUSH1 0xA0 SHL SUB DUP4 AND DUP9 MSTORE PUSH1 0x40 DUP3 ADD SWAP8 DUP6 DUP10 MSTORE PUSH1 0x60 DUP4 ADD SWAP2 TIMESTAMP DUP4 MSTORE DUP8 PUSH1 0x0 MSTORE PUSH1 0xE PUSH1 0x20 MSTORE PUSH1 0x40 PUSH1 0x0 KECCAK256 SWAP4 MLOAD DUP5 SSTORE PUSH1 0x1 DUP5 ADD SWAP2 PUSH1 0x1 DUP1 PUSH1 0xA0 SHL SUB SWAP1 MLOAD AND SWAP1 DUP3 SLOAD AND OR SWAP1 SSTORE PUSH1 0x2 DUP3 ADD SWAP8 MLOAD SWAP8 DUP9 MLOAD PUSH8 0xFFFFFFFFFFFFFFFF DUP2 GT PUSH2 0x1363 JUMPI PUSH2 0x1C42 DUP3 SLOAD PUSH2 0x1428 JUMP JUMPDEST SWAP10 PUSH1 0x1F DUP12 GT PUSH2 0x1D7A JUMPI JUMPDEST DUP9 SWAP10 SWAP11 POP PUSH1 0x0 SWAP9 SWAP7 SWAP8 SWAP9 POP PUSH1 0x20 SWAP1 PUSH1 0x1F DUP4 GT PUSH1 0x1 EQ PUSH2 0x1CE6 JUMPI SWAP3 DUP3 PUSH1 0x3 SWAP4 PUSH32 0xCA923B3E1DC3FD3AB757B34BD674821E06D0643ED332CE340C68BED95C7C2C1E SWAP9 SWAP7 SWAP4 PUSH2 0x1CD0 SWAP9 SWAP7 PUSH1 0x0 SWAP3 PUSH2 0x1CDB JUMPI JUMPDEST POP POP DUP2 PUSH1 0x1 SHL SWAP2 PUSH1 0x0 NOT SWAP1 DUP7 SHL SHR NOT AND OR SWAP1 SSTORE JUMPDEST MLOAD SWAP2 ADD SSTORE PUSH1 0x40 MLOAD SWAP2 DUP3 SWAP2 PUSH1 0x20 DUP4 MSTORE PUSH1 0x1 DUP1 PUSH1 0xA0 SHL SUB AND SWAP7 PUSH1 0x20 DUP4 ADD SWAP1 PUSH2 0x121C JUMP JUMPDEST SUB SWAP1 LOG4 PUSH1 0x1 PUSH1 0xB SSTORE SWAP1 JUMP JUMPDEST ADD MLOAD SWAP1 POP CODESIZE DUP1 PUSH2 0x1C9B JUMP JUMPDEST SWAP1 PUSH1 0x1F NOT DUP4 AND SWAP2 DUP5 PUSH1 0x0 MSTORE PUSH1 0x20 PUSH1 0x0 KECCAK256 SWAP3 PUSH1 0x0 JUMPDEST DUP2 DUP2 LT PUSH2 0x1D5F JUMPI POP SWAP4 PUSH32 0xCA923B3E1DC3FD3AB757B34BD674821E06D0643ED332CE340C68BED95C7C2C1E SWAP9 SWAP7 SWAP4 PUSH2 0x1CD0 SWAP9 SWAP7 SWAP4 PUSH1 0x1 SWAP4 DUP4 PUSH1 0x3 SWAP9 LT PUSH2 0x1D47 JUMPI JUMPDEST POP POP POP DUP2 SHL ADD SWAP1 SSTORE PUSH2 0x1CAF JUMP JUMPDEST ADD MLOAD PUSH1 0x0 NOT DUP4 DUP9 SHL PUSH1 0xF8 AND SHR NOT AND SWAP1 SSTORE CODESIZE DUP1 DUP1 PUSH2 0x1D3A JUMP JUMPDEST DUP3 DUP5 ADD MLOAD DUP6 SSTORE DUP14 SWAP11 POP PUSH1 0x1 SWAP1 SWAP5 ADD SWAP4 PUSH1 0x20 SWAP4 DUP5 ADD SWAP4 ADD PUSH2 0x1CFA JUMP JUMPDEST DUP3 PUSH1 0x0 MSTORE PUSH1 0x20 PUSH1 0x0 KECCAK256 PUSH1 0x1F DUP4 ADD PUSH1 0x5 SHR DUP2 ADD SWAP12 PUSH1 0x20 DUP5 LT PUSH2 0x1DB8 JUMPI JUMPDEST PUSH1 0x1F ADD PUSH1 0x5 SHR ADD SWAP11 JUMPDEST DUP12 DUP2 LT PUSH2 0x1DAC JUMPI POP PUSH2 0x1C4C JUMP JUMPDEST PUSH1 0x0 DUP2 SSTORE PUSH1 0x1 ADD PUSH2 0x1D9F JUMP JUMPDEST SWAP1 SWAP12 POP DUP12 SWAP1 PUSH2 0x1D96 JUMP JUMPDEST PUSH1 0x40 MLOAD PUSH1 0x20 DUP2 DUP1 PUSH2 0x1DFC PUSH4 0xA85BD01 PUSH1 0xE1 SHL SWAP6 DUP7 DUP4 MSTORE CALLER PUSH1 0x4 DUP5 ADD MSTORE PUSH1 0x0 PUSH1 0x24 DUP5 ADD MSTORE DUP10 PUSH1 0x44 DUP5 ADD MSTORE PUSH1 0x80 PUSH1 0x64 DUP5 ADD MSTORE PUSH1 0x84 DUP4 ADD SWAP1 PUSH2 0x121C JUMP JUMPDEST SUB DUP2 PUSH1 0x0 PUSH1 0x1 PUSH1 0x1 PUSH1 0xA0 SHL SUB DUP14 AND GAS CALL PUSH1 0x0 SWAP2 DUP2 PUSH2 0x1EBF JUMPI JUMPDEST POP PUSH2 0x1E7D JUMPI DUP8 RETURNDATASIZE ISZERO PUSH2 0x1E75 JUMPI RETURNDATASIZE SWAP1 PUSH2 0x1E2C DUP3 PUSH2 0x13B7 JUMP JUMPDEST SWAP2 PUSH2 0x1E3A PUSH1 0x40 MLOAD SWAP4 DUP5 PUSH2 0x1395 JUMP JUMPDEST DUP3 MSTORE RETURNDATASIZE PUSH1 0x0 PUSH1 0x20 DUP5 ADD RETURNDATACOPY JUMPDEST DUP2 MLOAD SWAP2 DUP3 PUSH2 0x1E6E JUMPI PUSH1 0x40 MLOAD PUSH4 0x32505749 PUSH1 0xE1 SHL DUP2 MSTORE PUSH1 0x1 PUSH1 0x1 PUSH1 0xA0 SHL SUB DUP4 AND PUSH1 0x4 DUP3 ADD MSTORE PUSH1 0x24 SWAP1 REVERT JUMPDEST PUSH1 0x20 SWAP2 POP ADD REVERT JUMPDEST PUSH1 0x60 SWAP1 PUSH2 0x1E45 JUMP JUMPDEST PUSH4 0xFFFFFFFF PUSH1 0xE0 SWAP9 SWAP4 SWAP5 SWAP6 SWAP7 SWAP8 SWAP9 SHL AND SUB PUSH2 0x1E9D JUMPI SWAP5 SWAP4 SWAP3 SWAP2 SWAP1 CODESIZE PUSH2 0x1B6A JUMP JUMPDEST PUSH1 0x40 MLOAD PUSH4 0x32505749 PUSH1 0xE1 SHL DUP2 MSTORE PUSH1 0x1 PUSH1 0x1 PUSH1 0xA0 SHL SUB SWAP1 SWAP2 AND PUSH1 0x4 DUP3 ADD MSTORE PUSH1 0x24 SWAP1 REVERT JUMPDEST SWAP1 SWAP2 POP PUSH1 0x20 DUP2 RETURNDATASIZE PUSH1 0x20 GT PUSH2 0x1EFC JUMPI JUMPDEST DUP2 PUSH2 0x1EDB PUSH1 0x20 SWAP4 DUP4 PUSH2 0x1395 JUMP JUMPDEST DUP2 ADD SUB SLT PUSH2 0x1257 JUMPI MLOAD PUSH1 0x1 PUSH1 0x1 PUSH1 0xE0 SHL SUB NOT DUP2 AND DUP2 SUB PUSH2 0x1257 JUMPI SWAP1 CODESIZE PUSH2 0x1E15 JUMP JUMPDEST RETURNDATASIZE SWAP2 POP PUSH2 0x1ECE JUMP JUMPDEST PUSH1 0x40 MLOAD PUSH4 0x39E35637 PUSH1 0xE1 SHL DUP2 MSTORE PUSH1 0x0 PUSH1 0x4 DUP3 ADD MSTORE PUSH1 0x24 SWAP1 REVERT JUMPDEST PUSH2 0x1F26 DUP9 PUSH2 0x154C JUMP JUMPDEST PUSH1 0x0 NOT DUP2 ADD SWAP1 DUP2 GT PUSH2 0x1F6A JUMPI PUSH1 0x1 DUP1 PUSH1 0xA0 SHL SUB DUP10 AND PUSH1 0x0 MSTORE PUSH1 0x6 PUSH1 0x20 MSTORE PUSH1 0x40 PUSH1 0x0 KECCAK256 DUP2 PUSH1 0x0 MSTORE PUSH1 0x20 MSTORE DUP6 PUSH1 0x40 PUSH1 0x0 KECCAK256 SSTORE DUP6 PUSH1 0x0 MSTORE PUSH1 0x7 PUSH1 0x20 MSTORE PUSH1 0x40 PUSH1 0x0 KECCAK256 SSTORE PUSH2 0x1B5E JUMP JUMPDEST PUSH4 0x4E487B71 PUSH1 0xE0 SHL PUSH1 0x0 MSTORE PUSH1 0x11 PUSH1 0x4 MSTORE PUSH1 0x24 PUSH1 0x0 REVERT JUMPDEST PUSH1 0x1 PUSH1 0x1 PUSH1 0xA0 SHL SUB DUP10 AND DUP2 EQ PUSH2 0x1B4E JUMPI PUSH2 0x1F99 DUP2 PUSH2 0x154C JUMP JUMPDEST DUP7 PUSH1 0x0 MSTORE PUSH1 0x7 PUSH1 0x20 MSTORE PUSH1 0x40 PUSH1 0x0 KECCAK256 SLOAD SWAP1 DUP3 PUSH1 0x0 MSTORE PUSH1 0x6 PUSH1 0x20 MSTORE PUSH1 0x40 PUSH1 0x0 KECCAK256 SWAP2 DUP2 DUP2 SUB PUSH2 0x1FE3 JUMPI JUMPDEST POP DUP8 PUSH1 0x0 MSTORE PUSH1 0x7 PUSH1 0x20 MSTORE PUSH1 0x0 PUSH1 0x40 DUP2 KECCAK256 SSTORE PUSH1 0x0 MSTORE PUSH1 0x20 MSTORE PUSH1 0x0 PUSH1 0x40 DUP2 KECCAK256 SSTORE PUSH2 0x1B4E JUMP JUMPDEST DUP2 PUSH1 0x0 MSTORE DUP3 PUSH1 0x20 MSTORE PUSH1 0x40 PUSH1 0x0 KECCAK256 SLOAD DUP2 PUSH1 0x0 MSTORE DUP1 PUSH1 0x40 PUSH1 0x0 KECCAK256 SSTORE PUSH1 0x0 MSTORE PUSH1 0x7 PUSH1 0x20 MSTORE PUSH1 0x40 PUSH1 0x0 KECCAK256 SSTORE CODESIZE PUSH2 0x1FC0 JUMP JUMPDEST PUSH1 0x0 DUP6 DUP2 MSTORE PUSH1 0x4 PUSH1 0x20 MSTORE PUSH1 0x40 SWAP1 KECCAK256 DUP1 SLOAD PUSH1 0x1 PUSH1 0x1 PUSH1 0xA0 SHL SUB NOT AND SWAP1 SSTORE DUP7 PUSH1 0x0 MSTORE PUSH1 0x3 PUSH1 0x20 MSTORE PUSH1 0x40 PUSH1 0x0 KECCAK256 PUSH1 0x0 NOT DUP2 SLOAD ADD SWAP1 SSTORE PUSH2 0x1AC4 JUMP JUMPDEST PUSH1 0x40 MLOAD PUSH3 0x461BCD PUSH1 0xE5 SHL DUP2 MSTORE PUSH1 0x20 PUSH1 0x4 DUP3 ADD MSTORE PUSH1 0x1E PUSH1 0x24 DUP3 ADD MSTORE PUSH32 0x5342543A20546F6B656E206973206E6F6E2D7472616E7366657261626C650000 PUSH1 0x44 DUP3 ADD MSTORE PUSH1 0x64 SWAP1 REVERT JUMPDEST PUSH1 0x40 MLOAD PUSH3 0x461BCD PUSH1 0xE5 SHL DUP2 MSTORE PUSH1 0x20 PUSH1 0x4 DUP3 ADD MSTORE PUSH1 0x19 PUSH1 0x24 DUP3 ADD MSTORE PUSH32 0x5465616D206E616D652063616E6E6F7420626520656D70747900000000000000 PUSH1 0x44 DUP3 ADD MSTORE PUSH1 0x64 SWAP1 REVERT JUMPDEST PUSH1 0x40 MLOAD PUSH3 0x461BCD PUSH1 0xE5 SHL DUP2 MSTORE PUSH1 0x20 PUSH1 0x4 DUP3 ADD MSTORE PUSH1 0x1B PUSH1 0x24 DUP3 ADD MSTORE PUSH32 0x43616E6E6F74206D696E7420746F207A65726F20616464726573730000000000 PUSH1 0x44 DUP3 ADD MSTORE PUSH1 0x64 SWAP1 REVERT JUMPDEST PUSH1 0x0 NOT DUP2 EQ PUSH2 0x1F6A JUMPI PUSH1 0x1 ADD SWAP1 JUMP JUMPDEST PUSH1 0x8 SLOAD SWAP1 PUSH1 0x1 PUSH1 0x40 SHL DUP3 LT ISZERO PUSH2 0x1363 JUMPI PUSH2 0x1BB0 DUP3 PUSH1 0x1 PUSH2 0x14A0 SWAP5 ADD PUSH1 0x8 SSTORE PUSH2 0x12E2 JUMP JUMPDEST PUSH1 0x2 PUSH1 0xB SLOAD EQ PUSH2 0x2159 JUMPI PUSH1 0x2 PUSH1 0xB SSTORE JUMP JUMPDEST PUSH1 0x40 MLOAD PUSH4 0x3EE5AEB5 PUSH1 0xE0 SHL DUP2 MSTORE PUSH1 0x4 SWAP1 REVERT JUMPDEST DUP1 MLOAD DUP3 LT ISZERO PUSH2 0x1319 JUMPI PUSH1 0x20 SWAP2 PUSH1 0x5 SHL ADD ADD SWAP1 JUMP JUMPDEST SWAP1 PUSH2 0x2189 DUP3 PUSH2 0x154C JUMP JUMPDEST SWAP2 PUSH1 0x0 JUMPDEST DUP4 DUP2 LT PUSH2 0x219D JUMPI POP POP POP POP PUSH1 0x0 SWAP1 JUMP JUMPDEST PUSH2 0x21A7 DUP2 DUP4 PUSH2 0x1893 JUMP JUMPDEST PUSH1 0x0 MSTORE PUSH1 0xD PUSH1 0x20 MSTORE DUP3 PUSH1 0x40 PUSH1 0x0 KECCAK256 SLOAD EQ PUSH2 0x21C9 JUMPI PUSH2 0x21C4 SWAP1 PUSH2 0x2116 JUMP JUMPDEST PUSH2 0x218D JUMP JUMPDEST POP POP POP POP PUSH1 0x1 SWAP1 JUMP JUMPDEST PUSH2 0x21DB DUP2 PUSH2 0x154C JUMP JUMPDEST SWAP2 PUSH1 0x0 SWAP2 DUP3 JUMPDEST DUP5 DUP2 LT PUSH2 0x2225 JUMPI PUSH1 0x40 MLOAD PUSH3 0x461BCD PUSH1 0xE5 SHL DUP2 MSTORE PUSH1 0x20 PUSH1 0x4 DUP3 ADD MSTORE PUSH1 0x15 PUSH1 0x24 DUP3 ADD MSTORE PUSH21 0x139BC81C9959DA5CDD1C985D1A5BDB88199BDD5B99 PUSH1 0x5A SHL PUSH1 0x44 DUP3 ADD MSTORE PUSH1 0x64 SWAP1 REVERT JUMPDEST PUSH2 0x222F DUP2 DUP4 PUSH2 0x1893 JUMP JUMPDEST DUP1 DUP6 MSTORE PUSH1 0xD PUSH1 0x20 MSTORE DUP4 PUSH1 0x40 DUP7 KECCAK256 SLOAD EQ PUSH2 0x2251 JUMPI POP PUSH2 0x224C SWAP1 PUSH2 0x2116 JUMP JUMPDEST PUSH2 0x21E1 JUMP JUMPDEST SWAP5 POP POP POP POP POP SWAP1 JUMP INVALID LOG2 PUSH5 0x6970667358 0x22 SLT KECCAK256 0xCD BALANCE 0x23 0x5E 0x2D PUSH6 0xD9EEF67A0929 DELEGATECALL XOR 0x1F 0xB1 0xBA PC DUP13 CODESIZE LT SWAP7 0xE7 0x1F MSIZE LOG1 CREATE 0x5E 0xD2 SWAP15 0xCE PUSH13 0x64736F6C634300081400330000 "},"methodIdentifiers":{"approve(address,uint256)":"095ea7b3","balanceOf(address)":"70a08231","batchMintRegistrations(address[],uint256[],string[])":"d2d576aa","eventTokens(uint256,uint256)":"4bb4a863","getApproved(uint256)":"081812fc","getEventTokens(uint256)":"1f9ab38d","getRegistrationData(uint256)":"3032dbdd","getRegistrationTokenId(address,uint256)":"c5fd992d","hasRegistration(address,uint256)":"282e093e","isApprovedForAll(address,address)":"e985e9c5","mintRegistration(address,uint256,string)":"af22230c","name()":"06fdde03","owner()":"8da5cb5b","ownerOf(uint256)":"6352211e","renounceOwnership()":"715018a6","safeTransferFrom(address,address,uint256)":"42842e0e","safeTransferFrom(address,address,uint256,bytes)":"b88d4fde","setApprovalForAll(address,bool)":"a22cb465","setBaseURI(string)":"55f804b3","supportsInterface(bytes4)":"01ffc9a7","symbol()":"95d89b41","tokenByIndex(uint256)":"4f6ccce7","tokenData(uint256)":"b4b5b48f","tokenOfOwnerByIndex(address,uint256)":"2f745c59","tokenToEvent(uint256)":"cc9d7071","tokenURI(uint256)":"c87b56dd","totalSupply()":"18160ddd","transferFrom(address,address,uint256)":"23b872dd","transferOwnership(address)":"f2fde38b"}}}}}