{"contracts/SubmissionRegistry.sol":{"SubmissionRegistry":{"abi":[{"inputs":[],"stateMutability":"nonpayable","type":"constructor"},{"inputs":[{"internalType":"address","name":"owner","type":"address"}],"name":"OwnableInvalidOwner","type":"error"},{"inputs":[{"internalType":"address","name":"account","type":"address"}],"name":"OwnableUnauthorizedAccount","type":"error"},{"anonymous":false,"inputs":[{"indexed":true,"internalType":"address","name":"previousOwner","type":"address"},{"indexed":true,"internalType":"address","name":"newOwner","type":"address"}],"name":"OwnershipTransferred","type":"event"},{"anonymous":false,"inputs":[{"indexed":true,"internalType":"uint256","name":"submissionId","type":"uint256"},{"indexed":true,"internalType":"uint256","name":"eventId","type":"uint256"},{"indexed":true,"internalType":"uint256","name":"teamId","type":"uint256"},{"indexed":false,"internalType":"bytes32","name":"hash","type":"bytes32"},{"indexed":false,"internalType":"string","name":"metadataURI","type":"string"}],"name":"SubmissionRegistered","type":"event"},{"inputs":[{"internalType":"uint256","name":"submissionId","type":"uint256"}],"name":"getSubmission","outputs":[{"components":[{"internalType":"uint256","name":"eventId","type":"uint256"},{"internalType":"uint256","name":"teamId","type":"uint256"},{"internalType":"bytes32","name":"hash","type":"bytes32"},{"internalType":"string","name":"metadataURI","type":"string"},{"internalType":"uint256","name":"timestamp","type":"uint256"}],"internalType":"struct SubmissionRegistry.Submission","name":"","type":"tuple"}],"stateMutability":"view","type":"function"},{"inputs":[],"name":"owner","outputs":[{"internalType":"address","name":"","type":"address"}],"stateMutability":"view","type":"function"},{"inputs":[{"internalType":"uint256","name":"eventId","type":"uint256"},{"internalType":"uint256","name":"teamId","type":"uint256"},{"internalType":"bytes32","name":"hash","type":"bytes32"},{"internalType":"string","name":"metadataURI","type":"string"}],"name":"registerSubmission","outputs":[{"internalType":"uint256","name":"","type":"uint256"}],"stateMutability":"nonpayable","type":"function"},{"inputs":[],"name":"renounceOwnership","outputs":[],"stateMutability":"nonpayable","type":"function"},{"inputs":[],"name":"submissionCounter","outputs":[{"internalType":"uint256","name":"","type":"uint256"}],"stateMutability":"view","type":"function"},{"inputs":[{"internalType":"uint256","name":"","type":"uint256"}],"name":"submissions","outputs":[{"internalType":"uint256","name":"eventId","type":"uint256"},{"internalType":"uint256","name":"teamId","type":"uint256"},{"internalType":"bytes32","name":"hash","type":"bytes32"},{"internalType":"string","name":"metadataURI","type":"string"},{"internalType":"uint256","name":"timestamp","type":"uint256"}],"stateMutability":"view","type":"function"},{"inputs":[{"internalType":"address","name":"newOwner","type":"address"}],"name":"transferOwnership","outputs":[],"stateMutability":"nonpayable","type":"function"}],"evm":{"bytecode":{"linkReferences":{},"object":"6080806040523461007a5733156100645760008054336001600160a01b03198216811783556040519290916001600160a01b0316907f8be0079c531659141344cd1fd0a4f28419497f9722a3daafe3b4186f6b6457e09080a361077090816100808239f35b631e4fbdf760e01b815260006004820152602490fd5b600080fdfe6080604052600436101561001257600080fd5b60003560e01c806333417ea0146102d95780633e8686cc1461020f578063715018a6146101b657806376c23ff1146101985780638da5cb5b1461016f578063ad73349e146100fe5763f2fde38b1461006957600080fd5b346100f95760203660031901126100f9576004356001600160a01b03818116918290036100f95761009861070e565b81156100e057600054826bffffffffffffffffffffffff60a01b821617600055167f8be0079c531659141344cd1fd0a4f28419497f9722a3daafe3b4186f6b6457e0600080a3005b604051631e4fbdf760e01b815260006004820152602490fd5b600080fd5b346100f95760203660031901126100f957600435600052600160205260406000208054600182015491610165600282015491600461013e60038301610668565b9101549260405195869586526020860152604085015260a0606085015260a08401906105ee565b9060808301520390f35b346100f95760003660031901126100f9576000546040516001600160a01b039091168152602090f35b346100f95760003660031901126100f9576020600254604051908152f35b346100f95760003660031901126100f9576101cf61070e565b600080546001600160a01b0319811682556001600160a01b03167f8be0079c531659141344cd1fd0a4f28419497f9722a3daafe3b4186f6b6457e08280a3005b346100f9576020806003193601126100f95760006080604051610231816105b0565b8281528284820152826040820152606080820152015260043560005260018152604060002060405190610263826105b0565b805482526102ce600182015491848401928352600281015460408501908152600461029060038401610668565b92606087019384520154936080860194855260405196879681885251908701525160408601525160608501525160a0608085015260c08401906105ee565b905160a08301520390f35b346100f95760803660031901126100f95760643567ffffffffffffffff81116100f957366023820112156100f95780600401359067ffffffffffffffff821161055057610331601f8301601f191660200160806105cc565b8160805236602483830101116100f957600091602091819060240160a037608001015261035c61070e565b6044351561057c5760025460001981146105665760018101600255604051610383816105b0565b6004358152602435602082015260408101916044358352600160608301916080835242608085015201600052600160205260406000209282518455602083015160018501555160028401555180519067ffffffffffffffff8211610550576103ee600385015461062e565b601f8111610509575b50602090601f83116001146104965791806004949260809460009261048b575b50508160011b916000199060031b1c19161760038501555b01519101556020600254604051604435815260408382015260243590827f187e1f0d46e2de50bd5deeb18dadcda864d2a27bfd7b04529613cfeac229fafd60043592806104806040820160806105ee565b0390a4604051908152f35b015190508680610417565b90601f198316916003860160005260206000209260005b8181106104f1575092600192859260809660049896106104d8575b505050811b01600385015561042f565b015160001960f88460031b161c191690558680806104c8565b929360206001819287860151815501950193016104ad565b600385016000526020600020601f840160051c810160208510610549575b601f830160051c8201811061053d5750506103f7565b60008155600101610527565b5080610527565b634e487b7160e01b600052604160045260246000fd5b634e487b7160e01b600052601160045260246000fd5b60405162461bcd60e51b815260206004820152600c60248201526b092dcecc2d8d2c840d0c2e6d60a31b6044820152606490fd5b60a0810190811067ffffffffffffffff82111761055057604052565b90601f8019910116810190811067ffffffffffffffff82111761055057604052565b919082519283825260005b84811061061a575050826000602080949584010152601f8019910116010190565b6020818301810151848301820152016105f9565b90600182811c9216801561065e575b602083101461064857565b634e487b7160e01b600052602260045260246000fd5b91607f169161063d565b906040519182600082549261067c8461062e565b9081845260019485811690816000146106eb57506001146106a8575b50506106a6925003836105cc565b565b9093915060005260209081600020936000915b8183106106d35750506106a693508201013880610698565b855488840185015294850194879450918301916106bb565b9150506106a694506020925060ff191682840152151560051b8201013880610698565b6000546001600160a01b0316330361072257565b60405163118cdaa760e01b8152336004820152602490fdfea2646970667358221220463d54e43e2e14dd4069fe021599c96d18f078bc49f4657c0b9d3fe43b256d5d64736f6c63430008140033","opcodes":"PUSH1 0x80 DUP1 PUSH1 0x40 MSTORE CALLVALUE PUSH2 0x7A JUMPI CALLER ISZERO PUSH2 0x64 JUMPI PUSH1 0x0 DUP1 SLOAD CALLER PUSH1 0x1 PUSH1 0x1 PUSH1 0xA0 SHL SUB NOT DUP3 AND DUP2 OR DUP4 SSTORE PUSH1 0x40 MLOAD SWAP3 SWAP1 SWAP2 PUSH1 0x1 PUSH1 0x1 PUSH1 0xA0 SHL SUB AND SWAP1 PUSH32 0x8BE0079C531659141344CD1FD0A4F28419497F9722A3DAAFE3B4186F6B6457E0 SWAP1 DUP1 LOG3 PUSH2 0x770 SWAP1 DUP2 PUSH2 0x80 DUP3 CODECOPY RETURN JUMPDEST PUSH4 0x1E4FBDF7 PUSH1 0xE0 SHL DUP2 MSTORE PUSH1 0x0 PUSH1 0x4 DUP3 ADD MSTORE PUSH1 0x24 SWAP1 REVERT JUMPDEST PUSH1 0x0 DUP1 REVERT INVALID PUSH1 0x80 PUSH1 0x40 MSTORE PUSH1 0x4 CALLDATASIZE LT ISZERO PUSH2 0x12 JUMPI PUSH1 0x0 DUP1 REVERT JUMPDEST PUSH1 0x0 CALLDATALOAD PUSH1 0xE0 SHR DUP1 PUSH4 0x33417EA0 EQ PUSH2 0x2D9 JUMPI DUP1 PUSH4 0x3E8686CC EQ PUSH2 0x20F JUMPI DUP1 PUSH4 0x715018A6 EQ PUSH2 0x1B6 JUMPI DUP1 PUSH4 0x76C23FF1 EQ PUSH2 0x198 JUMPI DUP1 PUSH4 0x8DA5CB5B EQ PUSH2 0x16F JUMPI DUP1 PUSH4 0xAD73349E EQ PUSH2 0xFE JUMPI PUSH4 0xF2FDE38B EQ PUSH2 0x69 JUMPI PUSH1 0x0 DUP1 REVERT JUMPDEST CALLVALUE PUSH2 0xF9 JUMPI PUSH1 0x20 CALLDATASIZE PUSH1 0x3 NOT ADD SLT PUSH2 0xF9 JUMPI PUSH1 0x4 CALLDATALOAD PUSH1 0x1 PUSH1 0x1 PUSH1 0xA0 SHL SUB DUP2 DUP2 AND SWAP2 DUP3 SWAP1 SUB PUSH2 0xF9 JUMPI PUSH2 0x98 PUSH2 0x70E JUMP JUMPDEST DUP2 ISZERO PUSH2 0xE0 JUMPI PUSH1 0x0 SLOAD DUP3 PUSH12 0xFFFFFFFFFFFFFFFFFFFFFFFF PUSH1 0xA0 SHL DUP3 AND OR PUSH1 0x0 SSTORE AND PUSH32 0x8BE0079C531659141344CD1FD0A4F28419497F9722A3DAAFE3B4186F6B6457E0 PUSH1 0x0 DUP1 LOG3 STOP JUMPDEST PUSH1 0x40 MLOAD PUSH4 0x1E4FBDF7 PUSH1 0xE0 SHL DUP2 MSTORE PUSH1 0x0 PUSH1 0x4 DUP3 ADD MSTORE PUSH1 0x24 SWAP1 REVERT JUMPDEST PUSH1 0x0 DUP1 REVERT JUMPDEST CALLVALUE PUSH2 0xF9 JUMPI PUSH1 0x20 CALLDATASIZE PUSH1 0x3 NOT ADD SLT PUSH2 0xF9 JUMPI PUSH1 0x4 CALLDATALOAD PUSH1 0x0 MSTORE PUSH1 0x1 PUSH1 0x20 MSTORE PUSH1 0x40 PUSH1 0x0 KECCAK256 DUP1 SLOAD PUSH1 0x1 DUP3 ADD SLOAD SWAP2 PUSH2 0x165 PUSH1 0x2 DUP3 ADD SLOAD SWAP2 PUSH1 0x4 PUSH2 0x13E PUSH1 0x3 DUP4 ADD PUSH2 0x668 JUMP JUMPDEST SWAP2 ADD SLOAD SWAP3 PUSH1 0x40 MLOAD SWAP6 DUP7 SWAP6 DUP7 MSTORE PUSH1 0x20 DUP7 ADD MSTORE PUSH1 0x40 DUP6 ADD MSTORE PUSH1 0xA0 PUSH1 0x60 DUP6 ADD MSTORE PUSH1 0xA0 DUP5 ADD SWAP1 PUSH2 0x5EE JUMP JUMPDEST SWAP1 PUSH1 0x80 DUP4 ADD MSTORE SUB SWAP1 RETURN JUMPDEST CALLVALUE PUSH2 0xF9 JUMPI PUSH1 0x0 CALLDATASIZE PUSH1 0x3 NOT ADD SLT PUSH2 0xF9 JUMPI PUSH1 0x0 SLOAD PUSH1 0x40 MLOAD PUSH1 0x1 PUSH1 0x1 PUSH1 0xA0 SHL SUB SWAP1 SWAP2 AND DUP2 MSTORE PUSH1 0x20 SWAP1 RETURN JUMPDEST CALLVALUE PUSH2 0xF9 JUMPI PUSH1 0x0 CALLDATASIZE PUSH1 0x3 NOT ADD SLT PUSH2 0xF9 JUMPI PUSH1 0x20 PUSH1 0x2 SLOAD PUSH1 0x40 MLOAD SWAP1 DUP2 MSTORE RETURN JUMPDEST CALLVALUE PUSH2 0xF9 JUMPI PUSH1 0x0 CALLDATASIZE PUSH1 0x3 NOT ADD SLT PUSH2 0xF9 JUMPI PUSH2 0x1CF PUSH2 0x70E JUMP JUMPDEST PUSH1 0x0 DUP1 SLOAD PUSH1 0x1 PUSH1 0x1 PUSH1 0xA0 SHL SUB NOT DUP2 AND DUP3 SSTORE PUSH1 0x1 PUSH1 0x1 PUSH1 0xA0 SHL SUB AND PUSH32 0x8BE0079C531659141344CD1FD0A4F28419497F9722A3DAAFE3B4186F6B6457E0 DUP3 DUP1 LOG3 STOP JUMPDEST CALLVALUE PUSH2 0xF9 JUMPI PUSH1 0x20 DUP1 PUSH1 0x3 NOT CALLDATASIZE ADD SLT PUSH2 0xF9 JUMPI PUSH1 0x0 PUSH1 0x80 PUSH1 0x40 MLOAD PUSH2 0x231 DUP2 PUSH2 0x5B0 JUMP JUMPDEST DUP3 DUP2 MSTORE DUP3 DUP5 DUP3 ADD MSTORE DUP3 PUSH1 0x40 DUP3 ADD MSTORE PUSH1 0x60 DUP1 DUP3 ADD MSTORE ADD MSTORE PUSH1 0x4 CALLDATALOAD PUSH1 0x0 MSTORE PUSH1 0x1 DUP2 MSTORE PUSH1 0x40 PUSH1 0x0 KECCAK256 PUSH1 0x40 MLOAD SWAP1 PUSH2 0x263 DUP3 PUSH2 0x5B0 JUMP JUMPDEST DUP1 SLOAD DUP3 MSTORE PUSH2 0x2CE PUSH1 0x1 DUP3 ADD SLOAD SWAP2 DUP5 DUP5 ADD SWAP3 DUP4 MSTORE PUSH1 0x2 DUP2 ADD SLOAD PUSH1 0x40 DUP6 ADD SWAP1 DUP2 MSTORE PUSH1 0x4 PUSH2 0x290 PUSH1 0x3 DUP5 ADD PUSH2 0x668 JUMP JUMPDEST SWAP3 PUSH1 0x60 DUP8 ADD SWAP4 DUP5 MSTORE ADD SLOAD SWAP4 PUSH1 0x80 DUP7 ADD SWAP5 DUP6 MSTORE PUSH1 0x40 MLOAD SWAP7 DUP8 SWAP7 DUP2 DUP9 MSTORE MLOAD SWAP1 DUP8 ADD MSTORE MLOAD PUSH1 0x40 DUP7 ADD MSTORE MLOAD PUSH1 0x60 DUP6 ADD MSTORE MLOAD PUSH1 0xA0 PUSH1 0x80 DUP6 ADD MSTORE PUSH1 0xC0 DUP5 ADD SWAP1 PUSH2 0x5EE JUMP JUMPDEST SWAP1 MLOAD PUSH1 0xA0 DUP4 ADD MSTORE SUB SWAP1 RETURN JUMPDEST CALLVALUE PUSH2 0xF9 JUMPI PUSH1 0x80 CALLDATASIZE PUSH1 0x3 NOT ADD SLT PUSH2 0xF9 JUMPI PUSH1 0x64 CALLDATALOAD PUSH8 0xFFFFFFFFFFFFFFFF DUP2 GT PUSH2 0xF9 JUMPI CALLDATASIZE PUSH1 0x23 DUP3 ADD SLT ISZERO PUSH2 0xF9 JUMPI DUP1 PUSH1 0x4 ADD CALLDATALOAD SWAP1 PUSH8 0xFFFFFFFFFFFFFFFF DUP3 GT PUSH2 0x550 JUMPI PUSH2 0x331 PUSH1 0x1F DUP4 ADD PUSH1 0x1F NOT AND PUSH1 0x20 ADD PUSH1 0x80 PUSH2 0x5CC JUMP JUMPDEST DUP2 PUSH1 0x80 MSTORE CALLDATASIZE PUSH1 0x24 DUP4 DUP4 ADD ADD GT PUSH2 0xF9 JUMPI PUSH1 0x0 SWAP2 PUSH1 0x20 SWAP2 DUP2 SWAP1 PUSH1 0x24 ADD PUSH1 0xA0 CALLDATACOPY PUSH1 0x80 ADD ADD MSTORE PUSH2 0x35C PUSH2 0x70E JUMP JUMPDEST PUSH1 0x44 CALLDATALOAD ISZERO PUSH2 0x57C JUMPI PUSH1 0x2 SLOAD PUSH1 0x0 NOT DUP2 EQ PUSH2 0x566 JUMPI PUSH1 0x1 DUP2 ADD PUSH1 0x2 SSTORE PUSH1 0x40 MLOAD PUSH2 0x383 DUP2 PUSH2 0x5B0 JUMP JUMPDEST PUSH1 0x4 CALLDATALOAD DUP2 MSTORE PUSH1 0x24 CALLDATALOAD PUSH1 0x20 DUP3 ADD MSTORE PUSH1 0x40 DUP2 ADD SWAP2 PUSH1 0x44 CALLDATALOAD DUP4 MSTORE PUSH1 0x1 PUSH1 0x60 DUP4 ADD SWAP2 PUSH1 0x80 DUP4 MSTORE TIMESTAMP PUSH1 0x80 DUP6 ADD MSTORE ADD PUSH1 0x0 MSTORE PUSH1 0x1 PUSH1 0x20 MSTORE PUSH1 0x40 PUSH1 0x0 KECCAK256 SWAP3 DUP3 MLOAD DUP5 SSTORE PUSH1 0x20 DUP4 ADD MLOAD PUSH1 0x1 DUP6 ADD SSTORE MLOAD PUSH1 0x2 DUP5 ADD SSTORE MLOAD DUP1 MLOAD SWAP1 PUSH8 0xFFFFFFFFFFFFFFFF DUP3 GT PUSH2 0x550 JUMPI PUSH2 0x3EE PUSH1 0x3 DUP6 ADD SLOAD PUSH2 0x62E JUMP JUMPDEST PUSH1 0x1F DUP2 GT PUSH2 0x509 JUMPI JUMPDEST POP PUSH1 0x20 SWAP1 PUSH1 0x1F DUP4 GT PUSH1 0x1 EQ PUSH2 0x496 JUMPI SWAP2 DUP1 PUSH1 0x4 SWAP5 SWAP3 PUSH1 0x80 SWAP5 PUSH1 0x0 SWAP3 PUSH2 0x48B JUMPI JUMPDEST POP POP DUP2 PUSH1 0x1 SHL SWAP2 PUSH1 0x0 NOT SWAP1 PUSH1 0x3 SHL SHR NOT AND OR PUSH1 0x3 DUP6 ADD SSTORE JUMPDEST ADD MLOAD SWAP2 ADD SSTORE PUSH1 0x20 PUSH1 0x2 SLOAD PUSH1 0x40 MLOAD PUSH1 0x44 CALLDATALOAD DUP2 MSTORE PUSH1 0x40 DUP4 DUP3 ADD MSTORE PUSH1 0x24 CALLDATALOAD SWAP1 DUP3 PUSH32 0x187E1F0D46E2DE50BD5DEEB18DADCDA864D2A27BFD7B04529613CFEAC229FAFD PUSH1 0x4 CALLDATALOAD SWAP3 DUP1 PUSH2 0x480 PUSH1 0x40 DUP3 ADD PUSH1 0x80 PUSH2 0x5EE JUMP JUMPDEST SUB SWAP1 LOG4 PUSH1 0x40 MLOAD SWAP1 DUP2 MSTORE RETURN JUMPDEST ADD MLOAD SWAP1 POP DUP7 DUP1 PUSH2 0x417 JUMP JUMPDEST SWAP1 PUSH1 0x1F NOT DUP4 AND SWAP2 PUSH1 0x3 DUP7 ADD PUSH1 0x0 MSTORE PUSH1 0x20 PUSH1 0x0 KECCAK256 SWAP3 PUSH1 0x0 JUMPDEST DUP2 DUP2 LT PUSH2 0x4F1 JUMPI POP SWAP3 PUSH1 0x1 SWAP3 DUP6 SWAP3 PUSH1 0x80 SWAP7 PUSH1 0x4 SWAP9 SWAP7 LT PUSH2 0x4D8 JUMPI JUMPDEST POP POP POP DUP2 SHL ADD PUSH1 0x3 DUP6 ADD SSTORE PUSH2 0x42F JUMP JUMPDEST ADD MLOAD PUSH1 0x0 NOT PUSH1 0xF8 DUP5 PUSH1 0x3 SHL AND SHR NOT AND SWAP1 SSTORE DUP7 DUP1 DUP1 PUSH2 0x4C8 JUMP JUMPDEST SWAP3 SWAP4 PUSH1 0x20 PUSH1 0x1 DUP2 SWAP3 DUP8 DUP7 ADD MLOAD DUP2 SSTORE ADD SWAP6 ADD SWAP4 ADD PUSH2 0x4AD JUMP JUMPDEST PUSH1 0x3 DUP6 ADD PUSH1 0x0 MSTORE PUSH1 0x20 PUSH1 0x0 KECCAK256 PUSH1 0x1F DUP5 ADD PUSH1 0x5 SHR DUP2 ADD PUSH1 0x20 DUP6 LT PUSH2 0x549 JUMPI JUMPDEST PUSH1 0x1F DUP4 ADD PUSH1 0x5 SHR DUP3 ADD DUP2 LT PUSH2 0x53D JUMPI POP POP PUSH2 0x3F7 JUMP JUMPDEST PUSH1 0x0 DUP2 SSTORE PUSH1 0x1 ADD PUSH2 0x527 JUMP JUMPDEST POP DUP1 PUSH2 0x527 JUMP JUMPDEST PUSH4 0x4E487B71 PUSH1 0xE0 SHL PUSH1 0x0 MSTORE PUSH1 0x41 PUSH1 0x4 MSTORE PUSH1 0x24 PUSH1 0x0 REVERT JUMPDEST PUSH4 0x4E487B71 PUSH1 0xE0 SHL PUSH1 0x0 MSTORE PUSH1 0x11 PUSH1 0x4 MSTORE PUSH1 0x24 PUSH1 0x0 REVERT JUMPDEST PUSH1 0x40 MLOAD PUSH3 0x461BCD PUSH1 0xE5 SHL DUP2 MSTORE PUSH1 0x20 PUSH1 0x4 DUP3 ADD MSTORE PUSH1 0xC PUSH1 0x24 DUP3 ADD MSTORE PUSH12 0x92DCECC2D8D2C840D0C2E6D PUSH1 0xA3 SHL PUSH1 0x44 DUP3 ADD MSTORE PUSH1 0x64 SWAP1 REVERT JUMPDEST PUSH1 0xA0 DUP2 ADD SWAP1 DUP2 LT PUSH8 0xFFFFFFFFFFFFFFFF DUP3 GT OR PUSH2 0x550 JUMPI PUSH1 0x40 MSTORE JUMP JUMPDEST SWAP1 PUSH1 0x1F DUP1 NOT SWAP2 ADD AND DUP2 ADD SWAP1 DUP2 LT PUSH8 0xFFFFFFFFFFFFFFFF DUP3 GT OR PUSH2 0x550 JUMPI PUSH1 0x40 MSTORE JUMP JUMPDEST SWAP2 SWAP1 DUP3 MLOAD SWAP3 DUP4 DUP3 MSTORE PUSH1 0x0 JUMPDEST DUP5 DUP2 LT PUSH2 0x61A JUMPI POP POP DUP3 PUSH1 0x0 PUSH1 0x20 DUP1 SWAP5 SWAP6 DUP5 ADD ADD MSTORE PUSH1 0x1F DUP1 NOT SWAP2 ADD AND ADD ADD SWAP1 JUMP JUMPDEST PUSH1 0x20 DUP2 DUP4 ADD DUP2 ADD MLOAD DUP5 DUP4 ADD DUP3 ADD MSTORE ADD PUSH2 0x5F9 JUMP JUMPDEST SWAP1 PUSH1 0x1 DUP3 DUP2 SHR SWAP3 AND DUP1 ISZERO PUSH2 0x65E JUMPI JUMPDEST PUSH1 0x20 DUP4 LT EQ PUSH2 0x648 JUMPI JUMP JUMPDEST PUSH4 0x4E487B71 PUSH1 0xE0 SHL PUSH1 0x0 MSTORE PUSH1 0x22 PUSH1 0x4 MSTORE PUSH1 0x24 PUSH1 0x0 REVERT JUMPDEST SWAP2 PUSH1 0x7F AND SWAP2 PUSH2 0x63D JUMP JUMPDEST SWAP1 PUSH1 0x40 MLOAD SWAP2 DUP3 PUSH1 0x0 DUP3 SLOAD SWAP3 PUSH2 0x67C DUP5 PUSH2 0x62E JUMP JUMPDEST SWAP1 DUP2 DUP5 MSTORE PUSH1 0x1 SWAP5 DUP6 DUP2 AND SWAP1 DUP2 PUSH1 0x0 EQ PUSH2 0x6EB JUMPI POP PUSH1 0x1 EQ PUSH2 0x6A8 JUMPI JUMPDEST POP POP PUSH2 0x6A6 SWAP3 POP SUB DUP4 PUSH2 0x5CC JUMP JUMPDEST JUMP JUMPDEST SWAP1 SWAP4 SWAP2 POP PUSH1 0x0 MSTORE PUSH1 0x20 SWAP1 DUP2 PUSH1 0x0 KECCAK256 SWAP4 PUSH1 0x0 SWAP2 JUMPDEST DUP2 DUP4 LT PUSH2 0x6D3 JUMPI POP POP PUSH2 0x6A6 SWAP4 POP DUP3 ADD ADD CODESIZE DUP1 PUSH2 0x698 JUMP JUMPDEST DUP6 SLOAD DUP9 DUP5 ADD DUP6 ADD MSTORE SWAP5 DUP6 ADD SWAP5 DUP8 SWAP5 POP SWAP2 DUP4 ADD SWAP2 PUSH2 0x6BB JUMP JUMPDEST SWAP2 POP POP PUSH2 0x6A6 SWAP5 POP PUSH1 0x20 SWAP3 POP PUSH1 0xFF NOT AND DUP3 DUP5 ADD MSTORE ISZERO ISZERO PUSH1 0x5 SHL DUP3 ADD ADD CODESIZE DUP1 PUSH2 0x698 JUMP JUMPDEST PUSH1 0x0 SLOAD PUSH1 0x1 PUSH1 0x1 PUSH1 0xA0 SHL SUB AND CALLER SUB PUSH2 0x722 JUMPI JUMP JUMPDEST PUSH1 0x40 MLOAD PUSH4 0x118CDAA7 PUSH1 0xE0 SHL DUP2 MSTORE CALLER PUSH1 0x4 DUP3 ADD MSTORE PUSH1 0x24 SWAP1 REVERT INVALID LOG2 PUSH5 0x6970667358 0x22 SLT KECCAK256 CHAINID RETURNDATASIZE SLOAD 0xE4 RETURNDATACOPY 0x2E EQ 0xDD BLOCKHASH PUSH10 0xFE021599C96D18F078BC 0x49 DELEGATECALL PUSH6 0x7C0B9D3FE43B 0x25 PUSH14 0x5D64736F6C634300081400330000 "},"methodIdentifiers":{"getSubmission(uint256)":"3e8686cc","owner()":"8da5cb5b","registerSubmission(uint256,uint256,bytes32,string)":"33417ea0","renounceOwnership()":"715018a6","submissionCounter()":"76c23ff1","submissions(uint256)":"ad73349e","transferOwnership(address)":"f2fde38b"}}}}}