{"contracts/CheckIn.sol":{"CheckIn":{"abi":[{"inputs":[],"stateMutability":"nonpayable","type":"constructor"},{"inputs":[{"internalType":"address","name":"owner","type":"address"}],"name":"OwnableInvalidOwner","type":"error"},{"inputs":[{"internalType":"address","name":"account","type":"address"}],"name":"OwnableUnauthorizedAccount","type":"error"},{"anonymous":false,"inputs":[{"indexed":true,"internalType":"uint256","name":"eventId","type":"uint256"},{"indexed":true,"internalType":"address","name":"user","type":"address"},{"indexed":false,"internalType":"uint256","name":"timestamp","type":"uint256"}],"name":"CheckedIn","type":"event"},{"anonymous":false,"inputs":[{"indexed":true,"internalType":"address","name":"previousOwner","type":"address"},{"indexed":true,"internalType":"address","name":"newOwner","type":"address"}],"name":"OwnershipTransferred","type":"event"},{"inputs":[{"internalType":"uint256","name":"eventId","type":"uint256"},{"internalType":"address[]","name":"users","type":"address[]"}],"name":"batchRecordCheckIn","outputs":[],"stateMutability":"nonpayable","type":"function"},{"inputs":[{"internalType":"uint256","name":"","type":"uint256"},{"internalType":"address","name":"","type":"address"}],"name":"checkIns","outputs":[{"internalType":"uint256","name":"eventId","type":"uint256"},{"internalType":"address","name":"user","type":"address"},{"internalType":"uint256","name":"timestamp","type":"uint256"},{"internalType":"bool","name":"exists","type":"bool"}],"stateMutability":"view","type":"function"},{"inputs":[{"internalType":"uint256","name":"","type":"uint256"}],"name":"eventCheckInCounts","outputs":[{"internalType":"uint256","name":"","type":"uint256"}],"stateMutability":"view","type":"function"},{"inputs":[{"internalType":"uint256","name":"","type":"uint256"},{"internalType":"uint256","name":"","type":"uint256"}],"name":"eventCheckInUsers","outputs":[{"internalType":"address","name":"","type":"address"}],"stateMutability":"view","type":"function"},{"inputs":[{"internalType":"uint256","name":"eventId","type":"uint256"},{"internalType":"address","name":"user","type":"address"}],"name":"getCheckIn","outputs":[{"components":[{"internalType":"uint256","name":"eventId","type":"uint256"},{"internalType":"address","name":"user","type":"address"},{"internalType":"uint256","name":"timestamp","type":"uint256"},{"internalType":"bool","name":"exists","type":"bool"}],"internalType":"struct CheckIn.CheckInRecord","name":"","type":"tuple"}],"stateMutability":"view","type":"function"},{"inputs":[{"internalType":"uint256","name":"eventId","type":"uint256"}],"name":"getCheckInCount","outputs":[{"internalType":"uint256","name":"","type":"uint256"}],"stateMutability":"view","type":"function"},{"inputs":[{"internalType":"uint256","name":"eventId","type":"uint256"}],"name":"getEventCheckInUsers","outputs":[{"internalType":"address[]","name":"","type":"address[]"}],"stateMutability":"view","type":"function"},{"inputs":[{"internalType":"uint256","name":"eventId","type":"uint256"},{"internalType":"address","name":"user","type":"address"}],"name":"hasCheckedIn","outputs":[{"internalType":"bool","name":"","type":"bool"}],"stateMutability":"view","type":"function"},{"inputs":[],"name":"owner","outputs":[{"internalType":"address","name":"","type":"address"}],"stateMutability":"view","type":"function"},{"inputs":[{"internalType":"uint256","name":"eventId","type":"uint256"},{"internalType":"address","name":"user","type":"address"}],"name":"recordCheckIn","outputs":[],"stateMutability":"nonpayable","type":"function"},{"inputs":[],"name":"renounceOwnership","outputs":[],"stateMutability":"nonpayable","type":"function"},{"inputs":[{"internalType":"address","name":"newOwner","type":"address"}],"name":"transferOwnership","outputs":[],"stateMutability":"nonpayable","type":"function"}],"evm":{"bytecode":{"linkReferences":{},"object":"6080806040523461007a5733156100645760008054336001600160a01b03198216811783556040519290916001600160a01b0316907f8be0079c531659141344cd1fd0a4f28419497f9722a3daafe3b4186f6b6457e09080a3610aa590816100808239f35b631e4fbdf760e01b815260006004820152602490fd5b600080fdfe60406080815260048036101561001457600080fd5b600091823560e01c80632a53f006146107a35780635502fcbf14610689578063715018a6146107495780637d042ddd146106ff5780637d404254146106b1578063897c9e31146106895780638da5cb5b14610661578063a9cafee6146105fa578063bf8b6250146102f6578063cfb17e5d1461023f578063f2fde38b146101b25763f8819bb3146100a457600080fd5b346101ae57806003193601126101ae578135906100bf61096d565b928151926100cc846109b6565b858452856060602095828782015282868201520152808652600184528286209160018060a01b0380961692838852855260ff600385892001541615610176575094829160809682526001855282822090825284522081519261012d846109b6565b81549485855280600184015416828601908152606060ff6003600287015496888a0197885201541696019515158652845196875251169085015251908301525115156060820152f35b835162461bcd60e51b8152908101859052601260248201527110da1958dacb5a5b881b9bdd08199bdd5b9960721b6044820152606490fd5b8280fd5b50346101ae5760203660031901126101ae576001600160a01b0382358181169391929084900361023b576101e4610a0a565b831561022557505082546001600160a01b0319811683178455167f8be0079c531659141344cd1fd0a4f28419497f9722a3daafe3b4186f6b6457e08380a380f35b51631e4fbdf760e01b8152908101849052602490fd5b8480fd5b5091346102f357602091826003193601126102ef5792919235815260038352818120908251808584549182815201908194845286842090845b8181106102d2575050508161028e9103826109e8565b83519485948186019282875251809352850193925b8281106102b257505050500390f35b83516001600160a01b0316855286955093810193928101926001016102a3565b82546001600160a01b031684529288019260019283019201610278565b5080fd5b80fd5b509190346102ef57826003193601126102ef578035602493843567ffffffffffffffff958682116105f657366023830112156105f657818501359687116105e5578660051b9183519260209861034e8a8301866109e8565b84528289850191830101913683116105e1578301905b8282106105be57505050610376610a0a565b6064948583511161058d57865b8351811015610589578588526001808a5285892086906001600160a01b0390816103ad868a610a5b565b51168c528c5260ff92838c600394859120015416156103d9575b505050506103d490610a36565b610383565b816103e4868a610a5b565b5116936103ef610a0a565b8415610551578a8d52818e52898d20858e528e52898d20840154811661051b578a8a918f8f908791855195610423876109b6565b858752828701918b83528188019342855260608901978a89528252898152828220908d8352522095518655878787019151166bffffffffffffffffffffffff60a01b82541617905551936002948582015501915115159060ff1983541691161790558a8d528d52888c206104978154610a36565b9055898c52828d52888c20805491600160401b83101561050957820181556103d495949392916104c691610988565b81939154911b9184831b921b1916179055877f6b2e4e52ba8b5cff4a90d18b1efd0f88c74ed562b5dd3b13f01a1759699b2db28c8951428152a3903880806103c7565b634e487b7160e01b8e5260418852888efd5b895162461bcd60e51b81528088018f90526012818a01527120b63932b0b23c9031b432b1b5b2b21034b760711b60448201528c90fd5b895162461bcd60e51b81528088018f90526014818a015273496e76616c69642075736572206164647265737360601b60448201528c90fd5b8780f35b600f86928986519362461bcd60e51b85528401528201526e426174636820746f6f206c6172676560881b6044820152fd5b81356001600160a01b03811681036105dd578152908901908901610364565b8980fd5b8880fd5b634e487b7160e01b86526041855285fd5b8580fd5b50346101ae57806003193601126101ae578060809361061761096d565b93358152600160205281812060018060a01b038095168252602052208054926001820154169160ff6003600284015493015416928151948552602085015283015215156060820152f35b8382346102ef57816003193601126102ef57905490516001600160a01b039091168152602090f35b5090346101ae5760203660031901126101ae5760209282913581526002845220549051908152f35b5082346102f357816003193601126102f3576024359235815260036020528181209081548410156102f357506020926106e991610988565b60018060a01b0391549060031b1c169051908152f35b5090346101ae57816003193601126101ae5760038260209460ff9361072261096d565b90358252600187528282206001600160a01b03909116825286522001549151911615158152f35b83346102f357806003193601126102f357610762610a0a565b80546001600160a01b03198116825581906001600160a01b03167f8be0079c531659141344cd1fd0a4f28419497f9722a3daafe3b4186f6b6457e08280a380f35b508290346102ef57806003193601126102ef5782356107c061096d565b6107c8610a0a565b6001600160a01b039081169283156109345782855260209160018352818620858752835260ff60038388200154166108fc578151610805816109b6565b848152600384820191878352848101428152606082019360018552888b5260018852868b208a8c528852868b209251835585600184019151166bffffffffffffffffffffffff60a01b825416179055516002820155019051151560ff801983541691161790558386526002835281862061087f8154610a36565b905583865260038352818620805490600160401b8210156108e957816108ce9160017f6b2e4e52ba8b5cff4a90d18b1efd0f88c74ed562b5dd3b13f01a1759699b2db297969594018155610988565b819291549060031b9188831b921b191617905551428152a380f35b634e487b7160e01b885260418952602488fd5b815162461bcd60e51b8152808801849052601260248201527120b63932b0b23c9031b432b1b5b2b21034b760711b6044820152606490fd5b5162461bcd60e51b81526020818701526014602482015273496e76616c69642075736572206164647265737360601b6044820152606490fd5b602435906001600160a01b038216820361098357565b600080fd5b80548210156109a05760005260206000200190600090565b634e487b7160e01b600052603260045260246000fd5b6080810190811067ffffffffffffffff8211176109d257604052565b634e487b7160e01b600052604160045260246000fd5b90601f8019910116810190811067ffffffffffffffff8211176109d257604052565b6000546001600160a01b03163303610a1e57565b60405163118cdaa760e01b8152336004820152602490fd5b6000198114610a455760010190565b634e487b7160e01b600052601160045260246000fd5b80518210156109a05760209160051b01019056fea264697066735822122025596161c13ca71ec65d4c68bcf507d579bb67e2e114ae363c0450d243e6364464736f6c63430008140033","opcodes":"PUSH1 0x80 DUP1 PUSH1 0x40 MSTORE CALLVALUE PUSH2 0x7A JUMPI CALLER ISZERO PUSH2 0x64 JUMPI PUSH1 0x0 DUP1 SLOAD CALLER PUSH1 0x1 PUSH1 0x1 PUSH1 0xA0 SHL SUB NOT DUP3 AND DUP2 OR DUP4 SSTORE PUSH1 0x40 MLOAD SWAP3 SWAP1 SWAP2 PUSH1 0x1 PUSH1 0x1 PUSH1 0xA0 SHL SUB AND SWAP1 PUSH32 0x8BE0079C531659141344CD1FD0A4F28419497F9722A3DAAFE3B4186F6B6457E0 SWAP1 DUP1 LOG3 PUSH2 0xAA5 SWAP1 DUP2 PUSH2 0x80 DUP3 CODECOPY RETURN JUMPDEST PUSH4 0x1E4FBDF7 PUSH1 0xE0 SHL DUP2 MSTORE PUSH1 0x0 PUSH1 0x4 DUP3 ADD MSTORE PUSH1 0x24 SWAP1 REVERT JUMPDEST PUSH1 0x0 DUP1 REVERT INVALID PUSH1 0x40 PUSH1 0x80 DUP2 MSTORE PUSH1 0x4 DUP1 CALLDATASIZE LT ISZERO PUSH2 0x14 JUMPI PUSH1 0x0 DUP1 REVERT JUMPDEST PUSH1 0x0 SWAP2 DUP3 CALLDATALOAD PUSH1 0xE0 SHR DUP1 PUSH4 0x2A53F006 EQ PUSH2 0x7A3 JUMPI DUP1 PUSH4 0x5502FCBF EQ PUSH2 0x689 JUMPI DUP1 PUSH4 0x715018A6 EQ PUSH2 0x749 JUMPI DUP1 PUSH4 0x7D042DDD EQ PUSH2 0x6FF JUMPI DUP1 PUSH4 0x7D404254 EQ PUSH2 0x6B1 JUMPI DUP1 PUSH4 0x897C9E31 EQ PUSH2 0x689 JUMPI DUP1 PUSH4 0x8DA5CB5B EQ PUSH2 0x661 JUMPI DUP1 PUSH4 0xA9CAFEE6 EQ PUSH2 0x5FA JUMPI DUP1 PUSH4 0xBF8B6250 EQ PUSH2 0x2F6 JUMPI DUP1 PUSH4 0xCFB17E5D EQ PUSH2 0x23F JUMPI DUP1 PUSH4 0xF2FDE38B EQ PUSH2 0x1B2 JUMPI PUSH4 0xF8819BB3 EQ PUSH2 0xA4 JUMPI PUSH1 0x0 DUP1 REVERT JUMPDEST CALLVALUE PUSH2 0x1AE JUMPI DUP1 PUSH1 0x3 NOT CALLDATASIZE ADD SLT PUSH2 0x1AE JUMPI DUP2 CALLDATALOAD SWAP1 PUSH2 0xBF PUSH2 0x96D JUMP JUMPDEST SWAP3 DUP2 MLOAD SWAP3 PUSH2 0xCC DUP5 PUSH2 0x9B6 JUMP JUMPDEST DUP6 DUP5 MSTORE DUP6 PUSH1 0x60 PUSH1 0x20 SWAP6 DUP3 DUP8 DUP3 ADD MSTORE DUP3 DUP7 DUP3 ADD MSTORE ADD MSTORE DUP1 DUP7 MSTORE PUSH1 0x1 DUP5 MSTORE DUP3 DUP7 KECCAK256 SWAP2 PUSH1 0x1 DUP1 PUSH1 0xA0 SHL SUB DUP1 SWAP7 AND SWAP3 DUP4 DUP9 MSTORE DUP6 MSTORE PUSH1 0xFF PUSH1 0x3 DUP6 DUP10 KECCAK256 ADD SLOAD AND ISZERO PUSH2 0x176 JUMPI POP SWAP5 DUP3 SWAP2 PUSH1 0x80 SWAP7 DUP3 MSTORE PUSH1 0x1 DUP6 MSTORE DUP3 DUP3 KECCAK256 SWAP1 DUP3 MSTORE DUP5 MSTORE KECCAK256 DUP2 MLOAD SWAP3 PUSH2 0x12D DUP5 PUSH2 0x9B6 JUMP JUMPDEST DUP2 SLOAD SWAP5 DUP6 DUP6 MSTORE DUP1 PUSH1 0x1 DUP5 ADD SLOAD AND DUP3 DUP7 ADD SWAP1 DUP2 MSTORE PUSH1 0x60 PUSH1 0xFF PUSH1 0x3 PUSH1 0x2 DUP8 ADD SLOAD SWAP7 DUP9 DUP11 ADD SWAP8 DUP9 MSTORE ADD SLOAD AND SWAP7 ADD SWAP6 ISZERO ISZERO DUP7 MSTORE DUP5 MLOAD SWAP7 DUP8 MSTORE MLOAD AND SWAP1 DUP6 ADD MSTORE MLOAD SWAP1 DUP4 ADD MSTORE MLOAD ISZERO ISZERO PUSH1 0x60 DUP3 ADD MSTORE RETURN JUMPDEST DUP4 MLOAD PUSH3 0x461BCD PUSH1 0xE5 SHL DUP2 MSTORE SWAP1 DUP2 ADD DUP6 SWAP1 MSTORE PUSH1 0x12 PUSH1 0x24 DUP3 ADD MSTORE PUSH18 0x10DA1958DACB5A5B881B9BDD08199BDD5B99 PUSH1 0x72 SHL PUSH1 0x44 DUP3 ADD MSTORE PUSH1 0x64 SWAP1 REVERT JUMPDEST DUP3 DUP1 REVERT JUMPDEST POP CALLVALUE PUSH2 0x1AE JUMPI PUSH1 0x20 CALLDATASIZE PUSH1 0x3 NOT ADD SLT PUSH2 0x1AE JUMPI PUSH1 0x1 PUSH1 0x1 PUSH1 0xA0 SHL SUB DUP3 CALLDATALOAD DUP2 DUP2 AND SWAP4 SWAP2 SWAP3 SWAP1 DUP5 SWAP1 SUB PUSH2 0x23B JUMPI PUSH2 0x1E4 PUSH2 0xA0A JUMP JUMPDEST DUP4 ISZERO PUSH2 0x225 JUMPI POP POP DUP3 SLOAD PUSH1 0x1 PUSH1 0x1 PUSH1 0xA0 SHL SUB NOT DUP2 AND DUP4 OR DUP5 SSTORE AND PUSH32 0x8BE0079C531659141344CD1FD0A4F28419497F9722A3DAAFE3B4186F6B6457E0 DUP4 DUP1 LOG3 DUP1 RETURN JUMPDEST MLOAD PUSH4 0x1E4FBDF7 PUSH1 0xE0 SHL DUP2 MSTORE SWAP1 DUP2 ADD DUP5 SWAP1 MSTORE PUSH1 0x24 SWAP1 REVERT JUMPDEST DUP5 DUP1 REVERT JUMPDEST POP SWAP2 CALLVALUE PUSH2 0x2F3 JUMPI PUSH1 0x20 SWAP2 DUP3 PUSH1 0x3 NOT CALLDATASIZE ADD SLT PUSH2 0x2EF JUMPI SWAP3 SWAP2 SWAP3 CALLDATALOAD DUP2 MSTORE PUSH1 0x3 DUP4 MSTORE DUP2 DUP2 KECCAK256 SWAP1 DUP3 MLOAD DUP1 DUP6 DUP5 SLOAD SWAP2 DUP3 DUP2 MSTORE ADD SWAP1 DUP2 SWAP5 DUP5 MSTORE DUP7 DUP5 KECCAK256 SWAP1 DUP5 JUMPDEST DUP2 DUP2 LT PUSH2 0x2D2 JUMPI POP POP POP DUP2 PUSH2 0x28E SWAP2 SUB DUP3 PUSH2 0x9E8 JUMP JUMPDEST DUP4 MLOAD SWAP5 DUP6 SWAP5 DUP2 DUP7 ADD SWAP3 DUP3 DUP8 MSTORE MLOAD DUP1 SWAP4 MSTORE DUP6 ADD SWAP4 SWAP3 JUMPDEST DUP3 DUP2 LT PUSH2 0x2B2 JUMPI POP POP POP POP SUB SWAP1 RETURN JUMPDEST DUP4 MLOAD PUSH1 0x1 PUSH1 0x1 PUSH1 0xA0 SHL SUB AND DUP6 MSTORE DUP7 SWAP6 POP SWAP4 DUP2 ADD SWAP4 SWAP3 DUP2 ADD SWAP3 PUSH1 0x1 ADD PUSH2 0x2A3 JUMP JUMPDEST DUP3 SLOAD PUSH1 0x1 PUSH1 0x1 PUSH1 0xA0 SHL SUB AND DUP5 MSTORE SWAP3 DUP9 ADD SWAP3 PUSH1 0x1 SWAP3 DUP4 ADD SWAP3 ADD PUSH2 0x278 JUMP JUMPDEST POP DUP1 REVERT JUMPDEST DUP1 REVERT JUMPDEST POP SWAP2 SWAP1 CALLVALUE PUSH2 0x2EF JUMPI DUP3 PUSH1 0x3 NOT CALLDATASIZE ADD SLT PUSH2 0x2EF JUMPI DUP1 CALLDATALOAD PUSH1 0x24 SWAP4 DUP5 CALLDATALOAD PUSH8 0xFFFFFFFFFFFFFFFF SWAP6 DUP7 DUP3 GT PUSH2 0x5F6 JUMPI CALLDATASIZE PUSH1 0x23 DUP4 ADD SLT ISZERO PUSH2 0x5F6 JUMPI DUP2 DUP6 ADD CALLDATALOAD SWAP7 DUP8 GT PUSH2 0x5E5 JUMPI DUP7 PUSH1 0x5 SHL SWAP2 DUP4 MLOAD SWAP3 PUSH1 0x20 SWAP9 PUSH2 0x34E DUP11 DUP4 ADD DUP7 PUSH2 0x9E8 JUMP JUMPDEST DUP5 MSTORE DUP3 DUP10 DUP6 ADD SWAP2 DUP4 ADD ADD SWAP2 CALLDATASIZE DUP4 GT PUSH2 0x5E1 JUMPI DUP4 ADD SWAP1 JUMPDEST DUP3 DUP3 LT PUSH2 0x5BE JUMPI POP POP POP PUSH2 0x376 PUSH2 0xA0A JUMP JUMPDEST PUSH1 0x64 SWAP5 DUP6 DUP4 MLOAD GT PUSH2 0x58D JUMPI DUP7 JUMPDEST DUP4 MLOAD DUP2 LT ISZERO PUSH2 0x589 JUMPI DUP6 DUP9 MSTORE PUSH1 0x1 DUP1 DUP11 MSTORE DUP6 DUP10 KECCAK256 DUP7 SWAP1 PUSH1 0x1 PUSH1 0x1 PUSH1 0xA0 SHL SUB SWAP1 DUP2 PUSH2 0x3AD DUP7 DUP11 PUSH2 0xA5B JUMP JUMPDEST MLOAD AND DUP13 MSTORE DUP13 MSTORE PUSH1 0xFF SWAP3 DUP4 DUP13 PUSH1 0x3 SWAP5 DUP6 SWAP2 KECCAK256 ADD SLOAD AND ISZERO PUSH2 0x3D9 JUMPI JUMPDEST POP POP POP POP PUSH2 0x3D4 SWAP1 PUSH2 0xA36 JUMP JUMPDEST PUSH2 0x383 JUMP JUMPDEST DUP2 PUSH2 0x3E4 DUP7 DUP11 PUSH2 0xA5B JUMP JUMPDEST MLOAD AND SWAP4 PUSH2 0x3EF PUSH2 0xA0A JUMP JUMPDEST DUP5 ISZERO PUSH2 0x551 JUMPI DUP11 DUP14 MSTORE DUP2 DUP15 MSTORE DUP10 DUP14 KECCAK256 DUP6 DUP15 MSTORE DUP15 MSTORE DUP10 DUP14 KECCAK256 DUP5 ADD SLOAD DUP2 AND PUSH2 0x51B JUMPI DUP11 DUP11 SWAP2 DUP16 DUP16 SWAP1 DUP8 SWAP2 DUP6 MLOAD SWAP6 PUSH2 0x423 DUP8 PUSH2 0x9B6 JUMP JUMPDEST DUP6 DUP8 MSTORE DUP3 DUP8 ADD SWAP2 DUP12 DUP4 MSTORE DUP2 DUP9 ADD SWAP4 TIMESTAMP DUP6 MSTORE PUSH1 0x60 DUP10 ADD SWAP8 DUP11 DUP10 MSTORE DUP3 MSTORE DUP10 DUP2 MSTORE DUP3 DUP3 KECCAK256 SWAP1 DUP14 DUP4 MSTORE MSTORE KECCAK256 SWAP6 MLOAD DUP7 SSTORE DUP8 DUP8 DUP8 ADD SWAP2 MLOAD AND PUSH12 0xFFFFFFFFFFFFFFFFFFFFFFFF PUSH1 0xA0 SHL DUP3 SLOAD AND OR SWAP1 SSTORE MLOAD SWAP4 PUSH1 0x2 SWAP5 DUP6 DUP3 ADD SSTORE ADD SWAP2 MLOAD ISZERO ISZERO SWAP1 PUSH1 0xFF NOT DUP4 SLOAD AND SWAP2 AND OR SWAP1 SSTORE DUP11 DUP14 MSTORE DUP14 MSTORE DUP9 DUP13 KECCAK256 PUSH2 0x497 DUP2 SLOAD PUSH2 0xA36 JUMP JUMPDEST SWAP1 SSTORE DUP10 DUP13 MSTORE DUP3 DUP14 MSTORE DUP9 DUP13 KECCAK256 DUP1 SLOAD SWAP2 PUSH1 0x1 PUSH1 0x40 SHL DUP4 LT ISZERO PUSH2 0x509 JUMPI DUP3 ADD DUP2 SSTORE PUSH2 0x3D4 SWAP6 SWAP5 SWAP4 SWAP3 SWAP2 PUSH2 0x4C6 SWAP2 PUSH2 0x988 JUMP JUMPDEST DUP2 SWAP4 SWAP2 SLOAD SWAP2 SHL SWAP2 DUP5 DUP4 SHL SWAP3 SHL NOT AND OR SWAP1 SSTORE DUP8 PUSH32 0x6B2E4E52BA8B5CFF4A90D18B1EFD0F88C74ED562B5DD3B13F01A1759699B2DB2 DUP13 DUP10 MLOAD TIMESTAMP DUP2 MSTORE LOG3 SWAP1 CODESIZE DUP1 DUP1 PUSH2 0x3C7 JUMP JUMPDEST PUSH4 0x4E487B71 PUSH1 0xE0 SHL DUP15 MSTORE PUSH1 0x41 DUP9 MSTORE DUP9 DUP15 REVERT JUMPDEST DUP10 MLOAD PUSH3 0x461BCD PUSH1 0xE5 SHL DUP2 MSTORE DUP1 DUP9 ADD DUP16 SWAP1 MSTORE PUSH1 0x12 DUP2 DUP11 ADD MSTORE PUSH18 0x20B63932B0B23C9031B432B1B5B2B21034B7 PUSH1 0x71 SHL PUSH1 0x44 DUP3 ADD MSTORE DUP13 SWAP1 REVERT JUMPDEST DUP10 MLOAD PUSH3 0x461BCD PUSH1 0xE5 SHL DUP2 MSTORE DUP1 DUP9 ADD DUP16 SWAP1 MSTORE PUSH1 0x14 DUP2 DUP11 ADD MSTORE PUSH20 0x496E76616C696420757365722061646472657373 PUSH1 0x60 SHL PUSH1 0x44 DUP3 ADD MSTORE DUP13 SWAP1 REVERT JUMPDEST DUP8 DUP1 RETURN JUMPDEST PUSH1 0xF DUP7 SWAP3 DUP10 DUP7 MLOAD SWAP4 PUSH3 0x461BCD PUSH1 0xE5 SHL DUP6 MSTORE DUP5 ADD MSTORE DUP3 ADD MSTORE PUSH15 0x426174636820746F6F206C61726765 PUSH1 0x88 SHL PUSH1 0x44 DUP3 ADD MSTORE REVERT JUMPDEST DUP2 CALLDATALOAD PUSH1 0x1 PUSH1 0x1 PUSH1 0xA0 SHL SUB DUP2 AND DUP2 SUB PUSH2 0x5DD JUMPI DUP2 MSTORE SWAP1 DUP10 ADD SWAP1 DUP10 ADD PUSH2 0x364 JUMP JUMPDEST DUP10 DUP1 REVERT JUMPDEST DUP9 DUP1 REVERT JUMPDEST PUSH4 0x4E487B71 PUSH1 0xE0 SHL DUP7 MSTORE PUSH1 0x41 DUP6 MSTORE DUP6 REVERT JUMPDEST DUP6 DUP1 REVERT JUMPDEST POP CALLVALUE PUSH2 0x1AE JUMPI DUP1 PUSH1 0x3 NOT CALLDATASIZE ADD SLT PUSH2 0x1AE JUMPI DUP1 PUSH1 0x80 SWAP4 PUSH2 0x617 PUSH2 0x96D JUMP JUMPDEST SWAP4 CALLDATALOAD DUP2 MSTORE PUSH1 0x1 PUSH1 0x20 MSTORE DUP2 DUP2 KECCAK256 PUSH1 0x1 DUP1 PUSH1 0xA0 SHL SUB DUP1 SWAP6 AND DUP3 MSTORE PUSH1 0x20 MSTORE KECCAK256 DUP1 SLOAD SWAP3 PUSH1 0x1 DUP3 ADD SLOAD AND SWAP2 PUSH1 0xFF PUSH1 0x3 PUSH1 0x2 DUP5 ADD SLOAD SWAP4 ADD SLOAD AND SWAP3 DUP2 MLOAD SWAP5 DUP6 MSTORE PUSH1 0x20 DUP6 ADD MSTORE DUP4 ADD MSTORE ISZERO ISZERO PUSH1 0x60 DUP3 ADD MSTORE RETURN JUMPDEST DUP4 DUP3 CALLVALUE PUSH2 0x2EF JUMPI DUP2 PUSH1 0x3 NOT CALLDATASIZE ADD SLT PUSH2 0x2EF JUMPI SWAP1 SLOAD SWAP1 MLOAD PUSH1 0x1 PUSH1 0x1 PUSH1 0xA0 SHL SUB SWAP1 SWAP2 AND DUP2 MSTORE PUSH1 0x20 SWAP1 RETURN JUMPDEST POP SWAP1 CALLVALUE PUSH2 0x1AE JUMPI PUSH1 0x20 CALLDATASIZE PUSH1 0x3 NOT ADD SLT PUSH2 0x1AE JUMPI PUSH1 0x20 SWAP3 DUP3 SWAP2 CALLDATALOAD DUP2 MSTORE PUSH1 0x2 DUP5 MSTORE KECCAK256 SLOAD SWAP1 MLOAD SWAP1 DUP2 MSTORE RETURN JUMPDEST POP DUP3 CALLVALUE PUSH2 0x2F3 JUMPI DUP2 PUSH1 0x3 NOT CALLDATASIZE ADD SLT PUSH2 0x2F3 JUMPI PUSH1 0x24 CALLDATALOAD SWAP3 CALLDATALOAD DUP2 MSTORE PUSH1 0x3 PUSH1 0x20 MSTORE DUP2 DUP2 KECCAK256 SWAP1 DUP2 SLOAD DUP5 LT ISZERO PUSH2 0x2F3 JUMPI POP PUSH1 0x20 SWAP3 PUSH2 0x6E9 SWAP2 PUSH2 0x988 JUMP JUMPDEST PUSH1 0x1 DUP1 PUSH1 0xA0 SHL SUB SWAP2 SLOAD SWAP1 PUSH1 0x3 SHL SHR AND SWAP1 MLOAD SWAP1 DUP2 MSTORE RETURN JUMPDEST POP SWAP1 CALLVALUE PUSH2 0x1AE JUMPI DUP2 PUSH1 0x3 NOT CALLDATASIZE ADD SLT PUSH2 0x1AE JUMPI PUSH1 0x3 DUP3 PUSH1 0x20 SWAP5 PUSH1 0xFF SWAP4 PUSH2 0x722 PUSH2 0x96D JUMP JUMPDEST SWAP1 CALLDATALOAD DUP3 MSTORE PUSH1 0x1 DUP8 MSTORE DUP3 DUP3 KECCAK256 PUSH1 0x1 PUSH1 0x1 PUSH1 0xA0 SHL SUB SWAP1 SWAP2 AND DUP3 MSTORE DUP7 MSTORE KECCAK256 ADD SLOAD SWAP2 MLOAD SWAP2 AND ISZERO ISZERO DUP2 MSTORE RETURN JUMPDEST DUP4 CALLVALUE PUSH2 0x2F3 JUMPI DUP1 PUSH1 0x3 NOT CALLDATASIZE ADD SLT PUSH2 0x2F3 JUMPI PUSH2 0x762 PUSH2 0xA0A JUMP JUMPDEST DUP1 SLOAD PUSH1 0x1 PUSH1 0x1 PUSH1 0xA0 SHL SUB NOT DUP2 AND DUP3 SSTORE DUP2 SWAP1 PUSH1 0x1 PUSH1 0x1 PUSH1 0xA0 SHL SUB AND PUSH32 0x8BE0079C531659141344CD1FD0A4F28419497F9722A3DAAFE3B4186F6B6457E0 DUP3 DUP1 LOG3 DUP1 RETURN JUMPDEST POP DUP3 SWAP1 CALLVALUE PUSH2 0x2EF JUMPI DUP1 PUSH1 0x3 NOT CALLDATASIZE ADD SLT PUSH2 0x2EF JUMPI DUP3 CALLDATALOAD PUSH2 0x7C0 PUSH2 0x96D JUMP JUMPDEST PUSH2 0x7C8 PUSH2 0xA0A JUMP JUMPDEST PUSH1 0x1 PUSH1 0x1 PUSH1 0xA0 SHL SUB SWAP1 DUP2 AND SWAP3 DUP4 ISZERO PUSH2 0x934 JUMPI DUP3 DUP6 MSTORE PUSH1 0x20 SWAP2 PUSH1 0x1 DUP4 MSTORE DUP2 DUP7 KECCAK256 DUP6 DUP8 MSTORE DUP4 MSTORE PUSH1 0xFF PUSH1 0x3 DUP4 DUP9 KECCAK256 ADD SLOAD AND PUSH2 0x8FC JUMPI DUP2 MLOAD PUSH2 0x805 DUP2 PUSH2 0x9B6 JUMP JUMPDEST DUP5 DUP2 MSTORE PUSH1 0x3 DUP5 DUP3 ADD SWAP2 DUP8 DUP4 MSTORE DUP5 DUP2 ADD TIMESTAMP DUP2 MSTORE PUSH1 0x60 DUP3 ADD SWAP4 PUSH1 0x1 DUP6 MSTORE DUP9 DUP12 MSTORE PUSH1 0x1 DUP9 MSTORE DUP7 DUP12 KECCAK256 DUP11 DUP13 MSTORE DUP9 MSTORE DUP7 DUP12 KECCAK256 SWAP3 MLOAD DUP4 SSTORE DUP6 PUSH1 0x1 DUP5 ADD SWAP2 MLOAD AND PUSH12 0xFFFFFFFFFFFFFFFFFFFFFFFF PUSH1 0xA0 SHL DUP3 SLOAD AND OR SWAP1 SSTORE MLOAD PUSH1 0x2 DUP3 ADD SSTORE ADD SWAP1 MLOAD ISZERO ISZERO PUSH1 0xFF DUP1 NOT DUP4 SLOAD AND SWAP2 AND OR SWAP1 SSTORE DUP4 DUP7 MSTORE PUSH1 0x2 DUP4 MSTORE DUP2 DUP7 KECCAK256 PUSH2 0x87F DUP2 SLOAD PUSH2 0xA36 JUMP JUMPDEST SWAP1 SSTORE DUP4 DUP7 MSTORE PUSH1 0x3 DUP4 MSTORE DUP2 DUP7 KECCAK256 DUP1 SLOAD SWAP1 PUSH1 0x1 PUSH1 0x40 SHL DUP3 LT ISZERO PUSH2 0x8E9 JUMPI DUP2 PUSH2 0x8CE SWAP2 PUSH1 0x1 PUSH32 0x6B2E4E52BA8B5CFF4A90D18B1EFD0F88C74ED562B5DD3B13F01A1759699B2DB2 SWAP8 SWAP7 SWAP6 SWAP5 ADD DUP2 SSTORE PUSH2 0x988 JUMP JUMPDEST DUP2 SWAP3 SWAP2 SLOAD SWAP1 PUSH1 0x3 SHL SWAP2 DUP9 DUP4 SHL SWAP3 SHL NOT AND OR SWAP1 SSTORE MLOAD TIMESTAMP DUP2 MSTORE LOG3 DUP1 RETURN JUMPDEST PUSH4 0x4E487B71 PUSH1 0xE0 SHL DUP9 MSTORE PUSH1 0x41 DUP10 MSTORE PUSH1 0x24 DUP9 REVERT JUMPDEST DUP2 MLOAD PUSH3 0x461BCD PUSH1 0xE5 SHL DUP2 MSTORE DUP1 DUP9 ADD DUP5 SWAP1 MSTORE PUSH1 0x12 PUSH1 0x24 DUP3 ADD MSTORE PUSH18 0x20B63932B0B23C9031B432B1B5B2B21034B7 PUSH1 0x71 SHL PUSH1 0x44 DUP3 ADD MSTORE PUSH1 0x64 SWAP1 REVERT JUMPDEST MLOAD PUSH3 0x461BCD PUSH1 0xE5 SHL DUP2 MSTORE PUSH1 0x20 DUP2 DUP8 ADD MSTORE PUSH1 0x14 PUSH1 0x24 DUP3 ADD MSTORE PUSH20 0x496E76616C696420757365722061646472657373 PUSH1 0x60 SHL PUSH1 0x44 DUP3 ADD MSTORE PUSH1 0x64 SWAP1 REVERT JUMPDEST PUSH1 0x24 CALLDATALOAD SWAP1 PUSH1 0x1 PUSH1 0x1 PUSH1 0xA0 SHL SUB DUP3 AND DUP3 SUB PUSH2 0x983 JUMPI JUMP JUMPDEST PUSH1 0x0 DUP1 REVERT JUMPDEST DUP1 SLOAD DUP3 LT ISZERO PUSH2 0x9A0 JUMPI PUSH1 0x0 MSTORE PUSH1 0x20 PUSH1 0x0 KECCAK256 ADD SWAP1 PUSH1 0x0 SWAP1 JUMP JUMPDEST PUSH4 0x4E487B71 PUSH1 0xE0 SHL PUSH1 0x0 MSTORE PUSH1 0x32 PUSH1 0x4 MSTORE PUSH1 0x24 PUSH1 0x0 REVERT JUMPDEST PUSH1 0x80 DUP2 ADD SWAP1 DUP2 LT PUSH8 0xFFFFFFFFFFFFFFFF DUP3 GT OR PUSH2 0x9D2 JUMPI PUSH1 0x40 MSTORE JUMP JUMPDEST PUSH4 0x4E487B71 PUSH1 0xE0 SHL PUSH1 0x0 MSTORE PUSH1 0x41 PUSH1 0x4 MSTORE PUSH1 0x24 PUSH1 0x0 REVERT JUMPDEST SWAP1 PUSH1 0x1F DUP1 NOT SWAP2 ADD AND DUP2 ADD SWAP1 DUP2 LT PUSH8 0xFFFFFFFFFFFFFFFF DUP3 GT OR PUSH2 0x9D2 JUMPI PUSH1 0x40 MSTORE JUMP JUMPDEST PUSH1 0x0 SLOAD PUSH1 0x1 PUSH1 0x1 PUSH1 0xA0 SHL SUB AND CALLER SUB PUSH2 0xA1E JUMPI JUMP JUMPDEST PUSH1 0x40 MLOAD PUSH4 0x118CDAA7 PUSH1 0xE0 SHL DUP2 MSTORE CALLER PUSH1 0x4 DUP3 ADD MSTORE PUSH1 0x24 SWAP1 REVERT JUMPDEST PUSH1 0x0 NOT DUP2 EQ PUSH2 0xA45 JUMPI PUSH1 0x1 ADD SWAP1 JUMP JUMPDEST PUSH4 0x4E487B71 PUSH1 0xE0 SHL PUSH1 0x0 MSTORE PUSH1 0x11 PUSH1 0x4 MSTORE PUSH1 0x24 PUSH1 0x0 REVERT JUMPDEST DUP1 MLOAD DUP3 LT ISZERO PUSH2 0x9A0 JUMPI PUSH1 0x20 SWAP2 PUSH1 0x5 SHL ADD ADD SWAP1 JUMP INVALID LOG2 PUSH5 0x6970667358 0x22 SLT KECCAK256 0x25 MSIZE PUSH2 0x61C1 EXTCODECOPY 0xA7 0x1E 0xC6 0x5D 0x4C PUSH9 0xBCF507D579BB67E2E1 EQ 0xAE CALLDATASIZE EXTCODECOPY DIV POP 0xD2 NUMBER 0xE6 CALLDATASIZE PREVRANDAO PUSH5 0x736F6C6343 STOP ADDMOD EQ STOP CALLER "},"methodIdentifiers":{"batchRecordCheckIn(uint256,address[])":"bf8b6250","checkIns(uint256,address)":"a9cafee6","eventCheckInCounts(uint256)":"897c9e31","eventCheckInUsers(uint256,uint256)":"7d404254","getCheckIn(uint256,address)":"f8819bb3","getCheckInCount(uint256)":"5502fcbf","getEventCheckInUsers(uint256)":"cfb17e5d","hasCheckedIn(uint256,address)":"7d042ddd","owner()":"8da5cb5b","recordCheckIn(uint256,address)":"2a53f006","renounceOwnership()":"715018a6","transferOwnership(address)":"f2fde38b"}}}}}