{"contracts/PrizePool.sol":{"PrizePool":{"abi":[{"inputs":[{"internalType":"uint256","name":"_eventId","type":"uint256"},{"internalType":"address","name":"_eventContract","type":"address"}],"stateMutability":"nonpayable","type":"constructor"},{"inputs":[{"internalType":"address","name":"owner","type":"address"}],"name":"OwnableInvalidOwner","type":"error"},{"inputs":[{"internalType":"address","name":"account","type":"address"}],"name":"OwnableUnauthorizedAccount","type":"error"},{"inputs":[],"name":"ReentrancyGuardReentrantCall","type":"error"},{"anonymous":false,"inputs":[{"indexed":true,"internalType":"uint256","name":"depositId","type":"uint256"},{"indexed":true,"internalType":"address","name":"sponsor","type":"address"},{"indexed":false,"internalType":"enum PrizePool.AssetType","name":"assetType","type":"uint8"},{"indexed":false,"internalType":"address","name":"tokenAddress","type":"address"},{"indexed":false,"internalType":"uint256","name":"amount","type":"uint256"},{"indexed":false,"internalType":"uint256","name":"tokenId","type":"uint256"}],"name":"Deposited","type":"event"},{"anonymous":false,"inputs":[],"name":"DistributionCompleted","type":"event"},{"anonymous":false,"inputs":[{"indexed":true,"internalType":"address","name":"previousOwner","type":"address"},{"indexed":true,"internalType":"address","name":"newOwner","type":"address"}],"name":"OwnershipTransferred","type":"event"},{"anonymous":false,"inputs":[{"indexed":true,"internalType":"uint256","name":"rank","type":"uint256"},{"indexed":true,"internalType":"address","name":"recipient","type":"address"},{"indexed":false,"internalType":"enum PrizePool.AssetType","name":"assetType","type":"uint8"},{"indexed":false,"internalType":"address","name":"tokenAddress","type":"address"},{"indexed":false,"internalType":"uint256","name":"amount","type":"uint256"},{"indexed":false,"internalType":"uint256","name":"tokenId","type":"uint256"}],"name":"PrizeDistributed","type":"event"},{"inputs":[{"internalType":"enum PrizePool.AssetType","name":"","type":"uint8"},{"internalType":"address","name":"","type":"address"}],"name":"assetDistributed","outputs":[{"internalType":"bool","name":"","type":"bool"}],"stateMutability":"view","type":"function"},{"inputs":[],"name":"depositCounter","outputs":[{"internalType":"uint256","name":"","type":"uint256"}],"stateMutability":"view","type":"function"},{"inputs":[{"internalType":"address","name":"tokenAddress","type":"address"},{"internalType":"uint256","name":"amount","type":"uint256"}],"name":"depositERC20","outputs":[],"stateMutability":"nonpayable","type":"function"},{"inputs":[{"internalType":"address","name":"tokenAddress","type":"address"},{"internalType":"uint256","name":"tokenId","type":"uint256"}],"name":"depositERC721","outputs":[],"stateMutability":"nonpayable","type":"function"},{"inputs":[],"name":"depositNative","outputs":[],"stateMutability":"payable","type":"function"},{"inputs":[{"internalType":"uint256","name":"","type":"uint256"}],"name":"deposits","outputs":[{"internalType":"address","name":"sponsor","type":"address"},{"internalType":"enum PrizePool.AssetType","name":"assetType","type":"uint8"},{"internalType":"address","name":"tokenAddress","type":"address"},{"internalType":"uint256","name":"tokenId","type":"uint256"},{"internalType":"uint256","name":"amount","type":"uint256"},{"internalType":"bool","name":"distributed","type":"bool"}],"stateMutability":"view","type":"function"},{"inputs":[{"internalType":"address[]","name":"winners","type":"address[]"},{"internalType":"enum PrizePool.AssetType","name":"assetType","type":"uint8"},{"internalType":"address","name":"tokenAddress","type":"address"}],"name":"distributePrizes","outputs":[],"stateMutability":"nonpayable","type":"function"},{"inputs":[],"name":"emergencyWithdraw","outputs":[],"stateMutability":"nonpayable","type":"function"},{"inputs":[],"name":"eventContract","outputs":[{"internalType":"address","name":"","type":"address"}],"stateMutability":"view","type":"function"},{"inputs":[],"name":"eventId","outputs":[{"internalType":"uint256","name":"","type":"uint256"}],"stateMutability":"view","type":"function"},{"inputs":[{"internalType":"uint256","name":"depositId","type":"uint256"}],"name":"getDeposit","outputs":[{"components":[{"internalType":"address","name":"sponsor","type":"address"},{"internalType":"enum PrizePool.AssetType","name":"assetType","type":"uint8"},{"internalType":"address","name":"tokenAddress","type":"address"},{"internalType":"uint256","name":"tokenId","type":"uint256"},{"internalType":"uint256","name":"amount","type":"uint256"},{"internalType":"bool","name":"distributed","type":"bool"}],"internalType":"struct PrizePool.Deposit","name":"","type":"tuple"}],"stateMutability":"view","type":"function"},{"inputs":[],"name":"getPrizeDistributionCount","outputs":[{"internalType":"uint256","name":"","type":"uint256"}],"stateMutability":"view","type":"function"},{"inputs":[{"internalType":"enum PrizePool.AssetType","name":"assetType","type":"uint8"},{"internalType":"address","name":"tokenAddress","type":"address"}],"name":"getTokenAmount","outputs":[{"internalType":"uint256","name":"","type":"uint256"}],"stateMutability":"view","type":"function"},{"inputs":[{"internalType":"enum PrizePool.AssetType","name":"assetType","type":"uint8"}],"name":"getTotalAmount","outputs":[{"internalType":"uint256","name":"","type":"uint256"}],"stateMutability":"view","type":"function"},{"inputs":[{"internalType":"enum PrizePool.AssetType","name":"assetType","type":"uint8"},{"internalType":"address","name":"tokenAddress","type":"address"}],"name":"isAssetDistributed","outputs":[{"internalType":"bool","name":"","type":"bool"}],"stateMutability":"view","type":"function"},{"inputs":[],"name":"lockedUntil","outputs":[{"internalType":"uint256","name":"","type":"uint256"}],"stateMutability":"view","type":"function"},{"inputs":[],"name":"owner","outputs":[{"internalType":"address","name":"","type":"address"}],"stateMutability":"view","type":"function"},{"inputs":[{"internalType":"uint256","name":"","type":"uint256"}],"name":"prizeDistributions","outputs":[{"internalType":"uint256","name":"rank","type":"uint256"},{"internalType":"uint256","name":"percentage","type":"uint256"},{"internalType":"enum PrizePool.AssetType","name":"assetType","type":"uint8"}],"stateMutability":"view","type":"function"},{"inputs":[],"name":"renounceOwnership","outputs":[],"stateMutability":"nonpayable","type":"function"},{"inputs":[{"internalType":"uint256","name":"_lockedUntil","type":"uint256"}],"name":"setLockedUntil","outputs":[],"stateMutability":"nonpayable","type":"function"},{"inputs":[{"components":[{"internalType":"uint256","name":"rank","type":"uint256"},{"internalType":"uint256","name":"percentage","type":"uint256"},{"internalType":"enum PrizePool.AssetType","name":"assetType","type":"uint8"}],"internalType":"struct PrizePool.PrizeDistribution[]","name":"distributions","type":"tuple[]"}],"name":"setPrizeDistributions","outputs":[],"stateMutability":"nonpayable","type":"function"},{"inputs":[{"internalType":"enum PrizePool.AssetType","name":"","type":"uint8"},{"internalType":"address","name":"","type":"address"}],"name":"tokenAmounts","outputs":[{"internalType":"uint256","name":"","type":"uint256"}],"stateMutability":"view","type":"function"},{"inputs":[{"internalType":"enum PrizePool.AssetType","name":"","type":"uint8"}],"name":"totalAmounts","outputs":[{"internalType":"uint256","name":"","type":"uint256"}],"stateMutability":"view","type":"function"},{"inputs":[{"internalType":"address","name":"newOwner","type":"address"}],"name":"transferOwnership","outputs":[],"stateMutability":"nonpayable","type":"function"}],"evm":{"bytecode":{"linkReferences":{},"object":"6080346100d957601f611c1338819003918201601f19168301916001600160401b038311848410176100de5780849260409485528339810103126100d95780516020909101516001600160a01b0391828216918290036100d957600160005533156100c057600180546001600160a01b0319808216339081179093556040519590939291167f8be0079c531659141344cd1fd0a4f28419497f9722a3daafe3b4186f6b6457e0600080a36002556003541617600355611b1e90816100f58239f35b604051631e4fbdf760e01b815260006004820152602490fd5b600080fd5b634e487b7160e01b600052604160045260246000fdfe6080604052600436101561001257600080fd5b60003560e01c80630356333214610124578063089cdd0c1461177a57806321e98ad91461175c57806325ce61651461103b5780632952f2eb14610f945780632cb60e9214610fcb5780633633153c14610f94578063715018a614610f375780637bc7d278146107865780637dc01ec714610ee25780638da5cb5b14610eb957806397feb92614610c985780639f9fb96814610ba4578063b02c43d014610b29578063ce0617ec14610b0b578063d29a4bf6146107b7578063da2eec4c14610786578063db2e21bc146106b8578063db6b52461461052b578063e274fd2414610502578063ecb3dc88146104e4578063f0e7a78c146101ee578063f2fde38b146101655763f5e7c4791461012457600080fd5b346101605761013c610135366117ae565b919061185d565b9060018060a01b0316600052602052602060ff604060002054166040519015158152f35b600080fd5b346101605760203660031901126101605761017e611798565b610186611906565b6001600160a01b039081169081156101d557600154826001600160601b0360a01b821617600155167f8be0079c531659141344cd1fd0a4f28419497f9722a3daafe3b4186f6b6457e0600080a3005b604051631e4fbdf760e01b815260006004820152602490fd5b34610160576020806003193601126101605760043567ffffffffffffffff91828211610160573660238301121561016057816004013561022d81611845565b9261023b6040519485611823565b81845282840160249586606080950284010192368411610160578701915b8383106104825787878761026b611906565b60078054600082558061040c575b50600092835b81518510156103b257836102938684611a94565b51015115610364576102b390846102aa8785611a94565b510151906119ca565b936102be8183611a94565b519083546801000000000000000081101561034f576102e360019182810187556118a8565b91909161033a57604091600291855182558886015190820155019201519160038310156103255761031f9260ff801983541691161790556119bb565b9361027f565b87634e487b7160e01b60005260216004526000fd5b88634e487b7160e01b60005260006004526000fd5b87634e487b7160e01b60005260416004526000fd5b60405162461bcd60e51b8152600481018590526021818801527f50657263656e74616765206d7573742062652067726561746572207468616e206044820152600360fc1b6064820152608490fd5b8360648792116103be57005b60236084926040519262461bcd60e51b845260048401528201527f546f74616c2070657263656e746167652063616e6e6f7420657863656564203160448201526230302560e81b6064820152fd5b600390808202908282040361046d57826000527fa66cc928b5edb82af9bd49922954155ab7b0942694bea4ce44661d9a8736c688908101905b818110610453575050610279565b806000849255600060018201556000600282015501610445565b85634e487b7160e01b60005260116004526000fd5b84833603126101605760405190858201828110848211176104cf57604052833582528684013587830152604084013590600382101561016057828892604089950152815201920191610259565b89634e487b7160e01b60005260416004526000fd5b34610160576000366003190112610160576020600654604051908152f35b34610160576000366003190112610160576003546040516001600160a01b039091168152602090f35b60003660031901126101605761053f6119d7565b6105566004548042109081156106af575b50611932565b61056134151561196f565b61056c6006546119bb565b806006556040519061057d82611807565b33825260208201600081526040830191600083526060840160008152608085019034825260a086019260008452600052600560205260406000209460018060a01b03809751169686549551956003871015610699576106329860049760ff60a01b9060a01b16916affffffffffffffffffffff60a81b1617178755600187019151166001600160601b0360a01b82541617905551600285015551600384015551151591019060ff801983541691151516179055565b600080526008602052604060002061064b3482546119ca565b9055600654604051906000825260006020830152346040830152600060608301527fa58e10e8813b9859d257c26f074110f94aa2ace8b54fd3d0519546380e53d99a60803393a36001600055005b634e487b7160e01b600052602160045260246000fd5b90501582610550565b34610160576000366003190112610160576106d1611906565b6106e76004548042109081156106af5750611932565b471561074a57600080808060018060a01b036001541647905af1610709611aa8565b501561071157005b60405162461bcd60e51b815260206004820152601160248201527015da5d1a191c985dd85b0819985a5b1959607a1b6044820152606490fd5b60405162461bcd60e51b81526020600482015260146024820152734e6f2066756e647320746f20776974686472617760601b6044820152606490fd5b34610160576020366003190112610160576004356003811015610160576107ae60209161188f565b54604051908152f35b34610160576040366003190112610160576107d0611798565b6107d86119d7565b6107ee600454804210908115610b025750611932565b6108026001600160a01b03821615156119fa565b6040516331a9108f60e11b81526024803560048301526020908290816001600160a01b0386165afa908115610a7f57600091610ac0575b50336001600160a01b0390911603610a8b576001600160a01b0381163b15610160576040516323b872dd60e01b815233600482015230602480830191909152356044820152600081606481836001600160a01b0387165af18015610a7f57610a70575b506108a86006546119bb565b80600655604051906108b982611807565b3382526002602083015260018060a01b038316604083015260243560608301526001608083015260a082019060008252600052600560205260406000209060018060a01b03835116908254936020810151906003821015610699576109869560049460809360ff60a01b9060a01b16916affffffffffffffffffffff60a81b16171785556001850160018060a01b036040830151166001600160601b0360a01b825416179055606081015160028601550151600384015551151591019060ff801983541691151516179055565b600260005260086020527f6add646517a5b0f6793cd5891b7937d28a5b2981a5d88ebc7cd776088fea904180546001810191908210610a5a57556001600160a01b03811660009081527f6cde3cea4b3a3fb2488b2808bae7556f4a405e50f65e1794383bc026131b13c36020526040902080546001810191908210610a5a5755600654604051916002835260018060a01b031660208301526001604083015260243560608301527fa58e10e8813b9859d257c26f074110f94aa2ace8b54fd3d0519546380e53d99a60803393a36001600055005b634e487b7160e01b600052601160045260246000fd5b610a79906117dd565b8161089c565b6040513d6000823e3d90fd5b60405162461bcd60e51b815260206004820152600d60248201526c2737ba103a34329037bbb732b960991b6044820152606490fd5b90506020813d602011610afa575b81610adb60209383611823565b8101031261016057516001600160a01b03811681036101605782610839565b3d9150610ace565b90501583610550565b34610160576000366003190112610160576020600454604051908152f35b3461016057602036600319011261016057600435600052600560205260c06040600020805460018060a01b039182600182015416600282015490610b8c60ff600460038601549501541694604051968116875260ff602088019160a01c166118f9565b604085015260608401526080830152151560a0820152f35b3461016057602036600319011261016057600060a0604051610bc581611807565b828152826020820152826040820152826060820152826080820152015260043560005260056020526040600020604051610bfe81611807565b81546001600160a01b03808216835260a09190911c60ff1692602083019160038510156106995760c094835280600183015416906040850191825260028301549160608601928352610c7b60ff600460038701549660808a019788520154169560a0880196151587528360405198511688525160208801906118f9565b5116604085015251606084015251608083015251151560a0820152f35b3461016057604036600319011261016057610cb1611798565b602435610cbc6119d7565b610cd2600454804210908115610eb05750611932565b6001600160a01b03918216610ce88115156119fa565b610cf382151561196f565b6040516323b872dd60e01b8152336004820152306024820152604481018390526020929083816064816000875af18015610a7f57610d3991600091610e83575b50611a56565b610d446006546119bb565b9384600655604051610d5581611807565b338152848101600196878252604083018681526060840160008152608085019187835260a08601936000855260005260058a52866040600020965116968654955195600387101561069957610dff9860049760ff60a01b9060a01b16916affffffffffffffffffffff60a81b16171787558b87019151166001600160601b0360a01b82541617905551600285015551600384015551151591019060ff801983541691151516179055565b83600052600883526040600020610e178282546119ca565b9055836000526009835260406000208260005283526040600020610e3c8282546119ca565b905560065491604051938585528401526040830152600060608301527fa58e10e8813b9859d257c26f074110f94aa2ace8b54fd3d0519546380e53d99a60803393a3600055005b610ea39150853d8711610ea9575b610e9b8183611823565b810190611a3e565b86610d33565b503d610e91565b90501584610550565b34610160576000366003190112610160576001546040516001600160a01b039091168152602090f35b346101605760203660031901126101605760043560075481101561016057610f0b6060916118a8565b50610f3581549160ff600260018301549201541690604051938452602084015260408301906118f9565bf35b3461016057600036600319011261016057610f50611906565b600180546001600160a01b031981169091556000906001600160a01b03167f8be0079c531659141344cd1fd0a4f28419497f9722a3daafe3b4186f6b6457e08280a3005b3461016057610fac610fa5366117ae565b9190611876565b9060018060a01b03166000526020526020604060002054604051908152f35b34610160576020366003190112610160576003546001600160a01b03163303610ff657600480359055005b60405162461bcd60e51b815260206004820152601c60248201527f4f6e6c79206576656e7420636f6e74726163742063616e2063616c6c000000006044820152606490fd5b346101605760603660031901126101605760043567ffffffffffffffff8111610160573660238201121561016057806004013561107781611845565b916110856040519384611823565b8183526024602084019260051b8201019036821161016057602401915b81831061173c57836003602435101561016057604435906001600160a01b0382168203610160576110d1611906565b600454804210159081611732575b50156116f4576110ed6119d7565b6110f860243561185d565b60018060a01b03831660005260205260ff604060002054166116af5780511561167457600090816024356115db57506000805260086020527f5eff886ea0ce6ca488a3d6e336d6c0f75f46d19b42c06ce5ee98e42c96d256c7545b80156115875760005b60075481108061157d575b15611526578360ff600261117a846118a8565b5001541690610699576003811015610699576024350361151d5761119d816118a8565b505493835185116115125784600019810111610a5a576001600160a01b036111c9600019870186611a94565b5116908115611506575060016111de836118a8565b50015483818102048103610a5a5760009560243561121f5750600080808061121a96956064611215968a0204905af1610d33611aa8565b6119bb565b61115c565b600096506024356001036112dc575060405163a9059cbb60e01b81526004810192909252606490840204602482015260208160448160006001600160a01b038b165af1908115610a7f576000916112bd575b50156112805761121a906119bb565b60405162461bcd60e51b8152602060048201526015602482015274151bdad95b881d1c985b9cd9995c8819985a5b1959605a1b6044820152606490fd5b6112d6915060203d602011610ea957610e9b8183611823565b86611271565b93919495506000906002602435146000146114a2575060009560015b6006548111158061149a575b156114865780600052600560205260ff60406000205460a01c1660038110156106995760021480611460575b80611444575b611349575b611344906119bb565b6112f8565b6000818152600560205260409020600201549097506001600160a01b0389163b15610160576040516323b872dd60e01b81523060048201526001600160a01b0388166024820152604481019190915260008180606481010381836001600160a01b038e165af18015610a7f57611435575b5086600052600560205285857f3e7b219eca3328f1d23b449ffb8c59a62d96f035ecbcca2808a544ba79ff3bc760806002604060002060048101600160ff19825416179055015460405190611411826024356118f9565b6001600160a01b038e166020830152600160408301526060820152a360019661133b565b61143e906117dd565b886113ba565b5080600052600560205260ff6004604060002001541615611336565b506000818152600560205260409020600101546001600160a01b038a8116911614611330565b5094509461121a92919350611215576119bb565b508715611304565b937f3e7b219eca3328f1d23b449ffb8c59a62d96f035ecbcca2808a544ba79ff3bc7608061121a959496606460409a99959a51916114e2836024356118f9565b6001600160a01b038d166020840152890204604082015260006060820152a36119bb565b94505061121a906119bb565b935061121a906119bb565b61121a906119bb565b8461153260243561185d565b9060018060a01b03166000526020526040600020600160ff198254161790557fe6c43f9d4cf69e900ec4b5976378c6c925a6dbf5aeb11487ca07b2ccd701d938600080a16001600055005b5082518110611167565b60405162461bcd60e51b815260206004820152602660248201527f4e6f2066756e647320617661696c61626c6520666f722074686973206173736560448201526574207479706560d01b6064820152608490fd5b6000925060243560010361162757506001600160a01b03831660009081527f92e85d02570a8092d09a6e3a57665bc3815a2699a4074001bf1ccabf660f5a366020526040902054611153565b600092506001196024350161115357506001600160a01b03831660009081527f6cde3cea4b3a3fb2488b2808bae7556f4a405e50f65e1794383bc026131b13c36020526040902054611153565b60405162461bcd60e51b8152602060048201526013602482015272139bc81dda5b9b995c9cc81c1c9bdd9a591959606a1b6044820152606490fd5b60405162461bcd60e51b815260206004820152601e60248201527f5468697320617373657420616c726561647920646973747269627574656400006044820152606490fd5b60405162461bcd60e51b8152602060048201526016602482015275141bdbdb081a5cc81b9bdd081b1bd8dad959081e595d60521b6044820152606490fd5b90501515836110df565b82356001600160a01b0381168103610160578152602092830192016110a2565b34610160576000366003190112610160576020600754604051908152f35b34610160576000366003190112610160576020600254604051908152f35b600435906001600160a01b038216820361016057565b604090600319011261016057600435600381101561016057906024356001600160a01b03811681036101605790565b67ffffffffffffffff81116117f157604052565b634e487b7160e01b600052604160045260246000fd5b60c0810190811067ffffffffffffffff8211176117f157604052565b90601f8019910116810190811067ffffffffffffffff8211176117f157604052565b67ffffffffffffffff81116117f15760051b60200190565b600381101561069957600052600a602052604060002090565b6003811015610699576000526009602052604060002090565b6003811015610699576000526008602052604060002090565b6007548110156118e3576003906007600052027fa66cc928b5edb82af9bd49922954155ab7b0942694bea4ce44661d9a8736c6880190600090565b634e487b7160e01b600052603260045260246000fd5b9060038210156106995752565b6001546001600160a01b0316330361191a57565b60405163118cdaa760e01b8152336004820152602490fd5b1561193957565b60405162461bcd60e51b815260206004820152600e60248201526d141bdbdb081a5cc81b1bd8dad95960921b6044820152606490fd5b1561197657565b60405162461bcd60e51b815260206004820152601d60248201527f416d6f756e74206d7573742062652067726561746572207468616e20300000006044820152606490fd5b6000198114610a5a5760010190565b91908201809211610a5a57565b6002600054146119e8576002600055565b604051633ee5aeb560e01b8152600490fd5b15611a0157565b60405162461bcd60e51b8152602060048201526015602482015274496e76616c696420746f6b656e206164647265737360581b6044820152606490fd5b90816020910312610160575180151581036101605790565b15611a5d57565b60405162461bcd60e51b815260206004820152600f60248201526e151c985b9cd9995c8819985a5b1959608a1b6044820152606490fd5b80518210156118e35760209160051b010190565b3d15611ae3573d9067ffffffffffffffff82116117f15760405191611ad7601f8201601f191660200184611823565b82523d6000602084013e565b60609056fea2646970667358221220b9e27f4d7ed7fc6f4afc64037d32c3825307da2608fe47014c4a49145147cc7564736f6c63430008140033","opcodes":"PUSH1 0x80 CALLVALUE PUSH2 0xD9 JUMPI PUSH1 0x1F PUSH2 0x1C13 CODESIZE DUP2 SWAP1 SUB SWAP2 DUP3 ADD PUSH1 0x1F NOT AND DUP4 ADD SWAP2 PUSH1 0x1 PUSH1 0x1 PUSH1 0x40 SHL SUB DUP4 GT DUP5 DUP5 LT OR PUSH2 0xDE JUMPI DUP1 DUP5 SWAP3 PUSH1 0x40 SWAP5 DUP6 MSTORE DUP4 CODECOPY DUP2 ADD SUB SLT PUSH2 0xD9 JUMPI DUP1 MLOAD PUSH1 0x20 SWAP1 SWAP2 ADD MLOAD PUSH1 0x1 PUSH1 0x1 PUSH1 0xA0 SHL SUB SWAP2 DUP3 DUP3 AND SWAP2 DUP3 SWAP1 SUB PUSH2 0xD9 JUMPI PUSH1 0x1 PUSH1 0x0 SSTORE CALLER ISZERO PUSH2 0xC0 JUMPI PUSH1 0x1 DUP1 SLOAD PUSH1 0x1 PUSH1 0x1 PUSH1 0xA0 SHL SUB NOT DUP1 DUP3 AND CALLER SWAP1 DUP2 OR SWAP1 SWAP4 SSTORE PUSH1 0x40 MLOAD SWAP6 SWAP1 SWAP4 SWAP3 SWAP2 AND PUSH32 0x8BE0079C531659141344CD1FD0A4F28419497F9722A3DAAFE3B4186F6B6457E0 PUSH1 0x0 DUP1 LOG3 PUSH1 0x2 SSTORE PUSH1 0x3 SLOAD AND OR PUSH1 0x3 SSTORE PUSH2 0x1B1E SWAP1 DUP2 PUSH2 0xF5 DUP3 CODECOPY RETURN JUMPDEST PUSH1 0x40 MLOAD PUSH4 0x1E4FBDF7 PUSH1 0xE0 SHL DUP2 MSTORE PUSH1 0x0 PUSH1 0x4 DUP3 ADD MSTORE PUSH1 0x24 SWAP1 REVERT JUMPDEST PUSH1 0x0 DUP1 REVERT JUMPDEST PUSH4 0x4E487B71 PUSH1 0xE0 SHL PUSH1 0x0 MSTORE PUSH1 0x41 PUSH1 0x4 MSTORE PUSH1 0x24 PUSH1 0x0 REVERT INVALID PUSH1 0x80 PUSH1 0x40 MSTORE PUSH1 0x4 CALLDATASIZE LT ISZERO PUSH2 0x12 JUMPI PUSH1 0x0 DUP1 REVERT JUMPDEST PUSH1 0x0 CALLDATALOAD PUSH1 0xE0 SHR DUP1 PUSH4 0x3563332 EQ PUSH2 0x124 JUMPI DUP1 PUSH4 0x89CDD0C EQ PUSH2 0x177A JUMPI DUP1 PUSH4 0x21E98AD9 EQ PUSH2 0x175C JUMPI DUP1 PUSH4 0x25CE6165 EQ PUSH2 0x103B JUMPI DUP1 PUSH4 0x2952F2EB EQ PUSH2 0xF94 JUMPI DUP1 PUSH4 0x2CB60E92 EQ PUSH2 0xFCB JUMPI DUP1 PUSH4 0x3633153C EQ PUSH2 0xF94 JUMPI DUP1 PUSH4 0x715018A6 EQ PUSH2 0xF37 JUMPI DUP1 PUSH4 0x7BC7D278 EQ PUSH2 0x786 JUMPI DUP1 PUSH4 0x7DC01EC7 EQ PUSH2 0xEE2 JUMPI DUP1 PUSH4 0x8DA5CB5B EQ PUSH2 0xEB9 JUMPI DUP1 PUSH4 0x97FEB926 EQ PUSH2 0xC98 JUMPI DUP1 PUSH4 0x9F9FB968 EQ PUSH2 0xBA4 JUMPI DUP1 PUSH4 0xB02C43D0 EQ PUSH2 0xB29 JUMPI DUP1 PUSH4 0xCE0617EC EQ PUSH2 0xB0B JUMPI DUP1 PUSH4 0xD29A4BF6 EQ PUSH2 0x7B7 JUMPI DUP1 PUSH4 0xDA2EEC4C EQ PUSH2 0x786 JUMPI DUP1 PUSH4 0xDB2E21BC EQ PUSH2 0x6B8 JUMPI DUP1 PUSH4 0xDB6B5246 EQ PUSH2 0x52B JUMPI DUP1 PUSH4 0xE274FD24 EQ PUSH2 0x502 JUMPI DUP1 PUSH4 0xECB3DC88 EQ PUSH2 0x4E4 JUMPI DUP1 PUSH4 0xF0E7A78C EQ PUSH2 0x1EE JUMPI DUP1 PUSH4 0xF2FDE38B EQ PUSH2 0x165 JUMPI PUSH4 0xF5E7C479 EQ PUSH2 0x124 JUMPI PUSH1 0x0 DUP1 REVERT JUMPDEST CALLVALUE PUSH2 0x160 JUMPI PUSH2 0x13C PUSH2 0x135 CALLDATASIZE PUSH2 0x17AE JUMP JUMPDEST SWAP2 SWAP1 PUSH2 0x185D JUMP JUMPDEST SWAP1 PUSH1 0x1 DUP1 PUSH1 0xA0 SHL SUB AND PUSH1 0x0 MSTORE PUSH1 0x20 MSTORE PUSH1 0x20 PUSH1 0xFF PUSH1 0x40 PUSH1 0x0 KECCAK256 SLOAD AND PUSH1 0x40 MLOAD SWAP1 ISZERO ISZERO DUP2 MSTORE RETURN JUMPDEST PUSH1 0x0 DUP1 REVERT JUMPDEST CALLVALUE PUSH2 0x160 JUMPI PUSH1 0x20 CALLDATASIZE PUSH1 0x3 NOT ADD SLT PUSH2 0x160 JUMPI PUSH2 0x17E PUSH2 0x1798 JUMP JUMPDEST PUSH2 0x186 PUSH2 0x1906 JUMP JUMPDEST PUSH1 0x1 PUSH1 0x1 PUSH1 0xA0 SHL SUB SWAP1 DUP2 AND SWAP1 DUP2 ISZERO PUSH2 0x1D5 JUMPI PUSH1 0x1 SLOAD DUP3 PUSH1 0x1 PUSH1 0x1 PUSH1 0x60 SHL SUB PUSH1 0xA0 SHL DUP3 AND OR PUSH1 0x1 SSTORE AND PUSH32 0x8BE0079C531659141344CD1FD0A4F28419497F9722A3DAAFE3B4186F6B6457E0 PUSH1 0x0 DUP1 LOG3 STOP JUMPDEST PUSH1 0x40 MLOAD PUSH4 0x1E4FBDF7 PUSH1 0xE0 SHL DUP2 MSTORE PUSH1 0x0 PUSH1 0x4 DUP3 ADD MSTORE PUSH1 0x24 SWAP1 REVERT JUMPDEST CALLVALUE PUSH2 0x160 JUMPI PUSH1 0x20 DUP1 PUSH1 0x3 NOT CALLDATASIZE ADD SLT PUSH2 0x160 JUMPI PUSH1 0x4 CALLDATALOAD PUSH8 0xFFFFFFFFFFFFFFFF SWAP2 DUP3 DUP3 GT PUSH2 0x160 JUMPI CALLDATASIZE PUSH1 0x23 DUP4 ADD SLT ISZERO PUSH2 0x160 JUMPI DUP2 PUSH1 0x4 ADD CALLDATALOAD PUSH2 0x22D DUP2 PUSH2 0x1845 JUMP JUMPDEST SWAP3 PUSH2 0x23B PUSH1 0x40 MLOAD SWAP5 DUP6 PUSH2 0x1823 JUMP JUMPDEST DUP2 DUP5 MSTORE DUP3 DUP5 ADD PUSH1 0x24 SWAP6 DUP7 PUSH1 0x60 DUP1 SWAP6 MUL DUP5 ADD ADD SWAP3 CALLDATASIZE DUP5 GT PUSH2 0x160 JUMPI DUP8 ADD SWAP2 JUMPDEST DUP4 DUP4 LT PUSH2 0x482 JUMPI DUP8 DUP8 DUP8 PUSH2 0x26B PUSH2 0x1906 JUMP JUMPDEST PUSH1 0x7 DUP1 SLOAD PUSH1 0x0 DUP3 SSTORE DUP1 PUSH2 0x40C JUMPI JUMPDEST POP PUSH1 0x0 SWAP3 DUP4 JUMPDEST DUP2 MLOAD DUP6 LT ISZERO PUSH2 0x3B2 JUMPI DUP4 PUSH2 0x293 DUP7 DUP5 PUSH2 0x1A94 JUMP JUMPDEST MLOAD ADD MLOAD ISZERO PUSH2 0x364 JUMPI PUSH2 0x2B3 SWAP1 DUP5 PUSH2 0x2AA DUP8 DUP6 PUSH2 0x1A94 JUMP JUMPDEST MLOAD ADD MLOAD SWAP1 PUSH2 0x19CA JUMP JUMPDEST SWAP4 PUSH2 0x2BE DUP2 DUP4 PUSH2 0x1A94 JUMP JUMPDEST MLOAD SWAP1 DUP4 SLOAD PUSH9 0x10000000000000000 DUP2 LT ISZERO PUSH2 0x34F JUMPI PUSH2 0x2E3 PUSH1 0x1 SWAP2 DUP3 DUP2 ADD DUP8 SSTORE PUSH2 0x18A8 JUMP JUMPDEST SWAP2 SWAP1 SWAP2 PUSH2 0x33A JUMPI PUSH1 0x40 SWAP2 PUSH1 0x2 SWAP2 DUP6 MLOAD DUP3 SSTORE DUP9 DUP7 ADD MLOAD SWAP1 DUP3 ADD SSTORE ADD SWAP3 ADD MLOAD SWAP2 PUSH1 0x3 DUP4 LT ISZERO PUSH2 0x325 JUMPI PUSH2 0x31F SWAP3 PUSH1 0xFF DUP1 NOT DUP4 SLOAD AND SWAP2 AND OR SWAP1 SSTORE PUSH2 0x19BB JUMP JUMPDEST SWAP4 PUSH2 0x27F JUMP JUMPDEST DUP8 PUSH4 0x4E487B71 PUSH1 0xE0 SHL PUSH1 0x0 MSTORE PUSH1 0x21 PUSH1 0x4 MSTORE PUSH1 0x0 REVERT JUMPDEST DUP9 PUSH4 0x4E487B71 PUSH1 0xE0 SHL PUSH1 0x0 MSTORE PUSH1 0x0 PUSH1 0x4 MSTORE PUSH1 0x0 REVERT JUMPDEST DUP8 PUSH4 0x4E487B71 PUSH1 0xE0 SHL PUSH1 0x0 MSTORE PUSH1 0x41 PUSH1 0x4 MSTORE PUSH1 0x0 REVERT JUMPDEST PUSH1 0x40 MLOAD PUSH3 0x461BCD PUSH1 0xE5 SHL DUP2 MSTORE PUSH1 0x4 DUP2 ADD DUP6 SWAP1 MSTORE PUSH1 0x21 DUP2 DUP9 ADD MSTORE PUSH32 0x50657263656E74616765206D7573742062652067726561746572207468616E20 PUSH1 0x44 DUP3 ADD MSTORE PUSH1 0x3 PUSH1 0xFC SHL PUSH1 0x64 DUP3 ADD MSTORE PUSH1 0x84 SWAP1 REVERT JUMPDEST DUP4 PUSH1 0x64 DUP8 SWAP3 GT PUSH2 0x3BE JUMPI STOP JUMPDEST PUSH1 0x23 PUSH1 0x84 SWAP3 PUSH1 0x40 MLOAD SWAP3 PUSH3 0x461BCD PUSH1 0xE5 SHL DUP5 MSTORE PUSH1 0x4 DUP5 ADD MSTORE DUP3 ADD MSTORE PUSH32 0x546F74616C2070657263656E746167652063616E6E6F74206578636565642031 PUSH1 0x44 DUP3 ADD MSTORE PUSH3 0x303025 PUSH1 0xE8 SHL PUSH1 0x64 DUP3 ADD MSTORE REVERT JUMPDEST PUSH1 0x3 SWAP1 DUP1 DUP3 MUL SWAP1 DUP3 DUP3 DIV SUB PUSH2 0x46D JUMPI DUP3 PUSH1 0x0 MSTORE PUSH32 0xA66CC928B5EDB82AF9BD49922954155AB7B0942694BEA4CE44661D9A8736C688 SWAP1 DUP2 ADD SWAP1 JUMPDEST DUP2 DUP2 LT PUSH2 0x453 JUMPI POP POP PUSH2 0x279 JUMP JUMPDEST DUP1 PUSH1 0x0 DUP5 SWAP3 SSTORE PUSH1 0x0 PUSH1 0x1 DUP3 ADD SSTORE PUSH1 0x0 PUSH1 0x2 DUP3 ADD SSTORE ADD PUSH2 0x445 JUMP JUMPDEST DUP6 PUSH4 0x4E487B71 PUSH1 0xE0 SHL PUSH1 0x0 MSTORE PUSH1 0x11 PUSH1 0x4 MSTORE PUSH1 0x0 REVERT JUMPDEST DUP5 DUP4 CALLDATASIZE SUB SLT PUSH2 0x160 JUMPI PUSH1 0x40 MLOAD SWAP1 DUP6 DUP3 ADD DUP3 DUP2 LT DUP5 DUP3 GT OR PUSH2 0x4CF JUMPI PUSH1 0x40 MSTORE DUP4 CALLDATALOAD DUP3 MSTORE DUP7 DUP5 ADD CALLDATALOAD DUP8 DUP4 ADD MSTORE PUSH1 0x40 DUP5 ADD CALLDATALOAD SWAP1 PUSH1 0x3 DUP3 LT ISZERO PUSH2 0x160 JUMPI DUP3 DUP9 SWAP3 PUSH1 0x40 DUP10 SWAP6 ADD MSTORE DUP2 MSTORE ADD SWAP3 ADD SWAP2 PUSH2 0x259 JUMP JUMPDEST DUP10 PUSH4 0x4E487B71 PUSH1 0xE0 SHL PUSH1 0x0 MSTORE PUSH1 0x41 PUSH1 0x4 MSTORE PUSH1 0x0 REVERT JUMPDEST CALLVALUE PUSH2 0x160 JUMPI PUSH1 0x0 CALLDATASIZE PUSH1 0x3 NOT ADD SLT PUSH2 0x160 JUMPI PUSH1 0x20 PUSH1 0x6 SLOAD PUSH1 0x40 MLOAD SWAP1 DUP2 MSTORE RETURN JUMPDEST CALLVALUE PUSH2 0x160 JUMPI PUSH1 0x0 CALLDATASIZE PUSH1 0x3 NOT ADD SLT PUSH2 0x160 JUMPI PUSH1 0x3 SLOAD PUSH1 0x40 MLOAD PUSH1 0x1 PUSH1 0x1 PUSH1 0xA0 SHL SUB SWAP1 SWAP2 AND DUP2 MSTORE PUSH1 0x20 SWAP1 RETURN JUMPDEST PUSH1 0x0 CALLDATASIZE PUSH1 0x3 NOT ADD SLT PUSH2 0x160 JUMPI PUSH2 0x53F PUSH2 0x19D7 JUMP JUMPDEST PUSH2 0x556 PUSH1 0x4 SLOAD DUP1 TIMESTAMP LT SWAP1 DUP2 ISZERO PUSH2 0x6AF JUMPI JUMPDEST POP PUSH2 0x1932 JUMP JUMPDEST PUSH2 0x561 CALLVALUE ISZERO ISZERO PUSH2 0x196F JUMP JUMPDEST PUSH2 0x56C PUSH1 0x6 SLOAD PUSH2 0x19BB JUMP JUMPDEST DUP1 PUSH1 0x6 SSTORE PUSH1 0x40 MLOAD SWAP1 PUSH2 0x57D DUP3 PUSH2 0x1807 JUMP JUMPDEST CALLER DUP3 MSTORE PUSH1 0x20 DUP3 ADD PUSH1 0x0 DUP2 MSTORE PUSH1 0x40 DUP4 ADD SWAP2 PUSH1 0x0 DUP4 MSTORE PUSH1 0x60 DUP5 ADD PUSH1 0x0 DUP2 MSTORE PUSH1 0x80 DUP6 ADD SWAP1 CALLVALUE DUP3 MSTORE PUSH1 0xA0 DUP7 ADD SWAP3 PUSH1 0x0 DUP5 MSTORE PUSH1 0x0 MSTORE PUSH1 0x5 PUSH1 0x20 MSTORE PUSH1 0x40 PUSH1 0x0 KECCAK256 SWAP5 PUSH1 0x1 DUP1 PUSH1 0xA0 SHL SUB DUP1 SWAP8 MLOAD AND SWAP7 DUP7 SLOAD SWAP6 MLOAD SWAP6 PUSH1 0x3 DUP8 LT ISZERO PUSH2 0x699 JUMPI PUSH2 0x632 SWAP9 PUSH1 0x4 SWAP8 PUSH1 0xFF PUSH1 0xA0 SHL SWAP1 PUSH1 0xA0 SHL AND SWAP2 PUSH11 0xFFFFFFFFFFFFFFFFFFFFFF PUSH1 0xA8 SHL AND OR OR DUP8 SSTORE PUSH1 0x1 DUP8 ADD SWAP2 MLOAD AND PUSH1 0x1 PUSH1 0x1 PUSH1 0x60 SHL SUB PUSH1 0xA0 SHL DUP3 SLOAD AND OR SWAP1 SSTORE MLOAD PUSH1 0x2 DUP6 ADD SSTORE MLOAD PUSH1 0x3 DUP5 ADD SSTORE MLOAD ISZERO ISZERO SWAP2 ADD SWAP1 PUSH1 0xFF DUP1 NOT DUP4 SLOAD AND SWAP2 ISZERO ISZERO AND OR SWAP1 SSTORE JUMP JUMPDEST PUSH1 0x0 DUP1 MSTORE PUSH1 0x8 PUSH1 0x20 MSTORE PUSH1 0x40 PUSH1 0x0 KECCAK256 PUSH2 0x64B CALLVALUE DUP3 SLOAD PUSH2 0x19CA JUMP JUMPDEST SWAP1 SSTORE PUSH1 0x6 SLOAD PUSH1 0x40 MLOAD SWAP1 PUSH1 0x0 DUP3 MSTORE PUSH1 0x0 PUSH1 0x20 DUP4 ADD MSTORE CALLVALUE PUSH1 0x40 DUP4 ADD MSTORE PUSH1 0x0 PUSH1 0x60 DUP4 ADD MSTORE PUSH32 0xA58E10E8813B9859D257C26F074110F94AA2ACE8B54FD3D0519546380E53D99A PUSH1 0x80 CALLER SWAP4 LOG3 PUSH1 0x1 PUSH1 0x0 SSTORE STOP JUMPDEST PUSH4 0x4E487B71 PUSH1 0xE0 SHL PUSH1 0x0 MSTORE PUSH1 0x21 PUSH1 0x4 MSTORE PUSH1 0x24 PUSH1 0x0 REVERT JUMPDEST SWAP1 POP ISZERO DUP3 PUSH2 0x550 JUMP JUMPDEST CALLVALUE PUSH2 0x160 JUMPI PUSH1 0x0 CALLDATASIZE PUSH1 0x3 NOT ADD SLT PUSH2 0x160 JUMPI PUSH2 0x6D1 PUSH2 0x1906 JUMP JUMPDEST PUSH2 0x6E7 PUSH1 0x4 SLOAD DUP1 TIMESTAMP LT SWAP1 DUP2 ISZERO PUSH2 0x6AF JUMPI POP PUSH2 0x1932 JUMP JUMPDEST SELFBALANCE ISZERO PUSH2 0x74A JUMPI PUSH1 0x0 DUP1 DUP1 DUP1 PUSH1 0x1 DUP1 PUSH1 0xA0 SHL SUB PUSH1 0x1 SLOAD AND SELFBALANCE SWAP1 GAS CALL PUSH2 0x709 PUSH2 0x1AA8 JUMP JUMPDEST POP ISZERO PUSH2 0x711 JUMPI STOP JUMPDEST PUSH1 0x40 MLOAD PUSH3 0x461BCD PUSH1 0xE5 SHL DUP2 MSTORE PUSH1 0x20 PUSH1 0x4 DUP3 ADD MSTORE PUSH1 0x11 PUSH1 0x24 DUP3 ADD MSTORE PUSH17 0x15DA5D1A191C985DD85B0819985A5B1959 PUSH1 0x7A SHL PUSH1 0x44 DUP3 ADD MSTORE PUSH1 0x64 SWAP1 REVERT JUMPDEST PUSH1 0x40 MLOAD PUSH3 0x461BCD PUSH1 0xE5 SHL DUP2 MSTORE PUSH1 0x20 PUSH1 0x4 DUP3 ADD MSTORE PUSH1 0x14 PUSH1 0x24 DUP3 ADD MSTORE PUSH20 0x4E6F2066756E647320746F207769746864726177 PUSH1 0x60 SHL PUSH1 0x44 DUP3 ADD MSTORE PUSH1 0x64 SWAP1 REVERT JUMPDEST CALLVALUE PUSH2 0x160 JUMPI PUSH1 0x20 CALLDATASIZE PUSH1 0x3 NOT ADD SLT PUSH2 0x160 JUMPI PUSH1 0x4 CALLDATALOAD PUSH1 0x3 DUP2 LT ISZERO PUSH2 0x160 JUMPI PUSH2 0x7AE PUSH1 0x20 SWAP2 PUSH2 0x188F JUMP JUMPDEST SLOAD PUSH1 0x40 MLOAD SWAP1 DUP2 MSTORE RETURN JUMPDEST CALLVALUE PUSH2 0x160 JUMPI PUSH1 0x40 CALLDATASIZE PUSH1 0x3 NOT ADD SLT PUSH2 0x160 JUMPI PUSH2 0x7D0 PUSH2 0x1798 JUMP JUMPDEST PUSH2 0x7D8 PUSH2 0x19D7 JUMP JUMPDEST PUSH2 0x7EE PUSH1 0x4 SLOAD DUP1 TIMESTAMP LT SWAP1 DUP2 ISZERO PUSH2 0xB02 JUMPI POP PUSH2 0x1932 JUMP JUMPDEST PUSH2 0x802 PUSH1 0x1 PUSH1 0x1 PUSH1 0xA0 SHL SUB DUP3 AND ISZERO ISZERO PUSH2 0x19FA JUMP JUMPDEST PUSH1 0x40 MLOAD PUSH4 0x31A9108F PUSH1 0xE1 SHL DUP2 MSTORE PUSH1 0x24 DUP1 CALLDATALOAD PUSH1 0x4 DUP4 ADD MSTORE PUSH1 0x20 SWAP1 DUP3 SWAP1 DUP2 PUSH1 0x1 PUSH1 0x1 PUSH1 0xA0 SHL SUB DUP7 AND GAS STATICCALL SWAP1 DUP2 ISZERO PUSH2 0xA7F JUMPI PUSH1 0x0 SWAP2 PUSH2 0xAC0 JUMPI JUMPDEST POP CALLER PUSH1 0x1 PUSH1 0x1 PUSH1 0xA0 SHL SUB SWAP1 SWAP2 AND SUB PUSH2 0xA8B JUMPI PUSH1 0x1 PUSH1 0x1 PUSH1 0xA0 SHL SUB DUP2 AND EXTCODESIZE ISZERO PUSH2 0x160 JUMPI PUSH1 0x40 MLOAD PUSH4 0x23B872DD PUSH1 0xE0 SHL DUP2 MSTORE CALLER PUSH1 0x4 DUP3 ADD MSTORE ADDRESS PUSH1 0x24 DUP1 DUP4 ADD SWAP2 SWAP1 SWAP2 MSTORE CALLDATALOAD PUSH1 0x44 DUP3 ADD MSTORE PUSH1 0x0 DUP2 PUSH1 0x64 DUP2 DUP4 PUSH1 0x1 PUSH1 0x1 PUSH1 0xA0 SHL SUB DUP8 AND GAS CALL DUP1 ISZERO PUSH2 0xA7F JUMPI PUSH2 0xA70 JUMPI JUMPDEST POP PUSH2 0x8A8 PUSH1 0x6 SLOAD PUSH2 0x19BB JUMP JUMPDEST DUP1 PUSH1 0x6 SSTORE PUSH1 0x40 MLOAD SWAP1 PUSH2 0x8B9 DUP3 PUSH2 0x1807 JUMP JUMPDEST CALLER DUP3 MSTORE PUSH1 0x2 PUSH1 0x20 DUP4 ADD MSTORE PUSH1 0x1 DUP1 PUSH1 0xA0 SHL SUB DUP4 AND PUSH1 0x40 DUP4 ADD MSTORE PUSH1 0x24 CALLDATALOAD PUSH1 0x60 DUP4 ADD MSTORE PUSH1 0x1 PUSH1 0x80 DUP4 ADD MSTORE PUSH1 0xA0 DUP3 ADD SWAP1 PUSH1 0x0 DUP3 MSTORE PUSH1 0x0 MSTORE PUSH1 0x5 PUSH1 0x20 MSTORE PUSH1 0x40 PUSH1 0x0 KECCAK256 SWAP1 PUSH1 0x1 DUP1 PUSH1 0xA0 SHL SUB DUP4 MLOAD AND SWAP1 DUP3 SLOAD SWAP4 PUSH1 0x20 DUP2 ADD MLOAD SWAP1 PUSH1 0x3 DUP3 LT ISZERO PUSH2 0x699 JUMPI PUSH2 0x986 SWAP6 PUSH1 0x4 SWAP5 PUSH1 0x80 SWAP4 PUSH1 0xFF PUSH1 0xA0 SHL SWAP1 PUSH1 0xA0 SHL AND SWAP2 PUSH11 0xFFFFFFFFFFFFFFFFFFFFFF PUSH1 0xA8 SHL AND OR OR DUP6 SSTORE PUSH1 0x1 DUP6 ADD PUSH1 0x1 DUP1 PUSH1 0xA0 SHL SUB PUSH1 0x40 DUP4 ADD MLOAD AND PUSH1 0x1 PUSH1 0x1 PUSH1 0x60 SHL SUB PUSH1 0xA0 SHL DUP3 SLOAD AND OR SWAP1 SSTORE PUSH1 0x60 DUP2 ADD MLOAD PUSH1 0x2 DUP7 ADD SSTORE ADD MLOAD PUSH1 0x3 DUP5 ADD SSTORE MLOAD ISZERO ISZERO SWAP2 ADD SWAP1 PUSH1 0xFF DUP1 NOT DUP4 SLOAD AND SWAP2 ISZERO ISZERO AND OR SWAP1 SSTORE JUMP JUMPDEST PUSH1 0x2 PUSH1 0x0 MSTORE PUSH1 0x8 PUSH1 0x20 MSTORE PUSH32 0x6ADD646517A5B0F6793CD5891B7937D28A5B2981A5D88EBC7CD776088FEA9041 DUP1 SLOAD PUSH1 0x1 DUP2 ADD SWAP2 SWAP1 DUP3 LT PUSH2 0xA5A JUMPI SSTORE PUSH1 0x1 PUSH1 0x1 PUSH1 0xA0 SHL SUB DUP2 AND PUSH1 0x0 SWAP1 DUP2 MSTORE PUSH32 0x6CDE3CEA4B3A3FB2488B2808BAE7556F4A405E50F65E1794383BC026131B13C3 PUSH1 0x20 MSTORE PUSH1 0x40 SWAP1 KECCAK256 DUP1 SLOAD PUSH1 0x1 DUP2 ADD SWAP2 SWAP1 DUP3 LT PUSH2 0xA5A JUMPI SSTORE PUSH1 0x6 SLOAD PUSH1 0x40 MLOAD SWAP2 PUSH1 0x2 DUP4 MSTORE PUSH1 0x1 DUP1 PUSH1 0xA0 SHL SUB AND PUSH1 0x20 DUP4 ADD MSTORE PUSH1 0x1 PUSH1 0x40 DUP4 ADD MSTORE PUSH1 0x24 CALLDATALOAD PUSH1 0x60 DUP4 ADD MSTORE PUSH32 0xA58E10E8813B9859D257C26F074110F94AA2ACE8B54FD3D0519546380E53D99A PUSH1 0x80 CALLER SWAP4 LOG3 PUSH1 0x1 PUSH1 0x0 SSTORE STOP JUMPDEST PUSH4 0x4E487B71 PUSH1 0xE0 SHL PUSH1 0x0 MSTORE PUSH1 0x11 PUSH1 0x4 MSTORE PUSH1 0x24 PUSH1 0x0 REVERT JUMPDEST PUSH2 0xA79 SWAP1 PUSH2 0x17DD JUMP JUMPDEST DUP2 PUSH2 0x89C JUMP JUMPDEST PUSH1 0x40 MLOAD RETURNDATASIZE PUSH1 0x0 DUP3 RETURNDATACOPY RETURNDATASIZE SWAP1 REVERT JUMPDEST PUSH1 0x40 MLOAD PUSH3 0x461BCD PUSH1 0xE5 SHL DUP2 MSTORE PUSH1 0x20 PUSH1 0x4 DUP3 ADD MSTORE PUSH1 0xD PUSH1 0x24 DUP3 ADD MSTORE PUSH13 0x2737BA103A34329037BBB732B9 PUSH1 0x99 SHL PUSH1 0x44 DUP3 ADD MSTORE PUSH1 0x64 SWAP1 REVERT JUMPDEST SWAP1 POP PUSH1 0x20 DUP2 RETURNDATASIZE PUSH1 0x20 GT PUSH2 0xAFA JUMPI JUMPDEST DUP2 PUSH2 0xADB PUSH1 0x20 SWAP4 DUP4 PUSH2 0x1823 JUMP JUMPDEST DUP2 ADD SUB SLT PUSH2 0x160 JUMPI MLOAD PUSH1 0x1 PUSH1 0x1 PUSH1 0xA0 SHL SUB DUP2 AND DUP2 SUB PUSH2 0x160 JUMPI DUP3 PUSH2 0x839 JUMP JUMPDEST RETURNDATASIZE SWAP2 POP PUSH2 0xACE JUMP JUMPDEST SWAP1 POP ISZERO DUP4 PUSH2 0x550 JUMP JUMPDEST CALLVALUE PUSH2 0x160 JUMPI PUSH1 0x0 CALLDATASIZE PUSH1 0x3 NOT ADD SLT PUSH2 0x160 JUMPI PUSH1 0x20 PUSH1 0x4 SLOAD PUSH1 0x40 MLOAD SWAP1 DUP2 MSTORE RETURN JUMPDEST CALLVALUE PUSH2 0x160 JUMPI PUSH1 0x20 CALLDATASIZE PUSH1 0x3 NOT ADD SLT PUSH2 0x160 JUMPI PUSH1 0x4 CALLDATALOAD PUSH1 0x0 MSTORE PUSH1 0x5 PUSH1 0x20 MSTORE PUSH1 0xC0 PUSH1 0x40 PUSH1 0x0 KECCAK256 DUP1 SLOAD PUSH1 0x1 DUP1 PUSH1 0xA0 SHL SUB SWAP2 DUP3 PUSH1 0x1 DUP3 ADD SLOAD AND PUSH1 0x2 DUP3 ADD SLOAD SWAP1 PUSH2 0xB8C PUSH1 0xFF PUSH1 0x4 PUSH1 0x3 DUP7 ADD SLOAD SWAP6 ADD SLOAD AND SWAP5 PUSH1 0x40 MLOAD SWAP7 DUP2 AND DUP8 MSTORE PUSH1 0xFF PUSH1 0x20 DUP9 ADD SWAP2 PUSH1 0xA0 SHR AND PUSH2 0x18F9 JUMP JUMPDEST PUSH1 0x40 DUP6 ADD MSTORE PUSH1 0x60 DUP5 ADD MSTORE PUSH1 0x80 DUP4 ADD MSTORE ISZERO ISZERO PUSH1 0xA0 DUP3 ADD MSTORE RETURN JUMPDEST CALLVALUE PUSH2 0x160 JUMPI PUSH1 0x20 CALLDATASIZE PUSH1 0x3 NOT ADD SLT PUSH2 0x160 JUMPI PUSH1 0x0 PUSH1 0xA0 PUSH1 0x40 MLOAD PUSH2 0xBC5 DUP2 PUSH2 0x1807 JUMP JUMPDEST DUP3 DUP2 MSTORE DUP3 PUSH1 0x20 DUP3 ADD MSTORE DUP3 PUSH1 0x40 DUP3 ADD MSTORE DUP3 PUSH1 0x60 DUP3 ADD MSTORE DUP3 PUSH1 0x80 DUP3 ADD MSTORE ADD MSTORE PUSH1 0x4 CALLDATALOAD PUSH1 0x0 MSTORE PUSH1 0x5 PUSH1 0x20 MSTORE PUSH1 0x40 PUSH1 0x0 KECCAK256 PUSH1 0x40 MLOAD PUSH2 0xBFE DUP2 PUSH2 0x1807 JUMP JUMPDEST DUP2 SLOAD PUSH1 0x1 PUSH1 0x1 PUSH1 0xA0 SHL SUB DUP1 DUP3 AND DUP4 MSTORE PUSH1 0xA0 SWAP2 SWAP1 SWAP2 SHR PUSH1 0xFF AND SWAP3 PUSH1 0x20 DUP4 ADD SWAP2 PUSH1 0x3 DUP6 LT ISZERO PUSH2 0x699 JUMPI PUSH1 0xC0 SWAP5 DUP4 MSTORE DUP1 PUSH1 0x1 DUP4 ADD SLOAD AND SWAP1 PUSH1 0x40 DUP6 ADD SWAP2 DUP3 MSTORE PUSH1 0x2 DUP4 ADD SLOAD SWAP2 PUSH1 0x60 DUP7 ADD SWAP3 DUP4 MSTORE PUSH2 0xC7B PUSH1 0xFF PUSH1 0x4 PUSH1 0x3 DUP8 ADD SLOAD SWAP7 PUSH1 0x80 DUP11 ADD SWAP8 DUP9 MSTORE ADD SLOAD AND SWAP6 PUSH1 0xA0 DUP9 ADD SWAP7 ISZERO ISZERO DUP8 MSTORE DUP4 PUSH1 0x40 MLOAD SWAP9 MLOAD AND DUP9 MSTORE MLOAD PUSH1 0x20 DUP9 ADD SWAP1 PUSH2 0x18F9 JUMP JUMPDEST MLOAD AND PUSH1 0x40 DUP6 ADD MSTORE MLOAD PUSH1 0x60 DUP5 ADD MSTORE MLOAD PUSH1 0x80 DUP4 ADD MSTORE MLOAD ISZERO ISZERO PUSH1 0xA0 DUP3 ADD MSTORE RETURN JUMPDEST CALLVALUE PUSH2 0x160 JUMPI PUSH1 0x40 CALLDATASIZE PUSH1 0x3 NOT ADD SLT PUSH2 0x160 JUMPI PUSH2 0xCB1 PUSH2 0x1798 JUMP JUMPDEST PUSH1 0x24 CALLDATALOAD PUSH2 0xCBC PUSH2 0x19D7 JUMP JUMPDEST PUSH2 0xCD2 PUSH1 0x4 SLOAD DUP1 TIMESTAMP LT SWAP1 DUP2 ISZERO PUSH2 0xEB0 JUMPI POP PUSH2 0x1932 JUMP JUMPDEST PUSH1 0x1 PUSH1 0x1 PUSH1 0xA0 SHL SUB SWAP2 DUP3 AND PUSH2 0xCE8 DUP2 ISZERO ISZERO PUSH2 0x19FA JUMP JUMPDEST PUSH2 0xCF3 DUP3 ISZERO ISZERO PUSH2 0x196F JUMP JUMPDEST PUSH1 0x40 MLOAD PUSH4 0x23B872DD PUSH1 0xE0 SHL DUP2 MSTORE CALLER PUSH1 0x4 DUP3 ADD MSTORE ADDRESS PUSH1 0x24 DUP3 ADD MSTORE PUSH1 0x44 DUP2 ADD DUP4 SWAP1 MSTORE PUSH1 0x20 SWAP3 SWAP1 DUP4 DUP2 PUSH1 0x64 DUP2 PUSH1 0x0 DUP8 GAS CALL DUP1 ISZERO PUSH2 0xA7F JUMPI PUSH2 0xD39 SWAP2 PUSH1 0x0 SWAP2 PUSH2 0xE83 JUMPI JUMPDEST POP PUSH2 0x1A56 JUMP JUMPDEST PUSH2 0xD44 PUSH1 0x6 SLOAD PUSH2 0x19BB JUMP JUMPDEST SWAP4 DUP5 PUSH1 0x6 SSTORE PUSH1 0x40 MLOAD PUSH2 0xD55 DUP2 PUSH2 0x1807 JUMP JUMPDEST CALLER DUP2 MSTORE DUP5 DUP2 ADD PUSH1 0x1 SWAP7 DUP8 DUP3 MSTORE PUSH1 0x40 DUP4 ADD DUP7 DUP2 MSTORE PUSH1 0x60 DUP5 ADD PUSH1 0x0 DUP2 MSTORE PUSH1 0x80 DUP6 ADD SWAP2 DUP8 DUP4 MSTORE PUSH1 0xA0 DUP7 ADD SWAP4 PUSH1 0x0 DUP6 MSTORE PUSH1 0x0 MSTORE PUSH1 0x5 DUP11 MSTORE DUP7 PUSH1 0x40 PUSH1 0x0 KECCAK256 SWAP7 MLOAD AND SWAP7 DUP7 SLOAD SWAP6 MLOAD SWAP6 PUSH1 0x3 DUP8 LT ISZERO PUSH2 0x699 JUMPI PUSH2 0xDFF SWAP9 PUSH1 0x4 SWAP8 PUSH1 0xFF PUSH1 0xA0 SHL SWAP1 PUSH1 0xA0 SHL AND SWAP2 PUSH11 0xFFFFFFFFFFFFFFFFFFFFFF PUSH1 0xA8 SHL AND OR OR DUP8 SSTORE DUP12 DUP8 ADD SWAP2 MLOAD AND PUSH1 0x1 PUSH1 0x1 PUSH1 0x60 SHL SUB PUSH1 0xA0 SHL DUP3 SLOAD AND OR SWAP1 SSTORE MLOAD PUSH1 0x2 DUP6 ADD SSTORE MLOAD PUSH1 0x3 DUP5 ADD SSTORE MLOAD ISZERO ISZERO SWAP2 ADD SWAP1 PUSH1 0xFF DUP1 NOT DUP4 SLOAD AND SWAP2 ISZERO ISZERO AND OR SWAP1 SSTORE JUMP JUMPDEST DUP4 PUSH1 0x0 MSTORE PUSH1 0x8 DUP4 MSTORE PUSH1 0x40 PUSH1 0x0 KECCAK256 PUSH2 0xE17 DUP3 DUP3 SLOAD PUSH2 0x19CA JUMP JUMPDEST SWAP1 SSTORE DUP4 PUSH1 0x0 MSTORE PUSH1 0x9 DUP4 MSTORE PUSH1 0x40 PUSH1 0x0 KECCAK256 DUP3 PUSH1 0x0 MSTORE DUP4 MSTORE PUSH1 0x40 PUSH1 0x0 KECCAK256 PUSH2 0xE3C DUP3 DUP3 SLOAD PUSH2 0x19CA JUMP JUMPDEST SWAP1 SSTORE PUSH1 0x6 SLOAD SWAP2 PUSH1 0x40 MLOAD SWAP4 DUP6 DUP6 MSTORE DUP5 ADD MSTORE PUSH1 0x40 DUP4 ADD MSTORE PUSH1 0x0 PUSH1 0x60 DUP4 ADD MSTORE PUSH32 0xA58E10E8813B9859D257C26F074110F94AA2ACE8B54FD3D0519546380E53D99A PUSH1 0x80 CALLER SWAP4 LOG3 PUSH1 0x0 SSTORE STOP JUMPDEST PUSH2 0xEA3 SWAP2 POP DUP6 RETURNDATASIZE DUP8 GT PUSH2 0xEA9 JUMPI JUMPDEST PUSH2 0xE9B DUP2 DUP4 PUSH2 0x1823 JUMP JUMPDEST DUP2 ADD SWAP1 PUSH2 0x1A3E JUMP JUMPDEST DUP7 PUSH2 0xD33 JUMP JUMPDEST POP RETURNDATASIZE PUSH2 0xE91 JUMP JUMPDEST SWAP1 POP ISZERO DUP5 PUSH2 0x550 JUMP JUMPDEST CALLVALUE PUSH2 0x160 JUMPI PUSH1 0x0 CALLDATASIZE PUSH1 0x3 NOT ADD SLT PUSH2 0x160 JUMPI PUSH1 0x1 SLOAD PUSH1 0x40 MLOAD PUSH1 0x1 PUSH1 0x1 PUSH1 0xA0 SHL SUB SWAP1 SWAP2 AND DUP2 MSTORE PUSH1 0x20 SWAP1 RETURN JUMPDEST CALLVALUE PUSH2 0x160 JUMPI PUSH1 0x20 CALLDATASIZE PUSH1 0x3 NOT ADD SLT PUSH2 0x160 JUMPI PUSH1 0x4 CALLDATALOAD PUSH1 0x7 SLOAD DUP2 LT ISZERO PUSH2 0x160 JUMPI PUSH2 0xF0B PUSH1 0x60 SWAP2 PUSH2 0x18A8 JUMP JUMPDEST POP PUSH2 0xF35 DUP2 SLOAD SWAP2 PUSH1 0xFF PUSH1 0x2 PUSH1 0x1 DUP4 ADD SLOAD SWAP3 ADD SLOAD AND SWAP1 PUSH1 0x40 MLOAD SWAP4 DUP5 MSTORE PUSH1 0x20 DUP5 ADD MSTORE PUSH1 0x40 DUP4 ADD SWAP1 PUSH2 0x18F9 JUMP JUMPDEST RETURN JUMPDEST CALLVALUE PUSH2 0x160 JUMPI PUSH1 0x0 CALLDATASIZE PUSH1 0x3 NOT ADD SLT PUSH2 0x160 JUMPI PUSH2 0xF50 PUSH2 0x1906 JUMP JUMPDEST PUSH1 0x1 DUP1 SLOAD PUSH1 0x1 PUSH1 0x1 PUSH1 0xA0 SHL SUB NOT DUP2 AND SWAP1 SWAP2 SSTORE PUSH1 0x0 SWAP1 PUSH1 0x1 PUSH1 0x1 PUSH1 0xA0 SHL SUB AND PUSH32 0x8BE0079C531659141344CD1FD0A4F28419497F9722A3DAAFE3B4186F6B6457E0 DUP3 DUP1 LOG3 STOP JUMPDEST CALLVALUE PUSH2 0x160 JUMPI PUSH2 0xFAC PUSH2 0xFA5 CALLDATASIZE PUSH2 0x17AE JUMP JUMPDEST SWAP2 SWAP1 PUSH2 0x1876 JUMP JUMPDEST SWAP1 PUSH1 0x1 DUP1 PUSH1 0xA0 SHL SUB AND PUSH1 0x0 MSTORE PUSH1 0x20 MSTORE PUSH1 0x20 PUSH1 0x40 PUSH1 0x0 KECCAK256 SLOAD PUSH1 0x40 MLOAD SWAP1 DUP2 MSTORE RETURN JUMPDEST CALLVALUE PUSH2 0x160 JUMPI PUSH1 0x20 CALLDATASIZE PUSH1 0x3 NOT ADD SLT PUSH2 0x160 JUMPI PUSH1 0x3 SLOAD PUSH1 0x1 PUSH1 0x1 PUSH1 0xA0 SHL SUB AND CALLER SUB PUSH2 0xFF6 JUMPI PUSH1 0x4 DUP1 CALLDATALOAD SWAP1 SSTORE STOP JUMPDEST PUSH1 0x40 MLOAD PUSH3 0x461BCD PUSH1 0xE5 SHL DUP2 MSTORE PUSH1 0x20 PUSH1 0x4 DUP3 ADD MSTORE PUSH1 0x1C PUSH1 0x24 DUP3 ADD MSTORE PUSH32 0x4F6E6C79206576656E7420636F6E74726163742063616E2063616C6C00000000 PUSH1 0x44 DUP3 ADD MSTORE PUSH1 0x64 SWAP1 REVERT JUMPDEST CALLVALUE PUSH2 0x160 JUMPI PUSH1 0x60 CALLDATASIZE PUSH1 0x3 NOT ADD SLT PUSH2 0x160 JUMPI PUSH1 0x4 CALLDATALOAD PUSH8 0xFFFFFFFFFFFFFFFF DUP2 GT PUSH2 0x160 JUMPI CALLDATASIZE PUSH1 0x23 DUP3 ADD SLT ISZERO PUSH2 0x160 JUMPI DUP1 PUSH1 0x4 ADD CALLDATALOAD PUSH2 0x1077 DUP2 PUSH2 0x1845 JUMP JUMPDEST SWAP2 PUSH2 0x1085 PUSH1 0x40 MLOAD SWAP4 DUP5 PUSH2 0x1823 JUMP JUMPDEST DUP2 DUP4 MSTORE PUSH1 0x24 PUSH1 0x20 DUP5 ADD SWAP3 PUSH1 0x5 SHL DUP3 ADD ADD SWAP1 CALLDATASIZE DUP3 GT PUSH2 0x160 JUMPI PUSH1 0x24 ADD SWAP2 JUMPDEST DUP2 DUP4 LT PUSH2 0x173C JUMPI DUP4 PUSH1 0x3 PUSH1 0x24 CALLDATALOAD LT ISZERO PUSH2 0x160 JUMPI PUSH1 0x44 CALLDATALOAD SWAP1 PUSH1 0x1 PUSH1 0x1 PUSH1 0xA0 SHL SUB DUP3 AND DUP3 SUB PUSH2 0x160 JUMPI PUSH2 0x10D1 PUSH2 0x1906 JUMP JUMPDEST PUSH1 0x4 SLOAD DUP1 TIMESTAMP LT ISZERO SWAP1 DUP2 PUSH2 0x1732 JUMPI JUMPDEST POP ISZERO PUSH2 0x16F4 JUMPI PUSH2 0x10ED PUSH2 0x19D7 JUMP JUMPDEST PUSH2 0x10F8 PUSH1 0x24 CALLDATALOAD PUSH2 0x185D JUMP JUMPDEST PUSH1 0x1 DUP1 PUSH1 0xA0 SHL SUB DUP4 AND PUSH1 0x0 MSTORE PUSH1 0x20 MSTORE PUSH1 0xFF PUSH1 0x40 PUSH1 0x0 KECCAK256 SLOAD AND PUSH2 0x16AF JUMPI DUP1 MLOAD ISZERO PUSH2 0x1674 JUMPI PUSH1 0x0 SWAP1 DUP2 PUSH1 0x24 CALLDATALOAD PUSH2 0x15DB JUMPI POP PUSH1 0x0 DUP1 MSTORE PUSH1 0x8 PUSH1 0x20 MSTORE PUSH32 0x5EFF886EA0CE6CA488A3D6E336D6C0F75F46D19B42C06CE5EE98E42C96D256C7 SLOAD JUMPDEST DUP1 ISZERO PUSH2 0x1587 JUMPI PUSH1 0x0 JUMPDEST PUSH1 0x7 SLOAD DUP2 LT DUP1 PUSH2 0x157D JUMPI JUMPDEST ISZERO PUSH2 0x1526 JUMPI DUP4 PUSH1 0xFF PUSH1 0x2 PUSH2 0x117A DUP5 PUSH2 0x18A8 JUMP JUMPDEST POP ADD SLOAD AND SWAP1 PUSH2 0x699 JUMPI PUSH1 0x3 DUP2 LT ISZERO PUSH2 0x699 JUMPI PUSH1 0x24 CALLDATALOAD SUB PUSH2 0x151D JUMPI PUSH2 0x119D DUP2 PUSH2 0x18A8 JUMP JUMPDEST POP SLOAD SWAP4 DUP4 MLOAD DUP6 GT PUSH2 0x1512 JUMPI DUP5 PUSH1 0x0 NOT DUP2 ADD GT PUSH2 0xA5A JUMPI PUSH1 0x1 PUSH1 0x1 PUSH1 0xA0 SHL SUB PUSH2 0x11C9 PUSH1 0x0 NOT DUP8 ADD DUP7 PUSH2 0x1A94 JUMP JUMPDEST MLOAD AND SWAP1 DUP2 ISZERO PUSH2 0x1506 JUMPI POP PUSH1 0x1 PUSH2 0x11DE DUP4 PUSH2 0x18A8 JUMP JUMPDEST POP ADD SLOAD DUP4 DUP2 DUP2 MUL DIV DUP2 SUB PUSH2 0xA5A JUMPI PUSH1 0x0 SWAP6 PUSH1 0x24 CALLDATALOAD PUSH2 0x121F JUMPI POP PUSH1 0x0 DUP1 DUP1 DUP1 PUSH2 0x121A SWAP7 SWAP6 PUSH1 0x64 PUSH2 0x1215 SWAP7 DUP11 MUL DIV SWAP1 GAS CALL PUSH2 0xD33 PUSH2 0x1AA8 JUMP JUMPDEST PUSH2 0x19BB JUMP JUMPDEST PUSH2 0x115C JUMP JUMPDEST PUSH1 0x0 SWAP7 POP PUSH1 0x24 CALLDATALOAD PUSH1 0x1 SUB PUSH2 0x12DC JUMPI POP PUSH1 0x40 MLOAD PUSH4 0xA9059CBB PUSH1 0xE0 SHL DUP2 MSTORE PUSH1 0x4 DUP2 ADD SWAP3 SWAP1 SWAP3 MSTORE PUSH1 0x64 SWAP1 DUP5 MUL DIV PUSH1 0x24 DUP3 ADD MSTORE PUSH1 0x20 DUP2 PUSH1 0x44 DUP2 PUSH1 0x0 PUSH1 0x1 PUSH1 0x1 PUSH1 0xA0 SHL SUB DUP12 AND GAS CALL SWAP1 DUP2 ISZERO PUSH2 0xA7F JUMPI PUSH1 0x0 SWAP2 PUSH2 0x12BD JUMPI JUMPDEST POP ISZERO PUSH2 0x1280 JUMPI PUSH2 0x121A SWAP1 PUSH2 0x19BB JUMP JUMPDEST PUSH1 0x40 MLOAD PUSH3 0x461BCD PUSH1 0xE5 SHL DUP2 MSTORE PUSH1 0x20 PUSH1 0x4 DUP3 ADD MSTORE PUSH1 0x15 PUSH1 0x24 DUP3 ADD MSTORE PUSH21 0x151BDAD95B881D1C985B9CD9995C8819985A5B1959 PUSH1 0x5A SHL PUSH1 0x44 DUP3 ADD MSTORE PUSH1 0x64 SWAP1 REVERT JUMPDEST PUSH2 0x12D6 SWAP2 POP PUSH1 0x20 RETURNDATASIZE PUSH1 0x20 GT PUSH2 0xEA9 JUMPI PUSH2 0xE9B DUP2 DUP4 PUSH2 0x1823 JUMP JUMPDEST DUP7 PUSH2 0x1271 JUMP JUMPDEST SWAP4 SWAP2 SWAP5 SWAP6 POP PUSH1 0x0 SWAP1 PUSH1 0x2 PUSH1 0x24 CALLDATALOAD EQ PUSH1 0x0 EQ PUSH2 0x14A2 JUMPI POP PUSH1 0x0 SWAP6 PUSH1 0x1 JUMPDEST PUSH1 0x6 SLOAD DUP2 GT ISZERO DUP1 PUSH2 0x149A JUMPI JUMPDEST ISZERO PUSH2 0x1486 JUMPI DUP1 PUSH1 0x0 MSTORE PUSH1 0x5 PUSH1 0x20 MSTORE PUSH1 0xFF PUSH1 0x40 PUSH1 0x0 KECCAK256 SLOAD PUSH1 0xA0 SHR AND PUSH1 0x3 DUP2 LT ISZERO PUSH2 0x699 JUMPI PUSH1 0x2 EQ DUP1 PUSH2 0x1460 JUMPI JUMPDEST DUP1 PUSH2 0x1444 JUMPI JUMPDEST PUSH2 0x1349 JUMPI JUMPDEST PUSH2 0x1344 SWAP1 PUSH2 0x19BB JUMP JUMPDEST PUSH2 0x12F8 JUMP JUMPDEST PUSH1 0x0 DUP2 DUP2 MSTORE PUSH1 0x5 PUSH1 0x20 MSTORE PUSH1 0x40 SWAP1 KECCAK256 PUSH1 0x2 ADD SLOAD SWAP1 SWAP8 POP PUSH1 0x1 PUSH1 0x1 PUSH1 0xA0 SHL SUB DUP10 AND EXTCODESIZE ISZERO PUSH2 0x160 JUMPI PUSH1 0x40 MLOAD PUSH4 0x23B872DD PUSH1 0xE0 SHL DUP2 MSTORE ADDRESS PUSH1 0x4 DUP3 ADD MSTORE PUSH1 0x1 PUSH1 0x1 PUSH1 0xA0 SHL SUB DUP9 AND PUSH1 0x24 DUP3 ADD MSTORE PUSH1 0x44 DUP2 ADD SWAP2 SWAP1 SWAP2 MSTORE PUSH1 0x0 DUP2 DUP1 PUSH1 0x64 DUP2 ADD SUB DUP2 DUP4 PUSH1 0x1 PUSH1 0x1 PUSH1 0xA0 SHL SUB DUP15 AND GAS CALL DUP1 ISZERO PUSH2 0xA7F JUMPI PUSH2 0x1435 JUMPI JUMPDEST POP DUP7 PUSH1 0x0 MSTORE PUSH1 0x5 PUSH1 0x20 MSTORE DUP6 DUP6 PUSH32 0x3E7B219ECA3328F1D23B449FFB8C59A62D96F035ECBCCA2808A544BA79FF3BC7 PUSH1 0x80 PUSH1 0x2 PUSH1 0x40 PUSH1 0x0 KECCAK256 PUSH1 0x4 DUP2 ADD PUSH1 0x1 PUSH1 0xFF NOT DUP3 SLOAD AND OR SWAP1 SSTORE ADD SLOAD PUSH1 0x40 MLOAD SWAP1 PUSH2 0x1411 DUP3 PUSH1 0x24 CALLDATALOAD PUSH2 0x18F9 JUMP JUMPDEST PUSH1 0x1 PUSH1 0x1 PUSH1 0xA0 SHL SUB DUP15 AND PUSH1 0x20 DUP4 ADD MSTORE PUSH1 0x1 PUSH1 0x40 DUP4 ADD MSTORE PUSH1 0x60 DUP3 ADD MSTORE LOG3 PUSH1 0x1 SWAP7 PUSH2 0x133B JUMP JUMPDEST PUSH2 0x143E SWAP1 PUSH2 0x17DD JUMP JUMPDEST DUP9 PUSH2 0x13BA JUMP JUMPDEST POP DUP1 PUSH1 0x0 MSTORE PUSH1 0x5 PUSH1 0x20 MSTORE PUSH1 0xFF PUSH1 0x4 PUSH1 0x40 PUSH1 0x0 KECCAK256 ADD SLOAD AND ISZERO PUSH2 0x1336 JUMP JUMPDEST POP PUSH1 0x0 DUP2 DUP2 MSTORE PUSH1 0x5 PUSH1 0x20 MSTORE PUSH1 0x40 SWAP1 KECCAK256 PUSH1 0x1 ADD SLOAD PUSH1 0x1 PUSH1 0x1 PUSH1 0xA0 SHL SUB DUP11 DUP2 AND SWAP2 AND EQ PUSH2 0x1330 JUMP JUMPDEST POP SWAP5 POP SWAP5 PUSH2 0x121A SWAP3 SWAP2 SWAP4 POP PUSH2 0x1215 JUMPI PUSH2 0x19BB JUMP JUMPDEST POP DUP8 ISZERO PUSH2 0x1304 JUMP JUMPDEST SWAP4 PUSH32 0x3E7B219ECA3328F1D23B449FFB8C59A62D96F035ECBCCA2808A544BA79FF3BC7 PUSH1 0x80 PUSH2 0x121A SWAP6 SWAP5 SWAP7 PUSH1 0x64 PUSH1 0x40 SWAP11 SWAP10 SWAP6 SWAP11 MLOAD SWAP2 PUSH2 0x14E2 DUP4 PUSH1 0x24 CALLDATALOAD PUSH2 0x18F9 JUMP JUMPDEST PUSH1 0x1 PUSH1 0x1 PUSH1 0xA0 SHL SUB DUP14 AND PUSH1 0x20 DUP5 ADD MSTORE DUP10 MUL DIV PUSH1 0x40 DUP3 ADD MSTORE PUSH1 0x0 PUSH1 0x60 DUP3 ADD MSTORE LOG3 PUSH2 0x19BB JUMP JUMPDEST SWAP5 POP POP PUSH2 0x121A SWAP1 PUSH2 0x19BB JUMP JUMPDEST SWAP4 POP PUSH2 0x121A SWAP1 PUSH2 0x19BB JUMP JUMPDEST PUSH2 0x121A SWAP1 PUSH2 0x19BB JUMP JUMPDEST DUP5 PUSH2 0x1532 PUSH1 0x24 CALLDATALOAD PUSH2 0x185D JUMP JUMPDEST SWAP1 PUSH1 0x1 DUP1 PUSH1 0xA0 SHL SUB AND PUSH1 0x0 MSTORE PUSH1 0x20 MSTORE PUSH1 0x40 PUSH1 0x0 KECCAK256 PUSH1 0x1 PUSH1 0xFF NOT DUP3 SLOAD AND OR SWAP1 SSTORE PUSH32 0xE6C43F9D4CF69E900EC4B5976378C6C925A6DBF5AEB11487CA07B2CCD701D938 PUSH1 0x0 DUP1 LOG1 PUSH1 0x1 PUSH1 0x0 SSTORE STOP JUMPDEST POP DUP3 MLOAD DUP2 LT PUSH2 0x1167 JUMP JUMPDEST PUSH1 0x40 MLOAD PUSH3 0x461BCD PUSH1 0xE5 SHL DUP2 MSTORE PUSH1 0x20 PUSH1 0x4 DUP3 ADD MSTORE PUSH1 0x26 PUSH1 0x24 DUP3 ADD MSTORE PUSH32 0x4E6F2066756E647320617661696C61626C6520666F7220746869732061737365 PUSH1 0x44 DUP3 ADD MSTORE PUSH6 0x742074797065 PUSH1 0xD0 SHL PUSH1 0x64 DUP3 ADD MSTORE PUSH1 0x84 SWAP1 REVERT JUMPDEST PUSH1 0x0 SWAP3 POP PUSH1 0x24 CALLDATALOAD PUSH1 0x1 SUB PUSH2 0x1627 JUMPI POP PUSH1 0x1 PUSH1 0x1 PUSH1 0xA0 SHL SUB DUP4 AND PUSH1 0x0 SWAP1 DUP2 MSTORE PUSH32 0x92E85D02570A8092D09A6E3A57665BC3815A2699A4074001BF1CCABF660F5A36 PUSH1 0x20 MSTORE PUSH1 0x40 SWAP1 KECCAK256 SLOAD PUSH2 0x1153 JUMP JUMPDEST PUSH1 0x0 SWAP3 POP PUSH1 0x1 NOT PUSH1 0x24 CALLDATALOAD ADD PUSH2 0x1153 JUMPI POP PUSH1 0x1 PUSH1 0x1 PUSH1 0xA0 SHL SUB DUP4 AND PUSH1 0x0 SWAP1 DUP2 MSTORE PUSH32 0x6CDE3CEA4B3A3FB2488B2808BAE7556F4A405E50F65E1794383BC026131B13C3 PUSH1 0x20 MSTORE PUSH1 0x40 SWAP1 KECCAK256 SLOAD PUSH2 0x1153 JUMP JUMPDEST PUSH1 0x40 MLOAD PUSH3 0x461BCD PUSH1 0xE5 SHL DUP2 MSTORE PUSH1 0x20 PUSH1 0x4 DUP3 ADD MSTORE PUSH1 0x13 PUSH1 0x24 DUP3 ADD MSTORE PUSH19 0x139BC81DDA5B9B995C9CC81C1C9BDD9A591959 PUSH1 0x6A SHL PUSH1 0x44 DUP3 ADD MSTORE PUSH1 0x64 SWAP1 REVERT JUMPDEST PUSH1 0x40 MLOAD PUSH3 0x461BCD PUSH1 0xE5 SHL DUP2 MSTORE PUSH1 0x20 PUSH1 0x4 DUP3 ADD MSTORE PUSH1 0x1E PUSH1 0x24 DUP3 ADD MSTORE PUSH32 0x5468697320617373657420616C72656164792064697374726962757465640000 PUSH1 0x44 DUP3 ADD MSTORE PUSH1 0x64 SWAP1 REVERT JUMPDEST PUSH1 0x40 MLOAD PUSH3 0x461BCD PUSH1 0xE5 SHL DUP2 MSTORE PUSH1 0x20 PUSH1 0x4 DUP3 ADD MSTORE PUSH1 0x16 PUSH1 0x24 DUP3 ADD MSTORE PUSH22 0x141BDBDB081A5CC81B9BDD081B1BD8DAD959081E595D PUSH1 0x52 SHL PUSH1 0x44 DUP3 ADD MSTORE PUSH1 0x64 SWAP1 REVERT JUMPDEST SWAP1 POP ISZERO ISZERO DUP4 PUSH2 0x10DF JUMP JUMPDEST DUP3 CALLDATALOAD PUSH1 0x1 PUSH1 0x1 PUSH1 0xA0 SHL SUB DUP2 AND DUP2 SUB PUSH2 0x160 JUMPI DUP2 MSTORE PUSH1 0x20 SWAP3 DUP4 ADD SWAP3 ADD PUSH2 0x10A2 JUMP JUMPDEST CALLVALUE PUSH2 0x160 JUMPI PUSH1 0x0 CALLDATASIZE PUSH1 0x3 NOT ADD SLT PUSH2 0x160 JUMPI PUSH1 0x20 PUSH1 0x7 SLOAD PUSH1 0x40 MLOAD SWAP1 DUP2 MSTORE RETURN JUMPDEST CALLVALUE PUSH2 0x160 JUMPI PUSH1 0x0 CALLDATASIZE PUSH1 0x3 NOT ADD SLT PUSH2 0x160 JUMPI PUSH1 0x20 PUSH1 0x2 SLOAD PUSH1 0x40 MLOAD SWAP1 DUP2 MSTORE RETURN JUMPDEST PUSH1 0x4 CALLDATALOAD SWAP1 PUSH1 0x1 PUSH1 0x1 PUSH1 0xA0 SHL SUB DUP3 AND DUP3 SUB PUSH2 0x160 JUMPI JUMP JUMPDEST PUSH1 0x40 SWAP1 PUSH1 0x3 NOT ADD SLT PUSH2 0x160 JUMPI PUSH1 0x4 CALLDATALOAD PUSH1 0x3 DUP2 LT ISZERO PUSH2 0x160 JUMPI SWAP1 PUSH1 0x24 CALLDATALOAD PUSH1 0x1 PUSH1 0x1 PUSH1 0xA0 SHL SUB DUP2 AND DUP2 SUB PUSH2 0x160 JUMPI SWAP1 JUMP JUMPDEST PUSH8 0xFFFFFFFFFFFFFFFF DUP2 GT PUSH2 0x17F1 JUMPI PUSH1 0x40 MSTORE JUMP JUMPDEST PUSH4 0x4E487B71 PUSH1 0xE0 SHL PUSH1 0x0 MSTORE PUSH1 0x41 PUSH1 0x4 MSTORE PUSH1 0x24 PUSH1 0x0 REVERT JUMPDEST PUSH1 0xC0 DUP2 ADD SWAP1 DUP2 LT PUSH8 0xFFFFFFFFFFFFFFFF DUP3 GT OR PUSH2 0x17F1 JUMPI PUSH1 0x40 MSTORE JUMP JUMPDEST SWAP1 PUSH1 0x1F DUP1 NOT SWAP2 ADD AND DUP2 ADD SWAP1 DUP2 LT PUSH8 0xFFFFFFFFFFFFFFFF DUP3 GT OR PUSH2 0x17F1 JUMPI PUSH1 0x40 MSTORE JUMP JUMPDEST PUSH8 0xFFFFFFFFFFFFFFFF DUP2 GT PUSH2 0x17F1 JUMPI PUSH1 0x5 SHL PUSH1 0x20 ADD SWAP1 JUMP JUMPDEST PUSH1 0x3 DUP2 LT ISZERO PUSH2 0x699 JUMPI PUSH1 0x0 MSTORE PUSH1 0xA PUSH1 0x20 MSTORE PUSH1 0x40 PUSH1 0x0 KECCAK256 SWAP1 JUMP JUMPDEST PUSH1 0x3 DUP2 LT ISZERO PUSH2 0x699 JUMPI PUSH1 0x0 MSTORE PUSH1 0x9 PUSH1 0x20 MSTORE PUSH1 0x40 PUSH1 0x0 KECCAK256 SWAP1 JUMP JUMPDEST PUSH1 0x3 DUP2 LT ISZERO PUSH2 0x699 JUMPI PUSH1 0x0 MSTORE PUSH1 0x8 PUSH1 0x20 MSTORE PUSH1 0x40 PUSH1 0x0 KECCAK256 SWAP1 JUMP JUMPDEST PUSH1 0x7 SLOAD DUP2 LT ISZERO PUSH2 0x18E3 JUMPI PUSH1 0x3 SWAP1 PUSH1 0x7 PUSH1 0x0 MSTORE MUL PUSH32 0xA66CC928B5EDB82AF9BD49922954155AB7B0942694BEA4CE44661D9A8736C688 ADD SWAP1 PUSH1 0x0 SWAP1 JUMP JUMPDEST PUSH4 0x4E487B71 PUSH1 0xE0 SHL PUSH1 0x0 MSTORE PUSH1 0x32 PUSH1 0x4 MSTORE PUSH1 0x24 PUSH1 0x0 REVERT JUMPDEST SWAP1 PUSH1 0x3 DUP3 LT ISZERO PUSH2 0x699 JUMPI MSTORE JUMP JUMPDEST PUSH1 0x1 SLOAD PUSH1 0x1 PUSH1 0x1 PUSH1 0xA0 SHL SUB AND CALLER SUB PUSH2 0x191A JUMPI JUMP JUMPDEST PUSH1 0x40 MLOAD PUSH4 0x118CDAA7 PUSH1 0xE0 SHL DUP2 MSTORE CALLER PUSH1 0x4 DUP3 ADD MSTORE PUSH1 0x24 SWAP1 REVERT JUMPDEST ISZERO PUSH2 0x1939 JUMPI JUMP JUMPDEST PUSH1 0x40 MLOAD PUSH3 0x461BCD PUSH1 0xE5 SHL DUP2 MSTORE PUSH1 0x20 PUSH1 0x4 DUP3 ADD MSTORE PUSH1 0xE PUSH1 0x24 DUP3 ADD MSTORE PUSH14 0x141BDBDB081A5CC81B1BD8DAD959 PUSH1 0x92 SHL PUSH1 0x44 DUP3 ADD MSTORE PUSH1 0x64 SWAP1 REVERT JUMPDEST ISZERO PUSH2 0x1976 JUMPI JUMP JUMPDEST PUSH1 0x40 MLOAD PUSH3 0x461BCD PUSH1 0xE5 SHL DUP2 MSTORE PUSH1 0x20 PUSH1 0x4 DUP3 ADD MSTORE PUSH1 0x1D PUSH1 0x24 DUP3 ADD MSTORE PUSH32 0x416D6F756E74206D7573742062652067726561746572207468616E2030000000 PUSH1 0x44 DUP3 ADD MSTORE PUSH1 0x64 SWAP1 REVERT JUMPDEST PUSH1 0x0 NOT DUP2 EQ PUSH2 0xA5A JUMPI PUSH1 0x1 ADD SWAP1 JUMP JUMPDEST SWAP2 SWAP1 DUP3 ADD DUP1 SWAP3 GT PUSH2 0xA5A JUMPI JUMP JUMPDEST PUSH1 0x2 PUSH1 0x0 SLOAD EQ PUSH2 0x19E8 JUMPI PUSH1 0x2 PUSH1 0x0 SSTORE JUMP JUMPDEST PUSH1 0x40 MLOAD PUSH4 0x3EE5AEB5 PUSH1 0xE0 SHL DUP2 MSTORE PUSH1 0x4 SWAP1 REVERT JUMPDEST ISZERO PUSH2 0x1A01 JUMPI JUMP JUMPDEST PUSH1 0x40 MLOAD PUSH3 0x461BCD PUSH1 0xE5 SHL DUP2 MSTORE PUSH1 0x20 PUSH1 0x4 DUP3 ADD MSTORE PUSH1 0x15 PUSH1 0x24 DUP3 ADD MSTORE PUSH21 0x496E76616C696420746F6B656E2061646472657373 PUSH1 0x58 SHL PUSH1 0x44 DUP3 ADD MSTORE PUSH1 0x64 SWAP1 REVERT JUMPDEST SWAP1 DUP2 PUSH1 0x20 SWAP2 SUB SLT PUSH2 0x160 JUMPI MLOAD DUP1 ISZERO ISZERO DUP2 SUB PUSH2 0x160 JUMPI SWAP1 JUMP JUMPDEST ISZERO PUSH2 0x1A5D JUMPI JUMP JUMPDEST PUSH1 0x40 MLOAD PUSH3 0x461BCD PUSH1 0xE5 SHL DUP2 MSTORE PUSH1 0x20 PUSH1 0x4 DUP3 ADD MSTORE PUSH1 0xF PUSH1 0x24 DUP3 ADD MSTORE PUSH15 0x151C985B9CD9995C8819985A5B1959 PUSH1 0x8A SHL PUSH1 0x44 DUP3 ADD MSTORE PUSH1 0x64 SWAP1 REVERT JUMPDEST DUP1 MLOAD DUP3 LT ISZERO PUSH2 0x18E3 JUMPI PUSH1 0x20 SWAP2 PUSH1 0x5 SHL ADD ADD SWAP1 JUMP JUMPDEST RETURNDATASIZE ISZERO PUSH2 0x1AE3 JUMPI RETURNDATASIZE SWAP1 PUSH8 0xFFFFFFFFFFFFFFFF DUP3 GT PUSH2 0x17F1 JUMPI PUSH1 0x40 MLOAD SWAP2 PUSH2 0x1AD7 PUSH1 0x1F DUP3 ADD PUSH1 0x1F NOT AND PUSH1 0x20 ADD DUP5 PUSH2 0x1823 JUMP JUMPDEST DUP3 MSTORE RETURNDATASIZE PUSH1 0x0 PUSH1 0x20 DUP5 ADD RETURNDATACOPY JUMP JUMPDEST PUSH1 0x60 SWAP1 JUMP INVALID LOG2 PUSH5 0x6970667358 0x22 SLT KECCAK256 0xB9 0xE2 PUSH32 0x4D7ED7FC6F4AFC64037D32C3825307DA2608FE47014C4A49145147CC7564736F PUSH13 0x63430008140033000000000000 "},"methodIdentifiers":{"assetDistributed(uint8,address)":"f5e7c479","depositCounter()":"ecb3dc88","depositERC20(address,uint256)":"97feb926","depositERC721(address,uint256)":"d29a4bf6","depositNative()":"db6b5246","deposits(uint256)":"b02c43d0","distributePrizes(address[],uint8,address)":"25ce6165","emergencyWithdraw()":"db2e21bc","eventContract()":"e274fd24","eventId()":"089cdd0c","getDeposit(uint256)":"9f9fb968","getPrizeDistributionCount()":"21e98ad9","getTokenAmount(uint8,address)":"3633153c","getTotalAmount(uint8)":"7bc7d278","isAssetDistributed(uint8,address)":"03563332","lockedUntil()":"ce0617ec","owner()":"8da5cb5b","prizeDistributions(uint256)":"7dc01ec7","renounceOwnership()":"715018a6","setLockedUntil(uint256)":"2cb60e92","setPrizeDistributions((uint256,uint256,uint8)[])":"f0e7a78c","tokenAmounts(uint8,address)":"2952f2eb","totalAmounts(uint8)":"da2eec4c","transferOwnership(address)":"f2fde38b"}}}}}